:100000000C941D030C9464030C9464030C9464031B
:100010000C9464030C9464030C9464030C946403C4
:100020000C9464030C9464030C947D280C944F2965
:100030000C94A1230C9464030C9464030C94640347
:100040000C9464030C9464030C9464030C94640394
:100050000C9464030C94FA230C9464030C946403CE
:100060000C9464030C9464030C9464030C94640374
:100070000C9464030C9464030C9464030C94640364
:100080000C9464030C9464030C9464030C94640354
:100090000C9464030C9464030C9464030C94640344
:1000A0000C9464030C9464030C9464031306130609
:1000B000450645069206B006D107D107BB06500794
:1000C00061076107C107D107D107CA077108710825
:1000D000830883087A0883088308830871087108F5
:1000E0007F08830883087F08BC29E329DB2AE329EA
:1000F000DB2A2F2A522ADB2AA92AB82A165C1E00DC
:100100001F002000210022002300240025002600DB
:1001100027002D002E0035002A002B0000001400BF
:100120001A000800150017001C0018000C0012002F
:1001300013002F0030003100394100000400160088
:10014000070009000A000B000D000E000F0033002D
:10015000340028000000E10000001D001B00060024
:1001600019000500110010003600370038000000AB
:1001700052720151E000E3000000E20000000000C4
:100180002C000000000000000000507400005178B6
:100190004F7135003A003B003C003D003E003F00FF
:1001A00040004100420043004400450001004C0073
:1001B00001000000010052000100010001000100E7
:1001C000010049000100460047004800010001000D
:1001D0000000500051004F0001000100010001002B
:1001E000010001004A004B00010000000100000076
:1001F000AA00A900A8000100AC00AE00AB000251AB
:100200004D004E000000010001000100010000004F
:1002100001000000000001000000000000000000DC
:1002200001000000010001000100010001000100C7
:1002300001000100010001000100010001000100B6
:100240000100005C010001000000C35C010001002E
:1002500001000100C65CC85CCA5CC45CCC5C0100E7
:100260000100010001000000010001000100010087
:100270000100C75CC95CCB5CC55CCD5C01000100C2
:100280000000010000000100010001000100010068
:10029000145C0100010001000100000001000100E8
:1002A000010001000000010000000000010000004A
:1002B0000000000000000100000001000100000437
:1002C0007F3F1F643214643214783C1E1E140A05EA
:1002D0002223252628292A2C2D2F30323335363853
:1002E0003A3B3D3E4042434547494A4C4E505153AC
:1002F0005557595A5C5E6062646668696B6D6F71D0
:10030000737577797B7D7F81838587898A8C8E90D1
:10031000929496989A9C9E9FA1A3A5A7A8AAACAEDA
:10032000AFB1B3B4B6B8B9BBBCBEBFC1C2C3C5C61A
:10033000C7C9CACBCCCDCED0D1D2D2D3D4D5D6D7C3
:10034000D7D8D9D9DADADBDBDBDCDCDCDCDCDDDD01
:10035000DDDDDCDCDCDCDCDBDBDBDADAD9D9D8D7F1
:10036000D7D6D5D4D3D2D2D1D0CECDCCCBCAC9C793
:10037000C6C5C3C2C1BFBEBCBBB9B8B6B4B3B1AFCA
:10038000AEACAAA8A7A5A3A19F9E9C9A989694926A
:10039000908E8C8A89878583817F7D7B7977757341
:1003A000716F6D6B6968666462605E5C5A5957551F
:1003B0005351504E4C4A4947454342403E3D3B3ADB
:1003C0003836353332302F2D2C2A29282625232262
:1003D000FFAA7F5540000101010101010101010255
:1003E00002020202020202020303030303030303E5
:1003F00004040404040404050505050506060606B0
:1004000006070707070708080808090909090A0A6B
:100410000A0B0B0B0C0C0C0D0D0D0E0E0E0F0F0F0F
:10042000101011111112121313141415151616179A
:1004300017181819191A1A1B1B1C1D1D1E1E1F2008
:1004400020212222232424252626272829292A2B55
:100450002C2D2D2E2F30313232333435363738397A
:100460003A3B3C3D3E3F4041424344454647484974
:100470004A4C4D4E4F50515354555658595A5B5D46
:100480005E5F616264656668696B6C6D6F707273E4
:100490007577787A7B7D7E8082838587888A8C8E4B
:1004A0008F91939596989A9C9EA0A2A3A5A7A9AB7D
:1004B000ADAFB1B3B5B7BABCBEC0C2C4C6C9CBCD6F
:1004C000CFD1D4D6D8DBDDDFE2E4E7E9EBEEF0F321
:1004D000F5F8FAFDFF0A0344005A00360030000028
:1004E0000010034B0042004400460061006E0073A0
:1004F0000000000403090409023B00020100A0FA05
:100500000904000001030101000921110100012279
:1005100040000705810308000A09040100010300E7
:10052000000009211101000122B600070582032005
:10053000000A12010002000000085A446022010073
:100540000102000105010902A10185020901A100C2
:100550000509190129081500250195087501810271
:100560000501093009311581257F9502750881063D
:1005700009381581257F950175088106050C0A3813
:10058000021581257F950175088106C0C005010906
:1005900080A101850319012AB700150126B700952E
:1005A0000175108100C0050C0901A1018504190124
:1005B0002AA002150126A002950175108100C00530
:1005C000010906A1018505050719E029E7150025A0
:1005D000019508750181020507190029EF1500250D
:1005E0000195F07501810205081901290595057528
:1005F000019102950175039101C005010906A10150
:10060000050719E029E71500250195087501810204
:100610009501750881010507190029FF150026FFBE
:1006200000950675088100050819012905950575CD
:10063000019102950175039101C011241FBECFEFF6
:10064000DAE0DEBFCDBF04B603FE27C080911D03F4
:1006500090911E03A0911F03B09120038730904B0F
:10066000A740B04BD1F410921D0310921E031092BC
:100670001F031092200314BE84B7877F84BF0FB678
:10068000F894A89580916000886180936000109232
:1006900060000FBEE0E0F8E3099511E0A0E0B1E0F2
:1006A000E8E0F8E502C005900D92A43CB107D9F747
:1006B00023E0A4ECB1E001C01D92AD31B207E1F737
:1006C0000E946C140C94022C0C94000081E008959C
:1006D00081E008950C94680308950C946C031F93B3
:1006E000CF93DF9300D000D01F92CDB7DEB7498300
:1006F0005A836B833091C60189819A81311114C06C
:10070000662359F0222349F00E94150A182F682FFA
:1007100089819A810E94BE0903C00E94E909182FAD
:1007200069817A81812F04C00E94150A69817A81CA
:100730000F900F900F900F900F90DF91CF911F911E
:100740000C94B810FC01262F408151816281738185
:1007500084810C946F0381E00895CF93DF93EC01C3
:1007600060E00E94A203BE01DF91CF910C946D0363
:100770000E94E5120E9444040E94C11F0C9422139F
:100780000C941E1308950E945F080E94C2032FEF6D
:1007900084E39CE0215080409040E1F700C00000DD
:1007A0000C9420240F931F93CF93DF938C0161E06F
:1007B0000E94A203EC01B8010E946A03882309F495
:1007C0004BC0B801CE010E94221F882309F444C007
:1007D000B801CE010E946F208823F1F1B801CE014B
:1007E0000E94C1208823C1F1B801CE010E94EC21F2
:1007F000882391F1B801CE010E94691D882361F11F
:10080000F8018281882309F1CB358DE5D807C1F045
:1008100050F4C115FCE5DF0781F0CF3DDC45A9F4BC
:100820000E94B00F19C0CC35EDE5DE0761F0CD3583
:10083000DD4559F40E94340E08C00E94C3030CC069
:100840000E943D0E02C00E94400EC801DF91CF9170
:100850001F910F910C94660380E0DF91CF911F915F
:100860000F91089508950C94320481E00895CF9378
:10087000C82F0E943504882329F0C1FD02C02A9A9E
:1008800001C02A98CF910895229A2A9A0895CF9369
:10089000C82F0E9433048C2F0E943704CF910895F3
:1008A000CF93DF93CDB7DEB72B970FB6F894DEBFAB
:1008B0000FBECDBF4F83588769877A878B876111B9
:1008C0000E94630E9E012F5F3F4F86E0F901119257
:1008D0008A95E9F785E0FE013796D90101900D92DE
:1008E0008A95E1F789819A814C815D81452B31F0B0
:1008F0009F3F31F491E08F3F19F403C091E001C0B4
:1009000090E090FF09C049815A816B817C818D8183
:100910009E810E94630D05C0C9010E94AB03811135
:10092000F2CF2B960FB6F894DEBF0FBECDBFDF918E
:10093000CF910895FC01808191810E94570A08950A
:10094000CF93882309F4A4C0C82F8238C1F40E9431
:10095000222281FD9DC069E38091000190910101F7
:100960000E9418230E94950E2FEF81EE94E02150F3
:1009700080409040E1F700C0000069E319C083386F
:1009800001F50E94222280FD83C063E58091000171
:10099000909101010E9418230E94950E2FEF81EE85
:1009A00094E0215080409040E1F700C0000063E5F2
:1009B00080910001909101010E942323CF910C941A
:1009C000950E8438C1F40E94222282FD61C067E442
:1009D00080910001909101010E9418230E94950EC0
:1009E0002FEF81EE94E0215080409040E1F700C06D
:1009F000000067E4DDCF8CEF8C0F813AD0F46C2FD0
:100A000080910001909101010E949822882349F071
:100A10006C2F80910001909101010E9423230E947C
:100A2000950E6C2F80910001909101010E94182376
:100A3000C5CF80E28C0F883048F4C77081E001C0D8
:100A4000880FCA95EAF70E94460EB8CFEBE5EC0F87
:100A5000E33040F4F0E0EA5AFE4F808190E0CF911D
:100A60000C945622E8E5EC0FE73150F4F0E0EE0F7D
:100A7000FF1FE85DFE4F80819181CF910C946C2225
:100A8000CD3E30F08C2F0E94F914CF910C94CB15F1
:100A9000CF910895882309F464C0823879F40E94C4
:100AA000222281FF5EC069E38091000190910101E3
:100AB0000E9418230E94950E69E310C08338B1F498
:100AC0000E94222280FF4DC063E580910001909139
:100AD00001010E9418230E94950E63E58091000198
:100AE000909101010E9423230C94950E843879F48F
:100AF0000E94222282FF35C067E48091000190911C
:100B000001010E9418230E94950E67E4E7CF9CEF35
:100B1000980F913A10F4682FE1CF90E2980F983037
:100B200050F4877091E001C0990F8A95EAF7892FF8
:100B30000E944C0ED9CF9BE5980F933020F480E0B3
:100B400090E00C94562298E5980F973120F480E0BD
:100B500090E00C946C228D3E20F00E9454150C9471
:100B6000CB1508951F93CF93DF93182FEB010E94AD
:100B7000A004209741F08FE99FE00197F1F700C0B2
:100B800000002197F6CF812FDF91CF911F910C9418
:100B90004A05893319F060E070E002C060E570E05A
:100BA0000C94B205882321F00E94460E0C94950EF9
:100BB0000895882321F00E944C0E0C94950E089500
:100BC000CF92DF92EF92FF920F931F93CF93DF9319
:100BD0007C01062FC72FFC01D281158112951F7051
:100BE0000E941B0E882399F0DD2389F08C2F807FD3
:100BF000803421F080E2800F883048F082E00E944B
:100C0000E50E0E941B0E91E0D82ED92601C0D12CF2
:100C1000CC2EC2948FE0C8228C2D90E0FC01EA5AC1
:100C2000FF4F0C94692B8C2F807FCF70882311F09D
:100C3000C295C07FDD2399F0CC2309F48DC180E2F9
:100C4000800F883010F0011104C08C2F0E94460ED6
:100C500003C08C2F0E94560E0E94950E7DC1802FDE
:100C60000E944A05CC2309F49CC180E2800F8830A1
:100C700010F0011104C08C2F0E944C0E03C08C2F69
:100C80000E945C0E0E94950E8CC18C2F807FCF70CD
:100C9000803211F0C295C07F002319F00130C9F0F5
:100CA00022C0DD2371F0112341F0113031F40E9494
:100CB000760E8C2B0E947E0E74C10E94760E8C2BB9
:100CC0001DC0112319F0113009F46BC10E948B0E65
:100CD00025C0DD2321F0163008F063C10EC01530A9
:100CE00008F05FC11BC0DD2361F0112331F0F70173
:100CF000858180FF31C18F7085838C2F0E94D20542
:100D000050C1112359F0093309F037C1FFEF27EE25
:100D100083E0F15020408040E1F72DC18C2F0E94EC
:100D2000D9053FC18C2F86958695837019F0813047
:100D300061F037C1DD2321F0802F9C2F937002C01A
:100D400080E090E00E94562234C1DD2321F0802F04
:100D50009C2F937002C080E090E00E946C2229C119
:100D6000802FDD2319F00E94F91402C00E9454154F
:100D70000E94CB151EC18C2F837009F045C0D11184
:100D800014C1402F429546954770440F440F602F81
:100D90006F70862F90E0A0E0B0E0042E04C0880FB2
:100DA000991FAA1FBB1F0A94D2F704FF10C00FE0BF
:100DB00010E020E030E004C0000F111F221F331F9D
:100DC0004A95D2F7009510952095309503C000E024
:100DD00010E09801C695C695C370BC01CD01602B8B
:100DE000712B822B932BC23049F058F4C13019F08B
:100DF0000E94D408DAC00E94C208D7C00E94E60848
:100E0000D4C00E94C008D1C0DD2319F08C2F81709E
:100E100001C08695882309F4C8C0402F42954695A5
:100E20004770440F440F602F6F70862F90E0A0E052
:100E3000B0E0042E04C0880F991FAA1FBB1F0A949C
:100E4000D2F704FF10C00FE010E020E030E004C053
:100E5000000F111F221F331F4A95D2F700951095DE
:100E60002095309503C000E010E09801C695C69526
:100E7000C370BC01CD01602B712B822B932BC23030
:100E800049F058F4C13019F00E9499098EC00E94AF
:100E900087098BC00E94AB0988C00E94FA0885C0F0
:100EA000CF70DD2339F08C2F0E942009802F0E9403
:100EB000D2057BC0802F0E94D9058C2F0E9441094A
:100EC00074C0023F01F128F4003F41F0013FA1F05E
:100ED0003FC0033FF9F0043F39F13AC0DD2341F050
:100EE000153008F05EC08C2F8F710E94660959C0C2
:100EF000163008F056C0F7CFDD2339F08C2F8F71F4
:100F00000E9420094EC0DD23C9F38C2F8F710E94EF
:100F1000410947C0DD2329F08C2F8F710E940B09F6
:100F200040C00E9406093DC0DD2349F0CF718C2FDF
:100F30000E94200963E08C2F0E94CA0E32C081E01B
:100F40000E94E50E123068F182E00E94E50E29C091
:100F5000DD2331F0112391F2802F0E94A00421C0E3
:100F6000112399F2093349F49FEFE7EEF3E0915032
:100F7000E040F040E1F700C00000802F0E944A05E9
:100F800010C04C2F4F70602FC7010E94B4100E94F8
:100F9000850A0FC04C2F4F70602FC7010E94B710F9
:100FA00008C088EF8C0D843020F40E9422220E9419
:100FB0004704DD20C9F00E94170E80FD15C0F7011F
:100FC00012820E94110E0E942009C7010E9415087A
:100FD0000E94110EDF91CF911F910F91FF90EF9022
:100FE000DF90CF900C944109DF91CF911F910F9129
:100FF000FF90EF90DF90CF9008950F931F93CF93C2
:10100000DF93EC01688179818A810E94620A8C01F8
:101010000E94BD090E94AE08B801CE010E94E00501
:10102000DF91CF911F910F910895CF93DF93EC0142
:10103000988189812B813C81232B31F08F3F31F4C2
:1010400081E09F3F19F403C081E001C080E080FD92
:1010500019C0CE010E94D20381110CC00E941B0E48
:10106000882381F08A81882369F082E0DF91CF9123
:101070000C94E50ECE010E94FD07CE01DF91CF91C9
:101080000C94AD03DF91CF91089580E090E00E9431
:10109000562280E090E00E946C220E94630E0E9423
:1010A000730E0E94950E0E94FC160C94CB15809135
:1010B0000001909101010E942E230C9445080E948A
:1010C000530E0C945708E92FE295EF704E2F50E025
:1010D000FA013297EE30F105B0F4EA59FF4F0C9463
:1010E000692B803F91F018F4883E68F40EC0843F6D
:1010F00051F40BC0883E48F0813F29F406C093FBB1
:10110000882780F9089580E0089581E00895FC0122
:10111000808191810E94570A0E9463080895CF93AD
:10112000DF9300D000D01F92CDB7DEB70F900F90A5
:101130000F900F900F90DF91CF910895CF93DF9391
:1011400000D000D000D0CDB7DEB726960FB6F89409
:10115000DEBF0FBECDBFDF91CF91089508950895F2
:101160000C94AF080C94B0080E94B2086093FD0183
:101170007093FE018093FF01909300020C94450848
:101180000C94B4080F931F930091FD011091FE0180
:101190002091FF0130910002602B712B822B932B49
:1011A0001F910F910C94B4080F931F930091FD01B0
:1011B0001091FE012091FF01309100026023712304
:1011C000822393231F910F910C94B4080F931F93C4
:1011D0000091FD011091FE012091FF01309100026C
:1011E00060277127822793271F910F910C94B408D1
:1011F0000C94AF080E94F8086093F9017093FA010B
:101200008093FB019093FC010C94450860E070E032
:10121000CB010C94FA080F931F9341E050E060E07B
:1012200070E08A019B0104C0000F111F221F331FB1
:101230008A95D2F7C901B8011F910F910C94FA0851
:101240000F931F9341E050E060E070E004C0440F52
:10125000551F661F771F8A95D2F78091F9019091EB
:10126000FA01A091FB01B091FC018A019B01082BBE
:10127000192B2A2B3B2BC901B8011F910F910C94FC
:10128000FA080F931F9341E050E060E070E004C063
:10129000440F551F661F771F8A95D2F740955095CA
:1012A000609570958091F9019091FA01A091FB01F0
:1012B000B091FC018A019B01082319232A233B23B7
:1012C000C901B8011F910F910C94FA080F931F9355
:1012D00041E050E060E070E004C0440F551F661F1D
:1012E000771F8A95D2F78091F9019091FA01A09128
:1012F000FB01B091FC018A019B01082719272A27CD
:101300003B27C901B8011F910F910C94FA080F9364
:101310001F930091F9011091FA012091FB01309186
:10132000FC01602B712B822B932B1F910F910C943E
:10133000FA080F931F930091F9011091FA0120917F
:10134000FB013091FC0160237123822393231F91C1
:101350000F910C94FA080F931F930091F9011091CB
:10136000FA012091FB013091FC016027712782274F
:1013700093271F910F910C94FA0808952FE0929FE4
:10138000800D1124E82FE695E695E695877051E0EB
:1013900001C0550F8A95EAF785E0E89FF001112416
:1013A000E953FE4F20E030E070E04081CB01022E97
:1013B00002C0969587950A94E2F7817081958427FB
:1013C0008523842781932F5F3F4F2530310569F7AF
:1013D00008952FE0929F800D1124682F66956695E1
:1013E0006695982F977085E0689FB001112440E0C2
:1013F00050E080E0FB01E40FF51FE953FE4F208130
:1014000030E0092E02C0369527950A94E2F7217044
:101410003327042E01C0220F0A94EAF7822B4F5F74
:101420005F4F4530510531F70895BF92CF92DF925B
:10143000EF92FF920F931F93CF93DF938C01C09095
:10144000F901D090FA01E090FB01F090FC0180914D
:10145000FD019091FE01A091FF01B0910002C82A08
:10146000D92AEA2AFB2ACFE1D0E0D701C6010C2E07
:1014700004C0B695A795979587950A94D2F780FDF5
:1014800004C0219790F7B12C07C0BC2EB8018C2F57
:101490000E94EF110197A9F38B2DDF91CF911F913E
:1014A0000F91FF90EF90DF90CF90BF900895CF9372
:1014B000DF93EC010E94150ABE010E94EF11DF913B
:1014C000CF9108951F93CF93DF93EB019091C601C5
:1014D000992321F0CB010E94570A13C0882349F0B9
:1014E000CB010E94150A182F682FCE010E94BE0959
:1014F00004C0CB010E94E909182FBE01812F0E9470
:10150000EF11DF91CF911F910895EF92FF920F930A
:101510001F93CF93DF938C01892B09F46CC0F12CBE
:10152000EE24E394E8012196F8018491843740F495
:10153000843008F051C0813081F0823019F15BC0F5
:10154000853709F444C0A8F19CE7980F903708F05C
:1015500052C08F770E944A0541C00E5F1F4FFE01A7
:10156000849190E2980F983050F48770FE2D01C05E
:10157000FF0F8A95EAF78F2F0E94660E14C00E9413
:10158000A0042DC00E5F1F4FFE01849190E2980FC2
:10159000983060F48770FE2D01C0FF0F8A95EAF73E
:1015A0008F2F0E946C0E0E94950E19C00E944A0552
:1015B00016C00E5F1F4FFE01C491CC2381F08FE94E
:1015C0009FE00197F1F700C00000C150F6CF0E5F19
:1015D0001F4FFE01F49003C00E94A0048E018F2DC6
:1015E000882309F49FCFEFE9FFE03197F1F700C0BE
:1015F00000008150F5CFDF91CF911F910F91FF90A7
:10160000EF9008951F93CF93DF93C091010216E0EE
:1016100080910202C81799F0D0E01C9FF0011D9F35
:10162000F00D1124ED5FFD4F408151816281738186
:10163000848195810E949E082196C770E9CFDF9131
:10164000CF911F91089540913302509134026091DF
:1016500035027091360280913702909138020C94D5
:101660009E080F931F93CF93DF938091380282954A
:101670008F7009F05DC080913502882309F458C04D
:101680008091010210910202609133027091340244
:10169000C0913602D091370291E06F3F09F090E09F
:1016A000292F06E0811709F443C0209721F07F3FDE
:1016B00021F030E003C031E001C0322F90E030FD76
:1016C00034C0089FF001099FF00D1124DF01AD5FC8
:1016D000BD4F11963C911197371327C03C9136139B
:1016E00024C012963C91129731111FC013964D9150
:1016F0005C9114974C1B5D0B483C5105B0F48091F4
:1017000038028F70806180933802E85FFD4F8081DE
:101710008F708061808383E392E00E941508DF91DF
:10172000CF911F910F910C94020B01968770BACF45
:10173000DF91CF911F910F9108959F92AF92BF9229
:10174000CF92DF92EF92FF920F931F93CF93DF938D
:10175000CDB7DEB761970FB6F894DEBF0FBECDBF31
:101760008C0185E0F801DE011D9601900D928A95AD
:10177000E1F7F801E2809091330260913402209108
:101780003602309137022115310531F06F3F31F4C7
:1017900081E09F3F19F403C081E001C080E0F82F91
:1017A000F1709F2E80FD3FC1F80140815181A380DF
:1017B000B48083E3C82E82E0D82EF0903502F50184
:1017C000E21BF30BFF2009F4D9C080913802E83CFA
:1017D000F10508F095C0282F207F09F052C056135C
:1017E00013C0491311C0FE2CE1100EC08F70806130
:1017F000809338020E94230BC6010E941508809135
:101800003802F80185834CC1AB2831F05F3F31F4D9
:1018100081E04F3F19F403C081E001C080E080FD0A
:1018200003C081E08E2502C080E090E0F82FF170C7
:10183000FF2E80FF1CC0809101022091020236E041
:10184000821709F40BC190E0389FF001399FF00D29
:101850001124ED5FFD4F6181561306C06081461370
:1018600003C06281E61203C001968770E9CFFE2CA7
:10187000EE2009F415C1809138028160809338020E
:1018800054C0561306C0491304C0E11002C0F80149
:1018900099C0C8010E948708882361F1EE2051F1A8
:1018A00020913802822F82958F7090E0029774F019
:1018B000809133029091340298878F831986BB867A
:1018C000AA862C87CE0107960E94150886E0F801AB
:1018D000A3E3B2E001900D928A95E1F70E94310BEB
:1018E0000E94230B0AC0561711F1C8010E948708F5
:1018F00081112CC0C8010E941508FF24F394D0C0A8
:10190000282F207F81F77A2DB98AA88A6E2D8989A0
:101910000E948F0883E392E00E94150886E0F6019A
:1019200011928A95E9F70E94230BF12CB9C0491353
:10193000DCCFE110DACFF8018583C8010E941508D9
:1019400086E0F60111928A95E9F7AAC0EE2091F29D
:1019500020913802822F82958F7090E002970CF4CC
:10196000B5CF80913302909134029A8389831B8290
:10197000BD82AC822E83CE010196A6CFE83CF10554
:1019800008F044C0FE2CEE2009F4B4CF561330C04A
:1019900049132EC02091380220FD21C0822F82954C
:1019A0008F70482F50E041155105C9F0F80125838B
:1019B0004F30510541F08F5F982F9295907F822F85
:1019C0008F70892B8583C8010E94150886E0F80175
:1019D000A3E3B2E001900D928A95E1F73CC086E066
:1019E000F801A3E3B2E001900D928A95E1F758C0A7
:1019F000C8010E948708811169CF809138028160F7
:101A000080933802C8010E9415084AC07A2DB98A0D
:101A1000A88A6E2D89890E948F0886E0F6011192AE
:101A20008A95E9F718C0EE2009F464CFC8010E9436
:101A30008708F82E882309F45DCF86E0F801A3E338
:101A4000B2E001900D928A95E1F783E392E00E9463
:101A50009A040E94310B0E94230B22C04D875E879F
:101A60008D859E850E94570A292F22952F7022303E
:101A700028F49F7039F0811105C00BC0243028F480
:101A80009F7049F4805E883020F0C8010E941508DC
:101A90009F2CF92C05C0F8019581907F99F7F9CF1B
:101AA0008F2D61960FB6F894DEBF0FBECDBFDF91CC
:101AB000CF911F910F91FF90EF90DF90CF90BF904B
:101AC000AF909F9008951F93CF93DF93CDB7DEB76C
:101AD0002C970FB6F894DEBF0FBECDBF4F8358874B
:101AE00069877A878B879C87CE0107960E949D0B1A
:101AF0008823D1F09F8188852A853B85232B31F06F
:101B00008F3F31F481E09F3F19F403C081E001C0B1
:101B100080E080FD47C04F81588569857A858B8537
:101B20009C850E949E083EC086E0FE013796DE013D
:101B3000119601900D928A95E1F7FF81E8856A85FB
:101B40007B856115710531F0EF3F31F481E0FF3F96
:101B500019F403C081E001C080E080FD23C0209122
:101B6000020230E0C9010196877099274091010275
:101B700050E084179507F1F1F983EA837D836C8344
:101B800096E0929FD001939FB00D1124AD5FBD4FA1
:101B9000FE01319601900D929A95E1F78093020231
:101BA0000E94020B16E080910102909102028917B7
:101BB00071F1189FC00111248D5F9D4F0E949D0BF4
:101BC000882329F1E09101021E9FF0011124ED5FAD
:101BD000FD4F4081518162817381848195810E9492
:101BE0009E088091010290E001968770992780936A
:101BF0000102D9CF0E945F081092020210920102E6
:101C0000E3E3F2E086E0DF011D928A95E9F72C9686
:101C10000FB6F894DEBF0FBECDBFDF91CF911F91FD
:101C200008958091390285958595859508958091CF
:101C300039028770089590913902977081E009F414
:101C400080E008959091C10292FB222720F9281785
:101C500051F080FB92F99093C1028091C002909163
:101C6000C1020C942C0F08958091C10282FB882739
:101C700080F991E089270C94220E81E00C94220EC9
:101C800080E00C94220E80915D02089590915D0297
:101C9000892B80935D020895809590915D02892340
:101CA00080935D02089510925D02089590915C0208
:101CB000892B80935C020895809590915C02892322
:101CC00080935C02089510925C02089590915B02EB
:101CD000892B80935B020895809590915B02892304
:101CE00080935B02089510925B02089580913A02FE
:101CF000089508950C94790E0C947A0E9091C10277
:101D000092FD08C090913A02981721F080933A0210
:101D10000C947C0E089580913A02882329F0109249
:101D20003A0280E00C947C0E0895E0910001F0915D
:101D3000010180915D028083E0910001F091010139
:101D4000908180915C02892B8083E0910001F09169
:101D50000101908180915B02892B808380913A02FE
:101D6000882381F0E0910001F09101019081892B9D
:101D7000808380910001909101010E948222811153
:101D80000E948B0E80910001909101010C942E22F3
:101D90000C94790E9091C10292FD10C098E0899F39
:101DA00090011124262B209339020E942009809152
:101DB00039028595859585950C94C80E0C9420095B
:101DC0001092390280E00C94C80E2091390280955F
:101DD000822380933902982F977041F430E0482F86
:101DE000082E000C550B2417350721F49091C102E1
:101DF00092FF07C08595859585950E9441090C94B1
:101E0000E00E08956FEF7FEF80E090E00C94EC2BF4
:101E100080E090E00E94C82B21E0893E9E4F09F0AF
:101E200020E0822F089582E090E00C94BA2B83E0AA
:101E300090E00C94BA2BCF9384E090E00E94BA2BF0
:101E4000C82F82E290E00E94BA2B2C2F30E0A9012B
:101E5000582BCA01CF910895CF93C92F682F84E0E2
:101E600090E00E94CE2B6C2F82E290E0CF910C94F8
:101E7000CE2BAB01BC018FE090E00C94E02BAB01CA
:101E8000BC0183E190E00C94E02B60E070E0CB01BA
:101E90000C943F0F60E070E0CB010E94390F0C946E
:101EA000450F69EE7EEF80E090E00E94EC2B60E051
:101EB00082E090E00E94CE2B60E083E090E00E9400
:101EC000CE2B1092FD011092FE011092FF01109294
:101ED000000260E084E090E00E94CE2B60E082E2AD
:101EE00090E00E94CE2B60E085E090E00E94CE2B37
:101EF00060E086E090E00E94CE2B6FEF87E090E0FC
:101F00000E94CE2B40E050E0BA0188E090E00E94B1
:101F1000E02B60E08DE090E00E94CE2B40E050E0AE
:101F2000BA0188E190E00E94E02B60E087E190E058
:101F30000E94CE2B40E050E0BA018CE190E00E947C
:101F4000E02B60E070E080E290E00E94EC2B40E04B
:101F500050E0BA0188E190E00E94E02B0C944A0F17
:101F60000C94510F682F8EE090E00C94CE2B0E94C1
:101F7000DF2360936D0270936E0280936F029093E3
:101F800070026093690270936A0280936B0290936F
:101F90006C02089585B7806885BF85B7806885BF66
:101FA000089581E008950C94D10F08950C94D50FF5
:101FB0000C94D50F0C94D80F0C94D50F0C94DC0F07
:101FC0000C94D50F0E94CA0F8BEC92E10E9444241E
:101FD0000E94E00F0C94DE0F0E94D60F0C94D50FD8
:101FE0000E94CA230E94D3130E94461E0E94771C9F
:101FF0000C94DA0F6F927F928F929F92AF92BF9262
:10200000CF92DF92EF92FF920F931F93CF93DF93C4
:10201000CDB7DEB72A970FB6F894DEBF0FBECDBF9F
:102020000E94E61381110E94B70F3FE5832E32E034
:10203000932E00E010E0C02E802F0E9409135C0157
:10204000F401619071904F01682679266114710442
:10205000B1F40F5F1F4F0530110569F78FEF8983CA
:102060008A831B820E94D3238160782F9D838C8377
:1020700049815A816B818D810E9450043AC08091C0
:10208000710281FD0E941213D12CEE24E394F12CF5
:10209000C3018E219F21892B29F10E94D30F882310
:1020A000A9F0DE82CF82AE20BF2081E0AB2809F408
:1020B00080E088870E94D3238160782F9A87898760
:1020C0004E815F8168858A850E945004000F111F30
:1020D000F801E15AFD4F80819181E826F926F182CD
:1020E000E08207C0D394EE0CFF1CFFE0DF12D0CFDC
:1020F000B0CF0E94BB1C0E94C01F0E94E9150E9425
:10210000222290915E028917D1F00E9422228093B0
:102110005E022A960FB6F894DEBF0FBECDBFDF91E8
:10212000CF911F910F91FF90EF90DF90CF90BF90D4
:10213000AF909F908F907F906F900C9447042A9659
:102140000FB6F894DEBF0FBECDBFDF91CF911F91C8
:102150000F91FF90EF90DF90CF90BF90AF909F9046
:102160008F907F906F90089580E090E0089508959B
:102170002BE4829FC0011124FC012FE0729FE00D2F
:10218000F11D1124E60FF11DEE0FFF1FE450FF4F6C
:10219000859194910895880F991FFC01E254FD4F99
:1021A000859194910895CF93DF930E94F411EC01EF
:1021B000811520E5920708F03FC0811540E494079F
:1021C00008F0D2C0883E910500F5803E910508F0E8
:1021D00002C1883A910570F4853A910508F0A6C0CD
:1021E0008130910509F49FC008F4F2C0049708F00B
:1021F000F2C0EEC08F3B910508F4A1C0803C910570
:1022000008F4E6C0805C9109A5C0811550E29507ED
:1022100060F4C11581E0D80708F0DDC0CD3ED105DE
:1022200008F4D6C0CE019065D7C0811520E392078F
:1022300008F093C09F708EC0811545E5940708F0A3
:1022400046C0811554E5950708F0A6C0C11582E582
:10225000D80718F5C11521E5D20708F088C0CE01CE
:10226000F4E096958795FA95E1F7282F23703C2F97
:10227000337081E090E002C0880F991F3A95E2F731
:102280009C68922B2C2F2F702695269540E2249F38
:1022900090011124822B932B9FC09E012370332722
:1022A0009C2F96959695C115D34508F065C041E0E1
:1022B00050E002C0440F551F2A95E2F780E2989F34
:1022C00090011124CA01822B932B9C6885C0811533
:1022D00059E5950798F4C11588E5D80708F061C05D
:1022E000C11526E5D20708F073C08C2F0E94881212
:1022F0008F7190E0982F882790626EC081154AE513
:10230000940708F453C090568115904208F060C0BD
:102310008D2F8F710E9488129E01332730628F713A
:10232000A901582B53C081E090E056C0855AC82FB0
:10233000D0E0C957DE4F888190E090644DC0885A44
:10234000C82FD0E0CC0FDD1FC75ADE4F888199819E
:10235000946442C00E94CB103FC09927D3FF02C0B3
:10236000986C3AC0906C38C09F70906A35C09C2FB2
:102370008827816F906A30C041E050E002C0440F6E
:10238000551F2A95E2F780E2989F90011124CA0117
:10239000822B932B9A6820C0982F8827846F906A8D
:1023A0001BC09C2F8827806F906A16C08F700E9478
:1023B00088129E0194E0369527959A95E1F72F7043
:1023C00030E0322F22273069A901482BCA0104C00E
:1023D00080E090E001C0CE01DF91CF9108950E948E
:1023E000B8100E94D31008958238910569F1B0F4B5
:1023F0008133910509F46DC048F48932910509F4DF
:1024000063C08A32910509F469C008958533910546
:1024100009F455C089339105B9F00895833E9105BB
:1024200069F138F4803E9105B1F0823E910509F1E1
:102430000895863E9105A9F1873E9105B9F1843E44
:10244000910509F064C023C02091C00220FD4FC057
:1024500021FD4DC008958091C00280FD44C080914F
:10246000C10280FF44C08091C00284FD42C083EE5F
:102470004DC08091C00282FF38C0F5CF8091C0026C
:1024800082FD33C08091C10280FD31C0ECCF8091CC
:10249000C10281FF32C08091C00284FD2AC087EE54
:1024A00035C08091C00283FF26C0F5CF8091C00265
:1024B00083FD21C08091C10281FD1FC0ECCF8091BE
:1024C000C00285FD1CC01DC08091C00285FD19C0E1
:1024D00016C08091C00286FD16C017C08091C00250
:1024E00086FD13C010C089E311C082EE0FC080EEDC
:1024F0000DC080E00BC086EE09C084EE07C089E203
:1025000005C085E303C08AE201C081E390E008953D
:102510009091C00292FF0DC0282F2871283019F425
:10252000877F846006C0282F2471243011F48B7FAC
:10253000886093FF0DC0282F2871283119F4877EF9
:10254000846106C0282F2471243111F48B7E8861A8
:102550002091C10220FF0DC0382F3871383019F496
:10256000877F816006C0382F3171313011F48E7F42
:10257000886021FF0DC0282F2871283119F4877E2B
:10258000816106C0282F2171213111F48E7E88616E
:1025900094FD877E089580E008950C94020F0E94B8
:1025A000E6138FE39CE90197F1F700C000000E9459
:1025B000E61380E00E94091380FF04C00E94CD1240
:1025C0000C94202408950C94CF120E94080F8111BE
:1025D00002C00E94B00F0E94130F809371020E94EC
:1025E0001B0F9093C1028093C0020E94E3120E94CD
:1025F000170F682F70E080E090E00E94C0086091A3
:10260000F9017091FA018091FB019091FC010C9409
:10261000F808E82FF0E0EE0FFF1FE453FD4F808134
:1026200091810895089580EA8A95F1F7089500C090
:1026300008950C94131308950C941B130C941C13FD
:102640000C941B130C942013F894E82FE295EF7070
:10265000F0E031A1282F2F7081E090E001C0880FB9
:102660002A95EAF7982F9095932391A392A1892B0D
:1026700082A3789408950F931F93CF93DF93C9E9B2
:10268000D1E089918F3F11F00E94241381E0CE396F
:10269000D807B9F7CAE8D1E009E911E089918F3F7D
:1026A00011F00E9424130C171D07C1F7DF91CF9181
:1026B0001F910F910895AF92BF92CF92DF92EF9248
:1026C000FF920F931F93CF93DF938C01C62FD0E01F
:1026D000CE0187569E4F6C01DC019C919F3F09F40F
:1026E00057C0B62EF894E92FE295EF70F0E081A183
:1026F0009F7021E030E001C0220F9A95EAF7822B0B
:1027000081A382A12095282322A378940E941713E5
:10271000EAE8F1E020E030E0E12CF12C41E050E08B
:1027200081918F3FC1F0A82FA295AF70B0E0909635
:102730006C9170E08F70DB0102C0B595A7958A950A
:10274000E2F7A0FD08C0CA01022E02C0880F991F3F
:102750000A94E2F702C080E090E0E82AF92A2F5FAD
:102760003F4F2F303105E1F6F60180818F3F11F0A8
:102770000E94241361E0E114F10409F460E08B2D60
:102780000E941913CC0FDD1FC00FD11FF982E88200
:10279000DF91CF911F910F91FF90EF90DF90CF903D
:1027A000BF90AF9008950E943B13E2ECF2E0ACECD6
:1027B000B2E0119211921D921D9282E0EC3CF8075A
:1027C000C1F785E00E9431140C94B803FF920F9377
:1027D0001F93CF93DF93CDB7DEB72A970FB6F89448
:1027E000DEBF0FBECDBF8E010F5F1F4F8AE0F80125
:1027F00011928A95E9F7F12C6F2DC8010E945B13A5
:10280000F394F5E0FF12F8CF4AE050E0B80182EC13
:1028100092E00E94AD2BFF24F394009709F4F12C71
:10282000892B41F08AE0F801A2ECB2E001900D9210
:102830008A95E1F72F2D45E06CEC72E082EC92E096
:102840000E9432140E94C0038F2D2A960FB6F8946E
:10285000DEBF0FBECDBFDF91CF911F910F91FF90D3
:1028600008950895FF920F931F93CF93DF93F82E4F
:10287000092F162FD72FC42F222349F081E08093F0
:1028800074020E94D323909373028093720280910A
:1028900074028823D9F080917202909173020E9491
:1028A000EB23059798F0EF2DF02FA12FBD2F80E09F
:1028B00090E04C2F50E08417950734F4219131912A
:1028C0002D933D930196F7CF10927402DF91CF9133
:1028D0001F910F91FF9008950E9440230E94BA25F6
:1028E0000E94D3250E94E5250E94EC0FFBCF80912A
:1028F0007B0280FF0BC06091070185E0689FB001FB
:10290000112475956795759567952BC081FF09C052
:102910006091070185E0689FB00111247595679566
:1029200020C082FF07C06091070185E0689FB00169
:10293000112417C090917A029923D1F06091060179
:10294000961788F72091070185E0289F90011124B0
:10295000929FA001939F500D112470E0CA010E9424
:10296000332B6038710540F46115710519F406C008
:1029700065E070E0862F08958FE7089581E008955F
:1029800080917B0280FF08C06091030170E0759523
:1029900067957595679521C081FF06C06091030119
:1029A00070E07595679519C082FF04C060910301BE
:1029B00070E010C090917902992399F06091020122
:1029C0009617A0F780910301899FC001112470E040
:1029D0000E94332B6038710540F46115710519F4BC
:1029E00006C061E070E0862F08958FE7089581E0CA
:1029F00008958D3E21F40E947714819504C08E3E87
:102A000029F40E94771480937F0208958F3E21F469
:102A10000E947714819504C0803F29F40E947714A6
:102A200080937E020895893F19F40E94C01405C066
:102A30008A3F31F40E94C0148195809380020895EA
:102A40008B3F21F40E94C014819504C08C3F29F46F
:102A50000E94C0148093810208959FE0980F9830DF
:102A600078F421E030E0A90102C0440F551F9A9587
:102A7000E2F7CA0190917D02892B80937D0208952F
:102A80008D3F21F480917B0281600BC08E3F21F449
:102A900080917B02826005C08F3F29F480917B0288
:102AA000846080937B0208958D3E39F490917F027B
:102AB00097FF35C010927F0259C08E3E29F4909145
:102AC0007F021916BCF32BC090917E028F3E29F431
:102AD00097FF25C010927E0249C0803F19F4191655
:102AE000CCF31DC090918002893F29F41916BCF4E3
:102AF000109280023BC08A3F19F497FF10C0F8CFB4
:102B00008B3F39F49091810297FF09C010928102A6
:102B10002DC08C3F21F4909181021916BCF39FE0E7
:102B2000980F983080F421E030E0A90102C0440FF2
:102B3000551F9A95E2F7CA01809590917D028923ED
:102B400080937D0213C08D3F21F480917B028E7FA4
:102B50000BC08E3F21F480917B028D7F05C08F3F9B
:102B600029F480917B028B7F80937B0280917E028F
:102B7000811106C080917F02811102C010927A02F9
:102B800080918002811106C080918102811102C072
:102B90001092790208950E94D32320917E02211180
:102BA00004C020917F02222321F090937802809329
:102BB000770220918002211104C0209181022223FA
:102BC00021F090937602809375028CE792E00C944A
:102BD0004822EF92FF920F931F93CF93DF9300D081
:102BE00000D000D0CDB7DEB786E0ECE7F2E0DE0142
:102BF000119601900D928A95E1F7E0907E02F09097
:102C00007F02009180021091810210927E02109248
:102C10007F021092800210928102E11003C0FF2017
:102C200009F45DC080917702909178020E94EB23B5
:102C3000AC0190917A02992339F02091080130E09B
:102C40002417350758F04BC0209109018AE0289FCE
:102C5000900111242417350718F041C09F3F19F047
:102C60009F5F90937A02EE2061F00E9477141E1409
:102C700014F09FEF01C091E0989F902D1124909344
:102C80007E02FF2061F00E9477141F1414F09FEF62
:102C900001C091E0989F902D112490937F02309174
:102CA0007E023323E1F020917F022223C1F045EB25
:102CB0003403C0011124992319F090937E0203C0BC
:102CC00081E080937E0235EB2303C0011124992318
:102CD00019F090937F0203C081E080937F0201117D
:102CE00003C0112309F45DC08091750290917602B2
:102CF0000E94EB23AC0190917902992339F0209145
:102D0000040130E02417350758F04BC0209105012D
:102D10008AE0289F900111242417350718F041C03C
:102D20009F3F19F09F5F90937902002361F00E940A
:102D3000C014101614F09FEF01C091E0989F902DE1
:102D4000112490938002112361F00E94C014111687
:102D500014F09FEF01C091E0989F902D1124909363
:102D60008102309180023323E1F0209181022223FD
:102D7000C1F045EB3403C0011124992319F090935D
:102D8000800203C081E08093800235EB2303C00101
:102D90001124992319F09093810203C081E080935C
:102DA000810280917E0281110BC080917F0281118E
:102DB00007C080918002811103C08091810281113E
:102DC0000E94CB15EB82FC820D831E8386E0FE0100
:102DD0003196ACE7B2E001900D928A95E1F7269624
:102DE0000FB6F894DEBF0FBECDBFDF91CF911F911C
:102DF0000F91FF90EF900895ECE7F2E086E0DF019D
:102E00001D928A95E9F710927A0210927902109237
:102E10007B020895EF92FF920F931F93CF93DF935E
:102E20008B01682F11110AC0442329F0E82FF0E02C
:102E3000EB52FC4F6491762F862F75C0212F30E026
:102E4000E82FF0E0442321F0EB52FC4FE491F0E056
:102E500046E0049FC0011124CFEFD0E0BE010E94E4
:102E60001F2B4BEA4603C001479F900D1124800F92
:102E7000911D800F911D982F990F890FAE01421B54
:102E8000530B4E9FD0014F9FB00D5E9FB00D11248C
:102E90009B2F189FA0011124452F55278E01041B3D
:102EA000150B0E9FA0010F9F500D1E9F500D11245A
:102EB0007E01E81AF108E29E8001E39E100DF29E69
:102EC000100D1124212F3327C21BD30BCE9F90014D
:102ED000CF9F300DDE9F300D112462307105A9F0B7
:102EE00048F46115710569F061307105C9F48B2FE3
:102EF000752F0DC06430710581F058F06630710592
:102F000079F47E2F8B2F932F0DC0832F7B2F9E2F35
:102F100009C08E2F7B2F952F05C08E2F732F02C0D7
:102F20007E2F852F692FDF91CF911F910F91FF90F9
:102F3000EF90089541E00E940A17089508950E94B5
:102F40009A170895CF93DF93762FE901682F842F86
:102F50000E949F17798368838A83DF91CF910895B8
:102F60008091D602282F269530E02115310519F4DD
:102F70008170826005C02532310524F0817088643B
:102F80008093D602089588E090E00C94C22BCF92F3
:102F9000DF92EF92FF926B017C010E94B017B701A4
:102FA000A60188E090E0FF90EF90DF90CF900C9426
:102FB000E02BE6EDF2E083E0808311828FEF8283E5
:102FC0008383148260817181828193810C94C717FD
:102FD0008091D60280FF02C08695089580E0089512
:102FE0009091DA02933018F49F5F9093DA0288236D
:102FF00051F06091D6027091D7028091D8029091E1
:10300000D9020C94C717089581E00C94F0179091A1
:10301000DA02992319F091509093DA02882351F043
:103020006091D6027091D7028091D8029091D90216
:103030000C94C717089581E00C94071870E00C9465
:10304000D11F60910E018091D60280FF0AC080914D
:103050000D0123E0829FC001112485529D4F0C94E5
:103060001E1880910F0190911001891780F7E82FA9
:10307000F0E09F01220F331FE20FF31FE552FD4FD7
:103080001182108212828F5FF0CF9091D60290FF52
:1030900016C090910F0120911001921770F4E92F42
:1030A000F0E0DF01AA0FBB1FEA0FFB1FE552FD4F47
:1030B0008183608342839F5FF0CF0C942118089531
:1030C000CF93DF9300D01F92CDB7DEB79091D60299
:1030D00090FF0AC09E012F5F3F4F0E94A2174B81B5
:1030E00069818A810E9445180F900F900F90DF919F
:1030F000CF910895CF93DF93EC01EC81F0E0E053A2
:10310000FD4F4491E6EDF2E0628181810E946018FA
:103110008C818F5F8C83DF91CF910895CF93DF9364
:10312000EC01E6EDF2E0438162818C810E9460183F
:103130008C818F5F8C83DF91CF9108950F931F93C4
:10314000CF93DF9300D01F92CDB7DEB78C01809173
:10315000820281110AC09E012F5F3F4F4FEF6FEF38
:103160000E94A2178A8180938202F80184818130B3
:1031700051F028F0823061F4409182020AC08091BF
:10318000820240E007C06091820240E080E003C01C
:1031900040E080E060E00E944518F801848190E002
:1031A000019663E070E00E94332B84830F900F90B0
:1031B0000F90DF91CF911F910F910895AF92BF9221
:1031C000CF92DF92EF92FF920F931F93CF93DF93F3
:1031D00000D01F92CDB7DEB7182FF62E042FE22EA7
:1031E0009091D60290FF6DC0E92FE695AE2FB0E02A
:1031F000A256BE4F8C9180938E029E7F923061F4D6
:103200009E012F5F3F4F812F0E94A2174B81698142
:103210008A810E94451843C0823019F40091D90276
:103220003EC0863019F41091D70239C08930D9F3E5
:103230008931A9F5E9518E2F8170D82EE695F0E0FD
:10324000E053FC4FA590B490C12CBB2460911101B8
:10325000C61618F52C2D30E0A29EC001A39E900D3D
:10326000B29E900D112470E00E941F2B812FD1106F
:1032700002C0860F01C0861B90910F01290F311DDE
:10328000A901440F551F240F351F25523D4F402FD4
:103290006F2D0E94A217C394D9CF0E9421181093BA
:1032A000D702F092D8020093D902EE2051F060913B
:1032B000D6027091D7028091D8029091D9020E94D3
:1032C000C7170F900F900F90DF91CF911F910F9123
:1032D000FF90EF90DF90CF90BF90AF900895E6ED14
:1032E000F2E09181282F4381628188E0890F0C945C
:1032F000DE1881E00C946F19E6EDF2E09181282F41
:103300004381628188EF890F0C94DE1881E00C9470
:103310007C19E6EDF2E0628128E0620F08F46FEFBD
:10332000282F438181810C94DE1881E00C94891947
:10333000E6EDF2E0628128E0621B08F460E0282FED
:10334000438181810C94DE1881E00C949819E6ED9C
:10335000F2E0438128E0420F08F44FEF282F62810A
:1033600081810C94DE1881E00C94A719E6EDF2E05F
:10337000438128E0421B08F440E0282F62818181CC
:103380000C94DE1881E00C94B61920E00C94DE1841
:10339000FF920F931F93CF93DF93EC01F12C0FEF6C
:1033A00010E060911101F616F0F480910F012F2DBD
:1033B00030E0280F311DC901880F991F280F391FD0
:1033C00025523D4F70E0C8010E94332B962F8C810F
:1033D0004091D9026091D802F99E800D11240E947B
:1033E000A217F394DECF0E9421189A818C8190FF5E
:1033F00002C08F5F01C081508C83DF91CF911F91FC
:103400000F91FF900895BF92CF92DF92EF92FF92BB
:103410000F931F93CF93DF93FC01828180FF02C043
:103420000FEF01C001E010E080911101181708F0C2
:1034300040C080910F01C12ED12CE601C80FD11DD3
:10344000CE01880F991FC80FD91FC552DD4F1982B1
:1034500018821A8234E0E32EF12CB12C8091840280
:103460008B0D813114F08F7005C087FF03C09091E0
:103470001101890F082E000C990BC816D90691F47A
:103480008091D9028E9DA0018F9D500D11245595DC
:103490004795559547959E016091D8028091D70236
:1034A0000E94A217B00EF1E0EF1AF108B9F61F5F03
:1034B000BBCF0E94211880918402013031F4811128
:1034C00002C080911101815007C090E00196609187
:1034D000110170E00E94332B80938402DF91CF9121
:1034E0001F910F91FF90EF90DF90CF90BF900895C4
:1034F000CF9380910F0190911001891770F4E82FFC
:10350000F0E09F01220F331FE20FF31FE552FD4F42
:103510001182108212828F5FF0CFC0E060911101A2
:10352000C617C0F5EC2FF0E070E0CF010E94332BFE
:1035300020910F01820F20918302022E000C330B89
:1035400090E0E217F307CCF020910C01022E000C62
:10355000330B2E173F078CF09C01220F331F820F75
:10356000931F9C0125523D4F4091D9026091D80292
:103570008091D7020E94A2170BC0FC01EE0FFF1F23
:103580008E0F9F1FFC01E552FD4F118210821282A7
:10359000CF5FC4CF0E94211820910B01809183023C
:1035A000820F8093830290910C01920F90930C01F3
:1035B00019165CF4082E000C990B4091110150E093
:1035C00041505109841795071CF0219520930B0158
:1035D000CF9108958F929F92AF92BF92CF92DF9238
:1035E000EF92FF920F931F93CF93DF938C01FC0117
:1035F0004481C42FD0E09E01DE010E94772B9B0105
:10360000AC010E948D2B6B017C01E0E2F0E0EC1B31
:10361000FD0BA5E5B0E09B01AC010E948D2B4B0199
:103620005C019F01DF010E946F2B9B01AC010E9496
:10363000982B9B01AC012C0D3D1D4E1D5F1DC5013E
:10364000B4010E94472BC22FD22F2A3228F4F3E074
:103650002F9F900111240DC025E530E02C1B31096E
:10366000C901880F991F280F391F37FF02C02F5F2C
:103670003F4F35952795C22FC095F12C85E5E82E53
:10368000ED1A80911101F816C8F4F1FC02C08E2DDC
:1036900001C08D2F90910F012F2D30E0290F311D8A
:1036A000A901440F551F240F351F25523D4F4C2FA4
:1036B0006091D8020E94A217F394E3CF0E942118D0
:1036C000F8018481811102C091E003C0803219F4B5
:1036D0009FEF90930A0190910A01890FF80184836A
:1036E000DF91CF911F910F91FF90EF90DF90CF90DE
:1036F000BF90AF909F908F9008950F931F93CF939B
:10370000DF93EC0100E010E080911101282F30E000
:103710000217130724F590910F019801290F311D0D
:10372000A901440F551F240F351F25523D4F869583
:1037300090E04C81081719071CF4442331F002C0B3
:10374000411103C04091D90201C040E06091D8020C
:103750008091D7020E94A2170F5F1F4FD5CF0E9402
:1037600021188C8190E00196817099278C83DF91DC
:10377000CF911F910F910895E6EDF2E080818E7F49
:10378000808360817181828193810E94C71710922A
:103790008F022FEF80E792E0215080409040E1F7C8
:1037A00000C000000C942118E6EDF2E080818E7FCD
:1037B000808310928F022FEF80E792E021508040AB
:1037C0009040E1F700C000000C94211810928F0285
:1037D00080918C0281110AC081E080938C028091DB
:1037E000D602817080938B020C94D41B0895609153
:1037F000D602669570E04BE050E082E191E00E94D5
:10380000A02B892B19F481E080938F020E94D3238F
:10381000909386028093850208959091D60290FF3E
:1038200035C09170811102C0926006C0853210F0DF
:10383000986402C0880F982B9093D602662351F0AB
:103840006091D6027091D7028091D8029091D902EE
:103850000E94C7176091D602669570E04BE050E079
:1038600082E191E00E94A02B892B19F010928F0227
:1038700002C00E94F71B81E0809388024091D90228
:103880006091D8028091D7020C94C5190895682FD1
:103890009091D602969581E0890F853208F081E0FB
:1038A0000C940D1C81E00C94471C682F9091D6025B
:1038B00096958FEF890F09F484E20C940D1C81E03A
:1038C0000C94551C61E00C940D1CE6EDF2E0808137
:1038D0008160808386950C94621C8091D60280FD65
:1038E0000C94BC1B0C94651C60E00C940D1C809126
:1038F0008D0281112EC00E94080F811104C00E9408
:10390000B00F0E94D9170E94C3176093D60270931C
:10391000D7028093D8029093D9026E7F61F40E94FF
:10392000D9170E94C3176093D6027093D702809371
:10393000D8029093D9020E94B01710928F02809102
:10394000D60280FF03C086950E94741C81E080939C
:103950008D020895E6EDF2E0808181608083869596
:103960000C94741C10928C0280918B0281110E9425
:10397000AA1C0C94F71B0F931F93CF93DF93809196
:103980008F02882309F485C080918E02E091D602CF
:10399000E695E81BE0938702823049F4F0E0E453B7
:1039A000FD4FE491CE2FD0E00AE718E149C0863000
:1039B00049F4F0E0E753FD4FE491CE2FD0E00EE85C
:1039C00018E13EC0893051F4E695F0E0EA53FD4F2E
:1039D000E491CE2FD0E008EC19E132C08F3051F4E1
:1039E000E695F0E0ED53FD4FE491CE2FD0E003E0FB
:1039F0001AE126C0853149F4F0E0E054FD4FE4912E
:103A0000CE2FD0E008E71AE11BC0883181F0833265
:103A100039F4EEEBF2E0C591D4910EE918E110C053
:103A2000843251F4C4EFD1E00DE71BE109C0C8E2D4
:103A3000D0E00AEE1AE104C0C0EDD7E00EE917E1CC
:103A400080918802882361F0109288020E94D3231B
:103A5000909386028093850210928A0210928902C6
:103A60000E94D323E0918502F09186028E1B9F0B6A
:103A70008F3F9F4770F4EC0FFD1FF0938602E09399
:103A8000850285E892E0F801DF91CF911F910F91B7
:103A90000994DF91CF911F910F910895882311F020
:103AA000FA0101C0FB010994CF93DF93C82FD62FF1
:103AB0000E94E8178C1740F00E94E8178D1720F439
:103AC000DF91CF910C94521C8C2FDF91CF910C94ED
:103AD000621C1F93CF93DF93FB011281112309F422
:103AE000BCC0EC010E94430E8272CD3CFCE5DF07B6
:103AF00009F497C008F043C0C73CECE5DE0709F4C1
:103B00007CC0D8F4C43C9CE5D90709F46AC038F4F9
:103B1000C33CDC4509F0A4C00E946D1CA0C0C53C9C
:103B20009CE5D90709F462C0C63CDC4509F098C0A1
:103B300046E859E169E779E15DC0CA3CFCE5DF0789
:103B400009F465C070F4C83CECE5DE0709F45AC01E
:103B5000C93CDC4509F084C045E959E164EA79E1F2
:103B600049C0CB3C9CE5D90709F456C0CC3CDC45A8
:103B700009F076C04BE158E164E078E13BC0C23D1A
:103B8000FCE5DF0709F45AC098F4CF3C9CE5D9075F
:103B900009F44EC008F44AC0C03DFCE5DF0709F453
:103BA0004AC0C13DDC4509F05BC06EE089E04EC013
:103BB000C53D9CE5D90709F447C050F4C33DFCE579
:103BC000DF07F9F1C43DDC4509F04AC088E142C095
:103BD000C63D9CE5D907E9F1CE35DD4509F43FC086
:103BE0003FC04FE55CE162E57CE104C042E55CE199
:103BF0006FE57CE10E944E1D32C049E759E166E85D
:103C000079E1F8CF44EA59E165E979E1F3CF42EC93
:103C100059E163EB79E1EECF43EB59E162EC79E1F5
:103C2000E9CF44E058E16BE178E1E4CF81E012C0F4
:103C300065E082E00BC068E086E008C064E18FE0E8
:103C400005C067E185E102C062E289E10E94541D7E
:103C500006C083E20E94621C02C011E001C010E0B5
:103C6000812FDF91CF911F91089586E090E00C9411
:103C7000BA2B682F86E090E00C94CE2B80910B033A
:103C80008470896280930B030C94391E0E94080F84
:103C9000811104C00E94B00F0E943E1E0E94351E7A
:103CA00080930B03282F26952695269530E0263005
:103CB000310524F08770886280930B0380910B0399
:103CC00080FF04C086958695869501C080E00C949F
:103CD000571F20910B03822F869586958695482F36
:103CE00050E04530510554F48F5F982F990F990F8C
:103CF000990F822F8770892B80930B0380910B0380
:103D0000816080930B030E94391E80910B0386957E
:103D1000869586950C94571F80910B03982F969546
:103D200096959695A1F0915E990F990F990F8770CE
:103D3000892B80930B03887F91E009F490E08091B8
:103D40000B0390FB80F980930B030E94391E809136
:103D50000B038695869586950C94571F80910B03CF
:103D600080FD13C0816080930B03813019F489E0DA
:103D700080930B0380910B030E94391E80910B03EB
:103D80008695869586950C94571F089580910B0310
:103D900080FF08C08E7F80930B030E94391E80E055
:103DA0000C94571F089580910B0380FD0C94C61E40
:103DB0000C94AE1E90910B03892F8695869586955F
:103DC0008F5F8F719770863038F4880F880F880F57
:103DD000892B80930B0302C090930B0380910B03FC
:103DE000887F91E009F490E080910B0390FB80F9CB
:103DF00080930B030E94391E80910B038695869554
:103E000086950C94571F863008F085E090910B033F
:103E10009770282F220F220F220F922B90930B03C3
:103E2000987F21E009F420E090910B0320FB90F9AA
:103E300090930B030C94571F0E94031F80910B0358
:103E40000C94391E9C01FB018281882349F12E3B91
:103E5000FCE53F07C9F040F42C3BECE53E0769F078
:103E60002D3B3C4561F00895203C9CE5390791F0DD
:103E700070F0213C3C4589F0089585E001C080E068
:103E80000E941C1F80E008950E948C1EFBCF0E94A0
:103E9000691EF8CF0E94D31EF5CF0E94DA1EF2CF22
:103EA00081E00895269A2E9808952E980895CF922D
:103EB000DF92EF92FF92CF93C82F863050F481119A
:103EC00009C0809180008F7D809380000E94551FE3
:103ED00006C0C5E0809180008062809380002C2F16
:103EE00030E0AFEFBFEF0E94772B25E030E040E0FD
:103EF00050E00E94472BB42FA32F922F8827492FE1
:103F00005A2F6B2F7727CA014C3724E1520728F428
:103F100069E070E00E941F2B29C0DB01CA018A50B2
:103F2000974DAF4FBF4F6627782F892F9A2F25EFD8
:103F300038E241E050E00E94472B69017A01CA0152
:103F4000B9010E940F2B9B01AC01C701B6010E9471
:103F50000F2BBB27A92F982F872F009721E0A207AF
:103F6000B10511F0BC0102C06FEF7FEF70938B00C1
:103F700060938A00CF91FF90EF90DF90CF900895EB
:103F800008950E94521F82E28093800089E180930D
:103F900081008FEF9FEF90938700809386000C94B1
:103FA000461E6A9A2EB12B7F3EB134604FB7F8940B
:103FB000FC01CB01880F991F680F791F6E0F7F1FBF
:103FC000E617F70789F0819198E03EB9000000C03C
:103FD00087FF2EB9880F000000C000C000C02EB9B6
:103FE00000C09A9591F7ECCF4FBF8FE594E0019711
:103FF000F1F700C0000008950F931F93CF93DF9354
:10400000C42FD22FFC0182818823C9F040939202F1
:104010000E94D323909391028093900280E28C0FB0
:10402000883008F057C0C77081E001C0880FCA957A
:10403000EAF7DF91CF911F910F910C94D2058091F7
:104040009202481330C080919002909191020E9498
:10405000EB23883C910538F510E21D0FCD17B9F020
:1040600080E28C0F883040F4C77081E001C0880F77
:10407000CA95EAF70E94D905183028F581E09D2FEE
:10408000977001C0880F9A95EAF70E94D205802F99
:104090000E94C9051830F0F4D77081E001C0880F84
:1040A000DA95EAF70AC080E28C0F883098F4C7707E
:1040B00081E001C0880FCA95EAF7DF91CF911F9187
:1040C0000F910C94D905802FDF91CF911F910F9103
:1040D0000C94C905DF91CF911F910F9108950F9313
:1040E0009C01CB01243F4CE5340731F188F4293D94
:1040F000FCE53F07D9F02A3D4CE5340779F1283D2E
:104100003C45A9F506E221EE41EE68ED7CE52BC0C9
:10411000263FFCE53F07E1F0A8F0273F3C4539F595
:1041200007E225EE46EE67EF7CE51DC007E225EECF
:1041300045EE69ED7CE517C006E221EE40EE64EF46
:104140007CE511C007E225EE44EE65EF7CE50BC08F
:1041500006E221EE42EE66EF7CE505C008E221E0D2
:1041600045EE6AED7CE50E94FC1F80E008C0FC0182
:104170008281882319F01092920201C081E00F9190
:104180000895CF93DF93EC01FB018281882309F42A
:104190001FC1C230FCE5DF0708F41BC1C6319CE536
:1041A000D90738F09E012B5F3C452930310508F0D6
:1041B00010C10E941B0F9093C1028093C002C031B6
:1041C000ECE5DE0709F4C3C008F041C0C8308CE557
:1041D000D80709F49AC0F0F4C430ECE5DE0709F41E
:1041E00087C068F4C2308CE5D80709F477C0C330C3
:1041F000DC4509F0E3C08091C002826076C0C63021
:10420000ECE5DE0709F46EC008F07BC08091C002C7
:1042100088606BC0CC308CE5D80709F485C068F4A1
:10422000CA30ECE5DE0709F474C008F079C00E94DA
:104230005F088091C002806858C0CE308CE5D807F6
:1042400009F476C008F07FC08091C0028BC0CC3FDB
:10425000ECE5DE0709F44FC018F5C3318CE5D8074B
:1042600009F47DC078F4C131ECE5DE0709F473C0D0
:10427000C231DC4509F0A2C00E945F088091C002F3
:104280008F7733C0C5318CE5D80709F472C008F4C4
:1042900086C0CB3FDC4509F091C08091C1023EC091
:1042A000C115FDE5DF0709F45FC058F4CE3F9CE57A
:1042B000D90709F444C008F43FC08091C10282606C
:1042C0002DC0C230FDE5DF0709F475C008F45DC0FC
:1042D000C330DD4509F072C080E06EC08091C0023D
:1042E000816003C08091C00280618093C00266C07B
:1042F0008091C00211C08091C10282608093C1028E
:104300005DC08091C0028062F0CF8091C002806465
:10431000ECCF8091C00288608460E7CF8160EECFEF
:104320008091C0028E7FE1CF8091C0028D7FDDCF72
:104330008091C002877FD9CF8091C10218C080913F
:10434000C1028D7FDBCF8091C0028F7ECECF809166
:10435000C0028F7DCACF8091C0028F7BC6CF809173
:10436000C002877F8B7FC1CF8091C1028D7F8E7FFE
:10437000C5CF8091C00282FB222720F991E09227CD
:1043800090FB82F990FB83F9B0CF8091C102982F06
:10439000909591708E7F892B90FB81F9AFCF0E9411
:1043A0005F088091C00287FB222720F991E09227C5
:1043B00090FB87F99ACF81E00E94B20F8091C002F2
:1043C0009091C1020E942C0F0E945F0880E001C002
:1043D00081E0DF91CF910895CF93DF9386319C45A3
:1043E00041F5EB010E94430E982F8A812091000134
:1043F00030910101882379F09A7A81E009F480E014
:1044000080939302911102C069E201C065E3C90182
:104410000E9418230AC080919302811102C069E2B0
:1044200001C065E3C9010E9423230E94950E80E02C
:1044300001C081E0DF91CF9108959093990280931C
:1044400098020895E0919802F0919902309721F036
:104450000190F081E02D099480E00895E0919802A8
:10446000F0919902309799F020912701222359F079
:104470002091C00227FF07C0DC012C9111962C93DC
:10448000119725E02C930280F381E02D0994089583
:10449000E0919802F0919902309739F022E0DC0126
:1044A0002C930480F581E02D0994089520919602C3
:1044B000309197022817390771F0909397028093F3
:1044C0009602E0919802F0919902309721F00680CF
:1044D000F781E02D0994089520919402309195027E
:1044E0002817390771F09093950280939402E09118
:1044F0009802F0919902309721F00084F185E02D27
:1045000009940895FC01329680912701882331F0A7
:104510008091C00287FF02C09EE101C096E080E06A
:10452000915028F021912223D9F38F5FF9CF08957C
:10453000662351F1209127012223E9F02091C00246
:1045400027FF19C0462F4695469546954E31E0F413
:10455000677021E030E002C0220F331F6A95E2F756
:10456000FC01E40FF11D828190E02823392381E0D2
:10457000232B69F409C0FC01329608962191621739
:1045800029F0E817F907D1F780E0089581E0089550
:104590009C01FC0132969FEF80E04191461789F023
:1045A0009F3F19F4411101C0982F8F5F8630A9F702
:1045B0009F3F39F0F901E90FF11D97FDFA956283EC
:1045C000089508959C012A5F3F4FFC0142814613E4
:1045D00001C01282019682179307B9F70895262F1A
:1045E0002695269526952E3168F4FC01E20FF11DE3
:1045F000677021E030E001C0220F6A95EAF78281FE
:10460000282B22830895262F2695269526952E3130
:1046100070F4FC01E20FF11D677021E030E001C091
:10462000220F6A95EAF72095828128232283089534
:1046300020912701222329F02091C00227FD0C940C
:10464000EF220C94C82220912701222329F02091E7
:10465000C00227FD0C9403230C94E2222091270131
:10466000FC013296222331F08091C00287FF02C004
:104670008EE101C086E0DF011D928A95E9F7089579
:10468000089508950C9441230C944123CF930E94E4
:1046900044230E94E6130E944223C0E08C2F0E9414
:1046A0000913892B29F4CF5FC530C1F780E001C021
:1046B00081E0CF9108950C9441230C945B23809169
:1046C0001403843009F42EC00E945D2380E00E9410
:1046D000571F80E00E9447040E94E61B10929A0236
:1046E00020E488E190E00FB6F894A89580936000EC
:1046F0000FBE2093600083B7817F846083BF83B740
:10470000816083BF7894889583B78E7F83BF0FB60F
:10471000F894A89580916000886180936000109261
:1047200060000FBE08950C9441230E945F080E9410
:10473000461E0E9422220E9447040E94B21C0C9432
:1047400093231F920F920FB60F9211248F939F9372
:10475000AF93BF9380919A02811113C080910C0393
:1047600090910D03A0910E03B0910F034196A11DEE
:10477000B11D80930C0390930D03A0930E03B0938F
:104780000F03BF91AF919F918F910F900FBE0F902C
:104790001F90189582E084BD93E095BD9AEF97BD78
:1047A00080936E0008952FB7F89480910C03909138
:1047B0000D03A0910E03B0910F032FBF08952FB7E3
:1047C000F89460910C0370910D0380910E03909109
:1047D0000F032FBF08959C014FB7F89480910C03ED
:1047E00090910D03A0910E03B0910F034FBF821B58
:1047F000930B089578941F920F920FB60F92112485
:104800008F939F93AF93BF9380910C0390910D036F
:10481000A0910E03B0910F030196A11DB11D8093CD
:104820000C0390930D03A0930E03B0930F03BF915D
:10483000AF919F918F910F900FBE0F901F90189581
:1048400081E08093E00080E28093D8001092C9005C
:104850008FE19EE40197F1F700C0000087E090EB44
:10486000DC0180931D0390931E03A0931F03B0935C
:1048700020039CE088E10FB6F894A895809360002F
:104880000FBE90936000FFCF9093C5018093C40149
:1048900008958091BE02089590911403943031F5EB
:1048A00080939B0270939D0260939C0282E08093B0
:1048B000E9008FEF9091E800815095FD06C095EDDD
:1048C0009A95F1F700008111F5CF8091E80085FFFE
:1048D0000DC040E050E063E070E08BE992E00E94A0
:1048E00071268091E8008E778093E8000895BC01DE
:1048F00084E00C944C24BC0183E00C944C2422E012
:104900002093E9002FEF3091E800215035FD06C0DB
:1049100035ED3A95F1F700002111F5CF2091E8002F
:1049200025FF0BC040E050E066E070E00E94712679
:104930008091E8008E778093E8000895CF93DF930D
:1049400020912701222339F02091C00227FF03C0C4
:1049500060E222E002C068E021E02093E9002FEF4E
:104960003091E800215035FD06C035ED3A95F1F75C
:1049700000002111F5CF2091E80025FF1DC0EC01BA
:1049800080912701811105C040E050E068E070E0AF
:1049900003C070E040E050E0CE010E94712680919B
:1049A000E8008E778093E80080E2FE01AEE9B2E095
:1049B00001900D928A95E1F7DF91CF910895809152
:1049C0001303811109C00E9402280E945F28809170
:1049D000E20084608093E20008951092130308952A
:1049E00008950895089542E061EC81E00E947B27DC
:1049F00042E261EC82E00C947B27809116038330C5
:104A000009F460C030F4813071F0823009F499C04B
:104A100008958A3009F485C08B3009F46BC0893061
:104A200009F0A7C020C080911503813A09F0A1C008
:104A30008091E800877F8093E8008091190390912E
:104A40001A03892B21F460E28EE992E003C060E052
:104A500080E090E070E00E94BC268091E8008B77B7
:104A60008093E800089580911503813209F081C098
:104A70008091190390911A03029708F07AC08091EF
:104A8000E800877F8093E8008091E80082FD05C000
:104A9000809114038111F8CF6CC02091F3008091B4
:104AA000F20090E0922B029729F48091F1008B7F25
:104AB000813021F48091F1008093BE028091E80062
:104AC0008B7753C080911503813A09F052C08091D1
:104AD000190390911A03892B09F04BC08091E800CB
:104AE000877F8093E8008091E80080FFFCCF809171
:104AF000270136C0809115038132D9F580911903C1
:104B000090911A03892BA9F58091E800877F809303
:104B1000E8000E94B02780911703809327010C942E
:104B20005F0880911503813221F58091E800877F2D
:104B30008093E8000E94B027809118038093BF0201
:104B4000089580911503813AA1F48091E800877F50
:104B50008093E8008091E80080FFFCCF8091BF0245
:104B60008093F1008091E8008E778093E8000C94A8
:104B7000B027089584B7877F84BF0FB6F894A895AF
:104B800080916000886180936000109260000FBE89
:104B900090E080E80FB6F8948093610090936100F4
:104BA0000FBE0C94E20F0E9402280E945F28E2EEE2
:104BB000F0E080818460808378940E94F42A0E94CF
:104BC000F00F8DE191E00C941D228091140385304B
:104BD000A9F480911403853079F40E945F238091B9
:104BE00012038823B1F30E944623882391F30E9485
:104BF0005B260E945F08EDCF0E9495230C94FA0F6C
:104C00000C940226292F332723303105C9F060F494
:104C10002130310581F02230310509F044C08BE3A9
:104C200090E027EF34E043C021323105E1F0223239
:104C3000310549F138C082E190E022E335E037C028
:104C400099278130910549F028F0029761F5E5ED4B
:104C5000F4E005C0E3EFF4E002C0E1EEF4E084919B
:104C600090E09F0124C06115710541F0613071052C
:104C7000D1F489E090E022E235E019C089E090E0CB
:104C800029E035E014C06115710541F0613071050E
:104C900051F486EB90E024E435E009C080E490E034
:104CA0002AEF35E004C080E090E020E030E0FA0137
:104CB00031832083089580E189BD82E189BD09B4F3
:104CC00000FEFDCF8091D8008F7D8093D800809129
:104CD000E00082608093E0008091E00081FDFCCFE5
:104CE0000895CF92DF92EF92FF920F931F93CF938D
:104CF000DF93EC018B017A010E94CF27811133C031
:104D0000E114F10439F0F70180819181081B190B3E
:104D1000C80FD91FC12CD12C0115110519F1809193
:104D2000E80085FD16C08091E8008E778093E8004A
:104D3000E114F10449F0F70180819181C80ED91E78
:104D4000D182C08285E00FC00E94CF27882321F343
:104D50000AC089918093F10001501109FFEFCF1A29
:104D6000DF0ADACF80E0DF91CF911F910F91FF90A2
:104D7000EF90DF90CF90089520911B0330911C039A
:104D80002617370748F06115710539F42091E800BE
:104D90002E772093E80001C0B901FC0120E06115E5
:104DA000710579F1809114038823F1F18530F1F1D7
:104DB0008091E80083FD3CC08091E80082FD2EC018
:104DC0008091E80080FFEBCF2091F3008091F2000A
:104DD00090E0922B6115710551F08830910538F4FF
:104DE00021912093F100615071090196F3CF21E0E8
:104DF000089709F020E08091E8008E778093E80022
:104E0000CECF2111CFCF0AC080911403882361F047
:104E1000853061F08091E80083FD0AC08091E80050
:104E200082FFF2CF80E0089582E0089583E0089544
:104E300081E0089520911B0330911C03261737074A
:104E400048F06115710539F42091E8002E77209320
:104E5000E80001C0B901FC0120E06115710591F184
:104E600080911403882309F440C0853009F43FC0C1
:104E70008091E80083FD3DC08091E80082FD2FC055
:104E80008091E80080FFE9CF2091F3008091F2004B
:104E900090E0922B6115710559F08830910540F42E
:104EA00024912093F1003196615071090196F2CF5F
:104EB00021E0089709F020E08091E8008E77809348
:104EC000E800CBCF2111CCCF0AC0809114038823F6
:104ED00061F0853061F08091E80083FD0AC0809127
:104EE000E80082FFF2CF80E0089582E0089583E039
:104EF000089581E00895982F973068F59093E90020
:104F0000981739F07091EC002091ED005091F0006D
:104F100003C0242F762F50E021FD02C09F5FECCF0D
:104F20003091EB003E7F3093EB003091ED003D7F00
:104F30003093ED003091EB0031603093EB007093D3
:104F4000EC002093ED005093F0002091EE0027FD3F
:104F5000E5CF80E008958F708093E90081E00895A7
:104F60008091150387FF11C08091E80082FD05C084
:104F7000809114038111F8CF11C08091E8008B77E4
:104F80000BC080911403882349F08091E80080FFD2
:104F9000F8CF8091E8008E778093E8000895209103
:104FA000E4003091E50095E64091EC00842F81709B
:104FB00040FF23C08091E80080FD1DC08091140354
:104FC000882399F0853099F08091EB0085FD11C020
:104FD0004091E4005091E5002417350729F39150E2
:104FE00011F09A01E1CF84E0089582E0089583E012
:104FF000089581E0089580E008954091E80042FF1F
:10500000DDCF08950E9470280E947828E0EEF0E03D
:10501000808181608083E8EDF0E080818F778083FC
:1050200019BCA7EDB0E08C918E7F8C9380818F7E30
:1050300080831092130308950F931F93CF93DF93F0
:105040000E9470280E947828C8EDD0E088818F7770
:10505000888388818068888388818F7D888319BC54
:105060001092140310921003109212031092110365
:1050700000EE10E0F80180818B7F80838881816061
:10508000888342E060E080E00E947B27E1EEF0E070
:1050900080818E7F8083E2EEF0E08081816080837A
:1050A000808188608083F80180818E7F8083888101
:1050B00080618883DF91CF911F910F910895E8ED72
:1050C000F0E080818F7E8083E7EDF0E08081816079
:1050D000808384E082BF81E0809313030C941C28BA
:1050E000E8EDF0E080818E7F80831092E2000895E9
:1050F0001092DA001092E10008951F920F920FB6FD
:105100000F9211242F933F934F935F936F937F934D
:105110008F939F93AF93BF93EF93FF938091E100A1
:1051200082FF0BC08091E20082FF07C08091E10006
:105130008B7F8093E1000E94F32A8091DA0080FF48
:105140001FC08091D80080FF1BC08091DA008E7F45
:105150008093DA008091D90080FF0DC080E189BD85
:1051600082E189BD09B400FEFDCF81E08093140384
:105170000E94DF2405C019BC109214030E94ED2484
:105180008091E10080FF19C08091E20080FF15C08E
:105190008091E2008E7F8093E2008091E200806146
:1051A0008093E2008091D80080628093D80019BC7F
:1051B00085E0809314030E94F1248091E10084FF34
:1051C00030C08091E20084FF2CC080E189BD82E183
:1051D00089BD09B400FEFDCF8091D8008F7D8093FA
:1051E000D8008091E1008F7E8093E1008091E20001
:1051F0008F7E8093E2008091E20081608093E200E4
:1052000080911003882311F084E007C08091E300AF
:1052100087FD02C081E001C083E0809314030E94F7
:10522000F2248091E10083FF29C08091E20083FF96
:1052300025C08091E100877F8093E10082E0809328
:105240001403109210038091E1008E7F8093E1009F
:105250008091E2008E7F8093E2008091E200806185
:105260008093E20042E060E080E00E947B27809132
:10527000F00088608093F0000E94F024FF91EF918D
:10528000BF91AF919F918F917F916F915F914F915E
:105290003F912F910F900FBE0F901F9018951F9266
:1052A0000F920FB60F9211242F933F934F935F935A
:1052B0006F937F938F939F93AF93BF93CF93DF931E
:1052C000EF93FF93C091E900CF708091EC00D82F4D
:1052D000D17080FDD0E81092E9008091F000877FC6
:1052E0008093F00078940E9493291092E9008091B5
:1052F000F00088608093F000CD2BCF70C093E90060
:10530000FF91EF91DF91CF91BF91AF919F918F91DD
:105310007F916F915F914F913F912F910F900FBEB1
:105320000F901F9018951F93CF93DF93CDB7DEB7E3
:10533000AA970FB6F894DEBF0FBECDBFE5E1F3E04C
:105340008091F100819323E0ED31F207C9F70E94CB
:10535000FD248091E80083FF2EC180911503909178
:105360001603492F50E04A30510508F024C1FA01D4
:10537000EC58FF4F0C94692B803821F0823809F0EB
:105380001AC108C08091110390911203992389F0EA
:1053900082600FC0809119038F70873008F00BC1B5
:1053A0008093E9008091EB0085FB882780F91092BB
:1053B000E9009091E800977F9093E8008093F100D6
:1053C0001092F100D1C0282F2D7F09F0F4C088235E
:1053D00019F0823061F0EFC080911703813009F03D
:1053E000EAC0933009F080E0809312032EC08091D0
:1053F000170381112AC0809119038F702FEF280F96
:10540000263008F0D8C08093E9002091EB0020FFFF
:105410001CC0933021F48091EB00806214C0909105
:10542000EB0090619093EB0021E030E0A90102C015
:10543000440F551F8A95E2F74093EA001092EA0064
:105440008091EB0088608093EB001092E9008091DE
:10545000E800877F8093E8000E94B027ACC08111EC
:10546000AAC0109117031F778091E3008078812BE9
:105470008093E3008091E800877F8093E8000E949A
:10548000B0278091E80080FFFCCF8091E300806826
:105490008093E300111102C082E001C083E0809399
:1054A000140389C08058823008F085C080911703AA
:1054B000909118038C3D53E0950779F583E08A833A
:1054C0008AE289834FB7F894DE01139620E03EE02C
:1054D00051E2E32FF0E050935700E49120FF03C026
:1054E000E295EF703F5FEF708E2F90E0EA3010F0A2
:1054F000C79601C0C0968D939D932F5F243149F7C5
:105500004FBF8091E800877F8093E8006AE270E0F7
:10551000CE0101960E94BC2616C0609119037091BD
:105520001A03AE014F5F5F4F0E940026BC01892B1A
:1055300009F441C09091E800977F9093E800898139
:105540009A810E941A278091E8008B778093E80067
:1055500032C0803881F58091E800877F8093E80031
:10556000809110038093F1008091E8008E7772CFD4
:10557000811121C0809117039091180399270297F8
:10558000D4F48091E800877F8093E800809117032E
:10559000809310030E94B02780911003811106C0F0
:1055A0008091E30087FD02C081E001C084E0809328
:1055B00014030E94F3248091E80083FF0AC08091C5
:1055C000E800877F8093E8008091EB008062809301
:1055D000EB00AA960FB6F894DEBF0FBECDBFDF91E9
:1055E000CF911F9108950895CF938091140388233C
:1055F000A1F0C091E900CF709091EC00892F8170EB
:1056000090FD80E8C82B1092E9008091E80083FDAE
:105610000E949329CF70C093E900CF910895DB01D8
:105620008F939F930E948D2BBF91AF91A29F800D6E
:10563000911DA39F900DB29F900D11240895AA1B58
:10564000BB1B51E107C0AA1FBB1FA617B70710F06D
:10565000A61BB70B881F991F5A95A9F7809590959F
:10566000BC01CD01089597FB072E16F4009407D0D6
:1056700077FD09D00E941F2B07FC05D03EF49095C2
:1056800081959F4F0895709561957F4F0895A1E290
:105690001A2EAA1BBB1BFD010DC0AA1FBB1FEE1FAC
:1056A000FF1FA217B307E407F50720F0A21BB30BF7
:1056B000E40BF50B661F771F881F991F1A9469F773
:1056C00060957095809590959B01AC01BD01CF01CF
:1056D0000895EE0FFF1F0590F491E02D09940E94AC
:1056E000772B332312F48A1B9B0B0C94882BA29FDD
:1056F000B001B39FC001A39F700D811D1124911DA6
:10570000B29F700D811D1124911D08950E94772B69
:10571000B7FF0895821B930B08950E94772BA59FD6
:10572000900DB49F900DA49F800D911D112408959C
:10573000B7FF0C948D2B0E948D2B821B930B089529
:10574000FC014150504030F001900616D1F73197DE
:10575000CF010895882799270895FB01DC0104C033
:105760008D910190801921F441505040C8F7881B59
:10577000990B0895F999FECF92BD81BDF89A9927AA
:1057800080B50895A6E1B0E044E050E00C94F42B1D
:10579000A8E1B0E042E050E00C94F42B262FF999F8
:1057A000FECF92BD81BDF89A019700B4021639F080
:1057B0001FBA20BD0FB6F894FA9AF99A0FBE089551
:1057C0000396272F0E94CF2B0E94CE2B252F0E94BD
:1057D000CF2B242F0C94CF2B0196272F0E94CF2B59
:1057E0000C94CE2BDC01CB01FC01F999FECF06C055
:1057F000F2BDE1BDF89A319600B40D92415050408F
:08580000B8F70895F894FFCFFA
:105808003B022808641E140A321E0101020010001F
:10581800101001191A1B1C1D1E1F20212249249E2D
:10582800247F247B24772401E200E900EA00B50004
:10583800B600B700CD008301CC008A019201940123
:105848002102230224022502260227022A02B3008B
:10585800B4006F007000818283E200E900EA00B5BD
:1058680000B600B700CD008301CC008A01920194F4
:10587800012102230224022502260227022A02B35A
:1058880000B4006F007000818283F0F1C66766374C
:105898009431303534979633F49091929395000172
:1058A800020202020606060909090909090F0F0F73
:1058B8000F0F0F151515181919191919191919197B
:0458C800192324007C
:00000001FF
