:100000000C94B2020C94F9020C94F9020C94F902CB
:100010000C94F9020C94F9020C94F9020C94F90274
:100020000C94F9020C94F9020C94042D0C94D62D26
:100030000C94C7270C94F9020C94F9020C94F90261
:100040000C94F9020C94F9020C94F9020C94F90244
:100050000C94F9020C943C280C94F9020C94F902CB
:100060000C94F9020C94F9020C94F9020C94F90224
:100070000C94F9020C94F9020C94F9020C94F90214
:100080000C94F9020C94F9020C94F9020C94F90204
:100090000C94F9020C94F9020C94F9020C94F902F4
:1000A0000C94F9020C94F9020C94F90213141C1428
:1000B000211426142B14301435143A143F1444140C
:1000C00049144E14531458145D14621467146C14BC
:1000D000711476147B14801485148A14141817185C
:1000E0001C18231828182D18321837183C184118D6
:1000F00046184B184D184F185118571857185718BD
:1001000057185718CF1DCF1D011E011E4E1E6C1E05
:10011000801F801F771E101F211F211F20202020DD
:10012000322032202920322032203220202020206C
:100130002E20322032202E20432E6A2E622F6A2E4D
:10014000622FB62ED92E622F302F3F2F165C1E0045
:100150001F0020002100220023002400250026008B
:1001600027002D002E002A002B0014001A00080082
:10017000150017001C0018000C00120013002F00BF
:1001800030003100390004001600070009000A00A1
:100190000B000D000E000F0033003400000028009B
:1001A000E1001D001B0006001900050011001000F1
:1001B000360037003800E50000000000E000E300F2
:1001C000E200000000002C000000000000000151CF
:1001D000E600E7000000E40035003A003B003C0088
:1001E0003D003E003F00400041004200430044000B
:1001F00045004C000100010052000100F100ED003B
:10020000F200F90049000100460047004800005C88
:100210000100500051004F00EF00EE00F000FA0026
:10022000010001004A004B000000AB00AC00AA0036
:10023000A900A8000100F300E700010002514D00F1
:100240004E0052000000000001000100010000000B
:1002500000000100000000000000000050005100FC
:1002600000004F0001003A003B003C003D003E0012
:100270003F004000410042004300440045004C0064
:100280000100C35C0100C65CC75CC85CC95CCA5C99
:10029000CB5CC45C010001000100005C01000100B6
:1002A000010001000100010001000100CC5CCD5CF7
:1002B0000100010000000100010001000100010037
:1002C0000100010001000100010001000100010026
:1002D000000000000100010001000000000001001A
:1002E000000000000000010001000100000001000A
:1002F00000010101010101010101020202020202E9
:1003000002020203030303030303030404040404BB
:100310000404050505050506060606060707070782
:100320000708080808090909090A0A0A0B0B0B0C37
:100330000C0C0D0D0D0E0E0E0F0F0F1010111111D4
:100340001212131314141515161617171818191955
:100350001A1A1B1B1C1D1D1E1E1F202021222223BA
:100360002424252626272829292A2B2C2D2D2E2FFB
:1003700030313232333435363738393A3B3C3D3E12
:100380003F404142434445464748494A4C4D4E4F01
:1003900050515354555658595A5B5D5E5F616264C3
:1003A000656668696B6C6D6F7072737577787A7B50
:1003B0007D7E8082838587888A8C8E8F91939596A7
:1003C000989A9C9EA0A2A3A5A7A9ABADAFB1B3B5C7
:1003D000B7BABCBEC0C2C4C6C9CBCDCFD1D4D6D8A3
:1003E000DBDDDFE2E4E7E9EBEEF0F3F5F8FAFDFF41
:1003F0001A0344005A003600300052004700420001
:100400005F0041004E005300490000000E0344000D
:100410005A0054004500430048000000040309044A
:1004200009023B00020100A0FA09040000010301D7
:100430000100092111010001224000070581030884
:10044000000A090401000103000000092111010054
:100450000122B6000705820320000A1201100100E4
:100460000000085A4421120200010200010501099E
:1004700002A10185020901A1000509190129081538
:100480000025019508750181020501093009311522
:1004900081257F95027508810609381581257F958C
:1004A0000175088106050C0A38021581257F950122
:1004B00075088106C0C005010980A10185031901E5
:1004C0002AB700150126B700950175108100C005F7
:1004D0000C0901A101850419012AA002150126A019
:1004E00002950175108100C005010906A10185056D
:1004F000050719E029E71500250195087501810216
:100500000507190029EF1500250195F075018102F5
:1005100005081901290595057501910295017503D5
:100520009101C005010906A101050719E029E71598
:100530000025019508750181029501750881010565
:1005400007190029FF150026FF0095067508810090
:100550000508190129059505750191029501750395
:100560009101C00011241FBECFEFDAE0DEBFCDBF86
:1005700004B603FE27C08091160790911707A0913B
:100580001807B09119078730904BA740B04BD1F4B2
:100590001092160710921707109218071092190759
:1005A00014BE84B7877F84BF0FB6F894A895809156
:1005B0006000886180936000109260000FBEE0E0F0
:1005C000F8E3099513E0A0E0B1E0E0ECF1E602C049
:1005D00005900D92A839B107D9F727E0A8E9B3E053
:1005E00001C01D92A631B207E1F70E943C2A0C948B
:1005F000DE300C94000081E00E9410150C948F27CF
:1006000080E00E9410150C9475270E94431B81FF07
:1006100007C02FEF4FEF6FEF88E290E00C942E0DA4
:10062000089581E0089581E008950C9413030895DE
:100630000C9417031F93CF93DF9300D000D01F9229
:10064000CDB7DEB749835A836B83309172048981B9
:100650009A81311114C0662359F0222349F00E9477
:10066000DC24182F682F89819A810E94852403C079
:100670000E94B024182F69817A81812F04C00E94C2
:10068000DC2469817A810F900F900F900F900F906A
:10069000DF91CF911F910C94D203FC01262F408152
:1006A00051816281738184810C941A03CF93DF930B
:1006B000EC0160E00E944D03BE01DF91CF910C94EC
:1006C00018030E948D280E940926811102C00E94F1
:1006D000B0260E94E2140C94D7050C94D30508951B
:1006E0000E940E200E946F032FEF84E39CE02150B4
:1006F00080409040E1F700C000000C9462280F9306
:100700001F93CF93DF93EC0161E00E944D038C01B6
:10071000BE010E941503882379F1BE01C8010E9421
:10072000D018882349F1BE01C8010E9422198823EC
:1007300019F1BE01C8010E944D1A8823E9F0BE01DB
:10074000C8010E94FD178823B9F08A81882369F0C7
:1007500001158CE5180731F00F3D1C4531F40E945E
:10076000B0260AC00E94700307C0CE01DF91CF916E
:100770001F910F910C94110380E0DF91CF911F9195
:100780000F91089508950C94C20381E008950C948C
:10079000C503CF93C82F0E94C3038C2F0E94C703A9
:1007A000CF91089526E4829FC0011124FC012EE020
:1007B000729FE00DF11D1124E60FF11DEE0FFF1FDA
:1007C000E45BFE4F859194910895CF93DF930E944F
:1007D000D2030E94E704EC01811521E5920708F09D
:1007E00043C0811540E5940708F08AC0883E910512
:1007F00020F5803E910508F0E6C0883A910570F436
:10080000853A910508F074C08130910509F4DBC088
:1008100008F4D7C0049708F0D6C0D3C08F3B910529
:1008200008F0CFC0C85AD0E0CC0FDD1FCD5EDC4F42
:100830000990D881C02DD464C6C0C11580E2D80704
:1008400058F4C11521E0D20708F0BDC0CD3ED10556
:1008500008F4B7C0D065B7C0C11540E4D40708F4A8
:10086000B0C0DF70D06AAFC0C11585E5D807A0F46D
:10087000C11524E5D20708F08AC0C11543E5D407A5
:1008800008F06FC0C11582E5D80708F054C0DC2F0E
:10089000CC27C16FD06A97C0C11529E5D207A0F453
:1008A000C11548E5D40708F077C0C11586E5D8071B
:1008B00008F087C08C2F0E947B058F71C82FD0E075
:1008C000DC2FCC27D0627FC0C1152AE5D20708F4FF
:1008D00068C0CE0190568115904208F072C08D2FED
:1008E0008F710E947B05DD27D0628F71D82B6BC082
:1008F000C55AD0E0CF5BDC4FC881D0E0D06463C084
:1009000074E0969587957A95E1F783709C2F9370A4
:1009100021E030E002C0220F331F9A95E2F73C68D5
:10092000382BCF70C695C69580E2C89FE001112490
:10093000C22BD32B48C0CE018370992721E030E031
:1009400002C0220F331F8A95E2F78C2F8695869579
:1009500040E2849FC0011124E901C82BD92BDC6837
:1009600032C0CE018370992721E030E002C0220F0F
:10097000331F8A95E2F78C2F8695869540E2849FF7
:10098000C0011124E901C82BD92BDA681CC0DC2F67
:10099000CC27C46FD06A17C0DC2FCC27C06FD06AB9
:1009A00012C08C2F8F700E947B0594E0D695C7955E
:1009B0009A95E1F7CF70D0E0DC2FCC27D069C82B17
:1009C00002C0C0E0D0E0CE01DF91CF91089582381F
:1009D000910569F1B0F48133910509F46DC048F4D3
:1009E0008932910509F463C08A32910509F469C01E
:1009F00008958533910509F455C089339105B9F0FF
:100A00000895833E910569F138F4803E9105B1F077
:100A1000823E910509F10895863E9105A9F1873E30
:100A20009105B9F1843E910509F064C023C020917D
:100A3000070720FD4FC021FD4DC008958091070795
:100A400080FD44C08091080780FF44C08091070763
:100A500084FD42C083EE4DC08091070782FF38C0FD
:100A6000F5CF8091070782FD33C08091080780FD94
:100A700031C0ECCF8091080781FF32C08091070719
:100A800084FD2AC087EE35C08091070783FF26C00A
:100A9000F5CF8091070783FD21C08091080781FD74
:100AA0001FC0ECCF8091070785FD1CC01DC0809141
:100AB000070785FD19C016C08091070786FD16C07F
:100AC00017C08091070786FD13C010C089E311C0CD
:100AD00082EE0FC080EE0DC080E00BC086EE09C034
:100AE00084EE07C089E205C085E303C08AE201C045
:100AF00081E390E008959091070792FF0DC0282FA1
:100B00002871283019F4877F846006C0282F24714B
:100B1000243011F48B7F886093FF0DC0282F28713B
:100B2000283119F4877E846106C0282F247124316E
:100B300011F48B7E88612091080720FF0DC0382FAB
:100B40003871383019F4877F816006C0382F3171D1
:100B5000313011F48E7F886021FF0DC0282F28715D
:100B6000283119F4877E816106C0282F2171213137
:100B700011F48E7E886194FD877E0895E82FF0E061
:100B8000EE0FFF1FED5CFA4F80819181089508956B
:100B900080EA8A95F1F7089500C008950C94C8057D
:100BA00008950C94D0050C94D1050C94D0050C94A8
:100BB000D505F894E82FE295EF70F0E031A1282FE9
:100BC0002F7081E090E001C0880F2A95EAF7982FF6
:100BD0009095932391A392A1892B82A37894089551
:100BE0000F931F93CF93DF9385EF0E94D90584EF76
:100BF0000E94D90581EF0E94D90583E30E94D9059F
:100C000082E30E94D905C4E4D3E002E513E08991B0
:100C10000E94D9050C171D07D1F7E9E2F5E0A3E31F
:100C2000B5E0119211921D921D9285E0E333F80711
:100C3000C1F785E00E94B506DF91CF911F910F911A
:100C40000C9461037F928F929F92AF92BF92CF924A
:100C5000DF92EF92FF920F931F93CF93DF9309E2FE
:100C600015E082E5E82E83E0F82EC0E0D0E0712C9C
:100C7000AA24A394B12C4701F7018081F894E82FAE
:100C8000E295EF70F0E021A18F70A50102C0440F42
:100C9000551F8A95E2F7CA01922F982B91A392A132
:100CA0008095892382A378940E94CC05E4E4F3E044
:100CB00020E030E0C12CD12C4191A42FA295AF703F
:100CC000B0E090968C9190E04F7002C0959587951A
:100CD0004A95E2F780FD08C0C501022E02C0880FC8
:100CE000991F0A94E2F702C080E090E0C82AD92A4E
:100CF0002F5F3F4F2E303105F9F65FEFE51AF50A09
:100D0000F40180810E94D905C430D10511F00E9400
:100D1000CE05F80180819181C816D90621F0D182D3
:100D2000C08281E001C080E0782A21960E5F1F4FCB
:100D3000C530D10509F09FCF272D45E063E375E06D
:100D400089E295E00E94B6060E946D03872DDF912F
:100D5000CF911F910F91FF90EF90DF90CF90BF90B8
:100D6000AF909F908F907F9008950895FF920F937A
:100D70001F93CF93DF93F82E092F162FD72FC42F51
:100D8000222349F081E080939C030E94F9279093ED
:100D90009B0380939A0380919C038823D9F08091D0
:100DA0009A0390919B030E941128049798F0EF2DCD
:100DB000F02FA12FBD2F80E090E04C2F50E0841742
:100DC000950734F4219131912D933D930196F7CFFE
:100DD00010929C03DF91CF911F910F91FF90089586
:100DE0008091A30380FF0BC06091060285E0689F9D
:100DF000B001112475956795759567952BC081FF96
:100E000009C06091060285E0689FB00111247595C4
:100E1000679520C082FF07C06091060285E0689F49
:100E2000B001112417C09091A2039923D1F06091D1
:100E30000502961788F72091060285E0289F900109
:100E40001124929FA001939F500D112470E0CA01BC
:100E50000E94AA2F6038710540F46115710519F4DC
:100E600006C065E070E0862F08958FE7089581E061
:100E700008958091A30380FF08C06091020270E092
:100E8000759567957595679521C081FF06C060913E
:100E9000020270E07595679519C082FF04C06091E9
:100EA000020270E010C09091A103992399F0609123
:100EB00001029617A0F780910202899FC0011124B8
:100EC00070E00E94AA2F6038710540F46115710529
:100ED00019F406C061E070E0862F08958FE7089549
:100EE00081E008958D3E21F40E94F006819504C0B2
:100EF0008E3E29F40E94F0068093A70308958F3E4A
:100F000021F40E94F006819504C0803F29F40E94DC
:100F1000F0068093A6030895893F19F40E943907CB
:100F200005C08A3F31F40E94390781958093A80358
:100F300008958B3F21F40E943907819504C08C3FAE
:100F400029F40E9439078093A90308959FE0980F20
:100F5000983078F421E030E0A90102C0440F551F19
:100F60009A95E2F7CA019091A503892B8093A50376
:100F700008958D3F21F48091A30381600BC08E3FC3
:100F800021F48091A303826005C08F3F29F48091F2
:100F9000A30384608093A30308958D3E39F4909158
:100FA000A70397FF35C01092A70359C08E3E29F4BE
:100FB0009091A7031916BCF32BC09091A6038F3E06
:100FC00029F497FF25C01092A60349C0803F19F469
:100FD0001916CCF31DC09091A803893F29F4191666
:100FE000BCF41092A8033BC08A3F19F497FF10C0CD
:100FF000F8CF8B3F39F49091A90397FF09C0109265
:10100000A9032DC08C3F21F49091A9031916BCF3BC
:101010009FE0980F983080F421E030E0A90102C0F1
:10102000440F551F9A95E2F7CA0180959091A50348
:1010300089238093A50313C08D3F21F48091A303DE
:101040008E7F0BC08E3F21F48091A3038D7F05C05E
:101050008F3F29F48091A3038B7F8093A30380911A
:10106000A603811106C08091A703811102C01092CE
:10107000A2038091A803811106C08091A903811168
:1010800002C01092A10308950E94F9272091A6039F
:10109000211104C02091A703222321F09093A003E3
:1010A00080939F032091A803211104C02091A903DC
:1010B000222321F090939E0380939D0384EA93E082
:1010C0000C946A1BEF92FF920F931F93CF93DF93C1
:1010D00000D000D000D0CDB7DEB786E0E4EAF3E080
:1010E000DE01119601900D928A95E1F7E090A6033A
:1010F000F090A7030091A8031091A9031092A603F2
:101100001092A7031092A8031092A903E11003C044
:10111000FF2009F45DC080919F039091A0030E947D
:101120001128AC019091A203992339F02091070274
:1011300030E02417350758F04BC0209108028AE0B0
:10114000289F900111242417350718F041C09F3FB4
:1011500019F09F5F9093A203EE2061F00E94F006C9
:101160001E1414F09FEF01C091E0989F902D112460
:101170009093A603FF2061F00E94F0061F1414F064
:101180009FEF01C091E0989F902D11249093A703A9
:101190003091A6033323E1F02091A7032223C1F06D
:1011A00045EB3403C0011124992319F09093A60351
:1011B00003C081E08093A60335EB2303C001112413
:1011C000992319F09093A70303C081E08093A703AC
:1011D000011103C0112309F45DC080919D0390911A
:1011E0009E030E941128AC019091A103992339F02C
:1011F0002091030230E02417350758F04BC02091AE
:1012000004028AE0289F900111242417350718F062
:1012100041C09F3F19F09F5F9093A103002361F0AD
:101220000E943907101614F09FEF01C091E0989FBB
:10123000902D11249093A803112361F00E94390787
:10124000111614F09FEF01C091E0989F902D11248A
:101250009093A9033091A8033323E1F02091A903CF
:101260002223C1F045EB3403C0011124992319F066
:101270009093A80303C081E08093A80335EB230378
:10128000C0011124992319F09093A90303C081E0B0
:101290008093A9038091A60381110BC08091A703BD
:1012A000811107C08091A803811103C08091A90317
:1012B00081110E944408EB82FC820D831E8386E02C
:1012C000FE013196A4EAB3E001900D928A95E1F710
:1012D00026960FB6F894DEBF0FBECDBFDF91CF913B
:1012E0001F910F91FF90EF900895E4EAF3E086E0FC
:1012F000DF011D928A95E9F71092A2031092A103D3
:101300001092A3030895EF92FF920F931F93CF9330
:10131000DF938B01682F11110AC0442329F0E82FB5
:10132000F0E0E051FD4F6491762F862F75C0212F9C
:1013300030E0E82FF0E0442321F0E051FD4FE4914C
:10134000F0E046E0049FC0011124CFEFD0E0BE01E1
:101350000E94962F4BEA4603C001479F900D11242F
:10136000800F911D800F911D982F990F890FAE014D
:10137000421B530B4E9FD0014F9FB00D5E9FB00D8F
:1013800011249B2F189FA0011124452F55278E0152
:10139000041B150B0E9FA0010F9F500D1E9F500D9B
:1013A00011247E01E81AF108E29E8001E39E100DEF
:1013B000F29E100D1124212F3327C21BD30BCE9F79
:1013C0009001CF9F300DDE9F300D112462307105EA
:1013D000A9F048F46115710569F061307105C9F42F
:1013E0008B2F752F0DC06430710581F058F0663079
:1013F000710579F47E2F8B2F932F0DC0832F7B2FB8
:101400009E2F09C08E2F7B2F952F05C08E2F732FF7
:1014100002C07E2F852F692FDF91CF911F910F91F1
:10142000FF90EF90089541E00E948309089520E025
:1014300030E0869F212D969F200D311D1124C9017A
:101440000895BC018230910508F40895613E8EE153
:10145000780748F49B0195E0369527959A95E1F732
:1014600048E0420F01C04FEF91E0242F30E0290FF8
:10147000311D35952795229FF001239FF00DF00D2A
:1014800011246E177F0718F44FEF420F04C02F3F4F
:1014900039F091E0920F491740F78FEF890F0895C7
:1014A0008FEF0895482F982F46FD9095E92FEF7301
:1014B0009F7046FD9F5FE295EF70EE0FF0E0E95AF6
:1014C000FC4F2181299F802D212D112482958F7021
:1014D0002295207F822B3081982F930F892F47FDF3
:1014E000819580580895E42FF0E0EE0FFF1FE65B32
:1014F000FE4F408134EE439F412D1124E82FF0E050
:1015000050E0445E5F4FDA01A21BB1099D01B7FFB5
:1015100003C031952195310993E0220F331F9A952D
:10152000E1F7AF01421B530B9A0157FF02C020E0C5
:1015300030E0582F259F212D1124822F0895622FEE
:101540000895E42FF0E0EE0FFF1FE65BFE4F608191
:10155000621B0895E42FF0E0EE0FFF1FE55BFE4FE6
:101560006081621B0895A22F50E0FA01EE0FFF1F69
:10157000E55BFE4F9081905297FD9195440F551F6A
:10158000FA01E65BFE4F3081232F30E02A1B310940
:10159000290F311D97FD3A95620F0895EF920F9331
:1015A0001F9393E0099F80011124159507956E2DD7
:1015B000600F1F910F91EF9008950F93CF93DF93DA
:1015C000D72FC82F47FD4195E8E3F0E0CF01841BFA
:1015D000910947FD9395889FB001899F700D700D0B
:1015E0001124229FC001239F900D900D1124860F7E
:1015F000971F0E94210A682F660F860F682F600FC1
:101600007D2F8C2FDF91CF910F9108950F931F9312
:10161000522F10E0F801EE0FFF1FE55BFE4FE08157
:10162000F0E0B0979F015203D001539FB00D1124F9
:10163000000F111FF801E65BFE4F008110E000571C
:10164000110940039001419F300D11242A0F3B1FC7
:1016500037FF02C021583F4F220F232F221F330B89
:10166000620F1F910F9108950F931F93522F10E057
:10167000F801EE0FFF1FE55BFE4FE081F0E0B09751
:10168000EE0FFF1F9F015203D001539FB00D112495
:10169000000F111FF801E65BFE4F008110E00057BC
:1016A0001109000F111F40039001419F300D1124BB
:1016B0002A0F3B1F37FF02C021583F4F220F232F15
:1016C000221F330B620F1F910F9108950F931F93E9
:1016D00010E0F801EE0FFF1FE65BFE4F9081905780
:1016E00097FD9195000F111FF801E55BFE4FE0811A
:1016F000F0E0B097DF01AA0FBB1F8D010E0F1F1F77
:101700002003D001219FB00D1124E8E3F0E0E91B94
:10171000F10997FDF3959F01220F331F89010E0FE9
:101720001F1F40039001419F300D11242A0F3B1FC2
:1017300037FF02C021583F4F220F232F221F330BA8
:10174000620F1F910F9108954095282F429F412DC0
:101750001124842F089522E8241B08F420E0620F4E
:101760000895FC019B01009721F477FF2BC080E8CE
:101770000895AC0197FF04C044275527481B590B17
:10178000B901640F751F37FD0CC0241B350BC9014F
:10179000A5E0880F991FAA95E1F70E94AA2F80E281
:1017A0000CC0CB0165E0880F991F6A95E1F7BA017B
:1017B000621B730B0E94AA2F80E6861BF7FF03C0F3
:1017C0008195089580E00895FF920F931F93CF9322
:1017D000DF93F62ED72F182FC901C12FC01BBA01D6
:1017E0000E94B10B982F990F890FC81B2C2F219F96
:1017F000212D1124822F6F2D7D2FDF91CF911F91ED
:101800000F91FF900895EF920F931F93CF93DF9363
:10181000D62FC72F182FC9010E19010FBA010E9428
:10182000B10B081B202F219F212D1124822F6D2FFA
:101830007C2FDF91CF911F910F91EF9008950F931F
:10184000CF93DF93D72FC82FC901BA010E94B10BE4
:10185000682F600F7D2F8C2FDF91CF910F9108950E
:10186000EF920F93CF93DF93D72FC82FC9010E1993
:10187000BA010E94B10B602F681B7D2F8C2FDF9166
:10188000CF910F91EF9008950E94130A08951F932E
:10189000CF93DF935FEF580FA1E0A80F4FEF460FF4
:1018A00091E0960FC82FD0E0461780F42EE02C9FD1
:1018B000F0012D9FF00D1124E952FC4FE40FF11DB2
:1018C000208130E1230F08F42FEF2083262F30E012
:1018D0007EE07C9FF0017D9FF00D1124E952FC4FCA
:1018E000EF01C20FD31F788110E2710F08F47FEF70
:1018F00078839E3040F4E90FF11D708110E1710F83
:1019000008F47FEF7083A53070F5B0E0461780F4DF
:101910007EE07A9FF0017B9FF00D1124E952FC4F8D
:10192000E40FF11D70811DE0710F08F47FEF7083EB
:101930007EE07A9FF0017B9FF00D1124E952FC4F6D
:10194000DF01A20FB31F7C9110E1710F08F47FEF4C
:101950007C939E3040F4E90FF11D70811DE0710F02
:1019600008F47FEF7083581778F5A52FB0E046177D
:1019700080F48EE08A9FF0018B9FF00D1124E952D4
:10198000FC4FE40FF11D40815DE0450F08F44FEF7F
:1019900040838EE08A9FF0018B9FF00D1124E95265
:1019A000FC4FDF01A20FB31F2C9130E1230F08F48D
:1019B0002FEF2C939E3040F4E90FF11D20813DE084
:1019C000230F08F42FEF2083DF91CF911F9108950B
:1019D00045E050E06CE170E08DE395E00C946A30F6
:1019E00045E050E06CE170E08DE395E00C948830C8
:1019F000EDE3F5E085E2808380911C0290911D0269
:101A0000A0911E0281839283A3838FE784830C9429
:101A1000F00C80E008950F931F93CF93DF93C82FAE
:101A2000D62F8A010E94090D9EE0C99FF001112462
:101A3000EC5FFE4FED0FF11D90819F3F29F0F80103
:101A4000E80FF11D90838F5FDF91CF911F910F9170
:101A50000895E0916503F09166030994E0916103B4
:101A6000F091620309944F925F926F927F928F92EE
:101A70009F92AF92BF92CF92DF92EF920F931F93FC
:101A8000CF93DF932C013B01FC01C0818DE0C89F07
:101A9000C02D1124DDE0DC0FDE3308F0DDE36091C2
:101AA0004105669580914205909143050E94170A71
:101AB000182FCD1708F044C08C2E912CF401EC5354
:101AC000FE4F9081F20181818923C1F1F401EE0F73
:101AD000FF1FE65BFE4FC080D12CF0E7CF1AD10884
:101AE000F401EE0FFF1FE55BFE4FA080B12C80E2FA
:101AF000A81AB108CC9C9001CD9C300D300D11245A
:101B0000AA9CC001AB9C900D900D1124820F931FD5
:101B10000E94210A082F60913E0570913F05809137
:101B20004005E12E9501A601F30109950E94440CA0
:101B3000462F282F672FC4010E942E0DCF5FB9CFEB
:101B400081E0DD3308F080E0DF91CF911F910F91AC
:101B5000EF90DF90CF90BF90AF909F908F907F904D
:101B60006F905F904F90089563E07CE00C94330D8C
:101B70006EEC7AE00C94330D60E37CE00C94330D52
:101B8000AF92BF92CF92DF92EF92FF920F931F938B
:101B9000CF93DF936C015B01FC01C0818DE0C89F96
:101BA000C02D1124DDE0DC0FDE3308F0DDE36091B1
:101BB0004105669580914205909143050E94170A60
:101BC000182FCD1778F5EC2EF12CF701EC53FE4FC2
:101BD0009081F6018181892319F1F701EE0FFF1F32
:101BE000E55BFE4F208130E020523109F701EE0F16
:101BF000FF1FE65BFE4F408150E040575109609166
:101C00003E0570913F0580914005012FF501099532
:101C10000E94440C462F282F672FC7010E942E0DCB
:101C2000CF5FCFCF81E0DD3308F080E0DF91CF914F
:101C30001F910F91FF90EF90DF90CF90BF90AF90EA
:101C4000089564EE7BE00C94C00D6DED7AE00C9489
:101C5000C00D6FE17CE00C94C00DBF92CF92DF927B
:101C6000EF92FF920F931F93CF93DF938C017B0131
:101C7000FC01C0818DE0C89FC02D1124DDE0DC0F88
:101C8000DE3308F0DDE3609141056695669580914D
:101C90004205909143050E94170AB82ECD17F0F423
:101CA000CC2ED12CF601EC53FE4F9081F8018181AE
:101CB000892391F060913E0570913F058091400528
:101CC0002B2D4C2FF70109950E94440C462F282FED
:101CD000672FC6010E942E0DCF5FE0CF81E0DD337C
:101CE00008F080E0DF91CF911F910F91FF90EF906E
:101CF000DF90CF90BF90089563E77AE00C942D0EAB
:101D00006FE97AE00C942D0E61EA7AE00C942D0EC6
:101D10006AEA7AE00C942D0E63EB7AE00C942D0EB7
:101D20007F928F929F92AF92BF92CF92DF92EF926B
:101D3000FF920F931F93CF93DF936C015B01FC0124
:101D4000C0818DE0C89FC02D1124DDE0DC0FDE33A3
:101D500008F0DDE360914105669566958091420546
:101D6000909143050E94170A182F80E4810F0E946A
:101D7000520A90E8F92EF80E812F0E94520A20E8AC
:101D8000722E780ECD1700F58C2E912CF401EC53A9
:101D9000FE4F9081F60181818923A1F060913E057B
:101DA00070913F0580914005E12E0C2F272D4F2D7E
:101DB000F50109950E94440C462F282F672FC40176
:101DC0000E942E0DCF5FDECF81E0DD3308F080E092
:101DD000DF91CF911F910F91FF90EF90DF90CF9007
:101DE000BF90AF909F908F907F90089566E07BE0CA
:101DF0000C94900E64E37BE00C94900E66E67BE01E
:101E00000C94900EAF92BF92CF92DF92EF92FF921E
:101E10000F931F93CF93DF937C015B01FC01C08183
:101E20008DE0C89FC02D1124DDE0DC0FDE3308F00B
:101E3000DDE32091410530E040E050E06FEF7FEFBF
:101E400080E090E00E94BE2F8901CD17E8F5CC2EEE
:101E5000D12CF601EC53FE4F9081F701818189234B
:101E600089F190914605915097FD15C0292F092EB3
:101E7000000C330BF901EA5BFA4F8189C813F3CFE9
:101E8000220F331FF901EA5BFA4F218D328D2017A3
:101E9000310748F701C0980160914105C9010E94CE
:101EA000170AAC0160913E0570913F058091400595
:101EB000F50109950E94440C462F282F672FC60173
:101EC0000E942E0DCF5FC1CF81E0DD3308F080E0AE
:101ED000DF91CF911F910F91FF90EF90DF90CF9006
:101EE000BF90AF90089564EA7BE00C94020F6BEA18
:101EF0007BE00C94020FDF92EF92FF920F931F93FF
:101F0000CF93DF938C01DC018C91CDE08C9FC02DB1
:101F10001124DDE0DC0FDE3308F0DDE360913E05E7
:101F200070913F05809140050E94440CF62EE72EEB
:101F3000D82ECD1798F4EC2FF0E0DF01AC53BE4F54
:101F40008C91D80111969C91982331F02D2D4F2D15
:101F50006E2DCF010E942E0DCF5FEBCF81E0DD33E0
:101F600008F080E0DF91CF911F910F91FF90EF90EB
:101F7000DF900895AF92BF92CF92DF92EF92FF92DF
:101F80000F931F93CF93DF938C01FC01C0818DE0F1
:101F9000C89FC02D1124DDE0DC0FDE3308F0DDE347
:101FA000E0903F05F0904005D0903E056D2D7E2DD0
:101FB0008F2D0E94440CC62EB72EA82E609141058D
:101FC0006D0D7E2D8F2D0E94440CF62EE72ED82EFF
:101FD000CD17B8F48C2F90E0FC01EC53FE4F30810C
:101FE000F8012181232359F030FF04C02D2D4F2DFE
:101FF0006E2D03C02A2D4C2D6B2D0E942E0DCF5F10
:10200000E7CF81E0DD3308F080E0DF91CF911F91D1
:102010000F91FF90EF90DF90CF90BF90AF90089519
:10202000BF92CF92DF92EF92FF920F931F93CF93C5
:10203000DF937C01FC01C0818DE0C89FC02D11247D
:10204000DDE0DC0FDE3308F0DDE3C0903F05B0904B
:1020500040052091410530E4D32E3D2D329F312D96
:102060001124D32ECD1738F50C2F10E0F801EC53C6
:10207000FE4F9081F70181818923D9F0F801EE0F9D
:10208000FF1FE65BFE4F6081D69EB001112495E0F4
:10209000759567959A95E1F780913E05680F7C2DBF
:1020A0008B2D0E94440C462F282F672FC8010E94B9
:1020B0002E0DCF5FD7CF81E0DD3308F080E0DF91D8
:1020C000CF911F910F91FF90EF90DF90CF90BF9035
:1020D0000895DF92EF92FF920F931F93CF93DF93B8
:1020E0008C01DC01CC918DE0C89FC02D1124DDE076
:1020F000DC0FDE3308F0DDE3E0903E05F0903F05B5
:10210000D0904005609141056695669566958091F1
:102110004205909143050E94170A0E94520A805876
:1021200087FD8195880F282F3D2D239F212D112478
:10213000822FB7010E94440CF62EE72ED82ECD1721
:1021400098F4EC2FF0E0DF01AC53BE4F8C91D80136
:1021500011969C91982331F02D2D4F2D6E2DCF018E
:102160000E942E0DCF5FEBCF81E0DD3308F080E0E1
:10217000DF91CF911F910F91FF90EF90DF90089525
:10218000DF92EF92FF920F931F93CF93DF93EC01B7
:10219000FC01EC53FE4F9081692381F1D0903F0503
:1021A0000091400510913E05E12EF12C0E94513026
:1021B000282FC7018C549F4F68E671E00E94AA2F18
:1021C0008E199F0997FD0396959587959595879507
:1021D0002370612F289F600D11247D2D802F0E9478
:1021E000440C462F282F672FCE01DF91CF911F91EE
:1021F0000F91FF90EF90DF900C942E0DDF91CF9117
:102200001F910F91FF90EF90DF900895CF92DF9292
:10221000FF920F931F93CF93DF938C01FC01C28138
:10222000C1111DC06091410520E1620F08F46FEFFC
:1022300080914205909143050E94170A6AE070E080
:102240000E94962F892B59F50E9451306DE370E062
:102250000E94AA2FF80161810E94C01020C0FC01D9
:102260008081CDE08C9FC02D11249DE0F92EFC0EC5
:10227000FDE3FF1510F48DE3F82ED0E0CF2CD12C28
:10228000CC15DD053CF4F8016181CE010E94C0103F
:102290002196F6CFC1E0FCE3FF1508F4C0E08C2FD7
:1022A000DF91CF911F910F91FF90DF90CF90089514
:1022B0001F93CF93DF93FC01EC53FE4F20816223E9
:1022C000A9F0EC010E945130182F0E945130612F6B
:1022D000782F809140050E94440C462F282F672FAD
:1022E000CE01DF91CF911F910C942E0DDF91CF91F4
:1022F0001F910895CF92DF92FF920F931F93CF9378
:10230000DF938C01FC01C281C1111DC060914105A8
:1023100020E1620F08F46FEF809142059091430530
:102320000E94170A65E070E00E94962F892B59F5EC
:102330000E9451306DE370E00E94AA2FF801618184
:102340000E94581120C0FC018081CDE08C9FC02DDF
:1023500011249DE0F92EFC0EFDE3FF1510F48DE332
:10236000F82ED0E0CF2CD12CCC15DD053CF4F801B3
:102370006181CE010E9458112196F6CFC1E0FCE3A5
:10238000FF1508F4C0E08C2FDF91CF911F910F91C2
:10239000FF90DF90CF900895E0916303F091640384
:1023A00009942F923F924F925F926F927F928F92F9
:1023B0009F92AF92BF92CF92DF92EF92FF920F93D4
:1023C0001F93CF93DF93CDB7DEB72B970FB6F8945B
:1023D000DEBF0FBECDBF5C01DC018C910DE0809FA4
:1023E000002D1124BDE0B00FB987B73410F0E6E43A
:1023F000E987D50112968C91882361F040E060E076
:1024000080E00E94CC1186E4E7EDF3E0DF011D924D
:102410008A95E9F7F5018081811115C080911F042B
:10242000909120040E94112821E08931910508F43F
:1024300020E020931E04499730F00E94F9279093E2
:10244000200480931F0410E09985892F90E09B87DA
:102450008A878EE0482EDE0111963D019AEA292EE8
:102460008A859B85081719070CF064C0C80165E0D0
:1024700070E00E94AA2F7B014C01489EF001499E0A
:10248000F00D1124E952FC4FE60FF71F5080A30115
:102490000E940B0D382E63018C2D8619831508F0D0
:1024A00032C0D601EC91F0E0EC53FE4F9081F50183
:1024B0008181892321F1252D35E5231B08F420E0B6
:1024C000622D621B70913F05222D352D230F08F4DC
:1024D0002FEF3091400582E0289F200D11242E5FC0
:1024E000239F212D1124822F0E94440C462FD601B8
:1024F0009C91282F672F892F90E00E942E0DBFEF0F
:10250000CB1ADB0AC9CF80911E04882381F0252DC8
:1025100031E0231B08F420E0489CC001499C900D49
:10252000112489529C4FFC01EE0DFF1D20830F5F8B
:102530001F4F96CF81E09985963408F080E02B9666
:102540000FB6F894DEBF0FBECDBFDF91CF911F91C4
:102550000F91FF90EF90DF90CF90BF90AF909F9042
:102560008F907F906F905F904F903F902F90089545
:10257000AF92BF92CF92DF92EF92FF920F931F9391
:10258000CF93DF93CDB7DEB728970FB6F894DEBFB1
:102590000FBECDBFE82ED62E142F0E94BE1B88235F
:1025A00009F476C0112349F0AE014F5F5F4F6D2DE6
:1025B0008E2D0E940B0DF82E01C0F12CC090AA03A5
:1025C0000F2D10E0C8018C0D911D099764F188E072
:1025D00090E05C01A01AB10AB80165557C4FA501D5
:1025E0008BEA93E00E946130B8016D547C4FA501E5
:1025F00083EB93E00E946130A501440F551FB801A1
:10260000660F771F6D537C4F83EC93E00E9461301F
:10261000B80165547C4FA5018BEB93E00E946130BB
:10262000CA94C092AA031091AA03DE01119640E059
:10263000842F810FF41609F190E05D91252F30E091
:10264000BC0166557C4FF901EE0FFF1FE65BFE4FA4
:102650000081FB010183220F331FF901E55BFE4F6F
:102660002081FB012187518B880F991FFC01E655C2
:10267000FC4F128E118E4F5FDBCF8093AA038091A7
:102680003D058C7F843521F46D2D8E2D0E94470CE5
:1026900028960FB6F894DEBF0FBECDBFDF91CF9165
:1026A0001F910F91FF90EF90DF90CF90BF90AF9070
:1026B000089508950C9459130E945A130C9405031D
:1026C00008950C946013CF93DF93FC01C081C15037
:1026D0008DE0C89FC02D1124DDE0DC0FDE3308F053
:1026E000DDE36D2F8C2F0E9461136D2F8C2FDF91F6
:1026F000CF910C9460134F925F926F927F928F9262
:102700009F92AF92BF92CF92DF92EF92FF92CF93C0
:102710006091D3037091D4038091D5039091D60337
:102720000E9420286B017C010E9405284B015C015E
:102730006093D3037093D4038093D5039093D6030F
:10274000A091AA03EAEAF3E08A2F90E04FEF5FEF4F
:1027500060E070E04C195D096E097F09A91799F0D6
:10276000218D328D2901612C712C4415550566058A
:10277000770510F4815004C02C0D3D1D328F218F40
:102780009F5F3296EBCF8093AA0380911D04811145
:1027900008C0C0913D058C2F837019F0C695C69571
:1027A00001C0C0E0809109028130E9F038F0823048
:1027B00009F4D9C0833009F4E6C0F6C010920A02C9
:1027C0008092420590924305A0924405B09245053F
:1027D00089E2EAEAF3E0A6E4B5E001900D928A9579
:1027E000E1F781E0CAC080910D02C8130DC02091AD
:1027F0003D05237030E040910E0250E081E0241747
:10280000350719F480E001C081E0817080930C02EB
:102810004C2F50E04831510508F081C0FA01EA5AC6
:10282000FF4F0C94DD2F882309F479C040E060E06D
:1028300080E00E94CC1173C08AE092E00E947B0F7E
:102840006FC08AE092E00E94BA0F6AC08AE092E00C
:102850000E94101065C08AE092E00E94691060C07A
:102860008AE092E00E947C0E5BC08AE092E00E94C7
:10287000210E56C08AE092E00E94B40D51C08AE059
:1028800092E00E94800E4CC08AE092E00E94840E8A
:1028900047C08AE092E00E94880E42C08AE092E03F
:1028A0000E948C0E3DC08AE092E00E94B80D38C0B4
:1028B0008AE092E00E94250E33C08AE092E00E94F6
:1028C000290E2EC08AE092E00E94BC0D29C08AE049
:1028D00092E00E94F60E24C08AE092E00E94FA0E76
:1028E0001FC08AE092E00E94FE0E1AC08AE092E0C9
:1028F0000E94061115C08AE092E00E947A1110C071
:102900008AE092E00E94D1110BC08AE092E00E941E
:10291000730F06C08AE092E00E94770F01C080E04A
:1029200090910A029F5F90930A02811129C082E070
:102930008093090280910C02811122C0CC23E1F026
:102940000E945C138AE092E0CF91FF90EF90DF90BD
:10295000CF90BF90AF909F908F907F906F905F903F
:102960004F900C946313C0930D0280913D058370CA
:1029700080930E020E94290D83E08093090214C007
:10298000CC2391F0DDCF6091420570914305809199
:102990004405909145050E9420286031710581050C
:1029A000910510F010920902CF91FF90EF90DF9007
:1029B000CF90BF90AF909F908F907F906F905F90DF
:1029C0004F900895E0915F03F09160030995109294
:1029D0004605EFE5F5E08FEF9FEF8193919325E0BA
:1029E000EF36F207D1F71092AA03E3ECF3E08FEF92
:1029F0009FEF8193919323E0E33DF207D1F70E948B
:102A00000926811104C00E94B0260E94F80C0E9481
:102A1000E80C80913D058C7F11F40C94F80C08951E
:102A2000CF93C82F882329F040E060E080E00E9427
:102A3000CC11C0931D04CF91089520913D0591E0E4
:102A4000922790933D051092090281110C94F00C8D
:102A5000089581E00C941D1590913D05937091F0BF
:102A6000811102C0946007C0883110F09C6503C0DA
:102A7000880F880F982B90933D05109209026111E1
:102A80000C94F00C089561E00C942C15682F909133
:102A90003D05969596959F5F983110F4892F01C05A
:102AA00081E00C942C1581E00C944615682F9091D0
:102AB0003D0596959695915011F0892F01C087E1BB
:102AC0000C942C1581E00C94561590913D05937053
:102AD00049F080933E0560933F05409340052111E6
:102AE0000C94F00C0895ADE3B5E01196EC911197BC
:102AF000F0E0282F13964C91139712966C91CF010A
:102B000008960C94651581E00C947315ADE3B5E05F
:102B10001196EC911197F0E0282F13964C91139792
:102B200012966C91CF0108970C94651581E00C9476
:102B30008615EDE3F5E0628120E1620F08F46FEFA6
:102B40009181282F4381892F90E00C94651581E0B5
:102B50000C949915EDE3F5E0628120E1621B08F425
:102B600060E09181282F4381892F90E00C946515B6
:102B700081E00C94AA15EDE3F5E0438120E1420FDA
:102B800008F44FEF9181282F6281892F90E00C94F7
:102B9000651581E00C94BB15EDE3F5E0438120E180
:102BA000421B08F440E09181282F6281892F90E038
:102BB0000C94651581E00C94CC152091410530E111
:102BC000230F08F42FEF2093410581110C94F00C92
:102BD000089581E00C94DD152091410530E1231B1F
:102BE00008F420E02093410581110C94F00C089525
:102BF00081E00C94EC1560E080E50E94891761E0AB
:102C000080E50C948917CF930E947E1A60E080E5DE
:102C10000E945F16C0E021E041E061E08C2F0E943D
:102C2000ED16CF5FCD33B9F760E080E50E94BB17AA
:102C300061E080E5CF910C94BB176093EF06409361
:102C4000F00624E630E042E050E06FEE76E0880FD8
:102C50000E940B1B21E0892B09F020E0822F0895B0
:102C6000EF92FF921F93CF93DF937B01182F110FE9
:102C7000C0E0D0E0C093EF06D701AC0FBD1FE0EF7E
:102C8000F6E08D91819387E0E030F807D1F724E6F4
:102C900030E041E150E06FEE76E0812F0E940B1BA7
:102CA000892B31F46096C03CD10521F781E001C049
:102CB00080E0DF91CF911F91FF90EF9008951F93D7
:102CC000CF93DF93C82FD62F45EC6EEF0E941D16D1
:102CD00040E06DEF8C2F0E941D1610E040E0612F48
:102CE0008C2F0E941D161F5F1831C1F745EC6EEF47
:102CF0008C2F0E941D1641E06DEF8C2F0E941D1637
:102D000010E040E0612F8C2F0E941D161F5F103CC9
:102D1000C1F745EC6EEF8C2F0E941D1643E06DEF5E
:102D20008C2F0E941D164FEF61E08C2F0E941D1604
:102D300080E4D89FA0011124416060E08C2F0E94A4
:102D40001D168FE39CE90197F1F700C00000DF91A9
:102D5000CF911F9108958D33910520F5880F991F0C
:102D6000880F991FFC01E15EFD4F52813381808104
:102D700083707181E82FF0E0A0EC8A9FC0011124DC
:102D800081599A4FDC01A70FB11D6C93DC01A50F8F
:102D9000B11D4C93DC01A30FB11D2C93ED5AFB4FD9
:102DA00081E080830895FF920F931F93CF93DF9369
:102DB000182F062FF42EC0E0D0E02F2D402F612FCA
:102DC000CE010E94AB162196CD33D105B1F7DF912C
:102DD000CF911F910F91FF900895CF93DF9334E02F
:102DE000839FC0011124FC01E15EFD4F808183704F
:102DF00051819281C381A52FA695A695A695392FBD
:102E0000369536953695EC2FE695E695E69557700E
:102E1000F92FF770C77090E0B0E0D8E1662391F029
:102E2000D89FB001D99F700D11246D5D7B4FA60F07
:102E3000B71F61E070E001C0660F5A95EAF75C9138
:102E4000652B12C0D89FB001D99F700D11246D5D04
:102E50007B4FA60FB71F61E070E001C0660F5A9567
:102E6000EAF760955C9165236C93632F70E038E11D
:102E7000389FD001399FB00D1124AD5DBB4FA60F17
:102E8000B71F442349F041E050E001C0440FFA95D8
:102E9000EAF73C91432B09C041E050E001C0440FE8
:102EA000FA95EAF740953C9143234C934E2F50E01E
:102EB000222399F028E1289FF001299FF00D112489
:102EC000ED5DFB4FE40FF51F21E030E001C0220F64
:102ED000CA95EAF73081232B13C028E1289FF0011F
:102EE000299FF00D1124ED5DFB4FE40FF51F21E04C
:102EF00030E001C0220FCA95EAF7209530812323E4
:102F00002083FC01EF5DFB4F21E02083DF91CF9117
:102F10000895EF92FF921F93CF93DF93C62FD0E0D7
:102F20009E012D5A3B4F7901F90190819923D9F0E7
:102F3000182F45EC6EEF0E941D1641E06DEF812FBA
:102F40000E941D1680EC8C9FB0018D9F700D112486
:102F500061597A4F812F0E943016811104C0CF5DD4
:102F6000DB4F81E08883F7011082DF91CF911F91C1
:102F7000FF90EF900895CF92DF92FF920F931F93EF
:102F8000CF93DF93262F30E0A9014F5D5B4F6A019D
:102F9000FA01908191110AC0F6011082DF91CF9160
:102FA0001F910F91FF90DF90CF900895C62FF82EBC
:102FB00045EC6EEF0E941D1640E06DEF8F2D0E94D4
:102FC0001D16F8E1CF9FE001112400E010E0F801A8
:102FD000EC0FFD1FED5DFB4F4081602F8F2D0E9498
:102FE0001D160F5F1F4F0831110589F7D5CF8823B4
:102FF00011F0FA0101C0FB0109940F931F93CF93C5
:10300000FB01C281CC2309F450C08C010E945D25D4
:103010008272F801E35CFC45E431F10508F048C038
:10302000E259FF4F0C94DD2F0E94291540C042E663
:1030300055E163E575E104C043E555E162E675E1FC
:103040000E94F71734C046E955E163E875E1F8CF0F
:1030500043E855E166E975E1F3CF48EB55E167EAEE
:1030600075E1EECF47EA55E168EB75E1E9CF4AED4E
:1030700055E169EC75E1E4CF49EC55E16AED75E1A4
:10308000DFCF48EF55E169EE75E1DACF49EE55E162
:1030900068EF75E1D5CF81E005C084E003C089E029
:1030A00001C08EE00E94431502C0C1E001C0C0E033
:1030B0008C2FCF911F910F9108950F931F93CF9352
:1030C000DF93C42FD22FFC0182818823C9F0409363
:1030D00057040E94F927909356048093550480E288
:1030E0008C0F883008F057C0C77081E001C0880F8E
:1030F000CA95EAF7DF91CF911F910F910C948A1D29
:1031000080915704481330C0809155049091560423
:103110000E941128883C910538F510E21D0FCD174B
:10312000B9F080E28C0F883040F4C77081E001C0B4
:10313000880FCA95EAF70E94911D183028F581E0A2
:103140009D2F977001C0880F9A95EAF70E948A1DFB
:10315000802F0E94811D1830F0F4D77081E001C0EB
:10316000880FDA95EAF70AC080E28C0F883098F46D
:10317000C77081E001C0880FCA95EAF7DF91CF914F
:103180001F910F910C94911D802FDF91CF911F9172
:103190000F910C94811DDF91CF911F910F91089594
:1031A0000F939C01CB01243F4CE5340731F188F4A7
:1031B000293DFCE53F07D9F02A3D4CE5340779F17C
:1031C000283D3C45A9F506E221EE41EE68ED7CE59F
:1031D0002BC0263FFCE53F07E1F0A8F0273F3C4528
:1031E00039F507E225EE46EE67EF7CE51DC007E204
:1031F00025EE45EE69ED7CE517C006E221EE40EED6
:1032000064EF7CE511C007E225EE44EE65EF7CE556
:103210000BC006E221EE42EE66EF7CE505C008E257
:1032200021E045EE6AED7CE50E945D1880E008C073
:10323000FC018281882319F01092570401C081E0BB
:103240000F910895CF93DF93EC01FB0182818823D6
:1032500009F41FC1C230FCE5DF0708F41BC1C63109
:103260009CE5D90738F09E012B5F3C45293031059C
:1032700008F010C10E941C2690930807809307074E
:10328000C031ECE5DE0709F4C3C008F041C0C83026
:103290008CE5D80709F49AC0F0F4C430ECE5DE07F9
:1032A00009F487C068F4C2308CE5D80709F477C008
:1032B000C330DC4509F0E3C080910707826076C027
:1032C000C630ECE5DE0709F46EC008F07BC08091E3
:1032D000070788606BC0CC308CE5D80709F485C03F
:1032E00068F4CA30ECE5DE0709F474C008F079C070
:1032F0000E940E2080910707806858C0CE308CE570
:10330000D80709F476C008F07FC0809107078BC00A
:10331000CC3FECE5DE0709F44FC018F5C3318CE56E
:10332000D80709F47DC078F4C131ECE5DE0709F473
:1033300073C0C231DC4509F0A2C00E940E2080910A
:1033400007078F7733C0C5318CE5D80709F472C001
:1033500008F486C0CB3FDC4509F091C08091080796
:103360003EC0C115FDE5DF0709F45FC058F4CE3F4C
:103370009CE5D90709F444C008F43FC080910807D0
:1033800082602DC0C230FDE5DF0709F475C008F486
:103390005DC0C330DD4509F072C080E06EC0809131
:1033A0000707816003C0809107078061809307074A
:1033B00066C08091070711C08091080782608093E2
:1033C00008075DC0809107078062F0CF80910707F2
:1033D0008064ECCF8091070788608460E7CF8160CC
:1033E000EECF809107078E7FE1CF809107078D7F19
:1033F000DDCF80910707877FD9CF8091080718C05C
:10340000809108078D7FDBCF809107078F7ECECF1D
:10341000809107078F7DCACF809107078F7BC6CF2A
:1034200080910707877F8B7FC1CF809108078D7FB1
:103430008E7FC5CF8091070782FB222720F991E07C
:10344000922790FB82F990FB83F9B0CF8091080717
:10345000982F909591708E7F892B90FB81F9AFCF3B
:103460000E940E208091070787FB222720F991E018
:10347000922790FB87F99ACF81E00E94B226809133
:103480000707909108070E942D260E940E2080E0D9
:1034900001C081E0DF91CF910895CF93DF93863112
:1034A0009C4541F5EB010E945D25982F8A81209172
:1034B0000F0230911002882379F09A7A81E009F4A2
:1034C00080E080935804911102C069E201C065E375
:1034D000C9010E944D270AC080915804811102C081
:1034E00069E201C065E3C9010E9458270E949E2538
:1034F00080E001C081E0DF91CF9108951092B90082
:103500008CE08093B8000895EF92FF920F931F9381
:10351000CF93DF93182FEB011092BC0084EA8093C5
:10352000BC000E94F9277C018091BC0087FD0EC081
:10353000CF3F8FEFD807C1F30E94F9278E199F095B
:103540008C179D0788F38EEF9FEF2EC08091B900F6
:10355000887F883041F08091B900887F803119F0F0
:103560008FEF9FEF21C01093BB0084E88093BC00D5
:103570000E94F9278C018091BC0087FD0CC0CF3FD1
:103580008FEFD807C1F30E94F927801B910B8C178E
:103590009D0788F3D8CF8091B900887F883111F0DA
:1035A0008034F1F680E090E0DF91CF911F910F9190
:1035B000FF90EF9008950F931F93CF93DF93EB014C
:1035C0008093BB0084E88093BC000E94F9278C01A3
:1035D0008091BC0087FD0EC0CF3F8FEFD807C1F3AD
:1035E0000E94F927801B910B8C179D0788F38EEFA3
:1035F0009FEF0CC02091B900287F81E090E0283235
:1036000011F480E090E0919581959109DF91CF913F
:103610001F910F910895CF92DF92EF92FF920F9337
:103620001F93CF93DF936B018A017901B9010E9447
:10363000841AE6010C0D1D1DC017D10761F424E9A1
:103640002093BC00DF91CF911F910F91FF90EF90DD
:10365000DF90CF90089597FDF2CFB70189910E9436
:10366000DB1AEACF90935E0480935D040895E091A5
:103670005D04F0915E04309721F00190F081E02D1F
:10368000099480E00895E0915D04F0915E04309724
:1036900011F480E008950190F081E02D09950895DE
:1036A000E0915D04F0915E04309799F020911B0247
:1036B000222359F02091070727FF07C0DC012C9136
:1036C00011962C93119725E02C930280F381E02D25
:1036D00009940895E0915D04F0915E04309739F00B
:1036E00022E0DC012C930480F581E02D09940895FB
:1036F00020915B0430915C042817390771F0909396
:103700005C0480935B04E0915D04F0915E0430976B
:1037100021F00680F781E02D099408952091590445
:1037200030915A042817390771F090935A04809306
:103730005904E0915D04F0915E04309721F000841B
:10374000F185E02D099408950E94052860936E0488
:1037500070936F04809370049093710460936A0473
:1037600070936B0480936C0490936D04089585B7F7
:10377000806885BF85B7806885BF089581E008951A
:103780000C94BE1B08950C94C21B0C94C21B0C9489
:10379000C51B0C94C21B0C94C91B0C94C21B0E9429
:1037A000B71B81E096E20E9486280E94CD1B0C94F4
:1037B000CB1B0E94F0270E94F0050E94A1280C94C8
:1037C000C71B6F927F928F929F92AF92BF92CF92C0
:1037D000DF92EF92FF920F931F93CF93DF93CDB7BA
:1037E000DEB72A970FB6F894DEBF0FBECDBF0E949A
:1037F000C31B0E94C21B0E94220681110E94A41BAF
:1038000030E6832E34E0932E00E010E0E02E802F8F
:103810000E94BE055C01F401619071904F01682621
:10382000792661147104B1F40F5F1F4F0530110543
:1038300069F78FEF89838A831B820E94F927816051
:10384000782F9D838C8349815A816B818D810E9461
:10385000A61C43C08091050581FD0E94C705F12C7F
:10386000CC24C394D12CC3018C219D21892B71F1CF
:103870000E94C01BAC20BD208823A1F0FE82EF82F5
:1038800081E0A114B10409F480E088870E94F9273F
:103890008160782F9A8789874E815F8168858A85C4
:1038A0000E94A61C000F111FF801E05AFB4F8081F7
:1038B0009181C826D926D182C08241E0AB2809F483
:1038C00040E06F2D8E2D0E94B81207C0F394CC0CEF
:1038D000DD1CFEE0FF12C7CFA7CF0E947B130E9422
:1038E00062080E94371B90915F048917D1F00E94F3
:1038F000371B80935F042A960FB6F894DEBF0FBE85
:10390000CDBFDF91CF911F910F91FF90EF90DF908E
:10391000CF90BF90AF909F908F907F906F900C94BE
:10392000C9032A960FB6F894DEBF0FBECDBFDF9154
:10393000CF911F910F91FF90EF90DF90CF90BF90AC
:10394000AF909F908F907F906F900895DF92EF924D
:10395000FF920F931F93CF93DF93CDB7DEB72B97D3
:103960000FB6F894DEBF0FBECDBFF42E052F162F75
:10397000E72ED82E61110E947D25FE01319686E04A
:10398000DF011D928A95E9F77E2D4F2D502F612F73
:103990008D2D9E810E94C7222B960FB6F894DEBF14
:1039A0000FBECDBFDF91CF911F910F91FF90EF9090
:1039B000DF900895FC01808191810E941E25089569
:1039C000CF93882309F450C0C82F8CEF8C0F813A15
:1039D000D0F46C2F80910F02909110020E94CD269E
:1039E000882349F06C2F80910F02909110020E9461
:1039F00058270E949E256C2F80910F0290911002F3
:103A00000E944D270CC080E28C0F883058F4C7709C
:103A100081E001C0880FCA95EAF70E946025CF9126
:103A20000C949E25EBE5EC0FE33040F4F0E0EB5610
:103A3000FC4F808190E0CF910C94781BE8E5EC0F6F
:103A4000E73150F4F0E0EE0FFF1FE959FC4F8081A1
:103A50009181CF910C948E1BCD3E30F08C2F0E9423
:103A60007207CF910C944408CF910895882389F16F
:103A70009CEF980F913A40F4682F80910F0290913B
:103A800010020E9458270DC090E2980F983058F409
:103A9000877091E001C0990F8A95EAF7892F0E94FB
:103AA00066250C949E259BE5980F933020F480E0CA
:103AB00090E00C94781B98E5980F973120F480E003
:103AC00090E00C948E1B8D3E20F00E94CD070C944C
:103AD000440808951F93CF93DF93182FEB010E94A2
:103AE000E01C209741F08FE99FE00197F1F700C0BB
:103AF00000002197F6CF812FDF91CF911F910C9479
:103B0000361D893319F060E070E002C060E570E0B6
:103B10000C946A1D882321F00E9460250C949E2538
:103B20000895882321F00E9466250C949E2508950F
:103B3000CF92DF92EF92FF920F931F93CF93DF9379
:103B40007C01D62FC72FFC011281058102950F70D1
:103B50000E945625882399F0112389F08C2F807FAD
:103B6000803421F080E28D0F883048F082E00E949E
:103B7000E8250E94562591E0D82ED92601C0D12CE7
:103B8000CC2EC2948FE0C8228C2D90E08C30910511
:103B900008F0B6C1FC01EE57FF4F0C94DD2F8C2FBF
:103BA000807FCF70882311F0C295C07F112399F0D8
:103BB000CC2309F491C180E28D0F883010F0D1112F
:103BC00004C08C2F0E94602503C08C2F0E9470259A
:103BD0000E949E2581C18D2F0E94361DCC2309F4A1
:103BE0008FC180E28D0F883010F0D11104C08C2F6E
:103BF0000E94662503C08C2F0E9476250E949E2578
:103C00007FC18C2F807FCF70803211F0C295C07F32
:103C1000DD2319F0D130C9F022C0112371F0002347
:103C200041F0013031F40E9483258C2B0E948B25BA
:103C300067C10E9483258C2B1DC0002319F0013021
:103C400009F45EC10E94942525C0112321F006309D
:103C500008F056C10EC0053008F052C11BC0112338
:103C600061F0002331F0F701858180FF35C18F704D
:103C700085838C2F0E948A1D43C1002359F0D933BC
:103C800009F03BC1FFEF07EE13E0F1500040104098
:103C9000E1F731C18C2F0E94911D32C18C2F869586
:103CA0008695837019F0813061F02AC1112321F0CB
:103CB0008D2F9C2F937002C080E090E00E94781BB3
:103CC00027C1112321F08D2F9C2F937002C080E01B
:103CD00090E00E948E1B1CC18D2F112319F00E94B1
:103CE000720702C00E94CD070E94440811C18C2FA8
:103CF000837009F047C0111107C12D2F2295269519
:103D00002770220F220F6D2F6F70862F90E0A0E09A
:103D1000B0E0022E04C0880F991FAA1FBB1F0A948F
:103D2000D2F7D4FF10C04FE050E060E070E004C074
:103D3000440F551F661F771F2A95D2F7409550955F
:103D40006095709503C040E050E0BA01C695C695F5
:103D5000C3708A019B01082B192B2A2B3B2BC9010D
:103D6000B801C23049F058F4C13019F00E949B23C9
:103D7000CBC00E948923C8C00E94AD23C5C00E9449
:103D80008723C2C0112319F08C2F817001C0869542
:103D9000882309F4B9C02D2F229526952770220F6C
:103DA000220F6D2F6F70862F90E0A0E0B0E0022E02
:103DB00004C0880F991FAA1FBB1F0A94D2F7D4FF13
:103DC00010C04FE050E060E070E004C0440F551FA9
:103DD000661F771F2A95D2F740955095609570958C
:103DE00003C040E050E0BA01C695C695C3708A0191
:103DF0009B01082B192B2A2B3B2BC901B801C23080
:103E000049F058F4C13019F00E9460247DC00E942E
:103E10004E247AC00E94722477C00E94C12374C0CD
:103E2000CF70112339F08C2F0E94E7238D2F0E9431
:103E30008A1D6AC08D2F0E94911D8C2F0E9408241C
:103E400063C0D23F01F128F4D03F41F0D13FA1F04F
:103E50003FC0D33FF9F0D43F39F13AC0112341F0CC
:103E6000053008F04DC08C2F8F710E942D2448C062
:103E7000063008F045C0F7CF112339F08C2F8F7131
:103E80000E94E7233DC01123C9F38C2F8F710E943C
:103E9000082436C0112329F08C2F8F710E94D22361
:103EA0002FC00E94CD232CC0112349F0CF718C2F3D
:103EB0000E94E72363E08C2F0E94D32521C081E07C
:103EC0000E94E8250230E0F082E00E94E82518C058
:103ED000112331F0002391F28D2F0E94E01C10C0BD
:103EE000002399F2D93349F41FEF27EE33E0115044
:103EF00020403040E1F700C000008D2F0E94361DA9
:103F000088EF8C0D843020F40E94371B0E94C90377
:103F1000DD20C9F00E94522580FD15C0F7011282F4
:103F20000E944C250E94E723C7010E94C41F0E94E3
:103F30004C25DF91CF911F910F91FF90EF90DF9073
:103F4000CF900C940824DF91CF911F910F91FF9097
:103F5000EF90DF90CF9008950F931F93CF93DF934F
:103F6000EC01688179818A810E9429258C010E9457
:103F700084240E947523B801CE010E94981DDF9110
:103F8000CF911F910F910895CF93DF93EC0198810A
:103F900089812B813C81232B31F08F3F31F481E0EB
:103FA0009F3F19F403C081E001C080E080FD19C08B
:103FB000CE010E947F0381110CC00E9456258823E8
:103FC00081F08A81882369F082E0DF91CF910C949F
:103FD000E825CE010E94AC1FCE01DF91CF910C9459
:103FE0005603DF91CF91089580E090E00E94781B06
:103FF00080E090E00E948E1B0E947D250E9480251B
:104000000E949E250E9475090C94440880910F021D
:10401000909110020E9463270C94F41F0E946D255A
:104020000C940620E92FE295EF704E2F50E0FA0134
:104030003297EE30F105B0F4E257FF4F0C94DD2FCC
:10404000803F91F018F4883E68F40EC0843F51F42C
:104050000BC0883E48F0813F29F406C093FB8827B7
:1040600080F9089580E0089581E008950E941E255A
:104070000E9412200895CF93DF9300D000D01F92AA
:10408000CDB7DEB70F900F900F900F900F90DF918C
:10409000CF910895CF93DF9300D000D000D0CDB75B
:1040A000DEB726960FB6F894DEBF0FBECDBFDF9108
:1040B000CF9108951F93CF93DF93C091730416E0BF
:1040C00080917404C81799F0D0E01C9FF0011D9FE7
:1040D000F00D1124EB58FB4F4081518162817381B7
:1040E000848195810E944A202196C770E9CFDF9193
:1040F000CF911F9108954091A5045091A60460911D
:10410000A7047091A8048091A9049091AA040C942A
:104110004A200F931F93CF93DF938091AA04829537
:104120008F7009F05DC08091A704882309F458C0FE
:1041300080917304109174046091A5047091A60499
:10414000C091A804D091A90491E06F3F09F090E0DC
:10415000292F06E0811709F443C0209721F07F3F03
:1041600021F030E003C031E001C0322F90E030FD9B
:1041700034C0089FF001099FF00D1124DF01AB58F6
:10418000BB4F11963C911197371327C03C913613C2
:1041900024C012963C91129731111FC013964D9175
:1041A0005C9114974C1B5D0B483C5105B0F4809119
:1041B000AA048F7080618093AA04E658FB4F808127
:1041C0008F708061808385EA94E00E94C41FDF9134
:1041D000CF911F910F910C945A2001968770BACFFE
:1041E000DF91CF911F910F9108959F92AF92BF924F
:1041F000CF92DF92EF92FF920F931F93CF93DF93B3
:10420000CDB7DEB761970FB6F894DEBF0FBECDBF56
:104210008C0185E0F801DE011D9601900D928A95D2
:10422000E1F7F80140815181E2809091A50460910D
:10423000A6042091A8043091A9042115310531F07C
:104240006F3F31F481E09F3F19F403C081E001C06A
:1042500080E0F82FF1709F2E80FD46C1F801A38009
:10426000B48085EAC82E84E0D82EF090A704F5012A
:10427000E21BF30BFF2009F4DFC08091AA04E83CA5
:10428000F10508F09BC0282F207F09F052C056137B
:1042900013C0491311C0FE2CE1100EC08F70806155
:1042A0008093AA040E947B20C6010E94C41F8091B3
:1042B000AA04F801858358C1AB2831F05F3F31F47F
:1042C00081E04F3F19F403C081E001C080E080FD30
:1042D00003C081E08E2502C080E090E0F82FF170ED
:1042E000FF2E80FF1CC0809173042091740436E07F
:1042F000821709F417C190E0389FF001399FF00D43
:104300001124EB58FB4F6181561306C060814613A0
:1043100003C06281E61203C001968770E9CFFE2CCC
:10432000EE2009F421C18091AA0481608093AA043F
:104330005AC0561306C0491304C0E11002C0F80168
:104340009FC04D875E878D859E850E94362088237D
:1043500079F1EE2069F12091AA04822F82958F7065
:1043600090E0029774F08091A5049091A60498873C
:104370008F831986BB86AA862C87CE0107960E945A
:10438000C41F86E0F801A5EAB4E001900D928A9579
:10439000E1F70E9489200E947B200DC0561729F169
:1043A0004D875E878D859E850E94362081112CC0A9
:1043B000C8010E94C41FFF24F394D6C0282F207F79
:1043C00069F77A2DB98AA88A6E2D89890E943B20C7
:1043D00085EA94E00E94C41F86E0F60111928A9556
:1043E000E9F70E947B20F12CBFC04913D9CFE1101F
:1043F000D7CFF8018583C8010E94C41F86E0F6016B
:1044000011928A95E9F7B0C0EE2091F22091AA04AA
:10441000822F82958F7090E002970CF4B2CF80913A
:10442000A5049091A6049A8389831B82BD82AC82E5
:104430002E83CE010196A3CFE83CF10508F047C0DA
:10444000FE2CEE2009F4B4CF561330C049132EC011
:104450002091AA0420FD21C0822F82958F70482FC1
:1044600050E041155105C9F0F80125834F30510541
:1044700041F08F5F982F9295907F822F8F70892BBC
:104480008583C8010E94C41F86E0F801A5EAB4E054
:1044900001900D928A95E1F742C086E0F801A5EA05
:1044A000B4E001900D928A95E1F75EC04D875E877A
:1044B0008D859E850E943620811163CF8091AA044C
:1044C00081608093AA04C8010E94C41F4DC07A2D48
:1044D000B98AA88A6E2D89890E943B2086E0F60160
:1044E00011928A95E9F71BC0EE2009F461CF4D8740
:1044F0005E878D859E850E943620F82E882309F4DC
:1045000057CF86E0F801A5EAB4E001900D928A95B4
:10451000E1F785EA94E00E94DA1C0E9489200E945B
:104520007B2022C04D875E878D859E850E941E253B
:10453000292F22952F70223028F49F7039F0811195
:1045400005C00BC0243028F49F7049F4805E883089
:1045500020F0C8010E94C41F9F2CF92C05C0F8014F
:104560009581907F99F7F9CF8F2D61960FB6F894CA
:10457000DEBF0FBECDBFDF91CF911F910F91FF9096
:10458000EF90DF90CF90BF90AF909F9008951F93D2
:10459000CF93DF93CDB7DEB72C970FB6F894DEBF7D
:1045A0000FBECDBF4F83588769877A878B879C87DB
:1045B000CE0107960E94F5208823D1F09F8188853F
:1045C0002A853B85232B31F08F3F31F481E09F3FDB
:1045D00019F403C081E001C080E080FD47C04F8135
:1045E000588569857A858B859C850E944A203EC0C6
:1045F00086E0FE013796DE01119601900D928A95B4
:10460000E1F7FF81E8856A857B856115710531F0E9
:10461000EF3F31F481E0FF3F19F403C081E001C0B6
:1046200080E080FD23C02091740430E0C901019630
:10463000877099274091730450E084179507F1F132
:10464000F983EA837D836C8396E0929FD001939FE8
:10465000B00D1124AB58BB4FFE01319601900D9265
:104660009A95E1F7809374040E945A2016E0809195
:10467000730490917404891771F1189FC00111247B
:104680008B589B4F0E94F520882329F1E0917304F9
:104690001E9FF0011124EB58FB4F40815181628134
:1046A0007381848195810E944A208091730490E0F7
:1046B00001968770992780937304D9CF0E940E20AA
:1046C0001092740410927304E5EAF4E086E0DF01CE
:1046D0001D928A95E9F72C960FB6F894DEBF0FBEAF
:1046E000CDBFDF91CF911F910895089508950C9447
:1046F00076230C9477230E9479236093DC047093D3
:10470000DD048093DE049093DF040C94F41F0C947A
:104710007B230F931F930091DC041091DD04209103
:10472000DE043091DF04602B712B822B932B1F91C1
:104730000F910C947B230F931F930091DC04109135
:10474000DD042091DE043091DF0460237123822395
:1047500093231F910F910C947B230F931F93009130
:10476000DC041091DD042091DE043091DF04602729
:104770007127822793271F910F910C947B230C9410
:1047800076230E94BF236093D8047093D90480934A
:10479000DA049093DB040C94F41F60E070E0CB012A
:1047A0000C94C1230F931F9341E050E060E070E050
:1047B0008A019B0104C0000F111F221F331F8A951D
:1047C000D2F7C901B8011F910F910C94C1230F9327
:1047D0001F9341E050E060E070E004C0440F551FBB
:1047E000661F771F8A95D2F78091D8049091D904DB
:1047F000A091DA04B091DB048A019B01082B192BEC
:104800002A2B3B2BC901B8011F910F910C94C12396
:104810000F931F9341E050E060E070E004C0440F4C
:10482000551F661F771F8A95D2F740955095609562
:1048300070958091D8049091D904A091DA04B09138
:10484000DB048A019B01082319232A233B23C90186
:10485000B8011F910F910C94C1230F931F9341E056
:1048600050E060E070E004C0440F551F661F771FE2
:104870008A95D2F78091D8049091D904A091DA0456
:10488000B091DB048A019B01082719272A273B27BF
:10489000C901B8011F910F910C94C1230F931F936D
:1048A0000091D8041091D9042091DA043091DB04EE
:1048B000602B712B822B932B1F910F910C94C12392
:1048C0000F931F930091D8041091D9042091DA041A
:1048D0003091DB0460237123822393231F910F9176
:1048E0000C94C1230F931F930091D8041091D90405
:1048F0002091DA043091DB04602771278227932707
:104900001F910F910C94C12308952EE0929F800D6A
:104910001124E82FE695E695E695877051E001C0F1
:10492000550F8A95EAF785E0E89FF0011124E555D7
:10493000FB4F20E030E070E04081CB01022E02C04E
:10494000969587950A94E2F781708195842785234F
:10495000842781932F5F3F4F2530310569F70895F4
:104960002EE0929F800D1124682F669566956695BE
:10497000982F977085E0689FB001112440E050E0C7
:1049800080E0FB01E40FF51FE555FB4F208130E08F
:10499000092E02C0369527950A94E2F72170332735
:1049A000042E01C0220F0A94EAF7822B4F5F5F4F5B
:1049B0004530510531F70895BF92CF92DF92EF92C3
:1049C000FF920F931F93CF93DF938C01C090D80475
:1049D000D090D904E090DA04F090DB048091DC04FC
:1049E0009091DD04A091DE04B091DF04C82AD92A99
:1049F000EA2AFB2ACFE1D0E0D701C6010C2E04C081
:104A0000B695A795979587950A94D2F780FD04C02F
:104A1000219790F7B12C07C0BC2EB8018C2F0E94B3
:104A2000E5030197A9F38B2DDF91CF911F910F9192
:104A3000FF90EF90DF90CF90BF900895CF93DF93DA
:104A4000EC010E94DC24BE010E94E503DF91CF91BE
:104A500008951F93CF93DF93EB01909172049923F4
:104A600021F0CB010E941E2513C0882349F0CB0101
:104A70000E94DC24182F682FCE010E94852404C0D8
:104A8000CB010E94B024182FBE01812F0E94E503A4
:104A9000DF91CF911F9108958091E00485958595D0
:104AA000859508958091E004877008959091E004C1
:104AB000977081E009F480E00895809104050895DD
:104AC00090910405892B8093040508958095909119
:104AD0000405892380930405089510920405089520
:104AE00090910305892B80930305089580959091FB
:104AF0000305892380930305089510920305089503
:104B00001092020508958091E104089508950C948F
:104B100086250C9487259091E104981721F08093C5
:104B2000E1040C94892508958091E104882329F0FB
:104B30001092E10480E00C9489250895E0910F0221
:104B4000F0911002809104058083E0910F02F091B2
:104B50001002908180910305892B8083E0910F02E0
:104B6000F0911002908180910205892B80838091C1
:104B7000E104882381F0E0910F02F091100290810E
:104B8000892B808380910F02909110020E94B7269A
:104B900081110E94942580910F02909110020C9433
:104BA000501B0C94862598E0899F90011124262B98
:104BB0002093E0040E94E7238091E0048595859589
:104BC00085950C94D1251092E00480E00C94D125B9
:104BD0002091E004809582238093E004982F9770C1
:104BE00079F430E0482F082E000C550B24173507B8
:104BF00039F08595859585950E9408240C94E325C8
:104C0000089580E008956FEF7FEF80E090E00C94CE
:104C1000B63080E090E00E94823021E08B3E9E4FD3
:104C200009F020E0822F089582E090E00C947A3021
:104C300083E090E00C947A30CF9384E090E00E947F
:104C40007A30C82F81E290E00E947A302C2F30E039
:104C5000A901582BCA01CF910895CF93C92F682F6E
:104C600084E090E00E9498306C2F81E290E0CF9138
:104C70000C949830AB01BC018FE090E00C94AA300A
:104C8000AB01BC0183E190E00C94AA3060E070E0DD
:104C9000CB010C94402660E070E0CB010E943A26E4
:104CA0000C9446266BEE7EEF80E090E00E94B630DA
:104CB00060E082E090E00E94983060E083E090E065
:104CC0000E9498301092DC041092DD041092DE04F1
:104CD0001092DF0460E084E090E00E94983060E091
:104CE00081E290E00E94983060E085E090E00E94D0
:104CF000983060E086E090E00E9498306FEF87E0A7
:104D000090E00E94983040E050E0BA0188E090E0E6
:104D10000E94AA3060E08DE090E00E94983040E070
:104D200050E0BA0188E190E00E94AA3060E087E19B
:104D300090E00E94983040E050E0BA018CE190E0B1
:104D40000E94AA3060E080E290E00E94983040E04B
:104D500050E0BA0188E190E00E94AA300C944B2602
:104D60000C945226682F8EE090E00C949830FC0151
:104D7000329680911B02882331F08091070787FFCC
:104D800002C09EE101C096E080E0915028F02191A0
:104D90002223D9F38F5FF9CF0895662351F1209133
:104DA0001B022223E9F02091070727FF19C0462F95
:104DB0004695469546954E31E0F4677021E030E027
:104DC00002C0220F331F6A95E2F7FC01E40FF11DC8
:104DD000828190E02823392381E0232B69F409C0E4
:104DE000FC01329608962191621729F0E817F9071D
:104DF000D1F780E0089581E008959C01FC0132968E
:104E00009FEF80E04191461789F09F3F19F44111CF
:104E100001C0982F8F5F8630A9F79F3F39F0F901C5
:104E2000E90FF11D97FDFA956283089508959C019D
:104E30002A5F3F4FFC014281461301C01282019656
:104E400082179307B9F70895262F2695269526955C
:104E50002E3168F4FC01E20FF11D677021E030E0B3
:104E600001C0220F6A95EAF78281282B22830895D8
:104E7000262F2695269526952E3170F4FC01E20FFB
:104E8000F11D677021E030E001C0220F6A95EAF75A
:104E90002095828128232283089520911B022223BA
:104EA00029F02091070727FD0C9424270C94FD2658
:104EB00020911B02222329F02091070727FD0C9443
:104EC00038270C94172720911B02FC0132962223CD
:104ED00031F08091070787FF02C08EE101C086E0B4
:104EE000DF011D928A95E9F7089508950C947527BE
:104EF0000C947527CF930E9478270E9422060E9467
:104F00007627C0E08C2F0E94BE05892B29F4CF5F45
:104F1000C530C1F780E001C081E0CF9108950C94C5
:104F2000752780910D07843049F10E94FB0280E0D3
:104F30000E94C9031092060520E488E190E00FB6B4
:104F4000F894A895809360000FBE2093600083B70B
:104F5000817F846083BF83B7816083BF78948895A5
:104F600083B78E7F83BF0FB6F894A89580916000B9
:104F7000886180936000109260000FBE08950E94C7
:104F80000E200E94371B0E94C9030C9400031F923D
:104F90000F920FB60F9211248F939F93AF93BF93ED
:104FA00080910605811113C0809103079091040739
:104FB000A0910507B09106074196A11DB11D8093F0
:104FC000030790930407A0930507B0930607BF91CA
:104FD000AF919F918F910F900FBE0F901F901895DA
:104FE00082E084BD93E095BD9AEF97BD80936E00FB
:104FF00008952FB7F8948091030790910407A0912A
:105000000507B09106072FBF08952FB7F894609158
:1050100003077091040780910507909106072FBF41
:1050200008959C014FB7F89480910307909104076D
:10503000A0910507B09106074FBF821B930B0895FF
:10504000CF92DF92EF92FF922FB7F894C0900307B0
:10505000D0900407E0900507F09006072FBFA70146
:105060009601261B370B480B590BCA01B901FF905B
:10507000EF90DF90CF90089578941F920F920FB623
:105080000F9211248F939F93AF93BF938091030747
:1050900090910407A0910507B09106070196A11D04
:1050A000B11D8093030790930407A0930507B09365
:1050B0000607BF91AF919F918F910F900FBE0F90F8
:1050C0001F90189581E08093E00080E28093D800E3
:1050D0001092C9008FE19EE40197F1F700C0000033
:1050E00087E090EBDC018093160790931707A0935D
:1050F0001807B09319079CE088E10FB6F894A895BB
:10510000809360000FBE90936000FFCF909399034F
:105110008093980308950C9403260E9422068FEB37
:105120009DE50197F1F700C000000E94220680E093
:105130000E94BE0580FF04C00E948B280C94622848
:1051400008950E940926811102C00E94B0260E9483
:105150001426809305050E941C26909308078093CF
:1051600007070E941826682F70E080E090E00E94F8
:1051700087236091D8047091D9048091DA049091CA
:10518000DB040C94BF23809127050895CF93DF9310
:1051900000D01F92CDB7DEB790910D07943019F56E
:1051A00089837B836A8382E08093E9008FEF90910B
:1051B000E800815095FD06C095ED9A95F1F7000045
:1051C0008111F5CF8091E80085FF0DC040E050E0EF
:1051D00063E070E0CE0101960E94F82A8091E80019
:1051E0008E778093E8000F900F900F90DF91CF9112
:1051F0000895BC0184E00C94C628BC0183E00C94A3
:10520000C62822E02093E9002FEF3091E8002150DA
:1052100035FD06C035ED3A95F1F700002111F5CFC7
:105220002091E80025FF0BC040E050E066E070E010
:105230000E94F82A8091E8008E778093E800089514
:10524000CF93DF9320911B02222339F0209107078F
:1052500027FF03C060E222E002C068E021E0209363
:10526000E9002FEF3091E800215035FD06C035ED03
:105270003A95F1F700002111F5CF2091E80025FFC4
:105280001DC0EC0180911B02811105C040E050E07F
:1052900068E070E003C070E040E050E0CE010E94A2
:1052A000F82A8091E8008E778093E80080E2FE0182
:1052B000A7E0B5E001900D928A95E1F7DF91CF91DB
:1052C000089580910C07811109C00E94892C0E94C9
:1052D000E62C8091E20084608093E20008951092B1
:1052E0000C07089508950895089542E061EC81E067
:1052F0000E94022C42E261EC82E00C94022C80912C
:105300000F07833009F460C030F4813071F08230CF
:1053100009F499C008958A3009F485C08B3009F4E6
:105320006BC0893009F0A7C020C080910E07813A78
:1053300009F0A1C08091E800877F8093E800809108
:10534000120790911307892B21F460E287E095E022
:1053500003C060E080E090E070E00E94432B809109
:10536000E8008B778093E800089580910E078132E2
:1053700009F081C08091120790911307029708F0FD
:105380007AC08091E800877F8093E8008091E800F0
:1053900082FD05C080910D078111F8CF6CC020916E
:1053A000F3008091F20090E0922B029729F4809113
:1053B000F1008B7F813021F48091F10080932705EB
:1053C0008091E8008B7753C080910E07813A09F0F5
:1053D00052C08091120790911307892B09F04BC09E
:1053E0008091E800877F8093E8008091E80080FF4B
:1053F000FCCF80911B0236C080910E078132D9F517
:105400008091120790911307892BA9F58091E800EC
:10541000877F8093E8000E94372C8091100780934B
:105420001B020C940E2080910E07813221F5809191
:10543000E800877F8093E8000E94372C8091110755
:1054400080932805089580910E07813AA1F48091F8
:10545000E800877F8093E8008091E80080FFFCCF20
:10546000809128058093F1008091E8008E778093E9
:10547000E8000C94372C089584B7877F84BF0FB65B
:10548000F894A895809160008861809360001092E4
:1054900060000FBE90E080E80FB6F8948093610042
:1054A000909361000FBE0E94CF1B0E94892C0E9426
:1054B000E62C8091E20084608093E20078940E9460
:1054C0007B2F0E94D91B81E192E00E94321B8091C8
:1054D0000D078530A9F480910D07853079F40E947D
:1054E000912780910B078823B1F30E947A278823A4
:1054F00091F30E94E22A0E940E20EDCF0E94BF2766
:105500000E94E11B0E94C31B0E94C21BE0CF0C94AF
:10551000892A292F332723303105C9F060F421303F
:10552000310581F02230310509F044C08BE390E071
:1055300020E234E043C021323105E1F0223231056E
:1055400049F138C082E190E02BE534E037C099277B
:105550008130910549F028F0029761F5E0EFF3E022
:1055600005C0ECE1F4E002C0ECE0F4E0849190E0EE
:105570009F0124C06115710541F061307105D1F4BE
:1055800089E090E02BE434E019C089E090E022E368
:1055900034E014C06115710541F06130710551F4BA
:1055A00086EB90E02DE634E009C080E490E023E251
:1055B00035E004C080E090E020E030E0FA01318383
:1055C0002083089580E189BD82E189BD09B400FE90
:1055D000FDCF8091D8008F7D8093D8008091E0002E
:1055E00082608093E0008091E00081FDFCCF08950F
:1055F000CF92DF92EF92FF920F931F93CF93DF939F
:10560000EC018B017A010E94562C811133C0E11408
:10561000F10439F0F70180819181081B190BC80F43
:10562000D91FC12CD12C0115110519F18091E80069
:1056300085FD16C08091E8008E778093E800E11424
:10564000F10449F0F70180819181C80ED91ED18201
:10565000C08285E00FC00E94562C882321F30AC027
:1056600089918093F10001501109FFEFCF1ADF0AF1
:10567000DACF80E0DF91CF911F910F91FF90EF90F3
:10568000DF90CF90089520911407309115072617C9
:10569000370748F06115710539F42091E8002E773D
:1056A0002093E80001C0B901FC0120E061157105FB
:1056B00079F180910D078823F1F18530F1F1809126
:1056C000E80083FD3CC08091E80082FD2EC08091FF
:1056D000E80080FFEBCF2091F3008091F20090E092
:1056E000922B6115710551F08830910538F42191A4
:1056F0002093F100615071090196F3CF21E00897E2
:1057000009F020E08091E8008E778093E800CECF0A
:105710002111CFCF0AC080910D07882361F0853019
:1057200061F08091E80083FD0AC08091E80082FF6B
:10573000F2CF80E0089582E0089583E0089581E04B
:10574000089520911407309115072617370748F060
:105750006115710539F42091E8002E772093E80057
:1057600001C0B901FC0120E06115710591F1809142
:105770000D07882309F440C0853009F43FC08091AB
:10578000E80083FD3DC08091E80082FD2FC080913C
:10579000E80080FFE9CF2091F3008091F20090E0D3
:1057A000922B6115710559F08830910540F42491D0
:1057B0002093F1003196615071090196F2CF21E0FA
:1057C000089709F020E08091E8008E778093E80048
:1057D000CBCF2111CCCF0AC080910D07882361F077
:1057E000853061F08091E80083FD0AC08091E80077
:1057F00082FFF2CF80E0089582E0089583E008956B
:1058000081E00895982F973068F59093E9009817F4
:1058100039F07091EC002091ED005091F00003C040
:10582000242F762F50E021FD02C09F5FECCF3091F6
:10583000EB003E7F3093EB003091ED003D7F3093E5
:10584000ED003091EB0031603093EB007093EC0091
:105850002093ED005093F0002091EE0027FDE5CF5E
:1058600080E008958F708093E90081E00895809131
:105870000E0787FF11C08091E80082FD05C080916E
:105880000D078111F8CF11C08091E8008B770BC014
:1058900080910D07882349F08091E80080FFF8CFC0
:1058A0008091E8008E778093E80008952091E400CD
:1058B0003091E50095E64091EC00842F817040FF27
:1058C00023C08091E80080FD1DC080910D078823D2
:1058D00099F0853099F08091EB0085FD11C04091E1
:1058E000E4005091E5002417350729F3915011F099
:1058F0009A01E1CF84E0089582E0089583E008955D
:1059000081E0089580E008954091E80042FFDDCFF6
:1059100008950E94F72C0E94FF2CE0EEF0E08081B9
:1059200081608083E8EDF0E080818F77808319BC0F
:10593000A7EDB0E08C918E7F8C9380818F7E8083E9
:1059400010920C0708950F931F93CF93DF930E943B
:10595000F72C0E94FF2CC8EDD0E088818F778883D8
:1059600088818068888388818F7D888319BC1092A4
:105970000D071092090710920B0710920A0700EE0C
:1059800010E0F80180818B7F80838881816088832B
:1059900042E060E080E00E94022CE1EEF0E08081D5
:1059A0008E7F8083E2EEF0E0808181608083808161
:1059B00088608083F80180818E7F80838881806108
:1059C0008883DF91CF911F910F910895E8EDF0E06A
:1059D00080818F7E8083E7EDF0E08081816080832D
:1059E00084E082BF81E080930C070C94A32CE8ED47
:1059F000F0E080818E7F80831092E2000895109203
:105A0000DA001092E10008951F920F920FB60F92E4
:105A100011242F933F934F935F936F937F938F93B3
:105A20009F93AF93BF93EF93FF938091E10082FF29
:105A30000BC08091E20082FF07C08091E1008B7F64
:105A40008093E1000E947A2F8091DA0080FF1FC0CE
:105A50008091D80080FF1BC08091DA008E7F8093F8
:105A6000DA008091D90080FF0DC080E189BD82E11C
:105A700089BD09B400FEFDCF81E080930D070E942F
:105A8000612905C019BC10920D070E946F298091F1
:105A9000E10080FF19C08091E20080FF15C0809175
:105AA000E2008E7F8093E2008091E200806180932B
:105AB000E2008091D80080628093D80019BC85E014
:105AC00080930D070E9473298091E10084FF30C00C
:105AD0008091E20084FF2CC080E189BD82E189BD14
