:100000000C94B5020C94FC020C94FC020C94FC02BF
:100010000C94FC020C94FC020C94FC020C94FC0268
:100020000C94FC020C94FC020C94AB2D0C947D2ED1
:100030000C946E280C94FC020C94FC020C94FC02B0
:100040000C94FC020C94FC020C94FC020C94FC0238
:100050000C94FC020C94E3280C94FC020C94FC021B
:100060000C94FC020C94FC020C94FC020C94FC0218
:100070000C94FC020C94FC020C94FC020C94FC0208
:100080000C94FC020C94FC020C94FC020C94FC02F8
:100090000C94FC020C94FC020C94FC020C94FC02E8
:1000A0000C94FC020C94FC020C94FC02AB14B414EF
:1000B000B914BE14C314C814CD14D214D714DC144C
:1000C000E114E614EB14F014F514FA14FF140415FB
:1000D00009150E15131518151D15221527152C15A4
:1000E0003115BB18BE18C318CA18CF18D418D918A0
:1000F000DE18E318E818ED18F218F418F618F818D6
:10010000FE18FE18FE18FE18FE18761E761EA81E93
:10011000A81EF51E131F272027201E1FB71FC81F4C
:10012000C81FC720C720D920D920D020D920D92046
:10013000D920C720C720D520D920D920D520EA2E04
:10014000112F0930112F09305D2F802F0930D72F43
:10015000E62F165C1E001F00200021002200230055
:1001600024002500260027002D002E002A002B0049
:1001700014001A000800150017001C0018000C00DD
:10018000120013002F003000310039410400160026
:10019000070009000A000B000D000E000F003300DD
:1001A000340000002800E1001D001B0006001900BB
:1001B000050011001000360037003800E50000008F
:1001C0000000E000E300E200000000002C0000005E
:1001D000000000000151E600E7000000E4003500E7
:1001E0003A003B003C003D003E003F004000410023
:1001F00042004300440045004C0001000100520051
:100200000100F100ED00F200F90049000100460094
:1002100047004800005C0100500051004F00EF0013
:10022000EE00F000FA00010001004A004B0000005F
:1002300001000100AA00A900A8000100F300145C5D
:10024000010002514D004E0052000000000001006C
:10025000010001000000000001000000000000009B
:1002600000005000510000004F0001003A003B0028
:100270003C003D003E003F00400041004200430082
:10028000440045004C000100C35C0100C65CC75C33
:10029000C85CC95CCA5CCB5CC45C010001000100A5
:1002A000005C0100AC00AE00AB00010001000100E9
:1002B0000100CC5CCD5C01000100000001000100E8
:1002C0000100010001000100010001000100010026
:1002D0000100010001000000000001000100010018
:1002E000000000000100000000000000010001000B
:1002F00001000000010000010101010101010101F3
:1003000002020202020202020203030303030303C6
:100310000304040404040404050505050506060693
:100320000606070707070708080808090909090A50
:100330000A0A0B0B0B0C0C0C0D0D0D0E0E0E0F0FF5
:100340000F10101111111212131314141515161683
:100350001717181819191A1A1B1B1C1D1D1E1E1FF2
:100360002020212222232424252626272829292A41
:100370002B2C2D2D2E2F3031323233343536373869
:10038000393A3B3C3D3E3F40414243444546474865
:10039000494A4C4D4E4F50515354555658595A5B3B
:1003A0005D5E5F616264656668696B6C6D6F7072DB
:1003B000737577787A7B7D7E8082838587888A8C47
:1003C0008E8F91939596989A9C9EA0A2A3A5A7A97B
:1003D000ABADAFB1B3B5B7BABCBEC0C2C4C6C9CB72
:1003E000CDCFD1D4D6D8DBDDDFE2E4E7E9EBEEF028
:1003F000F3F5F8FAFDFF1A0344005A003600300006
:100400005200470042005F0041004E005300490087
:1004100000000E0344005A00540045004300480009
:1004200000000403090409023B00020100A0FA09CC
:100430000400000103010100092111010001224013
:10044000000705810308000A0904010001030000F8
:100450000009211101000122B600070582032000D6
:100460000A12011001000000085A44211202000182
:1004700002000105010902A10185020901A100058F
:100480000919012908150025019508750181020542
:1004900001093009311581257F950275088106090A
:1004A000381581257F950175088106050C0A3802EB
:1004B0001581257F950175088106C0C00501098059
:1004C000A101850319012AB700150126B70095017E
:1004D00075108100C0050C0901A101850419012ACC
:1004E000A002150126A002950175108100C005012A
:1004F0000906A1018505050719E029E71500250171
:100500009508750181020507190029EF15002501DD
:1005100095F07501810205081901290595057501F8
:100520009102950175039101C005010906A101051C
:100530000719E029E7150025019508750181029545
:1005400001750881010507190029FF150026FF0024
:10055000950675088100050819012905950575019D
:100560009102950175039101C00011241FBECFEFC8
:10057000DAE0DEBFCDBF04B603FE27C080911607C8
:1005800090911707A0911807B09119078730904BE9
:10059000A740B04BD1F41092160710921707109293
:1005A00018071092190714BE84B7877F84BF0FB64F
:1005B000F894A89580916000886180936000109203
:1005C00060000FBEE0E0F8E3099513E0A0E0B1E0C1
:1005D000EEE0F3E602C005900D92A839B107D9F715
:1005E00027E0A8E9B3E001C01D92A631B207E1F708
:1005F0000E94E32A0C9485310C94000081E00E9453
:10060000B7150C94362880E00E94B7150C941C286E
:100610000E94EA1B81FF07C02FEF4FEF6FEF88E2C8
:1006200090E00C94660D089581E0089581E00895AE
:100630000C94160308950C941A031F93CF93DF9321
:1006400000D000D01F92CDB7DEB749835A836B83A9
:100650003091720489819A81311114C0662359F056
:10066000222349F00E948325182F682F89819A81BF
:100670000E942C2503C00E945725182F69817A817A
:10068000812F04C00E94832569817A810F900F9089
:100690000F900F900F90DF91CF911F910C94D50385
:1006A000FC01262F408151816281738184810C94E9
:1006B0001D03CF93DF93EC0160E00E945003BE0165
:1006C000DF91CF910C941B030E9434290E94B02625
:1006D000811102C00E9457270E9489150C94DA05E7
:1006E0000C94D60508950E94B5200E9472032FEF46
:1006F00084E39CE0215080409040E1F700C000007E
:100700000C9409290F931F93CF93DF93EC0161E0C1
:100710000E9450038C01BE010E941803882379F1C6
:10072000BE01C8010E947719882349F1BE01C801A2
:100730000E94C919882319F1BE01C8010E94F41A48
:100740008823E9F0BE01C8010E94A4188823B9F0EB
:100750008A81882369F001158CE5180731F00F3D77
:100760001C4531F40E9457270AC00E94730307C03A
:10077000CE01DF91CF911F910F910C94140380E073
:10078000DF91CF911F910F91089508950C94C503A7
:1007900081E008950C94C803CF93C82F0E94C6032C
:1007A0008C2F0E94CA03CF91089526E4829FC00136
:1007B0001124FC012EE0729FE00DF11D1124E60FC3
:1007C000F11DEE0FFF1FEE5AFE4F85919491089593
:1007D000CF93DF930E94D5030E94EA04EC018115B8
:1007E00021E5920708F043C0811540E5940708F021
:1007F0008AC0883E910520F5803E910508F0E6C04C
:10080000883A910570F4853A910508F074C08130FA
:10081000910509F4DBC008F4D7C0049708F0D6C0EE
:10082000D3C08F3B910508F0CFC0C85AD0E0CC0FA1
:10083000DD1FCD5EDC4F0990D881C02DD464C6C0C9
:10084000C11580E2D80758F4C11521E0D20708F09D
:10085000BDC0CD3ED10508F4B7C0D065B7C0C11545
:1008600040E4D40708F4B0C0DF70D06AAFC0C1154F
:1008700085E5D807A0F4C11524E5D20708F08AC0A1
:10088000C11543E5D40708F06FC0C11582E5D8074C
:1008900008F054C0DC2FCC27C16FD06A97C0C115B7
:1008A00029E5D207A0F4C11548E5D40708F077C0C0
:1008B000C11586E5D80708F087C08C2F0E947E05F9
:1008C0008F71C82FD0E0DC2FCC27D0627FC0C1153C
:1008D0002AE5D20708F468C0CE01905681159042EF
:1008E00008F072C08D2F8F710E947E05DD27D062C7
:1008F0008F71D82B6BC0C55AD0E0CF5BDC4FC8815D
:10090000D0E0D06463C074E0969587957A95E1F75E
:1009100083709C2F937021E030E002C0220F331FC0
:100920009A95E2F73C68382BCF70C695C69580E261
:10093000C89FE0011124C22BD32B48C0CE01837085
:10094000992721E030E002C0220F331F8A95E2F799
:100950008C2F8695869540E2849FC0011124E90181
:10096000C82BD92BDC6832C0CE018370992721E0D7
:1009700030E002C0220F331F8A95E2F78C2F869554
:10098000869540E2849FC0011124E901C82BD92B30
:10099000DA681CC0DC2FCC27C46FD06A17C0DC2FEC
:1009A000CC27C06FD06A12C08C2F8F700E947E053A
:1009B00094E0D695C7959A95E1F7CF70D0E0DC2FFB
:1009C000CC27D069C82B02C0C0E0D0E0CE01DF91B7
:1009D000CF9108958238910569F1B0F48133910582
:1009E00009F46DC048F48932910509F463C08A3274
:1009F000910509F469C008958533910509F455C03E
:100A000089339105B9F00895833E910569F138F471
:100A1000803E9105B1F0823E910509F10895863E30
:100A20009105A9F1873E9105B9F1843E910509F040
:100A300064C023C02091070720FD4FC021FD4DC099
:100A400008958091070780FD44C08091080780FFCA
:100A500044C08091070784FD42C083EE4DC0809161
:100A6000070782FF38C0F5CF8091070782FD33C0AA
:100A70008091080780FD31C0ECCF8091080781FF8D
:100A800032C08091070784FD2AC087EE35C080916F
:100A9000070783FF26C0F5CF8091070783FD21C09C
:100AA0008091080781FD1FC0ECCF8091070785FD6D
:100AB0001CC01DC08091070785FD19C016C080911C
:100AC000070786FD16C017C08091070786FD13C073
:100AD00010C089E311C082EE0FC080EE0DC080E02F
:100AE0000BC086EE09C084EE07C089E205C085E32D
:100AF00003C08AE201C081E390E008959091070766
:100B000092FF0DC0282F2871283019F4877F846048
:100B100006C0282F2471243011F48B7F886093FF46
:100B20000DC0282F2871283119F4877E846106C0F2
:100B3000282F2471243111F48B7E886120910807BD
:100B400020FF0DC0382F3871383019F4877F81604D
:100B500006C0382F3171313011F48E7F886021FF4B
:100B60000DC0282F2871283119F4877E816106C0B5
:100B7000282F2171213111F48E7E886194FD877EAA
:100B80000895E82FF0E0EE0FFF1FED5CFA4F808133
:100B900091810895089580EA8A95F1F7089500C03B
:100BA00008950C94CB0508950C94D3050C94D405AA
:100BB0000C94D3050C94D805F894E82FE295EF70C7
:100BC000F0E031A1282F2F7081E090E001C0880F64
:100BD0002A95EAF7982F9095932391A392A1892BB8
:100BE00082A3789408950F931F93CF93DF9385EF9B
:100BF0000E94DC0584EF0E94DC0581EF0E94DC0589
:100C000083E30E94DC0582E30E94DC05C4E4D3E0B8
:100C100002E513E089910E94DC050C171D07D1F74E
:100C2000E9E2F5E0A3E3B5E0119211921D921D9265
:100C300085E0E333F807C1F785E00E94B806DF914D
:100C4000CF911F910F910C9464037F928F929F928A
:100C5000AF92BF92CF92DF92EF92FF920F931F93CA
:100C6000CF93DF9309E215E082E5E82E83E0F82ECA
:100C7000C0E0D0E0712CAA24A394B12C4701F70165
:100C80008081F894E82FE295EF70F0E021A18F7059
:100C9000A50102C0440F551F8A95E2F7CA01922FA1
:100CA000982B91A392A18095892382A378940E9486
:100CB000CF05E4E4F3E020E030E0C12CD12C4191F9
:100CC000A42FA295AF70B0E090968C9190E04F70F9
:100CD00002C0959587954A95E2F780FD08C0C50149
:100CE000022E02C0880F991F0A94E2F702C080E02A
:100CF00090E0C82AD92A2F5F3F4F2E303105F9F6F0
:100D00005FEFE51AF50AF40180810E94DC05C4302A
:100D1000D10511F00E94D105F80180819181C8169A
:100D2000D90621F0D182C08281E001C080E0782A1A
:100D300021960E5F1F4FC530D10509F09FCF272D9B
:100D400045E063E375E089E295E00E94B9060E9400
:100D50007003872DDF91CF911F910F91FF90EF903E
:100D6000DF90CF90BF90AF909F908F907F9008952D
:100D70000895FF920F931F93CF93DF93F82E092FBF
:100D8000162FD72FC42F222349F081E080939C0394
:100D90000E94A02890939B0380939A0380919C03C8
:100DA0008823D9F080919A0390919B030E94B828E0
:100DB000049798F0EF2DF02FA12FBD2F80E090E049
:100DC0004C2F50E08417950734F4219131912D93E5
:100DD0003D930196F7CF10929C03DF91CF911F9125
:100DE0000F91FF9008958091A30380FF0BC0609145
:100DF000060285E0689FB001112475956795759589
:100E000067952BC081FF09C06091060285E0689F4D
:100E1000B00111247595679520C082FF07C06091CD
:100E2000060285E0689FB001112417C09091A203CB
:100E30009923D1F060910502961788F72091060258
:100E400085E0289F90011124929FA001939F500D4F
:100E5000112470E0CA010E9451306038710540F4DD
:100E60006115710519F406C065E070E0862F0895DC
:100E70008FE7089581E008958091A30380FF08C063
:100E80006091020270E0759567957595679521C030
:100E900081FF06C06091020270E07595679519C0E8
:100EA00082FF04C06091020270E010C09091A10323
:100EB000992399F0609101029617A0F780910202A0
:100EC000899FC001112470E00E9451306038710583
:100ED00040F46115710519F406C061E070E0862FD9
:100EE00008958FE7089581E008958D3E21F40E94D2
:100EF000F306819504C08E3E29F40E94F306809388
:100F0000A70308958F3E21F40E94F306819504C043
:100F1000803F29F40E94F3068093A6030895893F39
:100F200019F40E943C0705C08A3F31F40E943C0737
:100F300081958093A80308958B3F21F40E943C077C
:100F4000819504C08C3F29F40E943C078093A9033B
:100F500008959FE0980F983078F421E030E0A901DF
:100F600002C0440F551F9A95E2F7CA019091A5035C
:100F7000892B8093A50308958D3F21F48091A303CD
:100F800081600BC08E3F21F48091A303826005C075
:100F90008F3F29F48091A30384608093A303089575
:100FA0008D3E39F49091A70397FF35C01092A703A7
:100FB00059C08E3E29F49091A7031916BCF32BC09B
:100FC0009091A6038F3E29F497FF25C01092A603A7
:100FD00049C0803F19F41916CCF31DC09091A803A5
:100FE000893F29F41916BCF41092A8033BC08A3F2C
:100FF00019F497FF10C0F8CF8B3F39F49091A903F3
:1010000097FF09C01092A9032DC08C3F21F4909145
:10101000A9031916BCF39FE0980F983080F421E0E3
:1010200030E0A90102C0440F551F9A95E2F7CA01AA
:1010300080959091A50389238093A50313C08D3FCC
:1010400021F48091A3038E7F0BC08E3F21F4809109
:10105000A3038D7F05C08F3F29F48091A3038B7F6D
:101060008093A3038091A603811106C08091A703FA
:10107000811102C01092A2038091A803811106C0C1
:101080008091A903811102C01092A10308950E94CA
:10109000A0282091A603211104C02091A703222398
:1010A00021F09093A00380939F032091A803211126
:1010B00004C02091A903222321F090939E038093E2
:1010C0009D0384EA93E00C94111CEF92FF920F931E
:1010D0001F93CF93DF9300D000D000D0CDB7DEB701
:1010E00086E0E4EAF3E0DE01119601900D928A9524
:1010F000E1F7E090A603F090A7030091A8031091F8
:10110000A9031092A6031092A7031092A8031092AD
:10111000A903E11003C0FF2009F45DC080919F0383
:101120009091A0030E94B828AC019091A20399234A
:1011300039F02091070230E02417350758F04BC0F2
:10114000209108028AE0289F900111242417350776
:1011500018F041C09F3F19F09F5F9093A203EE20CB
:1011600061F00E94F3061E1414F09FEF01C091E09D
:10117000989F902D11249093A603FF2061F00E9468
:10118000F3061F1414F09FEF01C091E0989F902D7B
:1011900011249093A7033091A6033323E1F020910B
:1011A000A7032223C1F045EB3403C0011124992386
:1011B00019F09093A60303C081E08093A60335EB5A
:1011C0002303C0011124992319F09093A70303C0AE
:1011D00081E08093A703011103C0112309F45DC0CE
:1011E00080919D0390919E030E94B828AC0190913C
:1011F000A103992339F02091030230E02417350729
:1012000058F04BC0209104028AE0289F90011124DD
:101210002417350718F041C09F3F19F09F5F909346
:10122000A103002361F00E943C07101614F09FEF09
:1012300001C091E0989F902D11249093A803112351
:1012400061F00E943C07111614F09FEF01C091E07D
:10125000989F902D11249093A9033091A8033323D4
:10126000E1F02091A9032223C1F045EB3403C00132
:101270001124992319F09093A80303C081E080936F
:10128000A80335EB2303C0011124992319F090938F
:10129000A90303C081E08093A9038091A603811173
:1012A0000BC08091A703811107C08091A803811111
:1012B00003C08091A90381110E944708EB82FC8240
:1012C0000D831E8386E0FE013196A4EAB3E001900F
:1012D0000D928A95E1F726960FB6F894DEBF0FBE01
:1012E000CDBFDF91CF911F910F91FF90EF900895A7
:1012F000E4EAF3E086E0DF011D928A95E9F71092B7
:10130000A2031092A1031092A3030895EF92FF92FB
:101310000F931F93CF93DF938B01682F11110AC096
:10132000442329F0E82FF0E0EA50FD4F6491762F36
:10133000862F75C0212F30E0E82FF0E0442321F004
:10134000EA50FD4FE491F0E046E0049FC001112413
:10135000CFEFD0E0BE010E943D304BEA4603C00112
:10136000479F900D1124800F911D800F911D982F84
:10137000990F890FAE01421B530B4E9FD0014F9F17
:10138000B00D5E9FB00D11249B2F189FA00111245A
:10139000452F55278E01041B150B0E9FA0010F9F93
:1013A000500D1E9F500D11247E01E81AF108E29E97
:1013B0008001E39E100DF29E100D1124212F332782
:1013C000C21BD30BCE9F9001CF9F300DDE9F300DFF
:1013D000112462307105A9F048F46115710569F0B6
:1013E00061307105C9F48B2F752F0DC06430710504
:1013F00081F058F06630710579F47E2F8B2F932F92
:101400000DC0832F7B2F9E2F09C08E2F7B2F952FF2
:1014100005C08E2F732F02C07E2F852F692FDF917D
:10142000CF911F910F91FF90EF90089541E00E949E
:101430008609089520E030E0869F212D969F200D9B
:10144000311D1124C9010895BC018230910508F4B1
:101450000895613E8EE1780748F49B0195E036954A
:1014600027959A95E1F748E0420F01C04FEF91E0D0
:10147000242F30E0290F311D35952795229FF0014B
:10148000239FF00DF00D11246E177F0718F44FEF16
:10149000420F04C02F3F39F091E0920F491740F7F7
:1014A0008FEF890F08958FEF0895482F982F46FDED
:1014B0009095E92FEF739F7046FD9F5FE295EF7067
:1014C000EE0FF0E0E95AFC4F2181299F802D212D5C
:1014D000112482958F702295207F822B3081982F46
:1014E000930F892F47FD819580580895E42FF0E0F0
:1014F000EE0FFF1FE65BFE4F408134EE439F412D10
:101500001124E82FF0E050E0445E5F4FDA01A21BA7
:10151000B1099D01B7FF03C031952195310993E0D1
:10152000220F331F9A95E1F7AF01421B530B9A012B
:1015300057FF02C020E030E0582F259F212D1124B5
:10154000822F0895622F0895E42FF0E0EE0FFF1F21
:10155000E65BFE4F6081621B0895E42FF0E0EE0F22
:10156000FF1FE55BFE4F6081621B0895A22F50E0D4
:10157000FA01EE0FFF1FE55BFE4F9081905297FD41
:101580009195440F551FFA01E65BFE4F3081232FE2
:1015900030E02A1B3109290F311D97FD3A95620F62
:1015A0000895EF920F931F9393E0099F80011124F8
:1015B000159507956E2D600F1F910F91EF9008956F
:1015C0000F93CF93DF93D72FC82F47FD4195E8E3C3
:1015D000F0E0CF01841B910947FD9395889FB001EE
:1015E000899F700D700D1124229FC001239F900DC3
:1015F000900D1124860F971F0E94240A682F660FF2
:10160000860F682F600F7D2F8C2FDF91CF910F9168
:1016100008950F931F93522F10E0F801EE0FFF1F54
:10162000E55BFE4FE081F0E0B0979F015203D001EF
:10163000539FB00D1124000F111FF801E65BFE4F00
:10164000008110E00057110940039001419F300DC7
:1016500011242A0F3B1F37FF02C021583F4F220F92
:10166000232F221F330B620F1F910F9108950F93A9
:101670001F93522F10E0F801EE0FFF1FE55BFE4FA6
:10168000E081F0E0B097EE0FFF1F9F015203D00101
:10169000539FB00D1124000F111FF801E65BFE4FA0
:1016A000008110E000571109000F111F4003900145
:1016B000419F300D11242A0F3B1F37FF02C02158D4
:1016C0003F4F220F232F221F330B620F1F910F91C9
:1016D00008950F931F9310E0F801EE0FFF1FE65BD4
:1016E000FE4F9081905797FD9195000F111FF801C3
:1016F000E55BFE4FE081F0E0B097DF01AA0FBB1F72
:101700008D010E0F1F1F2003D001219FB00D11244A
:10171000E8E3F0E0E91BF10997FDF3959F01220F43
:10172000331F89010E0F1F1F40039001419F300D91
:1017300011242A0F3B1F37FF02C021583F4F220FB1
:10174000232F221F330B620F1F910F9108950F93C8
:101750001F93CF93DF93D62F072F182FC42F822FDD
:101760000E94550AEC2FF0E0EE0FFF1FE65BFE4FE4
:1017700090819058890F87FD8195880F682F2CE004
:10178000629F612D11246D0F702F812FDF91CF91FA
:101790001F910F910895E42FF0E0EE0FFF1FE65B1D
:1017A000FE4F9081921B97FD9195292F38E1239F41
:1017B000212D1124620F08954095282F429F412D1D
:1017C0001124842F089522E8241B08F420E0620FDE
:1017D0000895FC019B01009721F477FF2BC080E85E
:1017E0000895AC0197FF04C044275527481B590BA7
:1017F000B901640F751F37FD0CC0241B350BC901DF
:10180000A5E0880F991FAA95E1F70E94513080E268
:101810000CC0CB0165E0880F991F6A95E1F7BA010A
:10182000621B730B0E94513080E6861BF7FF03C0DA
:101830008195089580E00895FF920F931F93CF93B1
:10184000DF93F62ED72F182FC901C12FC01BBA0165
:101850000E94E90B982F990F890FC81B2C2F219FED
:10186000212D1124822F6F2D7D2FDF91CF911F917C
:101870000F91FF900895EF920F931F93CF93DF93F3
:10188000D62FC72F182FC9010E19010FBA010E94B8
:10189000E90B081B202F219F212D1124822F6D2F52
:1018A0007C2FDF91CF911F910F91EF9008950F93AF
:1018B000CF93DF93D72FC82FC901BA010E94E90B3C
:1018C000682F600F7D2F8C2FDF91CF910F9108959E
:1018D000EF920F93CF93DF93D72FC82FC9010E1923
:1018E000BA010E94E90B602F681B7D2F8C2FDF91BE
:1018F000CF910F91EF9008950E94160A08951F93BB
:10190000CF93DF935FEF580FA1E0A80F4FEF460F83
:1019100091E0960FC82FD0E0461780F42EE02C9F60
:10192000F0012D9FF00D1124E952FC4FE40FF11D41
:10193000208130E1230F08F42FEF2083262F30E0A1
:101940007EE07C9FF0017D9FF00D1124E952FC4F59
:10195000EF01C20FD31F788110E2710F08F47FEFFF
:1019600078839E3040F4E90FF11D708110E1710F12
:1019700008F47FEF7083A53070F5B0E0461780F46F
:101980007EE07A9FF0017B9FF00D1124E952FC4F1D
:10199000E40FF11D70811DE0710F08F47FEF70837B
:1019A0007EE07A9FF0017B9FF00D1124E952FC4FFD
:1019B000DF01A20FB31F7C9110E1710F08F47FEFDC
:1019C0007C939E3040F4E90FF11D70811DE0710F92
:1019D00008F47FEF7083581778F5A52FB0E046170D
:1019E00080F48EE08A9FF0018B9FF00D1124E95264
:1019F000FC4FE40FF11D40815DE0450F08F44FEF0F
:101A000040838EE08A9FF0018B9FF00D1124E952F4
:101A1000FC4FDF01A20FB31F2C9130E1230F08F41C
:101A20002FEF2C939E3040F4E90FF11D20813DE013
:101A3000230F08F42FEF2083DF91CF911F9108959A
:101A400045E050E06CE170E08DE395E00C941131DD
:101A500045E050E06CE170E08DE395E00C942F31AF
:101A6000EDE3F5E085E2808380911C0290911D02F8
:101A7000A0911E0281839283A3838FE784830C94B9
:101A8000280D80E008950F931F93CF93DF93C82F05
:101A9000D62F8A010E94410D9EE0C99FF0011124BA
:101AA000EC5FFE4FED0FF11D90819F3F29F0F80193
:101AB000E80FF11D90838F5FDF91CF911F910F9100
:101AC0000895E0916503F09166030994E091610344
:101AD000F091620309944F925F926F927F928F927E
:101AE0009F92AF92BF92CF92DF92EF920F931F938C
:101AF000CF93DF932C013B01FC01C0818DE0C89F97
:101B0000C02D1124DDE0DC0FDE3308F0DDE3609151
:101B10004105669580914205909143050E941A0AFD
:101B2000182FCD1708F044C08C2E912CF401EC53E3
:101B3000FE4F9081F20181818923C1F1F401EE0F02
:101B4000FF1FE65BFE4FC080D12CF0E7CF1AD10813
:101B5000F401EE0FFF1FE55BFE4FA080B12C80E289
:101B6000A81AB108CC9C9001CD9C300D300D1124E9
:101B7000AA9CC001AB9C900D900D1124820F931F65
:101B80000E94240A082F60913E0570913F058091C4
:101B90004005E12E9501A601F30109950E947C0CF8
:101BA000462F282F672FC4010E94660DCF5FB9CF43
:101BB00081E0DD3308F080E0DF91CF911F910F913C
:101BC000EF90DF90CF90BF90AF909F908F907F90DD
:101BD0006F905F904F9008956BE37CE00C946B0DD9
:101BE00061ED7AE00C946B0D68E67CE00C946B0D73
:101BF000AF92BF92CF92DF92EF92FF920F931F931B
:101C0000CF93DF936C015B01FC01C0818DE0C89F25
:101C1000C02D1124DDE0DC0FDE3308F0DDE3609140
:101C20004105669580914205909143050E941A0AEC
:101C3000182FCD1778F5EC2EF12CF701EC53FE4F51
:101C40009081F6018181892319F1F701EE0FFF1FC1
:101C5000E55BFE4F208130E020523109F701EE0FA5
:101C6000FF1FE65BFE4F408150E0405751096091F5
:101C70003E0570913F0580914005012FF5010995C2
:101C80000E947C0C462F282F672FC7010E94660DEB
:101C9000CF5FCFCF81E0DD3308F080E0DF91CF91DF
:101CA0001F910F91FF90EF90DF90CF90BF90AF907A
:101CB00008956CE17CE00C94F80D60EE7AE00C94F1
:101CC000F80D67E57CE00C94F80DBF92CF92DF929F
:101CD000EF92FF920F931F93CF93DF938C017B01C1
:101CE000FC01C0818DE0C89FC02D1124DDE0DC0F18
:101CF000DE3308F0DDE360914105669566958091DD
:101D00004205909143050E941A0AB82ECD17F0F4AF
:101D1000CC2ED12CF601EC53FE4F9081F80181813D
:101D2000892391F060913E0570913F0580914005B7
:101D30002B2D4C2FF70109950E947C0C462F282F44
:101D4000672FC6010E94660DCF5FE0CF81E0DD33D3
:101D500008F080E0DF91CF911F910F91FF90EF90FD
:101D6000DF90CF90BF90089566E77AE00C94650EFF
:101D700062EA7AE00C94650E64EA7AE00C94650EEF
:101D80006DEA7AE00C94650E66EB7AE00C94650ED1
:101D900067EA7BE00C94650E6BEC7BE00C94650EBF
:101DA0007F928F929F92AF92BF92CF92DF92EF92EB
:101DB000FF920F931F93CF93DF936C015B01FC01A4
:101DC000C0818DE0C89FC02D1124DDE0DC0FDE3323
:101DD00008F0DDE3609141056695669580914205C6
:101DE000909143050E941A0A182F80E4810F0E94E7
:101DF000550A90E8F92EF80E812F0E94550A20E826
:101E0000722E780ECD1700F58C2E912CF401EC5328
:101E1000FE4F9081F60181818923A1F060913E05FA
:101E200070913F0580914005E12E0C2F272D4F2DFD
:101E3000F50109950E947C0C462F282F672FC401BD
:101E40000E94660DCF5FDECF81E0DD3308F080E0D9
:101E5000DF91CF911F910F91FF90EF90DF90CF9086
:101E6000BF90AF909F908F907F90089569E07BE046
:101E70000C94D00E67E37BE00C94D00E69E67BE017
:101E80000C94D00EAF92BF92CF92DF92EF92FF925E
:101E90000F931F93CF93DF937C015B01FC01C08103
:101EA0008DE0C89FC02D1124DDE0DC0FDE3308F08B
:101EB000DDE32091410530E040E050E06FEF7FEF3F
:101EC00080E090E00E9465308901CD17E8F5CC2EC6
:101ED000D12CF601EC53FE4F9081F70181818923CB
:101EE00089F190914605915097FD15C0292F092E33
:101EF000000C330BF901EA5BFA4F8189C813F3CF69
:101F0000220F331FF901EA5BFA4F218D328D201722
:101F1000310748F701C0980160914105C9010E944D
:101F20001A0AAC0160913E0570913F058091400511
:101F3000F50109950E947C0C462F282F672FC601BA
:101F40000E94660DCF5FC1CF81E0DD3308F080E0F5
:101F5000DF91CF911F910F91FF90EF90DF90CF9085
:101F6000BF90AF9008956CED7BE00C94420F63EE50
:101F70007BE00C94420FDF92EF92FF920F931F933E
:101F8000CF93DF938C01DC018C91CDE08C9FC02D31
:101F90001124DDE0DC0FDE3308F0DDE360913E0567
:101FA00070913F05809140050E947C0CF62EE72E33
:101FB000D82ECD1798F4EC2FF0E0DF01AC53BE4FD4
:101FC0008C91D80111969C91982331F02D2D4F2D95
:101FD0006E2DCF010E94660DCF5FEBCF81E0DD3328
:101FE00008F080E0DF91CF911F910F91FF90EF906B
:101FF000DF900895AF92BF92CF92DF92EF92FF925F
:102000000F931F93CF93DF938C01FC01C0818DE070
:10201000C89FC02D1124DDE0DC0FDE3308F0DDE3C6
:10202000E0903F05F0904005D0903E056D2D7E2D4F
:102030008F2D0E947C0CC62EB72EA82E60914105D4
:102040006D0D7E2D8F2D0E947C0CF62EE72ED82E46
:10205000CD17B8F48C2F90E0FC01EC53FE4F30818B
:10206000F8012181232359F030FF04C02D2D4F2D7D
:102070006E2D03C02A2D4C2D6B2D0E94660DCF5F57
:10208000E7CF81E0DD3308F080E0DF91CF911F9151
:102090000F91FF90EF90DF90CF90BF90AF90089599
:1020A000BF92CF92DF92EF92FF920F931F93CF9345
:1020B000DF937C01FC01C0818DE0C89FC02D1124FD
:1020C000DDE0DC0FDE3308F0DDE3C0903F05B090CB
:1020D00040052091410530E4D32E3D2D329F312D16
:1020E0001124D32ECD1738F50C2F10E0F801EC5346
:1020F000FE4F9081F70181818923D9F0F801EE0F1D
:10210000FF1FE65BFE4F6081D69EB001112495E073
:10211000759567959A95E1F780913E05680F7C2D3E
:102120008B2D0E947C0C462F282F672FC8010E9400
:10213000660DCF5FD7CF81E0DD3308F080E0DF911F
:10214000CF911F910F91FF90EF90DF90CF90BF90B4
:102150000895DF92EF92FF920F931F93CF93DF9337
:102160008C01DC01CC918DE0C89FC02D1124DDE0F5
:10217000DC0FDE3308F0DDE3E0903E05F0903F0534
:10218000D090400560914105669566956695809171
:102190004205909143050E941A0A0E94550A8058F0
:1021A00087FD8195880F282F3D2D239F212D1124F8
:1021B000822FB7010E947C0CF62EE72ED82ECD1769
:1021C00098F4EC2FF0E0DF01AC53BE4F8C91D801B6
:1021D00011969C91982331F02D2D4F2D6E2DCF010E
:1021E0000E94660DCF5FEBCF81E0DD3308F080E029
:1021F000DF91CF911F910F91FF90EF90DF900895A5
:10220000DF92EF92FF920F931F93CF93DF93EC0136
:10221000FC01EC53FE4F9081692381F1D0903F0582
:102220000091400510913E05E12EF12C0E94F830FE
:10223000282FC7018C549F4F68E671E00E945130EF
:102240008E199F0997FD0396959587959595879586
:102250002370612F289F600D11247D2D802F0E94F7
:102260007C0C462F282F672FCE01DF91CF911F9135
:102270000F91FF90EF90DF900C94660DDF91CF915E
:102280001F910F91FF90EF90DF900895CF92DF9212
:10229000FF920F931F93CF93DF938C01FC01C281B8
:1022A000C1111DC06091410520E1620F08F46FEF7C
:1022B00080914205909143050E941A0A6AE070E0FD
:1022C0000E943D30892B59F50E94F8306DE370E093
:1022D0000E945130F80161810E94001120C0FC0170
:1022E0008081CDE08C9FC02D11249DE0F92EFC0E45
:1022F000FDE3FF1510F48DE3F82ED0E0CF2CD12CA8
:10230000CC15DD053CF4F8016181CE010E9400117D
:102310002196F6CFC1E0FCE3FF1508F4C0E08C2F56
:10232000DF91CF911F910F91FF90DF90CF90089593
:102330001F93CF93DF93FC01EC53FE4F2081622368
:10234000A9F0EC010E94F830182F0E94F830612F9C
:10235000782F809140050E947C0C462F282F672FF4
:10236000CE01DF91CF911F910C94660DDF91CF913B
:102370001F910895CF92DF92FF920F931F93CF93F7
:10238000DF938C01FC01C281C1111DC06091410528
:1023900020E1620F08F46FEF8091420590914305B0
:1023A0000E941A0A65E070E00E943D30892B59F5C1
:1023B0000E94F8306DE370E00E945130F8016181B5
:1023C0000E94981120C0FC018081CDE08C9FC02D1F
:1023D00011249DE0F92EFC0EFDE3FF1510F48DE3B2
:1023E000F82ED0E0CF2CD12CCC15DD053CF4F80133
:1023F0006181CE010E9498112196F6CFC1E0FCE3E5
:10240000FF1508F4C0E08C2FDF91CF911F910F9141
:10241000FF90DF90CF900895DF92EF92FF920F939D
:102420001F93CF93DF938C01DC01CC918DE0C89F8B
:10243000C02D1124DDE0DC0FDE3308F0DDE3E09099
:102440003F05F0904005D0903E05609141056695AE
:102450006695669580914205909143050E941A0AFF
:102460000E94550A805887FD8195880F682F2CE0BF
:10247000629F612D11246D0D7E2D8F2D0E94160AF5
:10248000F62EE72ED82ECD1798F4EC2FF0E0DF01D2
:10249000AC53BE4F8C91D80111969C91982331F08A
:1024A0002D2D4F2D6E2DCF010E94660DCF5FEBCFEE
:1024B00081E0DD3308F080E0DF91CF911F910F9133
:1024C000FF90EF90DF900895E0916303F091640333
:1024D00009942F923F924F925F926F927F928F92C8
:1024E0009F92AF92BF92CF92DF92EF92FF920F93A3
:1024F0001F93CF93DF93CDB7DEB72B970FB6F8942A
:10250000DEBF0FBECDBF5C01DC018C910DE0809F72
:10251000002D1124BDE0B00FB987B73410F0E6E408
:10252000E987D50112968C91882361F040E060E044
:1025300080E00E94641286E4E7EDF3E0DF011D9283
:102540008A95E9F7F5018081811115C080911F04FA
:10255000909120040E94B82821E08931910508F467
:1025600020E020931E04499730F00E94A028909309
:10257000200480931F0410E09985892F90E09B87A9
:102580008A878EE0482EDE0111963D019AEA292EB7
:102590008A859B85081719070CF064C0C80165E09F
:1025A00070E00E9451307B014C01489EF001499E31
:1025B000F00D1124E952FC4FE60FF71F5080A301E4
:1025C0000E94430D382E63018C2D8619831508F067
:1025D00032C0D601EC91F0E0EC53FE4F9081F50152
:1025E0008181892321F1252D35E5231B08F420E085
:1025F000622D621B70913F05222D352D230F08F4AB
:102600002FEF3091400582E0289F200D11242E5F8E
:10261000239F212D1124822F0E947C0C462FD6014E
:102620009C91282F672F892F90E00E94660DBFEFA5
:10263000CB1ADB0AC9CF80911E04882381F0252D97
:1026400031E0231B08F420E0489CC001499C900D18
:10265000112489529C4FFC01EE0DFF1D20830F5F5A
:102660001F4F96CF81E09985963408F080E02B9635
:102670000FB6F894DEBF0FBECDBFDF91CF911F9193
:102680000F91FF90EF90DF90CF90BF90AF909F9011
:102690008F907F906F905F904F903F902F90089514
:1026A000AF92BF92CF92DF92EF92FF920F931F9360
:1026B000CF93DF93CDB7DEB728970FB6F894DEBF80
:1026C0000FBECDBFE82ED62E142F0E94651C882386
:1026D00009F476C0112349F0AE014F5F5F4F6D2DB5
:1026E0008E2D0E94430DF82E01C0F12CC090AA033C
:1026F0000F2D10E0C8018C0D911D099764F188E041
:1027000090E05C01A01AB10AB80165557C4FA501A3
:102710008BEA93E00E940831B8016D547C4FA5010B
:1027200083EB93E00E940831A501440F551FB801C7
:10273000660F771F6D537C4F83EC93E00E94083146
:10274000B80165547C4FA5018BEB93E00E940831E2
:10275000CA94C092AA031091AA03DE01119640E028
:10276000842F810FF41609F190E05D91252F30E060
:10277000BC0166557C4FF901EE0FFF1FE65BFE4F73
:102780000081FB010183220F331FF901E55BFE4F3E
:102790002081FB012187518B880F991FFC01E65591
:1027A000FC4F128E118E4F5FDBCF8093AA03809176
:1027B0003D058C7F803621F46D2D8E2D0E947F0C7F
:1027C00028960FB6F894DEBF0FBECDBFDF91CF9134
:1027D0001F910F91FF90EF90DF90CF90BF90AF903F
:1027E000089508950C94F1130E94F2130C940803B9
:1027F00008950C94F813CF93DF93FC01C081C1506E
:102800008DE0C89FC02D1124DDE0DC0FDE3308F021
:10281000DDE36D2F8C2F0E94F9136D2F8C2FDF912C
:10282000CF910C94F8134F925F926F927F928F9298
:102830009F92AF92BF92CF92DF92EF92FF92CF938F
:102840006091D3037091D4038091D5039091D60306
:102850000E94C7286B017C010E94AC284B015C01DF
:102860006093D3037093D4038093D5039093D603DE
:10287000A091AA03EAEAF3E08A2F90E04FEF5FEF1E
:1028800060E070E04C195D096E097F09A91799F0A5
:10289000218D328D2901612C712C44155505660559
:1028A000770510F4815004C02C0D3D1D328F218F0F
:1028B0009F5F3296EBCF8093AA0380911D04811114
:1028C00008C0C0913D058C2F837019F0C695C69540
:1028D00001C0C0E0809109028130E9F038F0823017
:1028E00009F4E8C0833009F4F5C005C110920A026A
:1028F0008092420590924305A0924405B09245050E
:1029000089E2EAEAF3E0A6E4B5E001900D928A9547
:10291000E1F781E0D9C080910D02C8130DC020916C
:102920003D05237030E040910E0250E081E0241715
:10293000350719F480E001C081E0817080930C02BA
:102940004C2F50E04B31510508F090C0FA01EA5A83
:10295000FF4F0C948430882309F488C040E060E085
:1029600080E00E94641282C08AE092E00E94BB0F65
:102970007EC08AE092E00E94FA0F79C08AE092E07D
:102980000E94501074C08AE092E00E94A9106FC0AB
:102990008AE092E00E94B40E6AC08AE092E00E944F
:1029A000590E65C08AE092E00E94EC0D60C08AE09A
:1029B00092E00E94B80E5BC08AE092E00E94BC0EDA
:1029C00056C08AE092E00E94C00E51C08AE092E0B8
:1029D0000E94C40E4CC08AE092E00E94F00D47C0F5
:1029E0008AE092E00E945D0E42C08AE092E00E947E
:1029F000610E3DC08AE092E00E94F40D38C08AE08A
:102A000092E00E94360F33C08AE092E00E943A0FB3
:102A10002EC08AE092E00E943E0F29C08AE092E038
:102A20000E94461124C08AE092E00E94BA111FC0A1
:102A30008AE092E00E940C121AC08AE092E00E94A2
:102A4000C80E15C08AE092E00E94CC0E10C08AE049
:102A500092E00E9469120BC08AE092E00E94B30FDC
:102A600006C08AE092E00E94B70F01C080E090911A
:102A70000A029F5F90930A02811129C082E080932D
:102A8000090280910C02811122C0CC23E1F00E9446
:102A9000F4138AE092E0CF91FF90EF90DF90CF9017
:102AA000BF90AF909F908F907F906F905F904F906E
:102AB0000C94FB13C0930D0280913D0583708093AD
:102AC0000E020E94610D83E08093090214C0CC23A2
:102AD00091F0DDCF609142057091430580914405EE
:102AE000909145050E94C7286031710581059105C7
:102AF00010F010920902CF91FF90EF90DF90CF90ED
:102B0000BF90AF909F908F907F906F905F904F900D
:102B10000895E0915F03F0916003099510924605D6
:102B2000EFE5F5E08FEF9FEF8193919325E0EF368E
:102B3000F207D1F71092AA03E3ECF3E08FEF9FEFD7
:102B40008193919323E0E33DF207D1F70E94B026F1
:102B5000811104C00E9457270E94300D0E94200D51
:102B600080913D058C7F11F40C94300D0895CF9326
:102B7000C82F882329F040E060E080E00E946412C2
:102B8000C0931D04CF91089520913D0591E09227B7
:102B900090933D051092090281110C94280D08951F
:102BA00081E00C94C41590913D05937091F08111D2
:102BB00002C0946007C08B3110F0986603C0880F84
:102BC000880F982B90933D051092090261110C9487
:102BD000280D089561E00C94D315682F90913D0560
:102BE000969596959F5F9B3110F4892F01C081E0E7
:102BF0000C94D31581E00C94ED15682F90913D0550
:102C000096959695915011F0892F01C08AE10C9408
:102C1000D31581E00C94FD1590913D05937049F01A
:102C200080933E0560933F054093400521110C942D
:102C3000280D0895ADE3B5E01196EC911197F0E001
:102C4000282F13964C91139712966C91CF010896EA
:102C50000C940C1681E00C941A16ADE3B5E01196B5
:102C6000EC911197F0E0282F13964C911397129640
:102C70006C91CF0108970C940C1681E00C942D16E2
:102C8000EDE3F5E0628120E1620F08F46FEF9181DE
:102C9000282F4381892F90E00C940C1681E00C942E
:102CA0004016EDE3F5E0628120E1621B08F460E08C
:102CB0009181282F4381892F90E00C940C1681E09C
:102CC0000C945116EDE3F5E0438120E1420F08F446
:102CD0004FEF9181282F6281892F90E00C940C1680
:102CE00081E00C946216EDE3F5E0438120E1421BA4
:102CF00008F440E09181282F6281892F90E00C94A4
:102D00000C1681E00C9473162091410530E1230FDD
:102D100008F42FEF2093410581110C94280D08959C
:102D200081E00C9484162091410530E1231B08F4C6
:102D300020E02093410581110C94280D089581E035
:102D40000C94931660E080E50E94301861E080E505
:102D50000C943018CF930E94251B60E080E50E9400
:102D60000617C0E021E041E061E08C2F0E9494173B
:102D7000CF5FCD33B9F760E080E50E94621861E073
:102D800080E5CF910C9462186093EF064093F006B3
:102D900024E630E042E050E06FEE76E0880F0E94DB
:102DA000B21B21E0892B09F020E0822F0895EF92D9
:102DB000FF921F93CF93DF937B01182F110FC0E079
:102DC000D0E0C093EF06D701AC0FBD1FE0EFF6E0F7
:102DD0008D91819387E0E030F807D1F724E630E069
:102DE00041E150E06FEE76E0812F0E94B21B892B0B
:102DF00031F46096C03CD10521F781E001C080E04C
:102E0000DF91CF911F91FF90EF9008951F93CF9383
:102E1000DF93C82FD62F45EC6EEF0E94C41640E01A
:102E20006DEF8C2F0E94C41610E040E0612F8C2FB4
:102E30000E94C4161F5F1831C1F745EC6EEF8C2F4E
:102E40000E94C41641E06DEF8C2F0E94C41610E062
:102E500040E0612F8C2F0E94C4161F5F103CC1F709
:102E600045EC6EEF8C2F0E94C41643E06DEF8C2F63
:102E70000E94C4164FEF61E08C2F0E94C41680E4BC
:102E8000D89FA0011124416060E08C2F0E94C416DD
:102E90008FE39CE90197F1F700C00000DF91CF912B
:102EA0001F9108958D33910520F5880F991F880F84
:102EB000991FFC01E15EFD4F528133818081837057
:102EC0007181E82FF0E0A0EC8A9FC00111248159A4
:102ED0009A4FDC01A70FB11D6C93DC01A50FB11D4A
:102EE0004C93DC01A30FB11D2C93ED5AFB4F81E0F5
:102EF00080830895FF920F931F93CF93DF93182F32
:102F0000062FF42EC0E0D0E02F2D402F612FCE01F0
:102F10000E9452172196CD33D105B1F7DF91CF91A1
:102F20001F910F91FF900895CF93DF9334E0839F1B
:102F3000C0011124FC01E15EFD4F8081837051814D
:102F40009281C381A52FA695A695A695392F369572
:102F500036953695EC2FE695E695E6955770F92F60
:102F6000F770C77090E0B0E0D8E1662391F0D89F89
:102F7000B001D99F700D11246D5D7B4FA60FB71F57
:102F800061E070E001C0660F5A95EAF75C91652B2D
:102F900012C0D89FB001D99F700D11246D5D7B4F79
:102FA000A60FB71F61E070E001C0660F5A95EAF7FF
:102FB00060955C9165236C93632F70E038E1389FD6
:102FC000D001399FB00D1124AD5DBB4FA60FB71FC7
:102FD000442349F041E050E001C0440FFA95EAF77C
:102FE0003C91432B09C041E050E001C0440FFA95E9
:102FF000EAF740953C9143234C934E2F50E0222317
:1030000099F028E1289FF001299FF00D1124ED5D32
:10301000FB4FE40FF51F21E030E001C0220FCA95FD
:10302000EAF73081232B13C028E1289FF001299F64
:10303000F00D1124ED5DFB4FE40FF51F21E030E0B2
:1030400001C0220FCA95EAF72095308123232083FF
:10305000FC01EF5DFB4F21E02083DF91CF910895CC
:10306000EF92FF921F93CF93DF93C62FD0E09E0184
:103070002D5A3B4F7901F90190819923D9F0182FEE
:1030800045EC6EEF0E94C41641E06DEF812F0E9467
:10309000C41680EC8C9FB0018D9F700D1124615976
:1030A0007A4F812F0E94D716811104C0CF5DDB4F6C
:1030B00081E08883F7011082DF91CF911F91FF900B
:1030C000EF900895CF92DF92FF920F931F93CF93CB
:1030D000DF93262F30E0A9014F5D5B4F6A01FA01B3
:1030E000908191110AC0F6011082DF91CF911F915A
:1030F0000F91FF90DF90CF900895C62FF82E45ECEA
:103100006EEF0E94C41640E06DEF8F2D0E94C41632
:10311000F8E1CF9FE001112400E010E0F801EC0F8E
:10312000FD1FED5DFB4F4081602F8F2D0E94C41667
:103130000F5F1F4F0831110589F7D5CF882311F094
:10314000FA0101C0FB0109940F931F93CF93FB0178
:10315000C281CC2309F450C08C010E9404268272E3
:10316000F801E35CFC45E431F10508F048C0EF5894
:10317000FF4F0C9484300E94D01540C049E056E1C6
:103180006AEF75E104C04AEF55E169E076E10E941B
:103190009E1834C04DE356E16AE276E1F8CF4AE288
:1031A00056E16DE376E1F3CF4FE556E16EE476E16B
:1031B000EECF4EE456E16FE576E1E9CF41E856E126
:1031C00060E776E1E4CF40E756E161E876E1DFCF02
:1031D0004FE956E160E976E1DACF40E956E16FE97F
:1031E00076E1D5CF81E005C084E003C089E001C06D
:1031F0008EE00E94EA1502C0C1E001C0C0E08C2F41
:10320000CF911F910F9108950F931F93CF93DF9349
:10321000C42FD22FFC0182818823C9F04093570428
:103220000E94A028909356048093550480E28C0F4E
:10323000883008F057C0C77081E001C0880FCA9578
:10324000EAF7DF91CF911F910F910C94311E80917D
:103250005704481330C080915504909156040E9441
:10326000B828883C910538F510E21D0FCD17B9F04C
:1032700080E28C0F883040F4C77081E001C0880F75
:10328000CA95EAF70E94381E183028F581E09D2F74
:10329000977001C0880F9A95EAF70E94311E802F1F
:1032A0000E94281E1830F0F4D77081E001C0880F0A
:1032B000DA95EAF70AC080E28C0F883098F4C7707C
:1032C00081E001C0880FCA95EAF7DF91CF911F9185
:1032D0000F910C94381E802FDF91CF911F910F9189
:1032E0000C94281EDF91CF911F910F9108950F9399
:1032F0009C01CB01243F4CE5340731F188F4293D92
:10330000FCE53F07D9F02A3D4CE5340779F1283D2B
:103310003C45A9F506E221EE41EE68ED7CE52BC0C7
:10332000263FFCE53F07E1F0A8F0273F3C4539F593
:1033300007E225EE46EE67EF7CE51DC007E225EECD
:1033400045EE69ED7CE517C006E221EE40EE64EF44
:103350007CE511C007E225EE44EE65EF7CE50BC08D
:1033600006E221EE42EE66EF7CE505C008E221E0D0
:1033700045EE6AED7CE50E94041980E008C0FC017E
:103380008281882319F01092570401C081E00F91C7
:103390000895CF93DF93EC01FB018281882309F428
:1033A0001FC1C230FCE5DF0708F41BC1C6319CE534
:1033B000D90738F09E012B5F3C452930310508F0D4
:1033C00010C10E94C3269093080780930707C0315D
:1033D000ECE5DE0709F4C3C008F041C0C8308CE555
:1033E000D80709F49AC0F0F4C430ECE5DE0709F41C
:1033F00087C068F4C2308CE5D80709F477C0C330C1
:10340000DC4509F0E3C080910707826076C0C630D2
:10341000ECE5DE0709F46EC008F07BC08091070779
:1034200088606BC0CC308CE5D80709F485C068F49F
:10343000CA30ECE5DE0709F474C008F079C00E94D8
:10344000B52080910707806858C0CE308CE5D8073A
:1034500009F476C008F07FC0809107078BC0CC3F8D
:10346000ECE5DE0709F44FC018F5C3318CE5D80749
:1034700009F47DC078F4C131ECE5DE0709F473C0CE
:10348000C231DC4509F0A2C00E94B5208091070737
:103490008F7733C0C5318CE5D80709F472C008F4C2
:1034A00086C0CB3FDC4509F091C0809108073EC043
:1034B000C115FDE5DF0709F45FC058F4CE3F9CE578
:1034C000D90709F444C008F43FC08091080782601E
:1034D0002DC0C230FDE5DF0709F475C008F45DC0FA
:1034E000C330DD4509F072C080E06EC080910707EF
:1034F000816003C08091070780618093070766C0E1
:103500008091070711C080910807826080930807A7
:103510005DC0809107078062F0CF809107078064CB
:10352000ECCF8091070788608460E7CF8160EECFA1
:10353000809107078E7FE1CF809107078D7FDDCFD8
:1035400080910707877FD9CF8091080718C08091A5
:1035500008078D7FDBCF809107078F7ECECF8091CC
:1035600007078F7DCACF809107078F7BC6CF8091D9
:103570000707877F8B7FC1CF809108078D7F8E7F64
:10358000C5CF8091070782FB222720F991E092277F
:1035900090FB82F990FB83F9B0CF80910807982FB8
:1035A000909591708E7F892B90FB81F9AFCF0E940F
:1035B000B5208091070787FB222720F991E0922709
:1035C00090FB87F99ACF81E00E94592780910707E5
:1035D000909108070E94D4260E94B52080E001C087
:1035E00081E0DF91CF910895CF93DF9386319C45A1
:1035F00041F5EB010E940426982F8A8120910F0249
:1036000030911002882379F09A7A81E009F480E001
:1036100080935804911102C069E201C065E3C901B9
:103620000E94F4270AC080915804811102C069E207
:1036300001C065E3C9010E94FF270E94452680E082
:1036400001C081E0DF91CF9108951092B9008CE024
:103650008093B8000895EF92FF920F931F93CF933A
:10366000DF93182FEB011092BC0084EA8093BC001A
:103670000E94A0287C018091BC0087FD0EC0CF3F36
:103680008FEFD807C1F30E94A0288E199F098C17CD
:103690009D0788F38EEF9FEF2EC08091B900887F41
:1036A000883041F08091B900887F803119F08FEF28
:1036B0009FEF21C01093BB0084E88093BC000E9460
:1036C000A0288C018091BC0087FD0CC0CF3F8FEFFC
:1036D000D807C1F30E94A028801B910B8C179D076F
:1036E00088F3D8CF8091B900887F883111F0803479
:1036F000F1F680E090E0DF91CF911F910F91FF9064
:10370000EF9008950F931F93CF93DF93EB01809376
:10371000BB0084E88093BC000E94A0288C018091AB
:10372000BC0087FD0EC0CF3F8FEFD807C1F30E94CA
:10373000A028801B910B8C179D0788F38EEF9FEFBD
:103740000CC02091B900287F81E090E0283211F46C
:1037500080E090E0919581959109DF91CF911F9143
:103760000F910895CF92DF92EF92FF920F931F93E4
:10377000CF93DF936B018A017901B9010E942B1B62
:10378000E6010C0D1D1DC017D10761F424E920933B
:10379000BC00DF91CF911F910F91FF90EF90DF90D0
:1037A000CF90089597FDF2CFB70189910E94821BB7
:1037B000EACF90935E0480935D040895E0915D04E8
:1037C000F0915E04309721F00190F081E02D099492
:1037D00080E00895E0915D04F0915E04309711F46B
:1037E00080E008950190F081E02D09950895E09121
:1037F0005D04F0915E04309799F020911B02222322
:1038000059F02091070727FF07C0DC012C91119682
:103810002C93119725E02C930280F381E02D0994DD
:103820000895E0915D04F0915E04309739F022E054
:10383000DC012C930480F581E02D099408952091FA
:103840005B0430915C042817390771F090935C0495
:1038500080935B04E0915D04F0915E04309721F069
:103860000680F781E02D0994089520915904309144
:103870005A042817390771F090935A048093590419
:10388000E0915D04F0915E04309721F00084F185B1
:10389000E02D099408950E94AC2860936E04709303
:1038A0006F04809370049093710460936A04709322
:1038B0006B0480936C0490936D04089585B78068C1
:1038C00085BF85B7806885BF089581E008950C9411
:1038D000651C08950C94691C0C94691C0C946C1C58
:1038E0000C94691C0C94701C0C94691C0E945E1C46
:1038F00088EA96E20E942D290E94741C0C94721C86
:103900000E9497280E94F3050E9448290C946E1C7F
:103910006F927F928F929F92AF92BF92CF92DF92DF
:10392000EF92FF920F931F93CF93DF93CDB7DEB744
:103930002A970FB6F894DEBF0FBECDBF0E946A1C57
:103940000E94691C0E94250681110E944B1C30E6D2
:10395000832E34E0932E00E010E0E02E802F0E94B2
:10396000C1055C01F401619071904F0168267926D0
:1039700061147104B1F40F5F1F4F0530110569F731
:103980008FEF89838A831B820E94A0288160782F11
:103990009D838C8349815A816B818D810E944D1D4D
:1039A00043C08091050581FD0E94CA05F12CCC24FD
:1039B000C394D12CC3018C219D21892B71F10E94CC
:1039C000671CAC20BD208823A1F0FE82EF8281E03D
:1039D000A114B10409F480E088870E94A0288160C6
:1039E000782F9A8789874E815F8168858A850E94B2
:1039F0004D1D000F111FF801E05AFB4F808191818E
:103A0000C826D926D182C08241E0AB2809F440E023
:103A10006F2D8E2D0E94501307C0F394CC0CDD1C2B
:103A2000FEE0FF12C7CFA7CF0E9413140E946508C3
:103A30000E94DE1B90915F048917D1F00E94DE1B6B
:103A400080935F042A960FB6F894DEBF0FBECDBFF9
:103A5000DF91CF911F910F91FF90EF90DF90CF906A
:103A6000BF90AF909F908F907F906F900C94CC03FD
:103A70002A960FB6F894DEBF0FBECDBFDF91CF916F
:103A80001F910F91FF90EF90DF90CF90BF90AF907C
:103A90009F908F907F906F900895DF92EF92FF92AA
:103AA0000F931F93CF93DF93CDB7DEB72B970FB64E
:103AB000F894DEBF0FBECDBFF42E052F162FE72ED4
:103AC000D82E61110E942426FE01319686E0DF0186
:103AD0001D928A95E9F77E2D4F2D502F612F8D2D48
:103AE0009E810E946E232B960FB6F894DEBF0FBE08
:103AF000CDBFDF91CF911F910F91FF90EF90DF909D
:103B00000895FC01808191810E94C5250895CF937D
:103B1000882309F450C0C82F8CEF8C0F813AD0F461
:103B20006C2F80910F02909110020E9474278823BD
:103B300049F06C2F80910F02909110020E94FF2794
:103B40000E9445266C2F80910F02909110020E94D6
:103B5000F4270CC080E28C0F883058F4C77081E0E5
:103B600001C0880FCA95EAF70E940726CF910C94EE
:103B70004526EBE5EC0FE33040F4F0E0EB56FC4F6C
:103B8000808190E0CF910C941F1CE8E5EC0FE731A9
:103B900050F4F0E0EE0FFF1FE959FC4F8081918156
:103BA000CF910C94351CCD3E30F08C2F0E947507C0
:103BB000CF910C944708CF910895882389F19CEF09
:103BC000980F913A40F4682F80910F029091100263
:103BD0000E94FF270DC090E2980F983058F487702C
:103BE00091E001C0990F8A95EAF7892F0E940D266E
:103BF0000C9445269BE5980F933020F480E090E0EC
:103C00000C941F1C98E5980F973120F480E090E009
:103C10000C94351C8D3E20F00E94D0070C94470870
:103C200008951F93CF93DF93182FEB010E94871DF8
:103C3000209741F08FE99FE00197F1F700C0000065
:103C40002197F6CF812FDF91CF911F910C94DD1D2D
:103C5000893319F060E070E002C060E570E00C9418
:103C6000111E882321F00E9407260C9445260895F2
:103C7000882321F00E940D260C9445260895CF92AA
:103C8000DF92EF92FF920F931F93CF93DF937C010C
:103C9000D62FC72FFC011281058102950F700E945B
:103CA000FD25882399F0112389F08C2F807F8034A3
:103CB00021F080E28D0F883048F082E00E948F264C
:103CC0000E94FD2591E0D82ED92601C0D12CCC2E02
:103CD000C2948FE0C8228C2D90E08C30910508F0C2
:103CE000B6C1FC01EB57FF4F0C9484308C2F807FC2
:103CF000CF70882311F0C295C07F112399F0CC2397
:103D000009F491C180E28D0F883010F0D11104C008
:103D10008C2F0E94072603C08C2F0E9417260E941A
:103D2000452681C18D2F0E94DD1DCC2309F48FC152
:103D300080E28D0F883010F0D11104C08C2F0E94CA
:103D40000D2603C08C2F0E941D260E9445267FC190
:103D50008C2F807FCF70803211F0C295C07FDD2321
:103D600019F0D130C9F022C0112371F0002341F0C5
:103D7000013031F40E942A268C2B0E94322667C122
:103D80000E942A268C2B1DC0002319F0013009F453
:103D90005EC10E943B2625C0112321F0063008F0A9
:103DA00056C10EC0053008F052C11BC0112361F08E
:103DB000002331F0F701858180FF35C18F70858345
:103DC0008C2F0E94311E43C1002359F0D93309F0D2
:103DD0003BC1FFEF07EE13E0F15000401040E1F768
:103DE00031C18C2F0E94381E32C18C2F869586954A
:103DF000837019F0813061F02AC1112321F08D2FD9
:103E00009C2F937002C080E090E00E941F1C27C18D
:103E1000112321F08D2F9C2F937002C080E090E041
:103E20000E94351C1CC18D2F112319F00E947507AB
:103E300002C00E94D0070E94470811C18C2F8370D6
:103E400009F047C0111107C12D2F22952695277023
:103E5000220F220F6D2F6F70862F90E0A0E0B0E050
:103E6000022E04C0880F991FAA1FBB1F0A94D2F705
:103E7000D4FF10C04FE050E060E070E004C0440F99
:103E8000551F661F771F2A95D2F74095509560956C
:103E9000709503C040E050E0BA01C695C695C37066
:103EA0008A019B01082B192B2A2B3B2BC901B80136
:103EB000C23049F058F4C13019F00E944224CBC0FE
:103EC0000E943024C8C00E945424C5C00E942E24E1
:103ED000C2C0112319F08C2F817001C086958823F0
:103EE00009F4B9C02D2F229526952770220F220F95
:103EF0006D2F6F70862F90E0A0E0B0E0022E04C01E
:103F0000880F991FAA1FBB1F0A94D2F7D4FF10C0B5
:103F10004FE050E060E070E004C0440F551F661FA2
:103F2000771F2A95D2F7409550956095709503C0FC
:103F300040E050E0BA01C695C695C3708A019B0166
:103F4000082B192B2A2B3B2BC901B801C23049F091
:103F500058F4C13019F00E9407257DC00E94F52455
:103F60007AC00E94192577C00E94682474C0CF705F
:103F7000112339F08C2F0E948E248D2F0E94311E28
:103F80006AC08D2F0E94381E8C2F0E94AF2463C000
:103F9000D23F01F128F4D03F41F0D13FA1F03FC022
:103FA000D33FF9F0D43F39F13AC0112341F0053045
:103FB00008F04DC08C2F8F710E94D42448C0063069
:103FC00008F045C0F7CF112339F08C2F8F710E9474
:103FD0008E243DC01123C9F38C2F8F710E94AF2412
:103FE00036C0112329F08C2F8F710E9479242FC0A5
:103FF0000E9474242CC0112349F0CF718C2F0E9491
:104000008E2463E08C2F0E947A2621C081E00E94DA
:104010008F260230E0F082E00E948F2618C0112324
:1040200031F0002391F28D2F0E94871D10C00023D4
:1040300099F2D93349F41FEF27EE33E011502040B5
:104040003040E1F700C000008D2F0E94DD1D88EF99
:104050008C0D843020F40E94DE1B0E94CC03DD20F6
:10406000C9F00E94F92580FD15C0F70112820E9457
:10407000F3250E948E24C7010E946B200E94F32525
:10408000DF91CF911F910F91FF90EF90DF90CF9034
:104090000C94AF24DF91CF911F910F91FF90EF907F
:1040A000DF90CF9008950F931F93CF93DF93EC0190
:1040B000688179818A810E94D0258C010E942B25FC
:1040C0000E941C24B801CE010E943F1EDF91CF91B7
:1040D0001F910F910895CF93DF93EC01988189810F
:1040E0002B813C81232B31F08F3F31F481E09F3FC6
:1040F00019F403C081E001C080E080FD19C0CE0149
:104100000E94820381110CC00E94FD25882381F04A
:104110008A81882369F082E0DF91CF910C948F2609
:10412000CE010E945320CE01DF91CF910C94590310
:10413000DF91CF91089580E090E00E941F1C80E005
:1041400090E00E94351C0E9424260E9427260E948F
:1041500045260E9478090C94470880910F0290919F
:1041600010020E940A280C949B200E9414260C9492
:10417000AD20E92FE295EF704E2F50E0FA01329713
:10418000EE30F105B0F4EF56FF4F0C948430803FD1
:1041900091F018F4883E68F40EC0843F51F40BC0CF
:1041A000883E48F0813F29F406C093FB882780F9B8
:1041B000089580E0089581E008950E94C5250E9439
:1041C000B9200895CF93DF9300D000D01F92CDB7D0
:1041D000DEB70F900F900F900F900F90DF91CF915F
:1041E0000895CF93DF9300D000D000D0CDB7DEB7D5
:1041F00026960FB6F894DEBF0FBECDBFDF91CF91EC
:1042000008951F93CF93DF93C091730416E08091BC
:104210007404C81799F0D0E01C9FF0011D9FF00DA9
:104220001124EB58FB4F408151816281738184815D
:1042300095810E94F1202196C770E9CFDF91CF913F
:104240001F9108954091A5045091A6046091A70480
:104250007091A8048091A9049091AA040C94F12073
:104260000F931F93CF93DF938091AA0482958F7051
:1042700009F05DC08091A704882309F458C080919B
:104280007304109174046091A5047091A604C09108
:10429000A804D091A90491E06F3F09F090E0292F84
:1042A00006E0811709F443C0209721F07F3F21F0F9
:1042B00030E003C031E001C0322F90E030FD34C067
:1042C000089FF001099FF00D1124DF01AB58BB4F8F
:1042D00011963C911197371327C03C91361324C097
:1042E00012963C91129731111FC013964D915C911B
:1042F00014974C1B5D0B483C5105B0F48091AA0407
:104300008F7080618093AA04E658FB4F80818F7084
:104310008061808385EA94E00E946B20DF91CF91D9
:104320001F910F910C94012101968770BACFDF91F4
:10433000CF911F910F9108959F92AF92BF92CF920C
:10434000DF92EF92FF920F931F93CF93DF93CDB73E
:10435000DEB761970FB6F894DEBF0FBECDBF8C01FC
:1043600085E0F801DE011D9601900D928A95E1F736
:10437000F80140815181E2809091A5046091A604EA
:104380002091A8043091A9042115310531F06F3F27
:1043900031F481E09F3F19F403C081E001C080E067
:1043A000F82FF1709F2E80FD46C1F801A380B480E4
:1043B00085EAC82E84E0D82EF090A704F501E21B10
:1043C000F30BFF2009F4DFC08091AA04E83CF1055B
:1043D00008F09BC0282F207F09F052C0561313C04D
:1043E000491311C0FE2CE1100EC08F7080618093C4
:1043F000AA040E942221C6010E946B208091AA0477
:10440000F801858358C1AB2831F05F3F31F481E07A
:104410004F3F19F403C081E001C080E080FD03C07C
:1044200081E08E2502C080E090E0F82FF170FF2E31
:1044300080FF1CC0809173042091740436E08217C1
:1044400009F417C190E0389FF001399FF00D112455
:10445000EB58FB4F6181561306C06081461303C0C1
:104460006281E61203C001968770E9CFFE2CEE2030
:1044700009F421C18091AA0481608093AA045AC0E2
:10448000561306C0491304C0E11002C0F8019FC0D2
:104490004D875E878D859E850E94DD20882379F17A
:1044A000EE2069F12091AA04822F82958F7090E00E
:1044B000029774F08091A5049091A60498878F8349
:1044C0001986BB86AA862C87CE0107960E946B2090
:1044D00086E0F801A5EAB4E001900D928A95E1F733
:1044E0000E9430210E9422210DC0561729F14D87CC
:1044F0005E878D859E850E94DD2081112CC0C801BC
:104500000E946B20FF24F394D6C0282F207F69F7E8
:104510007A2DB98AA88A6E2D89890E94E22085EABF
:1045200094E00E946B2086E0F60111928A95E9F7EB
:104530000E942221F12CBFC04913D9CFE110D7CF5F
:10454000F8018583C8010E946B2086E0F601119274
:104550008A95E9F7B0C0EE2091F22091AA04822F4B
:1045600082958F7090E002970CF4B2CF8091A504F1
:104570009091A6049A8389831B82BD82AC822E838C
:10458000CE010196A3CFE83CF10508F047C0FE2C10
:10459000EE2009F4B4CF561330C049132EC0209139
:1045A000AA0420FD21C0822F82958F70482F50E0F1
:1045B00041155105C9F0F80125834F30510541F0EF
:1045C0008F5F982F9295907F822F8F70892B858394
:1045D000C8010E946B2086E0F801A5EAB4E00190D2
:1045E0000D928A95E1F742C086E0F801A5EAB4E0B1
:1045F00001900D928A95E1F75EC04D875E878D85AB
:104600009E850E94DD20811163CF8091AA04816084
:104610008093AA04C8010E946B204DC07A2DB98AEC
:10462000A88A6E2D89890E94E22086E0F601119207
:104630008A95E9F71BC0EE2009F461CF4D875E87AC
:104640008D859E850E94DD20F82E882309F457CFA2
:1046500086E0F801A5EAB4E001900D928A95E1F7B1
:1046600085EA94E00E94811D0E9430210E9422214F
:1046700022C04D875E878D859E850E94C525292F86
:1046800022952F70223028F49F7039F0811105C0D7
:104690000BC0243028F49F7049F4805E883020F0ED
:1046A000C8010E946B209F2CF92C05C0F801958150
:1046B000907F99F7F9CF8F2D61960FB6F894DEBFF2
:1046C0000FBECDBFDF91CF911F910F91FF90EF9063
:1046D000DF90CF90BF90AF909F9008951F93CF939E
:1046E000DF93CDB7DEB72C970FB6F894DEBF0FBEC1
:1046F000CDBF4F83588769877A878B879C87CE0188
:1047000007960E949C218823D1F09F8188852A8565
:104710003B85232B31F08F3F31F481E09F3F19F42B
:1047200003C081E001C080E080FD47C04F81588513
:1047300069857A858B859C850E94F1203EC086E044
:10474000FE013796DE01119601900D928A95E1F7F0
:10475000FF81E8856A857B856115710531F0EF3F42
:1047600031F481E0FF3F19F403C081E001C080E033
:1047700080FD23C02091740430E0C9010196877048
:1047800099274091730450E084179507F1F1F9835C
:10479000EA837D836C8396E0929FD001939FB00D56
:1047A0001124AB58BB4FFE01319601900D929A95A2
:1047B000E1F7809374040E94012116E08091730454
:1047C00090917404891771F1189FC00111248B58BE
:1047D0009B4F0E949C21882329F1E09173041E9F26
:1047E000F0011124EB58FB4F4081518162817381AC
:1047F000848195810E94F1208091730490E001965C
:104800008770992780937304D9CF0E94B5201092A6
:10481000740410927304E5EAF4E086E0DF011D926F
:104820008A95E9F72C960FB6F894DEBF0FBECDBF80
:10483000DF91CF911F910895089508950C941D2440
:104840000C941E240E9420246093DC047093DD04E9
:104850008093DE049093DF040C949B200C9422241C
:104860000F931F930091DC041091DD042091DE046E
:104870003091DF04602B712B822B932B1F910F91B2
:104880000C9422240F931F930091DC041091DD04FB
:104890002091DE043091DF0460237123822393236F
:1048A0001F910F910C9422240F931F930091DC040D
:1048B0001091DD042091DE043091DF046027712720
:1048C000822793271F910F910C9422240C941D246E
:1048D0000E9466246093D8047093D9048093DA040C
:1048E0009093DB040C949B2060E070E0CB010C946F
:1048F00068240F931F9341E050E060E070E08A016C
:104900009B0104C0000F111F221F331F8A95D2F78D
:10491000C901B8011F910F910C9468240F931F9344
:1049200041E050E060E070E004C0440F551F661F96
:10493000771F8A95D2F78091D8049091D904A091DD
:10494000DA04B091DB048A019B01082B192B2A2B76
:104950003B2BC901B8011F910F910C9468240F9350
:104960001F9341E050E060E070E004C0440F551F29
:10497000661F771F8A95D2F7409550956095709580
:104980008091D8049091D904A091DA04B091DB040D
:104990008A019B01082319232A233B23C901B8015B
:1049A0001F910F910C9468240F931F9341E050E0E6
:1049B00060E070E004C0440F551F661F771F8A95A2
:1049C000D2F78091D8049091D904A091DA04B091E3
:1049D000DB048A019B01082719272A273B27C901E5
:1049E000B8011F910F910C9468240F931F930091AD
:1049F000D8041091D9042091DA043091DB04602BA3
:104A0000712B822B932B1F910F910C9468240F9381
:104A10001F930091D8041091D9042091DA043091A9
:104A2000DB0460237123822393231F910F910C9445
:104A300068240F931F930091D8041091D9042091FA
:104A4000DA043091DB0460277127822793271F91B6
:104A50000F910C94682408952EE0929F800D1124EC
:104A6000E82FE695E695E695877051E001C0550F71
:104A70008A95EAF785E0E89FF0011124E555FB4FA0
:104A800020E030E070E04081CB01022E02C096951C
:104A900087950A94E2F7817081958427852384277E
:104AA00081932F5F3F4F2530310569F708952EE040
:104AB000929F800D1124682F669566956695982FB4
:104AC000977085E0689FB001112440E050E080E0DD
:104AD000FB01E40FF51FE555FB4F208130E0092E67
:104AE00002C0369527950A94E2F721703327042EE9
:104AF00001C0220F0A94EAF7822B4F5F5F4F4530C7
:104B0000510531F70895BF92CF92DF92EF92FF9255
:104B10000F931F93CF93DF938C01C090D804D09054
:104B2000D904E090DA04F090DB048091DC049091E9
:104B3000DD04A091DE04B091DF04C82AD92AEA2A54
:104B4000FB2ACFE1D0E0D701C6010C2E04C0B695F8
:104B5000A795979587950A94D2F780FD04C0219771
:104B600090F7B12C07C0BC2EB8018C2F0E94E8032F
:104B70000197A9F38B2DDF91CF911F910F91FF909A
:104B8000EF90DF90CF90BF900895CF93DF93EC012B
:104B90000E948325BE010E94E803DF91CF91089512
:104BA0001F93CF93DF93EB0190917204992321F02F
:104BB000CB010E94C52513C0882349F0CB010E9478
:104BC0008325182F682FCE010E942C2504C0CB010D
:104BD0000E945725182FBE01812F0E94E803DF9104
:104BE000CF911F9108958091E004859585958595D5
:104BF00008958091E004877008959091E004977083
:104C000081E009F480E00895809104050895909171
:104C10000405892B809304050895809590910405DF
:104C200089238093040508951092040508959091B6
:104C30000305892B809303050895809590910305C2
:104C40008923809303050895109203050895109217
:104C5000020508958091E104089508950C942D268D
:104C60000C942E269091E104981721F08093E10492
:104C70000C94302608958091E104882329F0109245
:104C8000E10480E00C9430260895E0910F02F09149
:104C90001002809104058083E0910F02F0911002D0
:104CA000908180910305892B8083E0910F02F09120
:104CB0001002908180910205892B80838091E1040C
:104CC000882381F0E0910F02F09110029081892BEE
:104CD000808380910F02909110020E945E278111C3
:104CE0000E943B2680910F02909110020C94F71BBA
:104CF0000C942D2698E0899F90011124262B209357
:104D0000E0040E948E248091E00485958595859528
:104D10000C9478261092E00480E00C947826209180
:104D2000E004809582238093E004982F977079F4B3
:104D300030E0482F082E000C550B2417350739F0AA
:104D40008595859585950E94AF240C948A260895B3
:104D500080E008956FEF7FEF80E090E00C945D318C
:104D600080E090E00E94293121E08B3E9E4F09F0C7
:104D700020E0822F089582E090E00C94213183E0BE
:104D800090E00C942131CF9384E090E00E94213197
:104D9000C82F81E290E00E9421312C2F30E0A90140
:104DA000582BCA01CF910895CF93C92F682F84E063
:104DB00090E00E943F316C2F81E290E0CF910C9403
:104DC0003F31AB01BC018FE090E00C945131AB015D
:104DD000BC0183E190E00C94513160E070E0CB01C4
:104DE0000C94E72660E070E0CB010E94E1260C9471
:104DF000ED266BEE7EEF80E090E00E945D3160E09A
:104E000082E090E00E943F3160E083E090E00E9409
:104E10003F311092DC041092DD041092DE041092F7
:104E2000DF0460E084E090E00E943F3160E081E2D6
:104E300090E00E943F3160E085E090E00E943F31C9
:104E400060E086E090E00E943F316FEF87E090E005
:104E50000E943F3140E050E0BA0188E090E00E94BB
:104E6000513160E08DE090E00E943F3140E050E041
:104E7000BA0188E190E00E94513160E087E190E062
:104E80000E943F3140E050E0BA018CE190E00E9486
:104E9000513160E080E290E00E943F3140E050E01C
:104EA000BA0188E190E00E9451310C94F2260C94F2
:104EB000F926682F8EE090E00C943F31FC01329689
:104EC00080911B02882331F08091070787FF02C081
:104ED0009EE101C096E080E0915028F021912223CC
:104EE000D9F38F5FF9CF0895662351F120911B020A
:104EF0002223E9F02091070727FF19C0462F469586
:104F0000469546954E31E0F4677021E030E002C0EE
:104F1000220F331F6A95E2F7FC01E40FF11D828135
:104F200090E02823392381E0232B69F409C0FC0198
:104F3000329608962191621729F0E817F907D1F700
:104F400080E0089581E008959C01FC0132969FEF76
:104F500080E04191461789F09F3F19F4411101C04B
:104F6000982F8F5F8630A9F79F3F39F0F901E90F3D
:104F7000F11D97FDFA956283089508959C012A5FBB
:104F80003F4FFC014281461301C0128201968217F5
:104F90009307B9F70895262F2695269526952E3145
:104FA00068F4FC01E20FF11D677021E030E001C000
:104FB000220F6A95EAF78281282B22830895262FF3
:104FC0002695269526952E3170F4FC01E20FF11DF1
:104FD000677021E030E001C0220F6A95EAF7209562
:104FE000828128232283089520911B02222329F005
:104FF0002091070727FD0C94CB270C94A427209120
:105000001B02222329F02091070727FD0C94DF279C
:105010000C94BE2720911B02FC013296222331F012
:105020008091070787FF02C08EE101C086E0DF01A3
:105030001D928A95E9F7089508950C941C280C9404
:105040001C28CF930E941F280E9425060E941D281D
:10505000C0E08C2F0E94C105892B29F4CF5FC53099
:10506000C1F780E001C081E0CF9108950C941C2825
:1050700080910D07843049F10E94FE0280E00E9479
:10508000CC031092060520E488E190E00FB6F89476
:10509000A895809360000FBE2093600083B7817F46
:1050A000846083BF83B7816083BF7894889583B71A
:1050B0008E7F83BF0FB6F894A895809160008861B9
:1050C00080936000109260000FBE08950E94B5208A
:1050D0000E94DE1B0E94CC030C9403031F920F92CC
:1050E0000FB60F9211248F939F93AF93BF9380912C
:1050F0000605811113C08091030790910407A091C8
:105100000507B09106074196A11DB11D80930307C5
:1051100090930407A0930507B0930607BF91AF9142
:105120009F918F910F900FBE0F901F90189582E066
:1051300084BD93E095BD9AEF97BD80936E0008956E
:105140002FB7F8948091030790910407A091050769
:10515000B09106072FBF08952FB7F8946091030709
:105160007091040780910507909106072FBF08955D
:105170009C014FB7F8948091030790910407A09188
:105180000507B09106074FBF821B930B0895CF927E
:10519000DF92EF92FF922FB7F894C0900307D09060
:1051A0000407E0900507F09006072FBFA7019601BE
:1051B000261B370B480B590BCA01B901FF90EF9022
:1051C000DF90CF90089578941F920F920FB60F92B0
:1051D00011248F939F93AF93BF9380910307909176
:1051E0000407A0910507B09106070196A11DB11D06
:1051F0008093030790930407A0930507B0930607D5
:10520000BF91AF919F918F910F900FBE0F901F9004
:10521000189581E08093E00080E28093D80010929E
:10522000C9008FE19EE40197F1F700C0000087E01C
:1052300090EBDC018093160790931707A093180753
:10524000B09319079CE088E10FB6F894A895809375
:1052500060000FBE90936000FFCF909399038093FE
:10526000980308950C94AA260E9425068FEB9DE5CD
:105270000197F1F700C000000E94250680E00E941F
:10528000C10580FF04C00E9432290C9409290895A9
:105290000E94B026811102C00E9457270E94BB269F
:1052A000809305050E94C326909308078093070703
:1052B0000E94BF26682F70E080E090E00E942E24BC
:1052C0006091D8047091D9048091DA049091DB0444
:1052D0000C946624809127050895CF93DF9300D026
:1052E0001F92CDB7DEB790910D07943019F58983E1
:1052F0007B836A8382E08093E9008FEF9091E800DE
:10530000815095FD06C095ED9A95F1F70000811149
:10531000F5CF8091E80085FF0DC040E050E063E0EC
:1053200070E0CE0101960E949F2B8091E8008E775D
:105330008093E8000F900F900F90DF91CF91089528
:10534000BC0184E00C946D29BC0183E00C946D29B0
:1053500022E02093E9002FEF3091E800215035FD45
:1053600006C035ED3A95F1F700002111F5CF2091F7
:10537000E80025FF0BC040E050E066E070E00E94CE
:105380009F2B8091E8008E778093E8000895CF935B
:10539000DF9320911B02222339F02091070727FF7A
:1053A00003C060E222E002C068E021E02093E9004F
:1053B0002FEF3091E800215035FD06C035ED3A95CC
:1053C000F1F700002111F5CF2091E80025FF1DC065
:1053D000EC0180911B02811105C040E050E068E0C3
:1053E00070E003C070E040E050E0CE010E949F2BCF
:1053F0008091E8008E778093E80080E2FE01A7E0CC
:10540000B5E001900D928A95E1F7DF91CF91089573
:1054100080910C07811109C00E94302D0E948D2DB2
:105420008091E20084608093E200089510920C075E
:10543000089508950895089542E061EC81E00E9486
:10544000A92C42E261EC82E00C94A92C80910F0718
:10545000833009F460C030F4813071F0823009F497
:1054600099C008958A3009F485C08B3009F46BC067
:10547000893009F0A7C020C080910E07813A09F059
:10548000A1C08091E800877F8093E8008091120797
:1054900090911307892B21F460E287E095E003C027
:1054A00060E080E090E070E00E94EA2B8091E800EC
:1054B0008B778093E800089580910E07813209F080
:1054C00081C08091120790911307029708F07AC06B
:1054D0008091E800877F8093E8008091E80082FD5A
:1054E00005C080910D078111F8CF6CC02091F300A9
:1054F0008091F20090E0922B029729F48091F100C4
:105500008B7F813021F48091F10080932705809179
:10551000E8008B7753C080910E07813A09F052C0A2
:105520008091120790911307892B09F04BC080914D
:10553000E800877F8093E8008091E80080FFFCCF3F
:1055400080911B0236C080910E078132D9F580917F
:10555000120790911307892BA9F58091E800877FA6
:105560008093E8000E94DE2C8091100780931B023C
:105570000C94B52080910E07813221F58091E800CE
:10558000877F8093E8000E94DE2C80911107809332
:105590002805089580910E07813AA1F48091E800D2
:1055A000877F8093E8008091E80080FFFCCF8091A6
:1055B00028058093F1008091E8008E778093E800C1
:1055C0000C94DE2C089584B7877F84BF0FB6F894BF
:1055D000A8958091600088618093600010926000BF
:1055E0000FBE90E080E80FB6F8948093610090932E
:1055F00061000FBE0E94761C0E94302D0E948D2DEE
:105600008091E20084608093E20078940E942230CE
:105610000E94801C81E192E00E94D91B80910D07BD
:105620008530A9F480910D07853079F40E943828DF
:1056300080910B078823B1F30E942128882391F3DE
:105640000E94892B0E94B520EDCF0E9466280E94FF
:10565000881C0E946A1C0E94691CE0CF0C94302BAD
:10566000292F332723303105C9F060F4213031056B
:1056700081F02230310509F044C08BE390E026E24E
:1056800034E043C021323105E1F02232310549F1E5
:1056900038C082E190E021E634E037C099278130BC
:1056A000910549F028F0029761F5E6EFF3E005C0B7
:1056B000E2E2F4E002C0E2E1F4E0849190E09F01D4
:1056C00024C06115710541F061307105D1F489E0A4
:1056D00090E021E534E019C089E090E028E334E06F
:1056E00014C06115710541F06130710551F486EB0C
:1056F00090E023E734E009C080E490E029E235E05F
:1057000004C080E090E020E030E0FA0131832083A3
:10571000089580E189BD82E189BD09B400FEFDCF15
:105720008091D8008F7D8093D8008091E0008260C6
:105730008093E0008091E00081FDFCCF0895CF923E
:10574000DF92EF92FF920F931F93CF93DF93EC01C1
:105750008B017A010E94FD2C811133C0E114F10408
:1057600039F0F70180819181081B190BC80FD91FEF
:10577000C12CD12C0115110519F18091E80085FD8E
:1057800016C08091E8008E778093E800E114F10460
:1057900049F0F70180819181C80ED91ED182C08263
:1057A00085E00FC00E94FD2C882321F30AC0899157
:1057B0008093F10001501109FFEFCF1ADF0ADACF11
:1057C00080E0DF91CF911F910F91FF90EF90DF90DC
:1057D000CF900895209114073091150726173707A9
:1057E00048F06115710539F42091E8002E77209377
:1057F000E80001C0B901FC0120E06115710579F1F3
:1058000080910D078823F1F18530F1F18091E80056
:1058100083FD3CC08091E80082FD2EC08091E800AD
:1058200080FFEBCF2091F3008091F20090E0922B6B
:105830006115710551F08830910538F4219120935C
:10584000F100615071090196F3CF21E0089709F04A
:1058500020E08091E8008E778093E800CECF211180
:10586000CFCF0AC080910D07882361F0853061F0A9
:105870008091E80083FD0AC08091E80082FFF2CFAA
:1058800080E0089582E0089583E0089581E008951E
:1058900020911407309115072617370748F0611536
:1058A000710539F42091E8002E772093E80001C0BB
:1058B000B901FC0120E06115710591F180910D079E
:1058C000882309F440C0853009F43FC08091E80086
:1058D00083FD3DC08091E80082FD2FC08091E800EB
:1058E00080FFE9CF2091F3008091F20090E0922BAD
:1058F0006115710559F08830910540F42491209389
:10590000F1003196615071090196F2CF21E00897BC
:1059100009F020E08091E8008E778093E800CBCFFB
:105920002111CCCF0AC080910D07882361F085300A
:1059300061F08091E80083FD0AC08091E80082FF59
:10594000F2CF80E0089582E0089583E0089581E039
:105950000895982F973068F59093E900981739F0DB
:105960007091EC002091ED005091F00003C0242FC5
:10597000762F50E021FD02C09F5FECCF3091EB000D
:105980003E7F3093EB003091ED003D7F3093ED0092
:105990003091EB0031603093EB007093EC0020937A
:1059A000ED005093F0002091EE0027FDE5CF80E060
:1059B00008958F708093E90081E0089580910E072B
:1059C00087FF11C08091E80082FD05C080910D071E
:1059D0008111F8CF11C08091E8008B770BC08091C6
:1059E0000D07882349F08091E80080FFF8CF80916F
:1059F000E8008E778093E80008952091E4003091CC
:105A0000E50095E64091EC00842F817040FF23C0B3
:105A10008091E80080FD1DC080910D07882399F0DA
:105A2000853099F08091EB0085FD11C04091E40034
:105A30005091E5002417350729F3915011F09A0190
:105A4000E1CF84E0089582E0089583E0089581E045
:105A5000089580E008954091E80042FFDDCF089569
:105A60000E949E2D0E94A62DE0EEF0E080818160D4
:105A70008083E8EDF0E080818F77808319BCA7ED0B
:105A8000B0E08C918E7F8C9380818F7E808310928A
:105A90000C0708950F931F93CF93DF930E949E2DC1
:105AA0000E94A62DC8EDD0E088818F7788838881F9
:105AB0008068888388818F7D888319BC10920D0748
:105AC0001092090710920B0710920A0700EE10E0DF
:105AD000F80180818B7F808388818160888342E0A8
