:100000000C94F1030C9438040C9438040C943804C8
:100010000C9438040C9438040C9438040C94380470
:100020000C9438040C9438040C94782C0C944C2DBB
:100030000C94EF260C9438040C9438040C94380477
:100040000C9438040C9438040C9438040C94380440
:100050000C9438040C9462270C9438040C943804E3
:100060000C9438040C9438040C9438040C94380420
:100070000C9438040C9438040C9438040C94380410
:100080000C9438040C9438040C9438040C94380400
:100090000C9438040C9438040C9438040C943804F0
:1000A0000C9438040C9438040C943804002000108C
:1000B0000022021200230313002404140025051556
:1000C0000026061600270717002808180029091916
:1000D000002A0A1A002B0B1B002C0C1C002D0D1DD6
:1000E000002E0E1E002F0F1F0050304000513141D6
:1000F00000523242005333430054344400553545D6
:100100000056364600573747005838480059394995
:10011000005A3A4A005B3B4B005C3C4C005D3D4D55
:10012000005F3F4F008060700081617100826272E9
:100130000083637300846474008565750086667649
:10014000008767770088687800896979008A6A7A09
:10015000008B6B7B008C6C7C008D6D7D008F6F7FC6
:1001600000B090A000B191A100B292A200B393A3FD
:1001700000B494A400B595A500B696A600B797A7BD
:1001800000B898A800B999A900BA9AAA00BB9BAB7D
:1001900000BD9DAD00BF9FAF0120001001220212E3
:1001A0000123031301240414012505150126061655
:1001B000012707170128081801290919012A0A1A15
:1001C000012B0B1B012D0D1D012E0E1E0150304069
:1001D000015131410152324201563646015A3A4AE2
:1001E000015B3B4B015C3C4C015D3D4D015E3E4E75
:1001F000015F3F4F29000000BE00BD00805F815FAE
:10020000CA5CC95CAC00AE00AB00A800AA00A900A3
:100210007F0035001E001F00200021002200230067
:1002200024002500260027002D002E002A004B0068
:100230002B0014001A000800150017001C001800FD
:100240000C00120013002F00300031004E00394125
:1002500004001600070009000A000B000D000E0044
:100260000F0033003400520028004A00E100000073
:100270001D001B00060019000500110010003600CB
:10028000370038005100E5004C00E000E200E300D8
:100290000000000000002C00000000000000E7004B
:1002A0000151E40050004F00010000003A003B0003
:1002B0003C003D003E003F00400041004200430042
:1002C000440045000100010001000100010001009F
:1002D0000100010001000100010001000100010016
:1002E00001000100C25C01000100010001000100E9
:1002F0000100C35CC95CC55CC75CCB5C010001004C
:1003000001000100010001000100010001000100E5
:10031000C45CCA5CC65CC85CCC5C01000100010026
:1003200001000000010001000100010001000100C6
:1003300001000100010001000100010001000100B5
:1003400001000100000000000000010000000000AA
:10035000000001000100010001000100290000006F
:100360003A003B003C003D003E003F0040004100A1
:1003700042004300440045007F0035001E001F007E
:100380002000210022002300240025002600270051
:100390002D002E002A004B002B0014001A0008002C
:1003A000150017001C0018000C00120013002F008D
:1003B000300031004E0039430400160007000900E8
:1003C0000A000B000D000E000F0033003400520035
:1003D00028004A00E10000001D001B000600190073
:1003E0000500110010003600370038005100E5000C
:1003F0004C00E000E300E2000000000000002C00E0
:10040000000000000000E6000351E40050004F002F
:1004100001000000BE00BD002B080808CA5CC95CD2
:10042000AC00AE00AB00A800AA00A90001000100CA
:1004300001000100010001000100010001000100B4
:10044000010001000100010001000100C25C010087
:1004500001000100010001000100C35CC95CC55C32
:10046000C75CCB5C0100010001000100010001003C
:100470000100010001000100C45CCA5CC65CC85CEC
:10048000CC5C01000100010001000000010001003E
:100490000100010001000100010001000100010054
:1004A0000100010001000100010001000000000046
:1004B0000000010000000000000001000100010038
:1004C0000100010000000000000000002A2B2800AD
:1004D00000000000000000000000000000000029F3
:1004E000000000002C1E3420212224342627252E33
:1004F000362D3738271E1F2021222324252633336B
:10050000362E37381F0405060708090A0B0C0D0E96
:100510000F101112131415161718191A1B1C1D2F62
:100520003130232D350405060708090A0B0C0D0E82
:100530000F101112131415161718191A1B1C1D2F42
:100540003130354C000000000000000000000000C9
:10055000000000000000000000000000000000009B
:1005600000000000000000007E0F00D4FFFFFFC766
:1005700000000078000101010101010101010202F6
:100580000202020202020203030303030303030441
:10059000040404040404050505050506060606060C
:1005A000070707070708080808090909090A0A0AC6
:1005B0000B0B0B0C0C0C0D0D0D0E0E0E0F0F0F1068
:1005C00010111111121213131414151516161717F2
:1005D000181819191A1A1B1B1C1D1D1E1E1F20205E
:1005E000212222232424252626272829292A2B2CA8
:1005F0002D2D2E2F30313232333435363738393ACB
:100600003B3C3D3E3F404142434445464748494AC2
:100610004C4D4E4F50515354555658595A5B5D5E90
:100620005F616264656668696B6C6D6F707273752B
:1006300077787A7B7D7E8082838587888A8C8E8F8F
:1006400091939596989A9C9EA0A2A3A5A7A9ABADBD
:10065000AFB1B3B5B7BABCBEC0C2C4C6C9CBCDCFAB
:10066000D1D4D6D8DBDDDFE2E4E7E9EBEEF0F3F559
:10067000F8FAFDFF18034B0065007900630068007D
:1006800072006F006E002000510031000000120364
:100690004B00650079006300680072006F006E0017
:1006A00000000403090409025B00030100A0FA0929
:1006B0000400000103010100092111010001224091
:1006C000000705810308000109040100020300007E
:1006D00000092111010001222200070582032000E8
:1006E00001070503032000010904020001030000C3
:1006F00000092111010001226D000705840320007B
:100700000112010002000000083434000100010160
:100710000200010660FF0961A1010962150026FFC0
:10072000009520750881020963150026FF009520B9
:1007300075089102C005010980A101850319012AEC
:10074000B700150126B700950175108100C0050C92
:100750000901A101850419012AA002150126A002A0
:10076000950175108100C005010906A101850505E7
:100770000719E029E7150025019508750181020593
:1007800007190029EF1500250195F0750181020573
:1007900008190129059505750191029501750391C7
:1007A00001C005010906A101050719E029E71500A7
:1007B00025019508750181029501750881010507DC
:1007C000190029FF150026FF009506750881000510
:1007D0000819012905950575019102950175039187
:1007E00001C011241FBECFEFDAE0DEBFCDBF04B6DB
:1007F00003FE27C080919D0690919E06A0919F06C2
:10080000B091A0068730904BA740B04BD1F4109226
:100810009D0610929E0610929F061092A00614BE8E
:1008200084B7877F84BF0FB6F894A8958091600045
:10083000886180936000109260000FBEE0E0F8E3F2
:10084000099513E0A0E0B1E0E8E3F1E602C005900D
:100850000D92AC31B107D9F726E0ACE1B3E001C0AD
:100860001D92AD39B207E1F70E9426150C94513064
:100870000C9400009C0104974A9738F081E02933DA
:10088000310509F080E08170089581E0FCCF21E01E
:10089000019709F020E0822F089524E031E090E0F4
:1008A000D90180E0ED91EF3F39F0F0E0EE0FFF1F4E
:1008B000E05DFB4F808391838F5F8F3099F79F5F5F
:1008C000215F3F4F963061F70895AF92BF92CF926C
:1008D000EF92FF920F931F93CF93DF93162FF42E77
:1008E0005901C82FD0E0C11750F0DF91CF911F916F
:1008F0000F91FF90EF90CF90BF90AF900895FE01C1
:10090000EE0FFF1FE05DFB4F608171818F2D0E9414
:100910008521F5010995882331F02C2D4E2D602F6E
:10092000CE010E9467172196DECFCF92EF920F93F0
:100930001F93CF93DF93D82F162F809143030E94EC
:10094000C706C82F813031F0882351F0823041F042
:100950008330B1F4C12CE12C00E027E434E00BC07B
:100960000E94902581FF0CC0CC24CA94EE24EA9406
:100970000FEF2AE334E04C2F612F8D2F0E94650486
:10098000DF91CF911F910F91EF90CF9008951F931A
:10099000CF93DF93182FD62F0E945022C82F882381
:1009A00039F0111105C081E0D11184E00E94500A94
:1009B0008C2FDF91CF911F9108950C944D048038B6
:1009C0002FE5920729F081389F4579F081E008955D
:1009D000FB018281882331F08FE992E00E94C325D8
:1009E00080E0089590E080E0F9CFFB0182818823C8
:1009F000C9F380EA92E0F2CF89EA611101C08AEA84
:100A00000E94B00780E0089581E008950C94DF040F
:100A100008950C9408051F93CF93DF9300D000D066
:100A20000F92CDB7DEB749835A836B8330911E0393
:100A300089819A8131111DC06623B9F02223A9F062
:100A40000E94FC0A182F682F89819A810E94A80AA7
:100A500069817A81812F0F900F900F900F900F90E6
:100A6000DF91CF911F910C9485210E94D40A182FF9
:100A7000EFCF0E94FC0A69817A81EDCFFC01262F1D
:100A8000408151816281738184810C940B0581E0E6
:100A90000895CF93DF93EC0160E00E943E05BE0114
:100AA000DF91CF910C940905E1E0F0E0DF0102C095
:100AB000AA0FBB1F6A95E2F7BD01DF0102C0AA0FB2
:100AC000BB1F4A95E2F76A2B01C0EE0F2A95EAF7A1
:100AD000962F9823961302C08E2B0895E0958E23AF
:100AE0000895242F462F682F809143030E945405B8
:100AF0000C94650A0E9477130E94DF060E947F1BF8
:100B00000C94911380E00E945B220C94941308953E
:100B10000E94FD090E9487052FEF84E39CE021508D
:100B200080409040E1F700C000000C9486270F93AE
:100B30001F93CF93DF938C0161E00E943E05EC018F
:100B4000B8010E94CD1F882309F441C0B801CE012D
:100B50000E9406058823D9F1B801CE010E94032323
:100B60008823A9F1B801CE010E945523882379F189
:100B7000B801CE010E947F24882349F1B801CE013B
:100B80000E947D1E882319F1F8018281882361F07B
:100B9000CA35FDE5DF0721F170F4C115ECE5DE078C
:100BA000A1F0CE3DDC45C9F0C801DF91CF911F9186
:100BB0000F910C940405CB358DE5D807A1F0CC3509
:100BC000DD4591F70E94C40EEFCF0E94880580E0BA
:100BD000DF91CF911F910F9108950E943A10F7CFA6
:100BE0000E94CD0EE1CF0E94D00EDECFDF92EF92B9
:100BF000FF920F931F93CF93DF93E82FF0E0EC5316
:100C0000FB4FD490282F26952695269530E0F901A4
:100C1000EC59FA4F0491877010E0082E02C0159528
:100C200007950A94E2F701701127F901EC5AFA4F7F
:100C3000E490F12C082E02C0F594E7940A94E2F7B0
:100C400091E0E922FF24F901EC5BFA4FC491D0E076
:100C500002C0D595C7958A95E2F7C170DD270115C9
:100C6000110519F081EE0E942B07E114F10419F02F
:100C700086EE0E942B078D2D0E94B007EF2819F0F9
:100C800086EE0E947107012B19F081EE0E94710718
:100C9000CD2B51F08CE2DF91CF911F910F91FF90FE
:100CA000EF90DF900C94B007DF91CF911F910F91DF
:100CB000FF90EF90DF900895EF92FF920F931F93B4
:100CC000CF93DF93EC01162F0AE08881882309F483
:100CD00054C0813009F04EC08981813099F47E0181
:100CE00022E0E20EF11C8A810E94B007E701219602
:100CF000812F815050F3EFE9FFE03197F1F700C009
:100D00000000F7CF823041F47E0182E0E80EF11C52
:100D10008A810E942B07EACF833041F47E01E2E012
:100D2000EE0EF11C8A810E947107E0CF843011F031
:100D30002196DDCF2A81229690E080E0AE014F5FC0
:100D40005F4F2053330B2A30310548F0019778F27A
:100D5000EFE9FFE03197F1F700C00000F7CF089FFF
:100D6000B001099F700D1124C901860F971F2981B9
:100D7000EA01E4CF0E94F605BACFDF91CF911F912F
:100D80000F91FF90EF90089560E00C945C06982F0F
:100D900092959F7011F0892F94E0282F2695269523
:100DA00011F09E5F822F869509F09F5F892F08952D
:100DB00008950C94D80681E008950C94DB060895FC
:100DC000CF93C82F0E94D9068C2FCF910C94DD06AB
:100DD000CF93DF93CDB7DEB72B970FB6F894DEBF76
:100DE0000FBECDBF4F83588769877A878B87611184
:100DF0000E94F30E1E821D8285E0FE013796DE0101
:100E0000119601900D928A95E1F78C819D81892B35
:100E100089F449815A816B817C818D819E810E94F8
:100E2000F30D2B960FB6F894DEBF0FBECDBFDF914A
:100E3000CF91089589819A8189238F3F51F3CE0103
:100E400001960E9447058111E4CFEBCFFC01808120
:100E500091810C94290BCF93C82F882309F43FC0AC
:100E60008CEF8C0F813AA0F46C2F809154029091FA
:100E700055020E94ED25882329F08C2F0E94940EA4
:100E80000E94230F8C2F0E948D0ECF910C94230F64
:100E900080E28C0F883048F4C77081E001C0880F71
:100EA000CA95EAF70E94D60EF0CFEBE5EC0FE330DF
:100EB00040F4F0E0EC55FD4F808190E0CF910C9430
:100EC000AD25C85AC73158F4EC2FF0E0EE0FFF1FE4
:100ED000EA58FD4F80819181CF910C94C325CF9129
:100EE0000895882329F19CEF980F913A20F40E94ED
:100EF000940E0C94230F90E2980F983050F4877062
:100F000091E001C0990F8A95EAF7892F0E94DC0EC3
:100F1000F0CF9BE5980F933020F490E080E00C94A4
:100F2000AD25885A873120F490E080E00C94C325E9
:100F300008951F93CF93DF93182FEB010E942B0787
:100F4000209731F4812FDF91CF911F910C9471077D
:100F50008FE99FE00197F1F700C000002197F0CFE3
:100F600070E060E0893311F460E570E00C9499075B
:100F7000882321F00E94D60E0C94230F0895882315
:100F800021F00E94DC0E0C94230F0895BF92CF92A3
:100F9000DF92EF92FF920F931F93CF93DF936C0139
:100FA000D62FC72FFC011281058102950F700E9478
:100FB000AB0EE82E8823A1F0E12E112389F08C2FAF
:100FC000807F803429F080E28D0FE12C883040F062
:100FD00082E00E94740F0E94AB0E91E0E82EE92699
:100FE000BC2EB2949FE0B922EB2DF0E0ED5AFF4CFD
:100FF0000C94262F0C2F0F70C07F11F00295007FEC
:101000001123A9F0002359F080E28D0F883010F0F1
:10101000D11109C0802F0E94D60E0E94230F8D2F60
:101020000E942B0714C0802F0E94E60EF6CF8D2F52
:101030000E947107002359F080E28D0F883010F074
:10104000D1112CC0802F0E94DC0E0E94230F2B2D6B
:101050002850330B2430310520F40E9484250E944F
:10106000E006EE2009F46EC10E94A70E80FD6AC161
:10107000F60112820E94A10E0E94760AC6010E9409
:10108000C3090E94A10EDF91CF911F910F91FF9094
:10109000EF90DF90CF90BF900C94810A802F0E9438
:1010A000EC0ED3CFFC2FFF70FF2EC07FC03219F0A3
:1010B000F29480EFF822DD2369F0D13049F1112359
:1010C00091F1002351F1F601858180FFA8CF8F7047
:1010D000858323C0112381F0011106C00E94060FF1
:1010E0008F290E94B807B3CF0130C1F70E94060FC5
:1010F0008F290E940C0FABCF011106C00E94190F5F
:101100008F2D0E94BF07A3CF013009F4A0CFF6CFE7
:10111000112329F0063008F09ACF8F2DE2CF053049
:1011200008F095CFEDCF002359F3D93349F4FFEF01
:1011300027EE33E0F15020403040E1F700C00000DE
:101140008D2F0E94710783CF8C2F86958695837093
:1011500069F0813009F07BCF8D2F9C2F9370111196
:1011600002C090E080E00E94C32571CF8D2F9C2F9C
:101170009370111102C090E080E00E94AD2567CF0E
:101180008C2F837079F5111162CF4D2F42954695C2
:101190004770440F440F8D2F8F70042E01C0880FAD
:1011A0000A94EAF72D2F2071D4FF07C02FE030E01A
:1011B00001C0220F4A95EAF72095C695C695C370DF
:1011C000822BC23049F058F4C13019F00E94570AFE
:1011D0003ECF0E94520A3BCF0E945C0A38CF0E9449
:1011E000500A35CF8695112311F08C2F81708823FA
:1011F00009F42DCF4D2F429546954770440F440F6B
:101200008D2F8F70042E01C0880F0A94EAF72D2FBE
:101210002071D4FF07C02FE030E001C0220F4A95B3
:10122000EAF72095C695C695C370822BC23049F067
:1012300058F4C13019F00E949D0A09CF0E94980A03
:1012400006CF0E94A20A03CF0E94650A00CFCF708A
:10125000112329F08C2F0E94760A8D2F42CF8D2FDB
:101260000E94BF078C2F0E94810AF1CED23F89F1E4
:1012700060F4D03FC9F0D13F29F1112309F442C0F5
:101280000111CDCE8C2F8F7121C0D33F39F1D43FC6
:10129000A1F7112369F1CF718C2F0E94760A63E0C8
:1012A0008C2F0E94590FD3CE112341F0053008F046
:1012B000CECE8C2F8F710E948D0AC9CE063008F0D9
:1012C000C6CEF7CF8C2F8F71112369F20E94760A58
:1012D000BECE8C2F8F711123C9F3C5CF112329F0F6
:1012E0008C2F8F710E946E0AB2CE0E946B0AAFCE15
:1012F00081E00E94740F023008F4A9CE82E00E94BF
:10130000740FA5CE002359F0D93309F019CF8FEF10
:1013100097EEE3E081509040E040E1F70FCF8C2F53
:101320008F71A1CF4C2F4F706D2FC6010E94691194
:101330000E94570B8CCE4C2F4F706D2FC6010E9410
:101340006C1185CEDF91CF911F910F91FF90EF909F
:10135000DF90CF90BF9008950F931F93CF93DF93AB
:10136000EC01688179818A810E94330B8C010E9493
:10137000A70A0E944F0AB801CE01DF91CF911F91B9
:101380000F910C94C607CF93DF93EC018B819C8166
:10139000892B29F08881998189238F3F59F4DF9126
:1013A000CF910895CE010E94AC09CE01DF91CF917B
:1013B0000C944905CE010E9497058111F3CF0E943C
:1013C000AB0E882361F38A81882349F382E0DF91A1
:1013D000CF910C94740F90E080E00E94AD2590E0D6
:1013E00080E00E94C3250E94F30E0E94030F0C941C
:1013F000230F0E949B0E0C94EB090E94E30E0C94A9
:10140000F909E92FE295EF70E250EE3070F4F0E068
:10141000ED59FF4C0C94262F803F19F020F4883EA4
:1014200020F481E00895843FE1F380E00895883E50
:10143000C0F3813FD1F7F5CF93FB882780F908955A
:10144000FC01808191810E94290B0C94010ACF93A9
:10145000DF9300D000D00F92CDB7DEB70F900F9082
:101460000F900F900F90DF91CF910895CF93DF935E
:1014700000D000D000D0CDB7DEB726960FB6F894D6
:10148000DEBF0FBECDBFDF91CF91089508950C94BC
:10149000460A0E94470A809344030C94EB0908957E
:1014A0000C94490A90914403892B0C94490A909119
:1014B000440389230C94490A9091440389270C948E
:1014C000490A0C94460A0C94610A0E94630A8093AC
:1014D00043030C94EB0980E00C94650A91E001C091
:1014E000990F8A95EAF7892F0C94650A21E030E07C
:1014F00001C0220F8A95EAF780914303822B0C9456
:10150000650A21E030E001C0220F8A95EAF72095B4
:101510008091430382230C94650A21E030E001C0EE
:10152000220F8A95EAF78091430382270C94650A7B
:1015300090914303892B0C94650A9091430389236E
:101540000C94650A9091430389270C94650A0895C9
:101550002FE0929F800D1124982F977041E001C0D9
:10156000440F9A95EAF786958695869593E0899F2C
:10157000F0011124E15EFC4F90E080E070E05191B9
:10158000DF0111979B01082E02C0369527950A941A
:10159000E2F7217021952527242325272C930196F6
:1015A0008330910561F708952FE0929F800D1124FB
:1015B000982F977086958695869523E0829FF001F7
:1015C0001124E15EFC4F50E040E080E0219130E0EA
:1015D000092E02C0369527950A94E2F72170332729
:1015E000042E01C0220F0A94EAF7822B4F5F5F4F4F
:1015F0004330510559F70895CF92DF92FF920F9330
:101600001F93CF93DF936C010091430380914403B8
:10161000082BC7E0D0E010E0FC2EC8010C2E02C061
:10162000959587950A94E2F780FD0CC02197A0F765
:10163000F12C8F2DDF91CF911F910F91FF90DF90B3
:10164000CF900895B6018C2F0E947F12019771F3FD
:10165000F0CFCF93DF93EC010E94FC0ABE01DF9133
:10166000CF910C947F121F93CF93DF93EB01909156
:101670001E03992331F0CB01DF91CF911F910C9480
:10168000290B882379F0CB010E94FC0A182F682FC0
:10169000CE010E94A80ABE01812FDF91CF911F9138
:1016A0000C947F12CB010E94D40A182FF4CFEF9232
:1016B000FF920F931F93CF93DF938C01892B81F0BF
:1016C000F12CEE24E394E8012196F801849184370B
:1016D00070F4843008F05FC08130B1F08230A1F145
:1016E000DF91CF911F910F91FF90EF900895853773
:1016F00009F44CC008F43DC09CE7980F903780F780
:101700008F770E94710749C00E5F1F4FFE018491C1
:1017100090E2980F983060F48770FE2D01C0FF0FA3
:101720008A95EAF78F2F0E94F60E0E94230F02C0BF
:101730000E942B078F2D815030F2EFE9FFE03197A7
:10174000F1F700C00000F7CF0E5F1F4FFE0184913C
:1017500090E2980F983050F48770FE2D01C0FF0F73
:101760008A95EAF78F2F0E94FC0EDFCF0E94710747
:10177000E1CF0E5F1F4FFE01C491C150D8F28FE937
:101780009FE00197F1F700C00000F7CF0E5F1F4FF9
:10179000FE01F490CFCF0E942B078E01CBCF1F9379
:1017A000CF93DF93C091450316E0809146038C13DD
:1017B00004C0DF91CF911F910895D0E01C9FF001EC
:1017C0001D9FF00D1124E95BFC4F40815181628126
:1017D0007381848195810E94360A2196C770E5CF76
:1017E00040917703509178036091790370917A0367
:1017F00080917B0390917C030C94360A1F93CF93C6
:10180000DF9380917C03807FA9F480917903882302
:1018100089F080914503C0914603609177037091F0
:101820007803A0917A03B0917B03D62FD72316E0DB
:10183000C81304C0DF91CF911F91089590E01097D5
:1018400011F0DF3F19F401968770F2CF189F9001D5
:10185000199F300D1124F901E95BFC4F41814713B9
:10186000F2CF40814613EFCF42814111ECCF43814B
:1018700054814A1B5B0B483C510528F780917C033F
:101880008F70806180937C03F901E45BFC4F808161
:101890008F708061808387E793E00E94C309DF91A6
:1018A000CF911F910C94CF0BAF92BF92CF92DF924A
:1018B000EF92FF920F931F93CF93DF93CDB7DEB7D5
:1018C00061970FB6F894DEBF0FBECDBF8C0185E0E7
:1018D000F801DE011D9601900D928A95E1F7F8015D
:1018E000E28087E7C82E83E0D82E60917A0370915A
:1018F0007B036115710509F45AC19091770320911A
:101900007803892F82238F3F09F451C1408151818F
:10191000A380B480F0907903F501E61BF70BFF205C
:1019200009F4F6C080917C03382F307FE83CF10544
:1019300008F0AFC0311179C0FE2C251323C09413D9
:1019400021C0E1101FC08F70806180937C030E94D2
:10195000F00BC6010E94C30980917C03F8018583C6
:101960008F2D61960FB6F894DEBF0FBECDBFDF910D
:10197000CF911F910F91FF90EF90DF90CF90BF908C
:10198000AF900895AB2829F0842F85238F3F09F06D
:1019900027C180E0F82FF170DF2E80FF3CC08091DE
:1019A00045032091460336E0821315C04D875E87BC
:1019B0008D859E850E94290B292F22952F7022301C
:1019C000F0F0243018F59F70F1F0F8019581907FC8
:1019D000D1F4D12C1EC090E0389FF001399FF00D5A
:1019E0001124E95BFC4F6181651306C060816413BB
:1019F00003C06281E6120FC001968770D5CF9F7039
:101A000011F0882331F3805E883018F3C8010E94FA
:101A1000C309FD2CA5CFEE2009F4A2CF80917C0351
:101A2000816080937C03F12C9BCF251306C0941317
:101A300004C0F801EE2009F487C0C8010E94200A02
:101A4000882319F1EE2009F180917C03803270F037
:101A5000209177033091780338872F831986BB86CE
:101A6000AA868C87CE0107960E94C30986E0F801FA
:101A7000A7E7B3E001900D928A95E1F70E94FE0B73
:101A80000E94F00BFF24F3946BCFC8010E94C3099E
:101A9000F9CF311113C07A2DB98AA88A6E2D8989A0
:101AA0000E94270A87E793E00E94C30986E0F601B7
:101AB00011928A95E9F70E94F00BB5CF25130FC05C
:101AC00094130DC0E1100BC0F8018583C8010E947A
:101AD000C30986E0F60111928A95E9F741CFC80162
:101AE0000E94200A882389F2EE2079F280917C03FB
:101AF000803208F4BBCF20917703309178033A838A
:101B000029831B82BD82AC828E83CE010196ACCF2D
:101B1000E83CF10508F03EC0FE2CEE2009F4B5CFFC
:101B200025132AC0941328C080917C0380FD1BC01C
:101B3000982F907FC1F0F8018583903F31F0982F66
:101B4000907F905F8F70892B8583C8010E94C309A5
:101B500086E0F801A7E7B3E001900D928A95E1F7DE
:101B60000E94F00BFDCE86E0F801A7E7B3E00190FC
:101B70000D928A95E1F7F4CEC8010E94200A8111E6
:101B800075CF80917C03816080937C03C8010E94A3
:101B9000C309E6CE7A2DB98AA88A6E2D89890E945A
:101BA000270A86E0F60111928A95E9F7D9CFEE204F
:101BB00009F46BCFC8010E94200AF82E882309F48B
:101BC00064CF86E0F801A7E7B3E001900D928A9513
:101BD000E1F787E793E00E9426070E94FE0BC0CF43
:101BE00081E08E25D7CE1F93CF93DF93CDB7DEB79D
:101BF0002C970FB6F894DEBF0FBECDBF4F8358872A
:101C000069877A878B879C87CE0107960E94540C40
:101C1000882369F08A859B85892B39F04F81588507
:101C2000842F85238F3F09F071C016E05FC086E0E6
:101C3000FE013796DE01119601900D928A95E1F72B
:101C40008A859B85892B89F38F81988589238F3F8E
:101C500061F32091460330E0C9010196877099270E
:101C6000409145034817190671F40E94FD0910922E
:101C700046031092450386E0E7E7F3E0DF011D929B
:101C80008A95E9F7D2CF96E0929FD001939FB00D4D
:101C90001124A95BBC4FFE01319601900D929A95DB
:101CA000E1F7809346030E94CF0BBFCF819FC00115
:101CB0001124895B9C4F0E94540C8823E9F0E09129
:101CC00045031E9FF0011124E95BFC4F40815181C7
:101CD00062817381848195810E94360A80914503D7
:101CE00090E0019687709927809345038091450382
:101CF000909146038913DACF2C960FB6F894DEBF85
:101D00000FBECDBFDF91CF911F91089569857A8570
:101D10008B859C850E94360A88CF682F809154025B
:101D2000909155020C946D26682F809154029091E9
:101D300055020C94782680915402909155020C948F
:101D4000832680917D03859585958595089580915D
:101D50007D038770089590917D03977081E009F469
:101D600080E008959091D50492FB222720F928174E
:101D700051F080FB92F99093D5048091D404909116
:101D8000D5040C94B70F08958091D50482FB882761
:101D900080F991E089270C94B20E81E00C94B20E88
:101DA00080E00C94B20E8091A10308959091A1035C
:101DB000892B8093A103089580959091A103982386
:101DC0009093A10308951092A10308959091A00308
:101DD000892B8093A003089580959091A003982368
:101DE0009093A00308951092A003089590919F03EB
:101DF000892B80939F030895809590919F0398234A
:101E000090939F03089510929F03089580917E03FD
:101E1000089508950C94090F9091D50492FD08C07F
:101E200090917E03981721F080937E030C940A0F03
:101E3000089580917E03882329F010927E0380E02C
:101E40000C940A0F0895E0915402F091550280918C
:101E5000A1038083E0915402F0915502808190911A
:101E6000A003892B8083E0915402F0915502808178
:101E700090919F03892B808390917E03992381F019
:101E8000E0915402F09155028081892B80838091EA
:101E90005402909155020E94D92581110E94190F78
:101EA00080915402909155020C94932508950C94BE
:101EB000560F9091D50492FD10C098E0899F900133
:101EC0001124622B60937D030E94760A80917D032A
:101ED0008595859585950C94570F0C94760A1092EC
:101EE0007D0380E00C94570F90917D0380958923AA
:101EF00080937D03282F277039F4282F082E000C9B
:101F0000330B9217130621F49091D50492FF07C06A
:101F10008595859585950E94810A0C946F0F08958B
:101F20006FEF7FEF90E080E00C94E82F90E080E08E
:101F30000E94B42F893E9E4F11F40C94761F80E0CE
:101F4000089582E090E00C94AC2F83E090E00C9434
:101F5000AC2FCF9384E090E00E94AC2FC82F82E298
:101F600090E00E94AC2F982F8C2FCF910895CF93A3
:101F7000C92F682F84E090E00E94CA2F6C2F82E264
:101F800090E0CF910C94CA2FAB01BC018FE090E0A0
:101F90000C94DC2FAB01BC0183E190E00C94DC2FAE
:101FA00060E070E0CB010C94CA0F60E070E0CB0100
:101FB0000E94C40F0C94D00F69EE7EEF90E080E099
:101FC0000E94E82F60E082E090E00E94CA2F60E06B
:101FD00083E090E00E94CA2F1092440360E084E006
:101FE00090E00E94CA2F60E082E290E00E94CA2F37
:101FF00060E085E090E00E94CA2F60E086E090E01B
:102000000E94CA2F6FEF87E090E00E94CA2F40E045
:1020100050E0BA0188E090E00E94DC2F60E08DE0A3
:1020200090E00E94CA2F40E050E0BA0188E190E0C1
:102030000E94DC2F60E087E190E00E94CA2F40E020
:1020400050E0BA018CE190E00E94DC2F70E060E08B
:1020500080E290E00E94E82F40E050E0BA0188E181
:1020600090E00E94DC2F80E00E948F1F0E94B51F2D
:102070000C94D50F0C94DC0F682F8EE090E00C943C
:10208000CA2F0E942B276093B7037093B8038093E5
:10209000B9039093BA036093B3037093B40380932E
:1020A000B5039093B60308950E942B276093B7035E
:1020B0007093B8038093B9039093BA036093AF030E
:1020C0007093B0038093B1039093B203089585B7E2
:1020D000806885BF85B7806885BF08950895089595
:1020E0000C946E1008950C9472100E9467108DE588
:1020F00093E10E94AA270E946F100C94701081E057
:1021000008950C947F10089508950E9483100C94F4
:1021100084100E9416270E94C41F0E948E140E94E1
:10212000191FE4EDF4E08081806880838091D404FD
:102130009091D5040E94B70F0E9456220C94731000
:102140004F925F926F927F928F929F92AF92BF92C7
:10215000CF92DF92EF92FF920F931F93CF93DF9373
:10216000CDB7DEB72A970FB6F894DEBF0FBECDBF4E
:102170000E94A11481110E94411093EAC92E93E09C
:10218000D92E712C512C872D0E9496135C01F601DB
:10219000E190F1906F01E816F90609F444C08091CE
:1021A000BB0381FD0E94A613EA24FB24612C01E0FD
:1021B00010E04601F2E08F1A9108C70180239123B5
:1021C000892B59F10E9481104424439495012023C6
:1021D0003123232B09F4412C882379F06E827F82EE
:1021E00048860E941F278160782F9A8789874E81B1
:1021F0005F8168858A850E94E806F401808191816B
:102200008027912791838083442D662D872D0E94FE
:10221000721A5394FBE0F515E0F06394000F111F60
:102220008FE06812CACF7394E6E07E12ACCF5110F3
:1022300010C08FEF89838A831B820E941F278160D1
:10224000782F9D838C8349815A816B818D810E9477
:10225000E8060E941D1B0E942C1F81110E94541031
:102260000E9484259091A2038917E1F00E948425A1
:102270008093A2032A960FB6F894DEBF0FBECDBF9F
:10228000DF91CF911F910F91FF90EF90DF90CF9052
:10229000BF90AF909F908F907F906F905F904F9086
:1022A0000C94E0062A960FB6F894DEBF0FBECDBFA1
:1022B000DF91CF911F910F91FF90EF90DF90CF9022
:1022C000BF90AF909F908F907F906F905F904F9056
:1022D000089590E080E008950895FC01EE0FFF1F3F
:1022E000EC58FA4F859194910895CF93DF930E9413
:1022F0008312EC01811520E5920708F041C0811599
:1023000030E4930708F0B4C0803E910518F5803C96
:10231000910508F09DC0883A910570F4853A9105C1
:1023200008F08EC081309105F9F00097E9F004972C
:10233000D8F4D0E0C0E018C08F3B9105D0F7C85A60
:10234000D0E0CC0FDD1FC955DD4F0990D881C02DDD
:10235000D4640AC08115904258F4C11581E0D807B1
:1023600018F4C83ED10528F7CE01DF91CF9108952A
:10237000C11590E3D90708F071C0CE019F706AC003
:10238000811525E5920758F5811534E5930708F086
:102390009EC0811542E5940750F4C11581E5D80728
:1023A00008F469C0DC2FCC27C16FD06ADDCF982F2D
:1023B000969596959E0123703327C115D34508F055
:1023C00077C0C1E0D0E002C0CC0FDD1F2A95E2F754
:1023D00020E2929FC0011124C82BD92B67C0C115E0
:1023E00089E5D807A8F4C11598E5D90708F074C0A5
:1023F000C11526E5D20708F09CCF8C2F0E941A1336
:10240000C82FD0E0DC2FCC27CC27DF71D062ACCF37
:10241000C1153AE5D30708F464C0CE019056811582
:10242000904208F086CF8D2F8F710E941A1390E092
:10243000982F882788279F719C012C2BE901E6CFD4
:10244000C55AD0E0CB52DD4FC881D0E0D0648CCFEC
:10245000805C91090E946D11EC0186CFCE01992715
:10246000D3FF03C0EC01D86C7FCFEC01D06C7CCFE4
:10247000DF70D06A79CFCE01E4E096958795EA9532
:10248000E1F783702C2F26952695237090E2299FE3
:1024900090011124382B8C2F8370C1E0D0E002C052
:1024A000CC0FDD1F8A95E2F7C22BD32BDC685CCF03
:1024B000C1E0D0E002C0CC0FDD1F2A95E2F730E288
:1024C000939FC0011124C82BD92BDA684DCFD82F88
:1024D000CC27C46FD06A48CFDC2FCC27C06FD06A1E
:1024E00043CF8C2F8F700E941A1334E0D695C79576
:1024F0003A95E1F7CF709C2FEC01D06935CF0E945F
:1025000085210C94751182389105B1F1B0F48133B5
:10251000910509F475C048F48932910509F469C040
:102520008A32910509F473C008958533910509F441
:1025300059C08933910501F10895833E9105A9F1B0
:1025400038F4803E9105F9F0823E910549F10895F5
:10255000863E9105A9F1873E9105C9F1843E91051A
:1025600019F52091D50421FF1FC08091D40484FD6A
:1025700014C087EE90E008952091D4042370A1F058
:1025800080EE90E008952091D40420FD47C0309162
:10259000D50430FF09C024FF44C090E080E004C0AF
:1025A0002091D40422FDF7CF08952091D40422FD78
:1025B0003BC03091D50430FDE3CF24FFF5CFEDCF04
:1025C0002091D40423FFF0CF24FDE7CFD2CF209178
:1025D000D40423FD2CC03091D50431FFEECF84EE1E
:1025E00090E008952091D40425FFDECF89E290E0A9
:1025F00008952091D40425FFD7CF85E390E0089576
:102600002091D40426FFD0CF8AE290E00895209153
:10261000D40426FFC9CF81E390E0089589E390E0D8
:10262000089583EE90E0089582EE90E0089586EE9E
:1026300090E008959091D40492FF06C0282F28714D
:102640002830F9F4877F846093FF06C0282F287113
:102650002831F1F4877E84612091D50420FF06C0E3
:10266000382F38713830D9F4877F816021FF06C058
:10267000282F28712831D1F4877E816194FD877ECF
:102680000895282F24712430F9F68B7F8860DCCFE1
:10269000282F2471243101F78B7E8861DDCF382FFC
:1026A0003171313019F78E7F8860E0CF282F21718A
:1026B000213121F78E7E8861E1CF80E008950C946E
:1026C000900F0E94A1148FE39CE90197F1F700C0DD
:1026D00000000E94A11480E00E94961380FF04C0B5
:1026E0000E945F130C94862708950C9461130E9436
:1026F000960F811102C00E943A100E94A10F809390
:10270000BB030E94A90F9093D5048093D4040E9428
:1027100075130E94A50F0E94500A809143030C94E8
:10272000630A0C94DD0408950C94931390E0880FD1
:10273000991FDC01AE51BB4FFC01E659FD4F2D91B5
:102740003C9180819181822393230895089580EAAA
:102750008A95F1F7089500C008950C94A71390E0AE
:10276000880F991F442399F08A529B4FFC01808166
:10277000918121E030E002C0220F331F6A95E2F719
:102780002823392381E0232B09F480E008958E511A
:102790009B4FECCFF894E82FE295EF70F0E031A179
:1027A000282F2F7081E090E001C0880F2A95EAF76A
:1027B000982F9095932391A392A1892B82A378942B
:1027C0000895CF93DF93C8EDD2E089918F3F11F048
:1027D0000E94CA1382E0C73ED807B9F7C7EED2E01D
:1027E00089918F3F11F00E94CA1382E0CD3ED80735
:1027F000B9F7DF91CF9108958F929F92AF92BF92D8
:10280000CF92DF92EF92FF920F931F93CF93DF93BC
:10281000D82EE92EF62EC62FD0E0C852DD4F888183
:102820008F3F09F46EC0F894E82FE295EF70F0E066
:1028300021A18F7001E010E0A80102C0440F551FD4
:102840008A95E2F7CA01922F982B91A392A18095C5
:10285000892382A378940E94AB13A8010F2C02C095
:10286000440F551F0A94E2F7BA016095709587EE00
:10287000882E82E0982EED2DFE2D5F018CE0A80EB3
:10288000B11C10E0D4010D914D01819191919F01F6
:102890002250310969010F3F71F1202F22952F70CD
:1028A00030E0D90190962C9130E00F7002C0359540
:1028B00027950A95E2F720FD1EC0842B952BD601A3
:1028C0008D939C9311E0AE16BF06E1F688818F3F91
:1028D00011F00E94CA13612F8F2DDF91CF911F91AC
:1028E0000F91FF90EF90DF90CF90BF90AF909F90AF
:1028F0008F900C94AD1386239723D6018D939C93D0
:10290000E2CFDF91CF911F910F91FF90EF90DF9079
:10291000CF90BF90AF909F908F9008950E94E11349
:10292000E6EDF4E0A2EEB4E0119211921D921D9238
:1029300084E0E23EF807C1F786E00E94EC140C94B4
:102940007A05FF920F931F93CF93DF93CDB7DEB736
:102950002C970FB6F894DEBF0FBECDBF8E010F5F70
:102960001F4F8CE0F80111928A95E9F7F12C6F2D39
:10297000C8010E94FC13F394FFE0FF12F8CF4CE073
:1029800050E0B80186ED94E00E948F2FFF24F3946D
:10299000009709F4F12C892B41F08CE0F801A6EDA9
:1029A000B4E001900D928A95E1F72F2D46E062EE9A
:1029B00074E086ED94E00E94ED140E9482058F2D54
:1029C0002C960FB6F894DEBF0FBECDBFDF91CF912E
:1029D0001F910F91FF9008950895FF920F931F93F9
:1029E000CF93DF93F82E092F162FD72FC42F222332
:1029F00049F081E08093BE030E941F279093BD039E
:102A00008093BC038091BE038823A1F08091BC0316
:102A10009091BD030E943727059760F0EF2DF02FAE
:102A2000A12FBD2F90E080E0D0E08C179D0744F0EF
:102A30001092BE03DF91CF911F910F91FF900895E7
:102A4000219131912D933D930196EFCF0E949526D0
:102A50000E9430290E9449290E945B290E9485100A
:102A6000FBCFEF92FF920F931F93CF93DF93EB0176
:102A7000E82FD11110C0442321F0F0E0EC58FA4FB8
:102A8000E4916E2F7E2F8E2FDF91CF911F910F91AA
:102A9000FF90EF9008950D2F10E0282F30E0442391
:102AA00029F02C583A4FF901249130E0F6E0CF9FFD
:102AB000C0011124EFEFF0E0BF010E94FE2EAB0138
:102AC0008C2F90E0880F991FA5E5A49FB001A59FCA
:102AD000700D1124861B970B982F990F980FBF012B
:102AE000601B710B629FD001639FB00D729FB00D90
:102AF00011248B2F9D9FB0011124672F7727EF01A1
:102B0000C61BD70BBE01629FE001639FD00D729F71
:102B1000D00D11247F01E91AF108E09EB001E19E79
:102B2000700DF09E700D1124672F7727E61BF70BB1
:102B3000E29F8001E39F100DF29F100D1124E12F01
:102B4000722F4230510599F048F44115510569F052
:102B50004130510581F0EB2F8D2F07C044305105D6
:102B600069F080F046305105B1F76E2F8DCFE22F1E
:102B70007B2F812FFACFE22F7D2FF7CFEB2F822FE4
:102B8000712FF3CF7B2F822FED2FEFCF41E00C94ED
:102B9000311530E020E0869F212D969F200D311DBC
:102BA0001124C9010895AC018230910508F40895FB
:102BB0009FEF413E8EE1580740F49A0195E036952B
:102BC00027959A95E1F798E0920F61E0E62FE90FDB
:102BD000FF27FF1F9F0135952795822F229FF00128
:102BE000239FF00DF00D11244E175F0738F49FEF6F
:102BF000920F961758F78FEF860F08952F3FE9F33E
:102C000061E0620FF6CFE82F86FDE0952E2F2F7042
:102C100086FD2F5FE695E695E695E670F0E0E351D8
:102C2000FD4F9181929F902D212D112492959F709F
:102C30002295207F922B2081920F87FD919580E82D
:102C4000890F0895622F0895E42FF0E0EE0FFF1F23
:102C5000E25AFE4F6081621B0895E42FF0E0EE0F10
:102C6000FF1FE15AFE4F6081621B0895322F50E032
:102C7000FA01EE0FFF1FE15AFE4F9081905297FD2F
:102C80009195440F551FFA01E25AFE4F2081231BF4
:102C9000330B290F311D97FD3A95620F0895EF927E
:102CA0000F93972F23E0029FB0011124759567952C
:102CB0006E0D792F0F91EF9008950F93CF93DF93BF
:102CC000D72FC82F47FD419588E390E0841B9109D9
:102CD00047FD9395889FB001899F700D700D112459
:102CE000229FC001239F900D900D1124860F971FE6
:102CF0000E94D315982F990F890F682F600F7D2F91
:102D00008C2FDF91CF910F9108950F931F93522F26
:102D100010E0F801EE0FFF1FE15AFE4FA081A05214
:102D2000BB0B9D015203F001539FF00D1124000FC6
:102D3000111FD801A25ABE4F0C910057110B40032E
:102D40009001419F300D11242E0F3F1F37FF02C00D
:102D500021583F4F220F232F221F330B620F1F9149
:102D60000F9108950F931F93522F10E0F801EE0F6B
:102D7000FF1FE15AFE4FA081A052BB0B9D015203E1
:102D8000F001539FF00D1124000F111FD801A25A1A
:102D9000BE4F0C910057110B40039001419F300D25
:102DA00011242E0F3F1F37FF02C0215C3F4F96E0DA
:102DB000359527959A95E1F7620F1F910F91089528
:102DC000FC019B01AC0197FF04C044275527481B19
:102DD000590BBA01620F731F37FD0FC0241B350B4F
:102DE000C901A5E0880F991FAA95E1F70E94122F4B
:102DF00080E2861BF7FD81950895CB0165E0880F81
:102E0000991F6A95E1F7BA01621B730B0E94122F9A
:102E100080E6EFCFEF920F93CF93DF93D72FC82F9A
:102E2000C9010E19009729F480E857FD05C080E01C
:102E300003C0BA010E94E016602F681B7D2F8C2F03
:102E4000DF91CF910F91EF9008950F93CF93DF9380
:102E5000D72FC82FC901009729F480E857FD05C076
:102E600080E003C0BA010E94E016602F680F7D2F3A
:102E70008C2FDF91CF910F9108950C94C61546E0E9
:102E800050E06CE170E08EEE94E00C949C2F46E0F4
:102E900050E06CE170E08EEE94E00C94BA2FEEEE10
:102EA000F4E081E180838091670290916802A091B3
:102EB000690281839283A3838FE784838FEF858365
:102EC0000C944717E091FB02F091FC020994E09109
:102ED000F702F091F80209945F926F927F928F92BD
:102EE0009F92AF92BF92CF92DF92EF92FF920F9399
:102EF0001F93CF93DF935C014B01FC01C08181E103
:102F0000C89FC02D112411E11C0FF12E133510F0B4
:102F100032E5F32E6091F20466958091F40490916D
:102F2000F5040E94C915582ED0E0CF15A0F081E01D
:102F3000123508F080E0DF91CF911F910F91FF9043
:102F4000EF90DF90CF90BF90AF909F908F907F9049
:102F50006F905F900895FE01EE5FFD4F8081F50157
:102F600091818923C9F1CE01880F991F8C5F9E4FF3
:102F7000FC01E65AFF4F2081422F4057550B6A0152
:102F8000855A9F4FFC018081282F2052330B390135
:102F9000449F9001459F300D300D1124669CC00167
:102FA000679C900D900D1124820F931F0E94D315E2
:102FB000082F6091EF047091F0048091F104E52CEA
:102FC0009301A601F40109950E943D17462F282F71
:102FD000672FCE010E9467172196A7CF6FE476E195
:102FE0000C946C176AE077E10C946C17AF92BF9267
:102FF000CF92DF92EF92FF920F931F93CF93DF93C5
:103000006C017B01FC01C08181E1C89FC02D1124AE
:1030100011E11C0FB12E133510F032E5B32E609183
:10302000F20466958091F4049091F5040E94C9150C
:10303000A82ED0E0CB1578F081E0123508F080E0C2
:10304000DF91CF911F910F91FF90EF90DF90CF9084
:10305000BF90AF900895FE01EE5FFD4F8081F601B5
:103060009181892311F1CE01880F991F8C5F9E4FAA
:10307000FC01E55AFF4F20812052330B865A9F4FA7
:10308000FC0140814057550B6091EF047091F004B2
:103090008091F1040A2DF70109950E943D17462FF2
:1030A000282F672FCE010E9467172196C3CF6DE5A9
:1030B00076E10C94F61765E277E10C94F617BF926F
:1030C000CF92DF92EF92FF920F931F93CF93DF93F4
:1030D0007C018B01FC01C08181E1C89FC02D1124BE
:1030E00091E1D92EDC0ECD2CF2E5FD1510F482E530
:1030F000C82E6091F2046695669521E0620F08F48F
:103100006FEF8091F4049091F5040E94C915B82ED8
:10311000D0E0CC1578F081E091E59D1508F480E0D1
:10312000DF91CF911F910F91FF90EF90DF90CF90A3
:10313000BF900895FE01EE5FFD4F8081F701918100
:10314000892391F06091EF047091F0048091F10473
:103150002B2D4C2FF80109950E943D17462F282F43
:10316000672FCE010E9467172196D3CF62E276E1E6
:103170000C945F1864E276E10C945F186DE276E1DE
:103180000C945F1866E376E10C945F187F928F923F
:103190009F92AF92BF92CF92DF92EF92FF920F93E6
:1031A0001F93CF93DF935C016B01FC01C08181E130
:1031B000C89FC02D112411E11C0F912E133510F062
:1031C00032E5932E6091F204669566958091F40441
:1031D0009091F5040E94C915F82E80E48F0D0E948D
:1031E000031690E8892E880E8F2D0E94031620E882
:1031F000722E780ED0E0C91590F081E0123508F0FB
:1032000080E0DF91CF911F910F91FF90EF90DF90C1
:10321000CF90BF90AF909F908F907F900895FE01C8
:10322000EE5FFD4F8081F50191818923A1F06091CE
:10323000EF047091F0048091F104EF2C0C2F272DF6
:10324000482DF60109950E943D17462F282F672F1C
:10325000CE010E9467172196CECF65E876E10C94E7
:10326000C61862EB76E10C94C618BF92CF92DF923B
:10327000EF92FF920F931F93CF93DF937C01FC019A
:10328000C08181E1C89FC02D112411E11C0F012FC5
:10329000133508F002E56091EF047091F00480911D
:1032A000F1040E943D17D62EC72EB82ED0E0C017CD
:1032B00070F081E0123508F080E0DF91CF911F912E
:1032C0000F91FF90EF90DF90CF90BF900895FE0197
:1032D000EE5FFD4F8081F7019181892331F02B2D25
:1032E0004D2D6C2DCE010E9467172196E0CFBF9225
:1032F000CF92DF92EF92FF920F931F93CF93DF93C2
:103300008C01FC01C08181E1C89FC02D112491E195
:10331000F92EFC0EEF2CF2E5FF1510F482E5E82EF5
:10332000D090EF04D091F004C090F1046091F204C9
:103330006695669566958091F4049091F5040E94D7
:10334000C9150E940316805887FD8195880F282F84
:103350003C2D239F212D1124822F6D2D7D2F0E9426
:103360003D17D62EC72EB82ED0E0CE1578F081E0CE
:1033700021E52F1508F480E0DF91CF911F910F9187
:10338000FF90EF90DF90CF90BF900895FE01EE5F29
:10339000FD4F8081F8019181892331F02B2D4D2D36
:1033A0006C2DCE010E9467172196DFCFDF92EF923E
:1033B000FF920F931F93CF93DF938C01FC01EE5F7D
:1033C000FD4F8081682381F1D090F004D091F10409
:1033D000C091EF04EC2EF12C0E947F2F282FC70103
:1033E0008C549F4F68E671E00E94122F8E199F093E
:1033F00097FD0396959587959595879523706C2FE6
:10340000289F600D11247D2D8D2F0E943D17462F82
:10341000282F672FC801DF91CF911F910F91FF9047
:10342000EF90DF900C946717DF91CF911F910F9170
:10343000FF90EF90DF900895DF92EF92FF920F934D
:103440001F93CF93DF938C01FC01C281C11125C072
:103450006091F20420E1620F08F46FEF8091F404B0
:103460009091F5040E94C9156AE070E00E94FE2E5A
:10347000892B51F40E947F2F62E570E00E94122F89
:10348000F80161810E94D6198C2FDF91CF911F9195
:103490000F91FF90EF90DF900895C08181E1C89F68
:1034A000C02D112481E1D82EDC0E8D2DF2E5FD1505
:1034B00008F482E5D0E0E82EF12CCE15DF0534F0DB
:1034C000C1E0F1E5FD1500F7C0E0DECFF801618154
:1034D000CE010E94D6192196F0CFE091F902F09129
:1034E000FA0209940C947F10CF93C82F80915A024E
:1034F0008C1323C09091EE04937020915B0230E016
:1035000081E09217130609F480E0817080935902DC
:103510008091F30490915802981739F080935802E3
:1035200040E060E080E00E946D1ACE3088F4EC2F1D
:10353000F0E0EF58FF4C0C94262F81E0E6CF80910D
:103540005902882359F040E060E080E00E946D1A43
:1035500080E004C087E592E00E94351990915702FF
:103560009F5F9093570281110CC082E080935602B6
:1035700080915902811105C0C11103C083E080937D
:103580005602CF91089587E592E00E947719E6CF21
:1035900087E592E00E94B618E1CF87E592E00E94AD
:1035A000BA18DCCF87E592E00E94BE18D7CF87E536
:1035B00092E00E94C218D2CF87E592E00E94EE17F7
:1035C000CDCF87E592E00E945718C8CF87E592E0FB
:1035D0000E945B18C3CF87E592E00E94F217BECF2E
:1035E00087E592E00E942D19B9CF87E592E00E940D
:1035F0003119B4CF87E592E00E941C1AAFCF08952D
:1036000008950E94FF1A0C94001B0895CF93DF9336
:10361000FC01C08181E1C89FC02D1124DFEEDC0FC9
:10362000C33508F0C2E56C2F8D2F0E94051B6C2F4F
:103630008D2FDF91CF910C949504CF930E942B276F
:103640006093BF037093C0038093C1039093C20340
:103650002091C403C0E0211108C02091EE04C22FC4
:10366000C37019F0C22FC695C6952091560221301D
:10367000B1F0222331F02230F1F0233039F1CF9133
:103680000895109257026093F4047093F5048093A8
:10369000F6049093F70481E080935602F0CF8C2FCC
:1036A0000E94741ACC2359F30E94011B87E592E013
:1036B000CF910C94061BC0935A028091EE04837044
:1036C00080935B020E94621783E0E6CF8091C30380
:1036D00081110E9447171092C3036091F404709106
:1036E000F5048091F6049091F7040E94462760311A
:1036F00071058105910518F210925602C0CFE09134
:10370000F502F091F60209950E94960F811104C00E
:103710000E943A100E944F170E943F178091EE04BA
:103720008C7F11F40C944F170895CF93C82F8823E2
:1037300091F08091C40381110EC00E94741A1092FE
:103740005A028091EE04837080935B020E9462179C
:1037500083E080935602C093C403CF910895EEEEA8
:10376000F4E0908121E0922790831092560290918C
:10377000C303892B8093C303089581E00C94AF1B8E
:103780009091EE04937061F081110BC0946090935E
:10379000EE04109256028091C303862B8093C303DC
:1037A00008958E3010F09463F2CF880F880F982B15
:1037B000EECF61E00C94C01B682F9091EE049695BB
:1037C000969581E0890F8E3008F081E00C94C01B43
:1037D00081E00C94DC1B682F9091EE0496959695F1
:1037E0008FEF890F09F48DE00C94C01B81E00C94DD
:1037F000EB1B9091EE04937059F08093EF0460936B
:10380000F0044093F1048091C303822B8093C3039F
:103810000895AEEEB4E01196EC911197F0E0282FE8
:1038200013964C91139712966C91CF0108960C94B5
:10383000F91B81E00C94091CEEEEF4E09181282F35
:1038400043816281E92FE850FF0BCF010C94F91BF3
:1038500081E00C941C1CEEEEF4E0628120E1620F2A
:1038600008F46FEF9181282F4381892F90E00C9409
:10387000F91B81E00C942B1CEEEEF4E0628120E158
:10388000621B08F460E09181282F4381892F90E02A
:103890000C94F91B81E00C943C1CEEEEF4E04381A7
:1038A00020E1420F08F44FEF9181282F6281892F88
:1038B00090E00C94F91B81E00C944D1CEEEEF4E0CA
:1038C000438120E1421B08F440E09181282F62816E
:1038D000892F90E00C94F91B81E00C945E1C80937E
:1038E000F2048091C303862B8093C3030895209133
:1038F000F20430E1230F08F42FEF682F822F0C948D
:103900006F1C81E00C94771C2091F20430E1231BA2
:1039100008F420E0682F822F0C946F1C81E00C9437
:10392000841C60E080E50E94101E61E08FE50C942D
:10393000101ECF930E94A92460E080E50E94F91C2C
:1039400060E08FE50E94F91CC0E021E041E061E009
:103950008C2F0E94921DCF5FC235B9F760E080E5E1
:103960000E94451E61E08FE5CF910C94451E609347
:1039700078064093790624E630E042E050E068E7BC
:1039800076E0880F0E94582521E0892B09F020E07D
:10399000822F0895EF92FF921F93CF93DF937B01C5
:1039A000182F110FD0E0C0E0C0937806D701AC0FFC
:1039B000BD1FE9E7F6E08D91819386E0E938F807CD
:1039C000D1F724E630E041E150E068E776E0812F6E
:1039D0000E945825892B59F46096C03CD10521F7E7
:1039E00081E0DF91CF911F91FF90EF90089580E0EB
:1039F000F8CF1F93CF93DF93C82FD62F45EC6EEFF0
:103A00000E94B71C40E06DEF8C2F0E94B71C10E0A5
:103A100040E0612F8C2F0E94B71C1F5F1831C1F747
:103A200045EC6EEF8C2F0E94B71C41E06DEF8C2FA0
:103A30000E94B71C10E040E0612F8C2F0E94B71C41
:103A40001F5F103CC1F745EC6EEF8C2F0E94B71C36
:103A500043E06DEF8C2F0E94B71C4FEF61E08C2F7D
:103A60000E94B71C80E4D89FA0011124416060E04F
:103A70008C2F0E94B71C8FE39CE90197F1F700C0DF
:103A80000000DF91CF911F910895CF93DF9382358E
:103A9000910558F5FC01EE0FFF1FEE0FFF1FEF0120
:103AA000C455DF4FCE010296FC01A4910196FC01A2
:103AB0003491FE0185918370C491E82FF0E050ECC1
:103AC000859FC001112488509B4FC80FD92FD11D4D
:103AD0006883A80FB92FB11D4C93830F911DDC0192
:103AE0002C93E950FC4F81E08083DF91CF910895C2
:103AF000FF920F931F93CF93DF93182F062FF42E6F
:103B0000D0E0C0E02F2D402F612FCE010E94451D37
:103B10002196C235D105B1F7DF91CF911F910F9159
:103B2000FF900895FF920F931F93CF93DF9354E07C
:103B3000859FF0011124EF01C455DF4FCE0101969E
:103B4000FC01B4910196FC0174910196FC01349141
:103B5000F72EF694F694F694A32FA695A695A6951F
:103B600077703770FE01849183700B2F0695069550
:103B70000695E82FF0E058E1859FC0011124895394
:103B80009C4F080F192F111DE8015881B77081E073
:103B900090E001C0880FBA95EAF76623C1F1852B42
:103BA000888358E15E9FC0015F9F900D1124895367
:103BB0009C4FEC01CF0DD11D588181E090E001C0F8
:103BC000880F7A95EAF7442329F1852B888348E109
:103BD0004E9FC0014F9F900D112489539C4FA80FF9
:103BE000B92FB11D4C9181E090E001C0880F3A954A
:103BF000EAF7222391F0842B8C93EB53FC4F81E066
:103C00008083DF91CF911F910F91FF900895809550
:103C10008523C6CF80958523D9CF80958423ECCF8B
:103C2000EF92FF920F931F93CF93DF93D82FC62F5E
:103C3000062F10E0C80189509C4F7C01FC01808157
:103C40008823D1F045EC6EEF8D2F0E94B71C41E028
:103C50006DEF8D2F0E94B71CF0ECCF9FB0011124A7
:103C600068507B4F8D2F0E94CA1C811105C0F8013E
:103C7000EB53FC4F81E08083F7011082DF91CF91FD
:103C80001F910F91FF90EF900895EF92FF920F9385
:103C90001F93CF93DF93E82EC62F062F10E00B5310
:103CA0001C4FF80180818823D1F045EC6EEF8E2DFA
:103CB0000E94B71C40E06DEF8E2D0E94B71CF8E10A
:103CC000CF9FE0011124C953DC4FF12C49916F2D96
:103CD0008E2D0E94B71CF39488E1F812F7CFF801FB
:103CE0001082DF91CF911F910F91FF90EF90089577
:103CF000FA01811101C0FB0109940F931F93CF9327
:103D00008C01FB01C281CC2309F48FC00E94D30E29
:103D100082720A3CFCE51F0709F472C060F5053C9D
:103D2000ECE51E0709F458C080F4033C9CE5190734
:103D300009F448C008F04BC0023C1C4509F43FC0E0
:103D40008C2FCF911F910F910895073C9CE5190787
:103D500009F44CC008F445C0083CFCE51F0709F411
:103D60004AC04CE65CE16BE57CE1093C1C4541F74F
:103D70000E94781E1EC00F3CECE51E0709F453C0DC
:103D800080F40C3C9CE5190709F444C0F0F10D3CAB
:103D9000FCE51F0709F443C00E3C1C4589F682E090
:103DA0003FC0063D9CE5190730F489E0013D1C4504
:103DB000B8F1C0E0C5CF0D351D45D9F3C1CF0E9484
:103DC000BD1BF7CF46EF5BE168EE7BE1D1CF48EE5C
:103DD0005BE166EF7BE1CCCF48E25CE169E17CE14D
:103DE000C7CF49E15CE168E27CE1C2CF4AE45CE133
:103DF00069E37CE1BDCF49E35CE16AE47CE1B8CFF3
:103E00004BE55CE16CE67CE1B3CF4EE85CE161E858
:103E10007CE1AECF41E85CE16EE87CE1A9CF81E0D6
:103E20000E94D91BC6CF84E0FBCFC1E089CF0C94A0
:103E3000FC0427982F9A6E98769A83B190E0880FA9
:103E4000892F881F990B669905C020E0822B8093EB
:103E5000FB03089522E0FACFE091FB03EE0FEE0F93
:103E6000E093FB0383B190E0880F892F881F990BA3
:103E70004CB146FB222720F946FF02C022E030E089
:103E8000822BE82BE093FB03EF70F0E0E350FD4F53
:103E900080819091FA03890F8093FA0320E08430A7
:103EA00054F08091F9038F5F8093F90361E080E023
:103EB0000E94171F21E08091FA038D3F54F48091F6
:103EC000F90381508093F90360E080E00E94171F9E
:103ED00021E08091FA03082E000C990B64E070E059
:103EE0000E94122F8093FA03822F089583E290E0BC
:103EF0000E94AC2F813289F484E290E00E94AC2FC2
:103F0000803159F485E290E00E94AC2F91E0833239
:103F100009F090E0892F8170089580E0FCCFCF9365
:103F2000C82F6FEF811161E283E290E00E94CA2FF7
:103F30006FEFC11160E184E290E00E94CA2F6FEF41
:103F4000C11163E285E290E0CF910C94CA2F0895ED
:103F500086E290E00E94AC2F682F70E090E080E055
:103F6000089586E290E00C94CA2F80E00E948F1F93
:103F700060E070E0CB010E94B11F0E94FD200E9412
:103F8000E92181E00C948F1F0E94A71F0E94761FD9
:103F9000811102C00C94B51F0895CF93FB01C2811B
:103FA000CC2309F19C0122513F452031310520F5F8
:103FB00082510E94F921C0E08C2FCF91089581E0B9
:103FC0000E94760A43E062E081E00E947105F3CF2F
:103FD00081E00E94810A43E062E081E00E94710575
:103FE000EBCF82E0F6CF8031FFE59F0789F3813187
:103FF0009F45B9F3C1E0E0CF8031EFE59E07F9F2CC
:1040000081319F45C9F682E0DBCF2FEFFC01208391
:104010000895EF92FF920F931F93CF93DF93EC01DC
:10402000062FE881E150E33108F05EC0F0E0E1588E
:10403000FF4C0C94262F198289E08A83602FCE01D1
:10404000DF91CF911F910F91FF90EF900C94252855
:104050008981823069F0833071F08130D9F40E9417
:104060002B270E942C2F6A837B838C839D83E6CF32
:104070000E94A81FF6CF7E0110E0812F0E949613A8
:10408000F701928383831F5FF2E0EF0EF11C16307D
:10409000A1F7D4CF602FCE010E940520CFCF898118
:1040A0008230C1F76A817B818C819D810E942C2F97
:1040B0000E94B11FC3CF4B816A8189810E94CF20AA
:1040C0009827892798279D838C83B8CF2C813D81A1
:1040D0003227232732274B816A8189810E94E82079
:1040E000ADCF0E94FD20AACF8FEF8883A7CF0E947B
:1040F00092218983A3CF0E9494219827892798270A
:104100009A8389839BCF6B8170E089819A81AE010C
:104110004C5F5F4F9827892798270E9497218ECF61
:104120006B8170E089819A81AE014C5F5F4F982767
:10413000892798270E94BE2181CF0E94E9217ECF46
:104140000E94BD20D6CF6B8170E089819A81AE013B
:104150004C5F5F4F9827892798270E9435216ECFA3
:104160006B8170E089819A81AE014C5F5F4F982727
:10417000892798270E945B2161CF84E0089550E051
:10418000440F551F9EE1699F400D511D112494EB72
:10419000899F400D511D1124CA01879608950F93E0
:1041A0001F93CF93DF930E94BF208C010E94AC2FFE
:1041B000C82FD0E0DC2FCC27C80101960E94AC2F7D
:1041C0009E01282BC901DF91CF911F910F91089576
:1041D0000F931F93CF93DF93122F032F0E94BF20C3
:1041E000EC01602F0E94CA2F612FCE010196DF9152
:1041F000CF911F910F910C94CA2FAF92BF92CF9283
:10420000DF92EF92FF921F93CF93DF9384EFC82E3C
:1042100081E0D82ED0E07601C0E014C0F5012591F0
:104220003491412F6C2F8D2F0E94E82082E0A80E40
:10423000B11C1F5F1F3091F78EE1E80EF11CCF5FBC
:10424000C63019F0570110E0E9CFDF5F84EBC80EEC
:10425000D11CD43001F7DF91CF911F91FF90EF90E7
:10426000DF90CF90BF90AF900895EF92FF920F93A1
:104270001F93CF93DF93EC018A017C01E60EF71EBA
:10428000CE018796CE15DF0539F4DF91CF911F91CE
:104290000F91FF90EF900895C03D22E0D20740F4C7
:1042A0000E94AC2FF80180830F5F1F4F2196E8CF4B
:1042B000F8011082F9CFCF92DF92EF92FF920F9325
:1042C0001F93CF93DF937C016A018C01060F171FA8
:1042D000EC01CE018796C017D10749F4DF91CF9149
:1042E0001F910F91FF90EF90DF90CF900895C03D08
:1042F00022E0D20740F4FE01EE19FF09EC0DFD1D8E
:1043000060810E94CA2F2196E4CF462F843038F472
:10431000763028F46F3018F4672F0C94CF2090E09B
:1043200080E0089580E1089589E091E00895EF929A
:10433000FF920F931F93CF93DF93EC018A017C01CF
:10434000E60EF71ECE0189509D4FCE15DF0539F4DC
:10435000DF91CF911F910F91FF90EF900895C93099
:1043600021E0D20740F40E94AC2FF80180830F5F58
:104370001F4F2196E7CFF8011082F9CFCF92DF923D
:10438000EF92FF920F931F93CF93DF937C016A010B
:104390008C01060F171FEC01CE0189509D4FC017ED
:1043A000D10749F4DF91CF911F910F91FF90EF90CA
:1043B000DF90CF900895C93021E0D20740F4FE018C
:1043C000EE19FF09EC0DFD1D60810E94CA2F219698
:1043D000E3CFCF93DF93C7EFD2E060E0CE010E943E
:1043E000CA2F2196C11584E0D807B9F7DF91CF9184
:1043F0000895DF92EF92FF920F931F93CF93DF9375
:1044000000D000D0CDB7DEB7F82E8FE08F1540F08A
:104410008FEF93E00E94AC2F07EF12E08823C1F0EA
:104420000F900F900F900F90DF91CF911F910F91F0
:10443000FF90EF90DF900895011584E0180781F355
:10444000C8010E94AC2F811101C0FA940F5F1F4F69
:10445000F110F2CF19821A821B821C82DD24D394C0
:1044600078018FEFE81AF80AC8010E94AC2F8983FF
:104470001A828823A9F29FEF980F933078F48A83E9
:10448000D9820E5F1F4FC7010E94AC2F8B838823F8
:1044900039F2CE0101960E94C406E2CF8701F9CF1E
:1044A00081E0089581E008950C9452221092FF0358
:1044B0001092FE030895CF92DF92EF92FF92CF9376
:1044C000C82F8091FE039091FF03843F21E0920763
:1044D00068F401969093FF038093FE030A9721F1FD
:1044E000CF91FF90EF90DF90CF90089540E061E092
:1044F00080E00E94AF138093FD03C82ED12CF12CD5
:10450000E12C9091FC03891302C0CC2349F3682F5E
:1045100080E00E94C704C701B6010E945422809126
:10452000FD038093FC03DCCF41E0C1E0E0CF0F93BB
:104530001F93CF93DF93C42FD22FFC018281882356
:10454000C9F0409302040E941F27909301048093B6
:10455000000480E28C0F883008F050C0C77081E002
:1045600001C0880FCA95EAF7DF91CF911F910F9193
:104570000C94B80710910204141335C08091000404
:10458000909101040E943727883C910560F5C0E2B4
:10459000CD0F1D17B9F080E2810F883040F41770FD
:1045A00081E001C0880F1A95EAF70E94BF07C83062
:1045B00048F481E09D2F977001C0880F9A95EAF723
:1045C0000E94B807802F0E94B007C830B8F4D77097
:1045D00081E001C0880FDA95EAF7DF91CF911F9152
:1045E0000F910C94BF0780E28C0F883038F4C770AD
:1045F00081E001C0880FCA95EAF7EFCFDF91CF9134
:104600001F910F9108950F939C01CB01233F4CE51F
:10461000340759F1A8F4283DFCE53F0701F1293D95
:104620004CE53407D1F1273D3C4591F406E221EEFB
:1046300041EE67ED7CE50E94972280E00F9108959E
:10464000253FFCE53F07E9F0B0F0263F3C45F9F097
:10465000FC018281882339F110920204EFCF07E236
:1046600025EE45EE68ED7CE5E6CF06E221EE40EE74
:1046700063EF7CE5E0CF07E225EE44EE64EF7CE5F6
:10468000DACF06E221EE42EE65EF7CE5D4CF07E219
:1046900025EE46EE66EF7CE5CECF08E221E045EE62
:1046A00069ED7CE5C8CF81E0C9CFCF93DF93EC0102
:1046B000FB018281882309F420C1C330FDE5DF07B7
:1046C000C8F5CA3F9CE5D90730F49E0122503C450D
:1046D0002431310598F50E94A90F9093D504809359
:1046E000D404C031FCE5DF0709F4E0C008F061C084
:1046F000C8309CE5D90709F4CBC088F5C430FCE587
:10470000DF0709F4B3C0E8F4C2309CE5D90709F427
:10471000A7C08091D4048260C330DC4509F4A3C0F3
:104720008091D4049091D5040E94B70F0E94FD0996
:1047300080E004C0C136EDE5DE0769F2DF91CF917C
:1047400008958091D4048061C630FCE5DF0709F448
:104750008AC008F48FC08091D404806284C08091A4
:10476000D4048D7FCC309CE5D90709F47CC070F46B
:104770008091D4048C60CA30FCE5DF0709F473C073
:1047800008F48AC08091D4048E7F6DC08091D404D7
:10479000877FCE309CE5D90709F465C08091D404A9
:1047A0008B7FCF30DC4508F45EC08091D4048F7ECF
:1047B0005AC0CC3FFCE5DF0709F474C040F5C431B2
:1047C0009CE5D90709F48AC058F4C231FCE5DF073B
:1047D00009F474C008F46EC08091D404837F43C090
:1047E000CA3F9CE5D90709F449C008F04DC0C5315E
:1047F000DC4509F095CF8091D40482FB992790F98C
:1048000021E0922790FB82F990FB83F92CC0C1151F
:104810008DE5D80709F458C088F48091D5048360E9
:10482000CE3FECE5DE0769F18091D5048D7FCF3F67
:10483000DC4538F18091D5048C7F23C0C2308DE5F2
:10484000D80709F458C008F452C0C136DD4509F054
:1048500067CF9091D404892F8F7E94FF806103C02D
:104860008091D40481608093D4045ACF8091D40481
:104870008460F9CF8091D4048860F5CF8091D5040D
:1048800081608093D5044CCF8091D5048260F9CFAC
:104890008091D4048064E7CF0E94FD098091D40404
:1048A0008068E1CF8091D5048E7FEBCF8091D404D6
:1048B0008F7DD9CF8091D4048F7BD5CF0E94FD0905
:1048C0008091D4048F77CFCF8091D504982F909585
:1048D00091708E7F892B90FB81F9D3CF0E94FD09C7
:1048E0009091D404892F97FB87F98058BCCF81E041
:1048F0000E943C1015CF80E0FBCF81E01FCFCF930B
:10490000DF93EB0186319C4511F50E94D30E9A810D
:10491000992399F08A7A91E009F490E09093030446
:10492000811109C089E20E948D0E0E94230F80E050
:10493000DF91CF91089585E3F6CF80910304811133
:1049400004C089E20E94940EF0CF85E3FBCF81E0A2
:10495000EFCF1092B9008CE08093B80008959F9239
:10496000AF92BF92CF92DF92EF92FF920F931F937D
:10497000CF93DF93B82EEB010E941F276C01EE242A
:10498000E394F12CC431D10560F025E0E22EF12C46
:10499000CF3FDC0731F0CE0164E170E00E94FE2ED3
:1049A0007B0184EAA82E94E8992E1092BC00A09274
:1049B000BC000E941F278C018091BC0087FF0DC0A6
:1049C0008091B900887F883039F18091B900887F63
:1049D000803111F10FEF1FEF09C00E941F27801BCC
:1049E000910B8E159F0540F30EEF1FEFCF3FDC07B5
:1049F000E1F2C6010E9437278C179D07B0F2C8016B
:104A0000DF91CF911F910F91FF90EF90DF90CF90AA
:104A1000BF90AF909F900895B092BB009092BC0061
:104A20000E941F278C018091BC0087FF0AC08091E3
:104A3000B900887F883111F0803461F610E000E021
:104A4000DECF0E941F27801B910B8E159F0558F308
:104A5000CBCF0F931F93CF93DF93EB018093BB00DA
:104A600084E88093BC000E941F278C018091BC00C9
:104A700087FF11C02091B900287F81E090E02832A3
:104A800011F490E080E0919581959109DF91CF91AB
:104A90001F910F910895CF3FDC0741F30E941F271C
:104AA000801B910B8C179D0708F38EEF9FEFEECFC5
:104AB000CF92DF92EF92FF920F931F93CF93DF93EA
:104AC0006B018A017901B9010E94AF24E6010C0D46
:104AD0001D1DC017D10761F424E92093BC00DF91AC
:104AE000CF911F910F91FF90EF90DF90CF9008959D
:104AF00097FDF2CFB70189910E942925EACF9093C3
:104B00000904809308040895E0910804F0910904D1
:104B1000309721F00190F081E02D099480E0089514
:104B20000E9484250895E0910804F09109043097CB
:104B300099F020916602222359F02091D40427FF96
:104B400007C0DC012C9111962C93119725E02C9332
:104B50000280F381E02D099408952091060430919C
:104B600007042817390771F090930704809306040F
:104B7000E0910804F0910904309721F00680F78154
:104B8000E02D09940895209104043091050428171C
:104B9000390771F09093050480930404E0910804B0
:104BA000F0910904309721F00084F185E02D0994FB
:104BB0000895FC01329680916602882321F080914D
:104BC000D4049EE187FF96E080E0915008F40895B8
:104BD00021912223D1F38F5FF8CF662301F1209139
:104BE00066022223F1F02091D40427FF1AC0462F39
:104BF0004695469546954E3190F4677021E030E039
:104C000002C0220F331F6A95E2F7840F911DFC0149
:104C1000828190E02823392381E0232B69F480E00E
:104C20000895FC01329608962191261721F0E81785
:104C3000F907D1F7F4CF81E008959C01FC01329689
:104C40009FEF80E04191461751F09F3F19F44111C9
:104C500001C0982F8F5F8630A9F79F3F09F4089510
:104C6000290F311D97FD3A95F90162830895FC01E2
:104C7000329608962191261303C0DF0111971C92EA
:104C8000E817F907B9F70895E62FE695E695E69552
:104C9000EE3168F4E80FF92FF11D677021E030E084
:104CA00001C0220F6A95EAF78281822B82830895E0
:104CB000E62FE695E695E695EE3170F4E80FF92FCC
:104CC000F11D677021E030E001C0220F6A95EAF71C
:104CD0002095828128232283089520916602222331
:104CE00029F02091D40427FD0C9444260C941D2611
:104CF00020916602222329F02091D40427FD0C94F0
:104D000058260C943726FC0132968091660288233F
:104D100051F08091D40487FF06C08EE1DF011D921F
:104D20008A95E9F7089586E0F9CF089508950895E2
:104D30000C94972680919406843061F10E94982605
:104D400080E00E94E00681E00E94951B10920A0418
:104D500088E190E020E40FB6F894A8958093600075
:104D60000FBE2093600083B7817F846083BF83B7C9
:104D7000816083BF7894889583B78E7F83BF0FB699
:104D8000F894A895809160008861809360001092EB
:104D900060000FBE08950895CF930E9496260E944A
:104DA000A1140E94CB26C0E08C2F0E949613892B61
:104DB00031F4CF5FC630C1F780E0CF91089581E034
:104DC000FCCF08950C94E1260E94FD090E948425E1
:104DD0000E94E00680E00E94951B0C94E2261F9240
:104DE0001FB61F9211248F939F93AF93BF9380910F
:104DF0000A04811113C080918C0690918D06A091B8
:104E00008E06B0918F064196A11DB11D80938C0630
:104E100090938D06A0938E06B0938F06BF91AF91AD
:104E20009F918F911F901FBE1F90189582E084BDA7
:104E300093E095BD9AEF97BD80936E0008952FB7CC
:104E4000F89480918C0690918D06A0918E06B09179
:104E50008F062FBF08952FB7F89460918C0670913C
:104E60008D0680918E0690918F062FBF08959C012C
:104E70004FB7F89480918C0690918D06A0918E0684
:104E8000B0918F064FBF821B930B0895CF92DF9294
:104E9000EF92FF922FB7F894C0908C06D0908D06B9
:104EA000E0908E06F0908F062FBFA7019601261B7B
:104EB000370B480B590BCA01B901FF90EF90DF90F7
:104EC000CF90089578941F921FB61F9211248F934C
:104ED0009F93AF93BF9380918C0690918D06A09184
:104EE0008E06B0918F060196A11DB11D80938C0690
:104EF00090938D06A0938E06B0938F06BF91AF91CD
:104F00009F918F911F901FBE1F90189581E08093F5
:104F1000E00080E28093D8001092C9008FE19EE407
:104F20000197F1F700C0000087E090EBDC0180936F
:104F30009D0690939E06A0939F06B093A00688E1DD
:104F40009CE00FB6F894A895809360000FBE9093F4
:104F50006000FFCF90931D0380931C030895809100
:104F60002E04089590919406943029F580930B04B3
:104F700070930D0460930C049093E9008FEF90916F
:104F8000E800815095FD06C095ED9A95F1F7000077
:104F90008111F5CF8091E80085FF0DC050E040E021
:104FA00063E070E08BE094E00E941E2A8091E800AC
:104FB0008E778093E8000895BC0184E00C94B227BA
:104FC000BC0183E00C94B227CF93DF93EC01809176
:104FD00066028823B1F18091D40487FF32C060E279
:104FE00084E08093E9008FEF9091E800815095FD77
:104FF00006C095ED9A95F1F700008111F5CF8091EB
:10500000E80085FF1BC08091660270E050E040E040
:10501000811104C050E040E068E070E0CE010E94E1
:105020001E2A8091E8008E778093E80080E2FE01DE
:10503000AEE0B4E001900D928A95E1F7DF91CF9157
:10504000089568E081E0CDCF0895CF93FC016032F0
:1050500021F580919406843001F5C091E900CF706C
:105060002091EC00922F917020FD90E8C92B82E0F6
:105070008093E9008091E80080FF0CC050E040E0A0
:1050800060E270E0CF010E941E2A8091E8008E77D6
:105090008093E800CF70C093E900CF91089580918C
:1050A0009306811109C00E94FD2B0E945A2C809109
:1050B000E20084608093E2000895109293060895C0
:1050C00008950895089542E061EC81E00E94792BF3
:1050D00042E261EC84E00E94792B42E261EC82E0E2
:1050E0000E94792B42E260EC83E00C94792B809152
:1050F0009606833009F461C030F48130D1F18230FA
:1051000009F49DC008958A3009F489C08B3009F4F0
:105110006FC0893009F050C080919506813209F046
:105120004BC08091990690919A06009719F00297CA
:1051300009F042C08091E800877F8093E800809169
:10514000E80082FF35C09091F3008091F200029751
:1051500029F48091F1008B7F813021F48091F1005E
:1051600080932E048091E8008B778093E8000C9464
:10517000AD2B80919506813AF9F48091E800877F04
:105180008093E8008091990690919A06892B61F4AA
:1051900060E28EE094E070E00E94BC2A8091E8001A
:1051A0008B778093E800089560E090E080E0F3CF93
:1051B000809194068111C3CF089580919506813A1C
:1051C000D9F78091990690919A06892BA9F7809139
:1051D000E800877F8093E8008091E80080FFFCCFA3
:1051E000809166028093F1008091E8008E77BDCFB8
:1051F00080919506813201F78091990690919A06E7
:10520000892BD1F68091E800877F8093E8000E9487
:10521000AD2B80919706809366020C94FD098091D6
:105220009506813249F68091E800877F8093E800F7
:105230000E94AD2B8091980680932F040895809151
:105240009506813A09F0B8CF8091E800877F809376
:10525000E8008091E80080FFFCCF80912F04C2CF4E
:1052600084B7877F84BF0FB6F894A89580916000BB
:10527000886180936000109260000FBE80E890E02B
:105280000FB6F89480936100909361000FBE0C9468
:1052900075100E94FD2B0E945A2CE2EEF0E08081F6
:1052A0008460808378940E94E32E0E9489108CE5AC
:1052B00092E00C947F25CF93DF93CDB7DEB7A09714
:1052C0000FB6F894DEBF0FBECDBF80919406853037
:1052D00031F480919406853091F10E94E4260E9479
:1052E000A01080919406843009F583E08093E90052
:1052F0008091E80082FF1AC08091E80090E085FF6D
:1053000009C050E040E060E270E0CE0101960E94EA
:105310006D2A91E08091E8008B778093E8009923D3
:1053200029F060E2CE0101960E940920A0960FB6F6
:10533000F894DEBF0FBECDBFDF91CF9108950E94DC
:105340009A2680919206882321F20E94CC268823F7
:1053500009F4BFCF0E94082A0E94FD09BACF0C941D
:10536000B129292F33272330310521F168F4213069
:10537000310509F443C02230310509F444C090E0FE
:1053800080E030E020E026C02132310551F12232A8
:105390003105A9F76330710590F7FB01EE0FFF1F90
:1053A000E05FFC4F20813181635F7C4FFB01808196
:1053B00090E010C099278130910581F0009729F085
:1053C0000297E9F6E4E7F6E002C0E2EAF6E084914B
:1053D00090E09F01FA01318320830895EEE8F6E022
:1053E000F6CF6330710558F6660F771FFB01EA5E52
:1053F000FC4F2081318189E090E0ECCF82E190E0A8
:1054000021E037E0E7CF8BE590E026EA36E0E2CF17
:1054100080E189BD82E189BD09B400FEFDCF8091A4
:10542000D8008F7D8093D8008091E00082608093C7
:10543000E0008091E00081FDFCCF0895AF92BF9223
:10544000CF92DF92FF920F931F93CF93DF936C0164
:10545000EB018A010E94CC2BF82E811123C001158B
:10546000110539F0F80180819181C81BD90BC80E54
:10547000D91EB12CA12C2097A9F08091E80085FDC0
:1054800022C08091E8008E778093E8000115110515
:10549000A1F0F80180819181A80EB91EB182A0828D
:1054A00085E0F82E8F2DDF91CF911F910F91FF9006
:1054B000DF90CF90BF90AF9008950E94CC2B8823AF
:1054C000D1F2F82EEFCFF60181916F018093F100B8
:1054D0002197FFEFAF1ABF0ACECFAF92BF92CF9204
:1054E000DF92FF920F931F93CF93DF936C01EB0139
:1054F0008A010E94CC2BF82E811123C001151105C1
:1055000039F0F80180819181C81BD90BC80ED91ED2
:10551000B12CA12C2097A9F08091E80085FD22C034
:105520008091E8008B778093E80001151105A1F0C8
:10553000F80180819181A80EB91EB182A08285E018
:10554000F82E8F2DDF91CF911F910F91FF90DF905B
:10555000CF90BF90AF9008950E94CC2B8823D1F2BA
:10556000F82EEFCF8091F100F60181936F01219722
:10557000FFEFAF1ABF0ACECFFC0180919B0690913E
:105580009C0686179707A0F06115710529F4909184
:10559000E8009E779093E80090E06115710551F462
:1055A000911108C08091E80082FF34C080E0089526
:1055B000BC01F2CF809194068823C1F18530C1F1FE
:1055C0008091E80083FD30C08091E80082FDEACF41
:1055D0008091E80080FFE1CF8091F3002091F200FC
:1055E000382F6115710519F02830310558F091E018
:1055F0002830310509F090E02091E8002E772093C3
:10560000E800CBCF81918093F100615071092F5F49
:105610003F4FE7CF80919406882341F0853041F0D9
:105620008091E80083FFBECF81E0089582E0089575
:1056300083E00895FC0180919B0690919C0686175B
:105640009707A0F06115710529F48091E8008E7725
:105650008093E80090E06115710551F4911108C044
:105660008091E80082FF35C080E00895BC01F2CF50
:10567000809194068823C9F18530C9F18091E800B2
:1056800083FD31C08091E80082FDEACF8091E8007F
:1056900080FFE1CF8091F3002091F200382F611557
:1056A000710519F02830310558F091E028303105A6
:1056B00009F090E08091E8008E778093E800CBCFEE
:1056C00084918093F1003196615071092F5F3F4FB3
:1056D000E6CF80919406882341F0853041F0809197
:1056E000E80083FFBDCF81E0089582E0089583E064
:1056F0000895982F973028F08F708093E90081E00B
:1057000008959093E900242F762F50E0981731F0F8
:105710007091EC002091ED005091F00021FD02C04D
:105720009F5FE8CF3091EB003E7F3093EB003091EC
:10573000ED003D7F3093ED003091EB003160309310
:10574000EB007093EC002093ED005093F00020915B
:10575000EE0027FDE5CF80E008958091950687FF54
:1057600013C08091E80082FF06C08091E8008B772B
:105770008093E80004C0809194068111F2CF0895CF
:10578000809194068823D9F38091E80080FFF8CFB8
:105790008091E8008E77ECCF2091E4003091E50015
:1057A00095E6A9012091EC00822F817020FF06C0B0
:1057B0008091E80080FF06C080E008952091E80015
:1057C00022FD1AC080919406882389F0853089F0E3
:1057D0008091EB0085FD0FC02091E4003091E50041
:1057E00042175307F9F29150E1F684E0089582E000
:1057F000089583E0089581E008950E946B2C0E9433
:10580000732CE0EEF0E0808181608083E8EDF0E0D1
:1058100080818F77808319BCA7EDB0E08C918E7F5B
:105820008C9380818F7E80831092930608950F93CE
:105830001F93CF93DF930E946B2C0E94732CC8EDB3
:10584000D0E088818F778883888180688883888189
:105850008F7D888319BC1092940610929006109246
:1058600092061092910600EE10E0F80180818B7F85
:10587000808388818160888342E060E080E00E94CC
:10588000792BE1EEF0E080818E7F8083E2EEF0E024
:10589000808181608083808188608083F80180813D
:1058A0008E7F8083888180618883DF91CF911F9173
:1058B0000F910895E8EDF0E080818F7E8083E7ED21
:1058C000F0E080818160808384E082BF81E080930A
:1058D00093060C94172CE8EDF0E080818E7F808396
:1058E0001092E20008951092DA001092E1000895FB
:1058F0001F920F920FB60F9211242F933F934F9345
:105900005F936F937F938F939F93AF93BF93EF9327
:10591000FF938091E10082FF0BC08091E20082FF43
:1059200007C08091E1008B7F8093E1000E94E22E0E
:105930008091DA0080FF19C08091D80080FF15C0E7
:105940008091DA008E7F8093DA008091D90080FF09
:1059500096C080E189BD82E189BD09B400FEFDCF1A
:1059600081E0809394060E944F288091E10080FF9F
:1059700019C08091E20080FF15C08091E2008E7F07
:105980008093E2008091E20080618093E200809148
:10599000D80080628093D80019BC85E0809394067B
:1059A0000E9461288091E10084FF2BC08091E20079
:1059B00084FF27C080E189BD82E189BD89B5982F28
:1059C000917080FFFBCF8091D8008F7D8093D800AD
:1059D0008091E1008F7E8093E1008091E2008F7ED4
:1059E0008093E2008091E20081608093E2008091E8
:1059F0009006882309F449C084E0809394060E94AD
:105A000062288091E10083FF29C08091E20083FF3A
:105A100025C08091E100877F8093E10082E0809340
:105A20009406109290068091E1008E7F8093E100B1
:105A30008091E2008E7F8093E2008091E20080619D
:105A40008093E20042E060E080E00E94792B809148
:105A5000F00088608093F0000E946028FF91EF9131
:105A6000BF91AF919F918F917F916F915F914F9176
:105A70003F912F910F900FBE0F901F90189519BC5A
:105A8000109294060E945D2870CF8091E30087FDFC
:105A900093E090939406B3CF1F920F920FB60F929C
:105AA00011242F933F934F935F936F937F938F9323
:105AB0009F93AF93BF93CF93DF93EF93FF93D091D7
:105AC000E900DF708091EC00C82FC17080FDC0E854
:105AD0001092E9008091F000877F8093F000789425
