:100000000C94F1030C9438040C9438040C943804C8
:100010000C9438040C9438040C9438040C94380470
:100020000C9438040C9438040C94682C0C943C2DDB
:100030000C94DF260C9438040C9438040C94380487
:100040000C9438040C9438040C9438040C94380440
:100050000C9438040C9452270C9438040C943804F3
:100060000C9438040C9438040C9438040C94380420
:100070000C9438040C9438040C9438040C94380410
:100080000C9438040C9438040C9438040C94380400
:100090000C9438040C9438040C9438040C943804F0
:1000A0000C9438040C9438040C943804002000108C
:1000B0000022021200230313002404140025051556
:1000C0000026061600270717002808180029091916
:1000D000002A0A1A002B0B1B002C0C1C002D0D1DD6
:1000E000002E0E1E002F0F1F0050304000513141D6
:1000F00000523242005333430054344400553545D6
:100100000056364600573747005838480059394995
:10011000005A3A4A005B3B4B005C3C4C005D3D4D55
:10012000005F3F4F008060700081617100826272E9
:100130000083637300846474008565750086667649
:10014000008767770088687800896979008A6A7A09
:10015000008B6B7B008C6C7C008D6D7D008F6F7FC6
:1001600000B090A000B191A100B292A200B393A3FD
:1001700000B494A400B595A500B696A600B797A7BD
:1001800000B898A800B999A900BA9AAA00BB9BAB7D
:1001900000BD9DAD00BF9FAF0120001001220212E3
:1001A0000123031301240414012505150126061655
:1001B000012707170128081801290919012A0A1A15
:1001C000012B0B1B012D0D1D012E0E1E0150304069
:1001D000015131410152324201563646015A3A4AE2
:1001E000015B3B4B015C3C4C015D3D4D015E3E4E75
:1001F000015F3F4F29000000BE00BD00805F815FAE
:10020000CA5CC95CAC00AE00AB00A800AA00A900A3
:10021000490035001E001F0020002100220023009D
:1002200024002500260027002D002E002A004B0068
:100230002B0014001A000800150017001C001800FD
:100240000C00120013002F00300031004E00390066
:1002500004001600070009000A000B000D000E0044
:100260000F0033003400520028004A00E100000073
:100270001D001B00060019000500110010003600CB
:10028000370038005100E5004C00E000E200E300D8
:100290000000000000002C00000000000000E7004B
:1002A0000151E40050004F00010000003A003B0003
:1002B0003C003D003E003F00400041004200430042
:1002C000440045000100010001000100010001009F
:1002D0000100010001000100010001000100010016
:1002E00001000100C25CC35CC95CC55CC75CCB5C3F
:1002F00001000100010001000100010001000100F6
:1003000001000100C45CCA5CC65CC85CCC5C010036
:1003100001000100010001000100010001000100D5
:1003200001000000010001000100010001000100C6
:1003300001000100010001000100010001000100B5
:1003400001000100000000000000010000000000AA
:10035000000001000100010001000100290000006F
:100360003A003B003C003D003E003F0040004100A1
:100370004200430044004500490035001E001F00B4
:100380002000210022002300240025002600270051
:100390002D002E002A004B002B0014001A0008002C
:1003A000150017001C0018000C00120013002F008D
:1003B000300031004E00390004001600070009002B
:1003C0000A000B000D000E000F0033003400520035
:1003D00028004A00E10000001D001B000600190073
:1003E0000500110010003600370038005100E5000C
:1003F0004C00E000E300E2000000000000002C00E0
:10040000000000000000E6000351E40050004F002F
:1004100001000000BE00BD002B080808CA5CC95CD2
:10042000AC00AE00AB00A800AA00A90001000100CA
:1004300001000100010001000100010001000100B4
:10044000010001000100010001000100C25CC35C69
:10045000C95CC55CC75CCB5C010001000100010008
:10046000010001000100010001000100C45CCA5C40
:10047000C65CC85CCC5C0100010001000100010009
:100480000100010001000100010000000100010065
:100490000100010001000100010001000100010054
:1004A0000100010001000100010001000000000046
:1004B0000000010000000000000001000100010038
:1004C0000100010000000000000000002A2B2800AD
:1004D00000000000000000000000000000000029F3
:1004E000000000002C1E3420212224342627252E33
:1004F000362D3738271E1F2021222324252633336B
:10050000362E37381F0405060708090A0B0C0D0E96
:100510000F101112131415161718191A1B1C1D2F62
:100520003130232D350405060708090A0B0C0D0E82
:100530000F101112131415161718191A1B1C1D2F42
:100540003130354C000000000000000000000000C9
:10055000000000000000000000000000000000009B
:1005600000000000000000007E0F00D4FFFFFFC766
:1005700000000078000101010101010101010202F6
:100580000202020202020203030303030303030441
:10059000040404040404050505050506060606060C
:1005A000070707070708080808090909090A0A0AC6
:1005B0000B0B0B0C0C0C0D0D0D0E0E0E0F0F0F1068
:1005C00010111111121213131414151516161717F2
:1005D000181819191A1A1B1B1C1D1D1E1E1F20205E
:1005E000212222232424252626272829292A2B2CA8
:1005F0002D2D2E2F30313232333435363738393ACB
:100600003B3C3D3E3F404142434445464748494AC2
:100610004C4D4E4F50515354555658595A5B5D5E90
:100620005F616264656668696B6C6D6F707273752B
:1006300077787A7B7D7E8082838587888A8C8E8F8F
:1006400091939596989A9C9EA0A2A3A5A7A9ABADBD
:10065000AFB1B3B5B7BABCBEC0C2C4C6C9CBCDCFAB
:10066000D1D4D6D8DBDDDFE2E4E7E9EBEEF0F3F559
:10067000F8FAFDFF18034B0065007900630068007D
:1006800072006F006E002000510031000000120364
:100690004B00650079006300680072006F006E0017
:1006A00000000403090409025B00030100A0FA0929
:1006B0000400000103010100092111010001224091
:1006C000000705810308000109040100020300007E
:1006D00000092111010001222200070582032000E8
:1006E00001070503032000010904020001030000C3
:1006F00000092111010001226D000705840320007B
:100700000112010002000000083434000100010160
:100710000200010660FF0961A1010962150026FFC0
:10072000009520750881020963150026FF009520B9
:1007300075089102C005010980A101850319012AEC
:10074000B700150126B700950175108100C0050C92
:100750000901A101850419012AA002150126A002A0
:10076000950175108100C005010906A101850505E7
:100770000719E029E7150025019508750181020593
:1007800007190029EF1500250195F0750181020573
:1007900008190129059505750191029501750391C7
:1007A00001C005010906A101050719E029E71500A7
:1007B00025019508750181029501750881010507DC
:1007C000190029FF150026FF009506750881000510
:1007D0000819012905950575019102950175039187
:1007E00001C011241FBECFEFDAE0DEBFCDBF04B6DB
:1007F00003FE27C080919D0690919E06A0919F06C2
:10080000B091A0068730904BA740B04BD1F4109226
:100810009D0610929E0610929F061092A00614BE8E
:1008200084B7877F84BF0FB6F894A8958091600045
:10083000886180936000109260000FBEE0E0F8E3F2
:10084000099513E0A0E0B1E0E8E1F1E602C005900F
:100850000D92AC31B107D9F726E0ACE1B3E001C0AD
:100860001D92AD39B207E1F70E9416150C94413084
:100870000C9400009C0104974A9738F081E02933DA
:10088000310509F080E08170089581E0FCCF24E01B
:1008900031E090E0D90180E0ED91EF3F39F0F0E0F8
:1008A000EE0FFF1FE05DFB4F808391838F5F8F30E2
:1008B00099F79F5F215F3F4F963061F70895AF92A0
:1008C000BF92CF92EF92FF920F931F93CF93DF933C
:1008D000162FF42E5901C82FD0E0C11750F0DF9128
:1008E000CF911F910F91FF90EF90CF90BF90AF905D
:1008F0000895FE01EE0FFF1FE05DFB4F60817181E7
:100900008F2D0E947521F5010995882331F02C2D3A
:100910004E2D602FCE010E9457172196DECFCF9229
:10092000EF920F931F93CF93DF93D82F162F8091C1
:1009300043030E94B706C82F882311F0823081F448
:100940000E94802581FF0CC0CC24CA94EE24EA9436
:100950000FEF2AE334E04C2F612F8D2F0E945F04AC
:10096000DF91CF911F910F91EF90CF9008951F933A
:10097000CF93DF93182FD62F0E944022C82F8823B1
:1009800039F0111105C081E0D11184E00E94400AC4
:100990008C2FDF91CF911F9108950C9447048038DC
:1009A0002FE5920729F081389F4579F081E008957D
:1009B000FB018281882331F08FE992E00E94B32508
:1009C00080E0089590E080E0F9CFFB0182818823E8
:1009D000C9F380EA92E0F2CF89EA611101C08AEAA4
:1009E0000E94A00780E0089581E008950C94CF0450
:1009F00008950C94F8041F93CF93DF9300D000D098
:100A00000F92CDB7DEB749835A836B8330911E03B3
:100A100089819A8131111DC06623B9F02223A9F082
:100A20000E94EC0A182F682F89819A810E94980AE7
:100A300069817A81812F0F900F900F900F900F9006
:100A4000DF91CF911F910C9475210E94C40A182F39
:100A5000EFCF0E94EC0A69817A81EDCFFC01262F4D
:100A6000408151816281738184810C94FB0481E017
:100A70000895CF93DF93EC0160E00E942E05BE0144
:100A8000DF91CF910C94F904E1E0F0E0DF0102C0C6
:100A9000AA0FBB1F6A95E2F7BD01DF0102C0AA0FD2
:100AA000BB1F4A95E2F76A2B01C0EE0F2A95EAF7C1
:100AB000962F9823961302C08E2B0895E0958E23CF
:100AC0000895242F462F682F809143030E944405E8
:100AD0000C94550A0E9467130E94CF060E946F1B58
:100AE0000C94811380E00E944B220C94841308958F
:100AF0000E94ED090E9477052FEF84E39CE02150CE
:100B000080409040E1F700C000000C9476270F93DE
:100B10001F93CF93DF938C0161E00E942E05EC01BF
:100B2000B8010E94BD1F882309F441C0B801CE015D
:100B30000E94F6048823D9F1B801CE010E94F32265
:100B40008823A9F1B801CE010E944523882379F1B9
:100B5000B801CE010E946F24882349F1B801CE016B
:100B60000E946D1E882319F1F8018281882361F0AB
:100B7000CA35FDE5DF0721F170F4C115ECE5DE07AC
:100B8000A1F0CE3DDC45C9F0C801DF91CF911F91A6
:100B90000F910C94F404CB358DE5D807A1F0CC353A
:100BA000DD4591F70E94B40EEFCF0E94780580E0FA
:100BB000DF91CF911F910F9108950E942A10F7CFD6
:100BC0000E94BD0EE1CF0E94C00EDECFDF92EF92F9
:100BD000FF920F931F93CF93DF93E82FF0E0EC5336
:100BE000FB4FD490282F26952695269530E0F901C5
:100BF000EC59FA4F0491877010E0082E02C0159549
:100C000007950A94E2F701701127F901EC5AFA4F9F
:100C1000E490F12C082E02C0F594E7940A94E2F7D0
:100C200091E0E922FF24F901EC5BFA4FC491D0E096
:100C300002C0D595C7958A95E2F7C170DD270115E9
:100C4000110519F081EE0E941B07E114F10419F05F
:100C500086EE0E941B078D2D0E94A007EF2819F039
:100C600086EE0E946107012B19F081EE0E94610758
:100C7000CD2B51F08CE2DF91CF911F910F91FF901E
:100C8000EF90DF900C94A007DF91CF911F910F910F
:100C9000FF90EF90DF900895EF92FF920F931F93D4
:100CA000CF93DF93EC01162F0AE08881882309F4A3
:100CB00054C0813009F04EC08981813099F47E01A1
:100CC00022E0E20EF11C8A810E94A007E701219632
:100CD000812F815050F3EFE9FFE03197F1F700C029
:100CE0000000F7CF823041F47E0182E0E80EF11C73
:100CF0008A810E941B07EACF833041F47E01E2E043
:100D0000EE0EF11C8A810E946107E0CF843011F061
:100D10002196DDCF2A81229690E080E0AE014F5FE0
:100D20005F4F2053330B2A30310548F0019778F29A
:100D3000EFE9FFE03197F1F700C00000F7CF089F1F
:100D4000B001099F700D1124C901860F971F2981D9
:100D5000EA01E4CF0E94E605BACFDF91CF911F915F
:100D60000F91FF90EF90089560E00C944C06982F3F
:100D700092959F7011F0892F94E0282F2695269543
:100D800011F09E5F822F869509F09F5F892F08954D
:100D900008950C94C80681E008950C94CB0608953C
:100DA000CF93C82F0E94C9068C2FCF910C94CD06EB
:100DB000CF93DF93CDB7DEB72B970FB6F894DEBF96
:100DC0000FBECDBF4F83588769877A878B876111A4
:100DD0000E94E30E1E821D8285E0FE013796DE0131
:100DE000119601900D928A95E1F78C819D81892B56
:100DF00089F449815A816B817C818D819E810E9419
:100E0000E30D2B960FB6F894DEBF0FBECDBFDF917A
:100E1000CF91089589819A8189238F3F51F3CE0123
:100E200001960E9437058111E4CFEBCFFC01808150
:100E300091810C94190BCF93C82F882309F43FC0DC
:100E40008CEF8C0F813AA0F46C2F8091540290911A
:100E500055020E94DD25882329F08C2F0E94840EE4
:100E60000E94130F8C2F0E947D0ECF910C94130FB4
:100E700080E28C0F883048F4C77081E001C0880F91
:100E8000CA95EAF70E94C60EF0CFEBE5EC0FE3300F
:100E900040F4F0E0EC55FD4F808190E0CF910C9450
:100EA0009D25C85AC73158F4EC2FF0E0EE0FFF1F14
:100EB000EA58FD4F80819181CF910C94B325CF9159
:100EC0000895882329F19CEF980F913A20F40E940D
:100ED000840E0C94130F90E2980F983050F48770A2
:100EE00091E001C0990F8A95EAF7892F0E94CC0EF4
:100EF000F0CF9BE5980F933020F490E080E00C94C5
:100F00009D25885A873120F490E080E00C94B32529
:100F100008951F93CF93DF93182FEB010E941B07B7
:100F2000209731F4812FDF91CF911F910C946107AD
:100F30008FE99FE00197F1F700C000002197F0CF03
:100F400070E060E0893311F460E570E00C9489078B
:100F5000882321F00E94C60E0C94130F0895882355
:100F600021F00E94CC0E0C94130F0895BF92CF92E3
:100F7000DF92EF92FF920F931F93CF93DF936C0159
:100F8000D62FC72FFC011281058102950F700E9498
:100F90009B0EE82E8823A1F0E12E112389F08C2FDF
:100FA000807F803429F080E28D0FE12C883040F082
:100FB00082E00E94640F0E949B0E91E0E82EE926D9
:100FC000BC2EB2949FE0B922EB2DF0E0ED5BFF4C1C
:100FD0000C94162F0C2F0F70C07F11F00295007F1C
:100FE0001123A9F0002359F080E28D0F883010F012
:100FF000D11109C0802F0E94C60E0E94130F8D2FA1
:101000000E941B0714C0802F0E94D60EF6CF8D2F92
:101010000E946107002359F080E28D0F883010F0A4
:10102000D1112CC0802F0E94CC0E0E94130F2B2DAB
:101030002850330B2430310520F40E9474250E947F
:10104000D006EE2009F46EC10E94970E80FD6AC1A1
:10105000F60112820E94910E0E94660AC6010E9449
:10106000B3090E94910EDF91CF911F910F91FF90D4
:10107000EF90DF90CF90BF900C94710A802F0E9468
:10108000DC0ED3CFFC2FFF70FF2EC07FC03219F0D3
:10109000F29480EFF822DD2369F0D13049F1112379
:1010A00091F1002351F1F601858180FFA8CF8F7067
:1010B000858323C0112381F0011106C00E94F60E22
:1010C0008F290E94A807B3CF0130C1F70E94F60E06
:1010D0008F290E94FC0EABCF011106C00E94090FA0
:1010E0008F2D0E94AF07A3CF013009F4A0CFF6CF18
:1010F000112329F0063008F09ACF8F2DE2CF05306A
:1011000008F095CFEDCF002359F3D93349F4FFEF21
:1011100027EE33E0F15020403040E1F700C00000FE
:101120008D2F0E94610783CF8C2F869586958370C3
:1011300069F0813009F07BCF8D2F9C2F93701111B6
:1011400002C090E080E00E94B32571CF8D2F9C2FCC
:101150009370111102C090E080E00E949D2567CF3E
:101160008C2F837079F5111162CF4D2F42954695E2
:101170004770440F440F8D2F8F70042E01C0880FCD
:101180000A94EAF72D2F2071D4FF07C02FE030E03A
:1011900001C0220F4A95EAF72095C695C695C370FF
:1011A000822BC23049F058F4C13019F00E94470A2E
:1011B0003ECF0E94420A3BCF0E944C0A38CF0E9489
:1011C000400A35CF8695112311F08C2F817088232A
:1011D00009F42DCF4D2F429546954770440F440F8B
:1011E0008D2F8F70042E01C0880F0A94EAF72D2FDF
:1011F0002071D4FF07C02FE030E001C0220F4A95D4
:10120000EAF72095C695C695C370822BC23049F087
:1012100058F4C13019F00E948D0A09CF0E94880A43
:1012200006CF0E94920A03CF0E94550A00CFCF70CA
:10123000112329F08C2F0E94660A8D2F42CF8D2F0B
:101240000E94AF078C2F0E94710AF1CED23F89F124
:1012500060F4D03FC9F0D13F29F1112309F442C015
:101260000111CDCE8C2F8F7121C0D33F39F1D43FE6
:10127000A1F7112369F1CF718C2F0E94660A63E0F8
:101280008C2F0E94490FD3CE112341F0053008F076
:10129000CECE8C2F8F710E947D0AC9CE063008F009
:1012A000C6CEF7CF8C2F8F71112369F20E94660A88
:1012B000BECE8C2F8F711123C9F3C5CF112329F016
:1012C0008C2F8F710E945E0AB2CE0E945B0AAFCE55
:1012D00081E00E94640F023008F4A9CE82E00E94EF
:1012E000640FA5CE002359F0D93309F019CF8FEF41
:1012F00097EEE3E081509040E040E1F70FCF8C2F74
:101300008F71A1CF4C2F4F706D2FC6010E945911C4
:101310000E94470B8CCE4C2F4F706D2FC6010E9440
:101320005C1185CEDF91CF911F910F91FF90EF90CF
:10133000DF90CF90BF9008950F931F93CF93DF93CB
:10134000EC01688179818A810E94230B8C010E94C3
:10135000970A0E943F0AB801CE01DF91CF911F91F9
:101360000F910C94B607CF93DF93EC018B819C8196
:10137000892B29F08881998189238F3F59F4DF9146
:10138000CF910895CE010E949C09CE01DF91CF91AB
:101390000C943905CE010E9487058111F3CF0E947C
:1013A0009B0E882361F38A81882349F382E0DF91D1
:1013B000CF910C94640F90E080E00E949D2590E016
:1013C00080E00E94B3250E94E30E0E94F30E0C946D
:1013D000130F0E948B0E0C94DB090E94D30E0C9409
:1013E000E909E92FE295EF70E250EE3070F4F0E099
:1013F000ED5AFF4C0C94162F803F19F020F4883ED4
:1014000020F481E00895843FE1F380E00895883E70
:10141000C0F3813FD1F7F5CF93FB882780F908957A
:10142000FC01808191810E94190B0C94F109CF93EA
:10143000DF9300D000D00F92CDB7DEB70F900F90A2
:101440000F900F900F90DF91CF910895CF93DF937E
:1014500000D000D000D0CDB7DEB726960FB6F894F6
:10146000DEBF0FBECDBFDF91CF91089508950C94DC
:10147000360A0E94370A809344030C94DB090895CE
:101480000C94390A90914403892B0C94390A909159
:10149000440389230C94390A9091440389270C94BE
:1014A000390A0C94360A0C94510A0E94530A80930C
:1014B00043030C94DB0980E00C94550A91E001C0D1
:1014C000990F8A95EAF7892F0C94550A21E030E0AC
:1014D00001C0220F8A95EAF780914303822B0C9476
:1014E000550A21E030E001C0220F8A95EAF72095E5
:1014F0008091430382230C94550A21E030E001C01F
:10150000220F8A95EAF78091430382270C94550AAB
:1015100090914303892B0C94550A9091430389239E
:101520000C94550A9091430389270C94550A089509
:101530002FE0929F800D1124982F977041E001C0F9
:10154000440F9A95EAF786958695869593E0899F4C
:10155000F0011124E15EFC4F90E080E070E05191D9
:10156000DF0111979B01082E02C0369527950A943A
:10157000E2F7217021952527242325272C93019616
:101580008330910561F708952FE0929F800D11241B
:10159000982F977086958695869523E0829FF00117
:1015A0001124E15EFC4F50E040E080E0219130E00A
:1015B000092E02C0369527950A94E2F72170332749
:1015C000042E01C0220F0A94EAF7822B4F5F5F4F6F
:1015D0004330510559F70895CF92DF92FF920F9350
:1015E0001F93CF93DF936C010091430380914403D9
:1015F000082BC7E0D0E010E0FC2EC8010C2E02C082
:10160000959587950A94E2F780FD0CC02197A0F785
:10161000F12C8F2DDF91CF911F910F91FF90DF90D3
:10162000CF900895B6018C2F0E946F12019771F32D
:10163000F0CFCF93DF93EC010E94EC0ABE01DF9163
:10164000CF910C946F121F93CF93DF93EB01909186
:101650001E03992331F0CB01DF91CF911F910C94A0
:10166000190B882379F0CB010E94EC0A182F682F00
:10167000CE010E94980ABE01812FDF91CF911F9168
:101680000C946F12CB010E94C40A182FF4CFEF9272
:10169000FF920F931F93CF93DF938C01892B81F0DF
:1016A000F12CEE24E394E8012196F801849184372B
:1016B00070F4843008F05FC08130B1F08230A1F165
:1016C000DF91CF911F910F91FF90EF900895853793
:1016D00009F44CC008F43DC09CE7980F903780F7A0
:1016E0008F770E94610749C00E5F1F4FFE018491F2
:1016F00090E2980F983060F48770FE2D01C0FF0FC4
:101700008A95EAF78F2F0E94E60E0E94130F02C0FF
:101710000E941B078F2D815030F2EFE9FFE03197D7
:10172000F1F700C00000F7CF0E5F1F4FFE0184915C
:1017300090E2980F983050F48770FE2D01C0FF0F93
:101740008A95EAF78F2F0E94EC0EDFCF0E94610787
:10175000E1CF0E5F1F4FFE01C491C150D8F28FE957
:101760009FE00197F1F700C00000F7CF0E5F1F4F19
:10177000FE01F490CFCF0E941B078E01CBCF1F93A9
:10178000CF93DF93C091450316E0809146038C13FD
:1017900004C0DF91CF911F910895D0E01C9FF0010C
:1017A0001D9FF00D1124E95BFC4F40815181628146
:1017B0007381848195810E94260A2196C770E5CFA6
:1017C00040917703509178036091790370917A0387
:1017D00080917B0390917C030C94260A1F93CF93F6
:1017E000DF9380917C03807FA9F480917903882323
:1017F00089F080914503C091460360917703709111
:101800007803A0917A03B0917B03D62FD72316E0FB
:10181000C81304C0DF91CF911F91089590E01097F5
:1018200011F0DF3F19F401968770F2CF189F9001F5
:10183000199F300D1124F901E95BFC4F41814713D9
:10184000F2CF40814613EFCF42814111ECCF43816B
:1018500054814A1B5B0B483C510528F780917C035F
:101860008F70806180937C03F901E45BFC4F808181
:101870008F708061808387E793E00E94B309DF91D6
:10188000CF911F910C94BF0BAF92BF92CF92DF927A
:10189000EF92FF920F931F93CF93DF93CDB7DEB7F5
:1018A00061970FB6F894DEBF0FBECDBF8C0185E007
:1018B000F801DE011D9601900D928A95E1F7F8017D
:1018C000E28087E7C82E83E0D82E60917A0370917A
:1018D0007B036115710509F45AC19091770320913A
:1018E0007803892F82238F3F09F451C140815181B0
:1018F000A380B480F0907903F501E61BF70BFF207D
:1019000009F4F6C080917C03382F307FE83CF10564
:1019100008F0AFC0311179C0FE2C251323C09413F9
:1019200021C0E1101FC08F70806180937C030E94F2
:10193000E00BC6010E94B30980917C03F801858306
:101940008F2D61960FB6F894DEBF0FBECDBFDF912D
:10195000CF911F910F91FF90EF90DF90CF90BF90AC
:10196000AF900895AB2829F0842F85238F3F09F08D
:1019700027C180E0F82FF170DF2E80FF3CC08091FE
:1019800045032091460336E0821315C04D875E87DC
:101990008D859E850E94190B292F22952F7022304C
:1019A000F0F0243018F59F70F1F0F8019581907FE8
:1019B000D1F4D12C1EC090E0389FF001399FF00D7A
:1019C0001124E95BFC4F6181651306C060816413DB
:1019D00003C06281E6120FC001968770D5CF9F7059
:1019E00011F0882331F3805E883018F3C8010E941B
:1019F000B309FD2CA5CFEE2009F4A2CF80917C0382
:101A0000816080937C03F12C9BCF251306C0941337
:101A100004C0F801EE2009F487C0C8010E94100A32
:101A2000882319F1EE2009F180917C03803270F057
:101A3000209177033091780338872F831986BB86EE
:101A4000AA868C87CE0107960E94B30986E0F8012A
:101A5000A7E7B3E001900D928A95E1F70E94EE0BA3
:101A60000E94E00BFF24F3946BCFC8010E94B309DE
:101A7000F9CF311113C07A2DB98AA88A6E2D8989C0
:101A80000E94170A87E793E00E94B30986E0F601F7
:101A900011928A95E9F70E94E00BB5CF25130FC08C
:101AA00094130DC0E1100BC0F8018583C8010E949A
:101AB000B30986E0F60111928A95E9F741CFC80192
:101AC0000E94100A882389F2EE2079F280917C032B
:101AD000803208F4BBCF20917703309178033A83AA
:101AE00029831B82BD82AC828E83CE010196ACCF4E
:101AF000E83CF10508F03EC0FE2CEE2009F4B5CF1D
:101B000025132AC0941328C080917C0380FD1BC03C
:101B1000982F907FC1F0F8018583903F31F0982F86
:101B2000907F905F8F70892B8583C8010E94B309D5
:101B300086E0F801A7E7B3E001900D928A95E1F7FE
:101B40000E94E00BFDCE86E0F801A7E7B3E001902C
:101B50000D928A95E1F7F4CEC8010E94100A811116
:101B600075CF80917C03816080937C03C8010E94C3
:101B7000B309E6CE7A2DB98AA88A6E2D89890E948A
:101B8000170A86E0F60111928A95E9F7D9CFEE207F
:101B900009F46BCFC8010E94100AF82E882309F4BB
:101BA00064CF86E0F801A7E7B3E001900D928A9533
:101BB000E1F787E793E00E9416070E94EE0BC0CF83
:101BC00081E08E25D7CE1F93CF93DF93CDB7DEB7BD
:101BD0002C970FB6F894DEBF0FBECDBF4F8358874A
:101BE00069877A878B879C87CE0107960E94440C71
:101BF000882369F08A859B85892B39F04F81588528
:101C0000842F85238F3F09F071C016E05FC086E006
:101C1000FE013796DE01119601900D928A95E1F74B
:101C20008A859B85892B89F38F81988589238F3FAE
:101C300061F32091460330E0C9010196877099272E
:101C4000409145034817190671F40E94ED0910925E
:101C500046031092450386E0E7E7F3E0DF011D92BB
:101C60008A95E9F7D2CF96E0929FD001939FB00D6D
:101C70001124A95BBC4FFE01319601900D929A95FB
:101C8000E1F7809346030E94BF0BBFCF819FC00145
:101C90001124895B9C4F0E94440C8823E9F0E09159
:101CA00045031E9FF0011124E95BFC4F40815181E7
:101CB00062817381848195810E94260A8091450307
:101CC00090E00196877099278093450380914503A2
:101CD000909146038913DACF2C960FB6F894DEBFA5
:101CE0000FBECDBFDF91CF911F91089569857A8591
:101CF0008B859C850E94260A88CF682F809154028C
:101D0000909155020C945D26682F80915402909119
:101D100055020C94682680915402909155020C94BF
:101D2000732680917D03859585958595089580918D
:101D30007D038770089590917D03977081E009F489
:101D400080E008959091D50492FB222720F928176E
:101D500051F080FB92F99093D5048091D404909136
:101D6000D5040C94A70F08958091D50482FB882791
:101D700080F991E089270C94A20E81E00C94A20EC8
:101D800080E00C94A20E8091A10308959091A1038C
:101D9000892B8093A103089580959091A1039823A6
:101DA0009093A10308951092A10308959091A00328
:101DB000892B8093A003089580959091A003982388
:101DC0009093A00308951092A003089590919F030B
:101DD000892B80939F030895809590919F0398236A
:101DE00090939F03089510929F03089580917E031E
:101DF000089508950C94F90E9091D50492FD08C0B1
:101E000090917E03981721F080937E030C94FA0E34
:101E1000089580917E03882329F010927E0380E04C
:101E20000C94FA0E0895E0915402F09155028091BD
:101E3000A1038083E0915402F0915502808190913A
:101E4000A003892B8083E0915402F0915502808198
:101E500090919F03892B808390917E03992381F039
:101E6000E0915402F09155028081892B808380910A
:101E70005402909155020E94C92581110E94090FB8
:101E800080915402909155020C94832508950C94EE
:101E9000460F9091D50492FD10C098E0899F900163
:101EA0001124622B60937D030E94660A80917D035A
:101EB0008595859585950C94470F0C94660A10922C
:101EC0007D0380E00C94470F90917D0380958923DA
:101ED00080937D03282F277039F4282F082E000CBB
:101EE000330B9217130621F49091D50492FF07C08B
:101EF0008595859585950E94710A0C945F0F0895CC
:101F00006FEF7FEF90E080E00C94D82F90E080E0BE
:101F10000E94A42F893E9E4F11F40C94661F80E00E
:101F2000089582E090E00C949C2F83E090E00C9464
:101F30009C2FCF9384E090E00E949C2FC82F82E2D8
:101F400090E00E949C2F982F8C2FCF910895CF93D3
:101F5000C92F682F84E090E00E94BA2F6C2F82E294
:101F600090E0CF910C94BA2FAB01BC018FE090E0D0
:101F70000C94CC2FAB01BC0183E190E00C94CC2FEE
:101F800060E070E0CB010C94BA0F60E070E0CB0130
:101F90000E94B40F0C94C00F69EE7EEF90E080E0D9
:101FA0000E94D82F60E082E090E00E94BA2F60E0AB
:101FB00083E090E00E94BA2F1092440360E084E036
:101FC00090E00E94BA2F60E082E290E00E94BA2F77
:101FD00060E085E090E00E94BA2F60E086E090E04B
:101FE0000E94BA2F6FEF87E090E00E94BA2F40E086
:101FF00050E0BA0188E090E00E94CC2F60E08DE0D4
:1020000090E00E94BA2F40E050E0BA0188E190E0F1
:102010000E94CC2F60E087E190E00E94BA2F40E060
:1020200050E0BA018CE190E00E94CC2F70E060E0BB
:1020300080E290E00E94D82F40E050E0BA0188E1B1
:1020400090E00E94CC2F80E00E947F1F0E94A51F7D
:102050000C94C50F0C94CC0F682F8EE090E00C947C
:10206000BA2F0E941B276093B7037093B803809325
:10207000B9039093BA036093B3037093B40380934E
:10208000B5039093B60308950E941B276093B7038E
:102090007093B8038093B9039093BA036093AF032E
:1020A0007093B0038093B1039093B203089585B702
:1020B000806885BF85B7806885BF089508950895B5
:1020C0000C945E1008950C9462100E9457108DE4D9
:1020D00093E10E949A270E945F100C94601081E0A7
:1020E00008950C946F10089508950E9473100C9435
:1020F00074100E9406270E94B41F0E947E140E9442
:10210000091FE4EDF4E08081806880838091D4042D
:102110009091D5040E94A70F0E9446220C94631050
:102120004F925F926F927F928F929F92AF92BF92E7
:10213000CF92DF92EF92FF920F931F93CF93DF9393
:10214000CDB7DEB72A970FB6F894DEBF0FBECDBF6E
:102150000E94911481110E94311093EAC92E93E0DC
:10216000D92E712C512C872D0E9486135C01F6010B
:10217000E190F1906F01E816F90609F444C08091EE
:10218000BB0381FD0E949613EA24FB24612C01E02D
:1021900010E04601F2E08F1A9108C70180239123D5
:1021A000892B59F10E9471104424439495012023F6
:1021B0003123232B09F4412C882379F06E827F820E
:1021C00048860E940F278160782F9A8789874E81E1
:1021D0005F8168858A850E94D806F401808191819B
:1021E0008027912791838083442D662D872D0E941F
:1021F000621A5394FBE0F515E0F06394000F111F91
:102200008FE06812CACF7394E6E07E12ACCF511013
:1022100010C08FEF89838A831B820E940F27816001
:10222000782F9D838C8349815A816B818D810E9497
:10223000D8060E940D1B0E941C1F81110E94441091
:102240000E9474259091A2038917E1F00E947425E1
:102250008093A2032A960FB6F894DEBF0FBECDBFBF
:10226000DF91CF911F910F91FF90EF90DF90CF9072
:10227000BF90AF909F908F907F906F905F904F90A6
:102280000C94D0062A960FB6F894DEBF0FBECDBFD1
:10229000DF91CF911F910F91FF90EF90DF90CF9042
:1022A000BF90AF909F908F907F906F905F904F9076
:1022B000089590E080E008950895FC01EE0FFF1F5F
:1022C000EC58FA4F859194910895CF93DF930E9433
:1022D0007312EC01811520E5920708F041C08115C9
:1022E00030E4930708F0B4C0803E910518F5803CB7
:1022F000910508F09DC0883A910570F4853A9105E2
:1023000008F08EC081309105F9F00097E9F004974C
:10231000D8F4D0E0C0E018C08F3B9105D0F7C85A80
:10232000D0E0CC0FDD1FC955DD4F0990D881C02DFD
:10233000D4640AC08115904258F4C11581E0D807D1
:1023400018F4C83ED10528F7CE01DF91CF9108954A
:10235000C11590E3D90708F071C0CE019F706AC023
:10236000811525E5920758F5811534E5930708F0A6
:102370009EC0811542E5940750F4C11581E5D80748
:1023800008F469C0DC2FCC27C16FD06ADDCF982F4D
:10239000969596959E0123703327C115D34508F075
:1023A00077C0C1E0D0E002C0CC0FDD1F2A95E2F774
:1023B00020E2929FC0011124C82BD92B67C0C11500
:1023C00089E5D807A8F4C11598E5D90708F074C0C5
:1023D000C11526E5D20708F09CCF8C2F0E940A1366
:1023E000C82FD0E0DC2FCC27CC27DF71D062ACCF58
:1023F000C1153AE5D30708F464C0CE0190568115A3
:10240000904208F086CF8D2F8F710E940A1390E0C2
:10241000982F882788279F719C012C2BE901E6CFF4
:10242000C55AD0E0CB52DD4FC881D0E0D0648CCF0C
:10243000805C91090E945D11EC0186CFCE01992745
:10244000D3FF03C0EC01D86C7FCFEC01D06C7CCF04
:10245000DF70D06A79CFCE01E4E096958795EA9552
:10246000E1F783702C2F26952695237090E2299F03
:1024700090011124382B8C2F8370C1E0D0E002C072
:10248000CC0FDD1F8A95E2F7C22BD32BDC685CCF23
:10249000C1E0D0E002C0CC0FDD1F2A95E2F730E2A8
:1024A000939FC0011124C82BD92BDA684DCFD82FA8
:1024B000CC27C46FD06A48CFDC2FCC27C06FD06A3E
:1024C00043CF8C2F8F700E940A1334E0D695C795A6
:1024D0003A95E1F7CF709C2FEC01D06935CF0E947F
:1024E00075210C94651182389105B1F1B0F48133F6
:1024F000910509F475C048F48932910509F469C061
:102500008A32910509F473C008958533910509F461
:1025100059C08933910501F10895833E9105A9F1D0
:1025200038F4803E9105F9F0823E910549F1089515
:10253000863E9105A9F1873E9105C9F1843E91053A
:1025400019F52091D50421FF1FC08091D40484FD8A
:1025500014C087EE90E008952091D4042370A1F078
:1025600080EE90E008952091D40420FD47C0309182
:10257000D50430FF09C024FF44C090E080E004C0CF
:102580002091D40422FDF7CF08952091D40422FD98
:102590003BC03091D50430FDE3CF24FFF5CFEDCF24
:1025A0002091D40423FFF0CF24FDE7CFD2CF209198
:1025B000D40423FD2CC03091D50431FFEECF84EE3E
:1025C00090E008952091D40425FFDECF89E290E0C9
:1025D00008952091D40425FFD7CF85E390E0089596
:1025E0002091D40426FFD0CF8AE290E00895209174
:1025F000D40426FFC9CF81E390E0089589E390E0F9
:10260000089583EE90E0089582EE90E0089586EEBE
:1026100090E008959091D40492FF06C0282F28716D
:102620002830F9F4877F846093FF06C0282F287133
:102630002831F1F4877E84612091D50420FF06C003
:10264000382F38713830D9F4877F816021FF06C078
:10265000282F28712831D1F4877E816194FD877EEF
:102660000895282F24712430F9F68B7F8860DCCF01
:10267000282F2471243101F78B7E8861DDCF382F1C
:102680003171313019F78E7F8860E0CF282F2171AA
:10269000213121F78E7E8861E1CF80E008950C948E
:1026A000800F0E9491148FE39CE90197F1F700C01D
:1026B00000000E94911480E00E94861380FF04C0F5
:1026C0000E944F130C94762708950C9451130E9486
:1026D000860F811102C00E942A100E94910F8093E0
:1026E000BB030E94990F9093D5048093D4040E9459
:1026F00065130E94950F0E94400A809143030C9439
:10270000530A0C94CD0408950C94831390E0880F21
:10271000991FDC01AE51BB4FFC01E659FD4F2D91D5
:102720003C9180819181822393230895089580EACA
:102730008A95F1F7089500C008950C94971390E0DE
:10274000880F991F442399F08A529B4FFC01808186
:10275000918121E030E002C0220F331F6A95E2F739
:102760002823392381E0232B09F480E008958E513A
:102770009B4FECCFF894E82FE295EF70F0E031A199
:10278000282F2F7081E090E001C0880F2A95EAF78A
:10279000982F9095932391A392A1892B82A378944B
:1027A0000895CF93DF93C8EDD2E089918F3F11F068
:1027B0000E94BA1382E0C73ED807B9F7C7EED2E04D
:1027C00089918F3F11F00E94BA1382E0CD3ED80765
:1027D000B9F7DF91CF9108958F929F92AF92BF92F8
:1027E000CF92DF92EF92FF920F931F93CF93DF93DD
:1027F000D82EE92EF62EC62FD0E0C852DD4F8881A4
:102800008F3F09F46EC0F894E82FE295EF70F0E086
:1028100021A18F7001E010E0A80102C0440F551FF4
:102820008A95E2F7CA01922F982B91A392A18095E5
:10283000892382A378940E949B13A8010F2C02C0C5
:10284000440F551F0A94E2F7BA016095709587EE20
:10285000882E82E0982EED2DFE2D5F018CE0A80ED3
:10286000B11C10E0D4010D914D01819191919F0116
:102870002250310969010F3F71F1202F22952F70ED
:1028800030E0D90190962C9130E00F7002C0359560
:1028900027950A95E2F720FD1EC0842B952BD601C3
:1028A0008D939C9311E0AE16BF06E1F688818F3FB1
:1028B00011F00E94BA13612F8F2DDF91CF911F91DC
:1028C0000F91FF90EF90DF90CF90BF90AF909F90CF
:1028D0008F900C949D1386239723D6018D939C9300
:1028E000E2CFDF91CF911F910F91FF90EF90DF909A
:1028F000CF90BF90AF909F908F9008950E94D1137A
:10290000E6EDF4E0A2EEB4E0119211921D921D9258
:1029100084E0E23EF807C1F786E00E94DC140C94E4
:102920006A05FF920F931F93CF93DF93CDB7DEB766
:102930002C970FB6F894DEBF0FBECDBF8E010F5F90
:102940001F4F8CE0F80111928A95E9F7F12C6F2D59
:10295000C8010E94EC13F394FFE0FF12F8CF4CE0A3
:1029600050E0B80186ED94E00E947F2FFF24F3949D
:10297000009709F4F12C892B41F08CE0F801A6EDC9
:10298000B4E001900D928A95E1F72F2D46E062EEBA
:1029900074E086ED94E00E94DD140E9472058F2D94
:1029A0002C960FB6F894DEBF0FBECDBFDF91CF914E
:1029B0001F910F91FF9008950895FF920F931F9319
:1029C000CF93DF93F82E092F162FD72FC42F222352
:1029D00049F081E08093BE030E940F279093BD03CE
:1029E0008093BC038091BE038823A1F08091BC0337
:1029F0009091BD030E942727059760F0EF2DF02FDF
:102A0000A12FBD2F90E080E0D0E08C179D0744F00F
:102A10001092BE03DF91CF911F910F91FF90089507
:102A2000219131912D933D930196EFCF0E94852600
:102A30000E9420290E9439290E944B290E9475106A
:102A4000FBCFEF92FF920F931F93CF93DF93EB0196
:102A5000E82FD11110C0442321F0F0E0EC58FA4FD8
:102A6000E4916E2F7E2F8E2FDF91CF911F910F91CA
:102A7000FF90EF9008950D2F10E0282F30E04423B1
:102A800029F02C583A4FF901249130E0F6E0CF9F1D
:102A9000C0011124EFEFF0E0BF010E94EE2EAB0168
:102AA0008C2F90E0880F991FA5E5A49FB001A59FEA
:102AB000700D1124861B970B982F990F980FBF014B
:102AC000601B710B629FD001639FB00D729FB00DB0
:102AD00011248B2F9D9FB0011124672F7727EF01C1
:102AE000C61BD70BBE01629FE001639FD00D729F92
:102AF000D00D11247F01E91AF108E09EB001E19E9A
:102B0000700DF09E700D1124672F7727E61BF70BD1
:102B1000E29F8001E39F100DF29F100D1124E12F21
:102B2000722F4230510599F048F44115510569F072
:102B30004130510581F0EB2F8D2F07C044305105F6
:102B400069F080F046305105B1F76E2F8DCFE22F3E
:102B50007B2F812FFACFE22F7D2FF7CFEB2F822F04
:102B6000712FF3CF7B2F822FED2FEFCF41E00C940D
:102B7000211530E020E0869F212D969F200D311DEC
:102B80001124C9010895AC018230910508F408951B
:102B90009FEF413E8EE1580740F49A0195E036954B
:102BA00027959A95E1F798E0920F61E0E62FE90FFB
:102BB000FF27FF1F9F0135952795822F229FF00148
:102BC000239FF00DF00D11244E175F0738F49FEF8F
:102BD000920F961758F78FEF860F08952F3FE9F35E
:102BE00061E0620FF6CFE82F86FDE0952E2F2F7063
:102BF00086FD2F5FE695E695E695E670F0E0E351F9
:102C0000FD4F9181929F902D212D112492959F70BF
:102C10002295207F922B2081920F87FD919580E84D
:102C2000890F0895622F0895E42FF0E0EE0FFF1F43
:102C3000E25AFE4F6081621B0895E42FF0E0EE0F30
:102C4000FF1FE15AFE4F6081621B0895322F50E052
:102C5000FA01EE0FFF1FE15AFE4F9081905297FD4F
:102C60009195440F551FFA01E25AFE4F2081231B14
:102C7000330B290F311D97FD3A95620F0895EF929E
:102C80000F93972F23E0029FB0011124759567954C
:102C90006E0D792F0F91EF9008950F93CF93DF93DF
:102CA000D72FC82F47FD419588E390E0841B9109F9
:102CB00047FD9395889FB001899F700D700D112479
:102CC000229FC001239F900D900D1124860F971F06
:102CD0000E94C315982F990F890F682F600F7D2FC1
:102CE0008C2FDF91CF910F9108950F931F93522F47
:102CF00010E0F801EE0FFF1FE15AFE4FA081A05235
:102D0000BB0B9D015203F001539FF00D1124000FE6
:102D1000111FD801A25ABE4F0C910057110B40034E
:102D20009001419F300D11242E0F3F1F37FF02C02D
:102D300021583F4F220F232F221F330B620F1F9169
:102D40000F9108950F931F93522F10E0F801EE0F8B
:102D5000FF1FE15AFE4FA081A052BB0B9D01520301
:102D6000F001539FF00D1124000F111FD801A25A3A
:102D7000BE4F0C910057110B40039001419F300D45
:102D800011242E0F3F1F37FF02C0215C3F4F96E0FA
:102D9000359527959A95E1F7620F1F910F91089548
:102DA000FC019B01AC0197FF04C044275527481B39
:102DB000590BBA01620F731F37FD0FC0241B350B6F
:102DC000C901A5E0880F991FAA95E1F70E94022F7B
:102DD00080E2861BF7FD81950895CB0165E0880FA1
:102DE000991F6A95E1F7BA01621B730B0E94022FCB
:102DF00080E6EFCFEF920F93CF93DF93D72FC82FBB
:102E0000C9010E19009729F480E857FD05C080E03C
:102E100003C0BA010E94D016602F681B7D2F8C2F33
:102E2000DF91CF910F91EF9008950F93CF93DF93A0
:102E3000D72FC82FC901009729F480E857FD05C096
:102E400080E003C0BA010E94D016602F680F7D2F6A
:102E50008C2FDF91CF910F9108950C94B61546E019
:102E600050E06CE170E08EEE94E00C948C2F46E024
:102E700050E06CE170E08EEE94E00C94AA2FEEEE40
:102E8000F4E081E180838091670290916802A091D3
:102E9000690281839283A3838FE784838FEF858385
:102EA0000C943717E091FB02F091FC020994E09139
:102EB000F702F091F80209945F926F927F928F92DD
:102EC0009F92AF92BF92CF92DF92EF92FF920F93B9
:102ED0001F93CF93DF935C014B01FC01C08181E123
:102EE000C89FC02D112411E11C0FF12E133510F0D5
:102EF00032E5F32E6091F20466958091F40490918E
:102F0000F5040E94B915582ED0E0CF15A0F081E04D
:102F1000123508F080E0DF91CF911F910F91FF9063
:102F2000EF90DF90CF90BF90AF909F908F907F9069
:102F30006F905F900895FE01EE5FFD4F8081F50177
:102F400091818923C9F1CE01880F991F8C5F9E4F13
:102F5000FC01E65AFF4F2081422F4057550B6A0172
:102F6000855A9F4FFC018081282F2052330B390155
:102F7000449F9001459F300D300D1124669CC00187
:102F8000679C900D900D1124820F931F0E94C31512
:102F9000082F6091EF047091F0048091F104E52C0A
:102FA0009301A601F40109950E942D17462F282FA1
:102FB000672FCE010E9457172196A7CF6FE376E1C6
:102FC0000C945C176AEF76E10C945C17AF92BF9299
:102FD000CF92DF92EF92FF920F931F93CF93DF93E5
:102FE0006C017B01FC01C08181E1C89FC02D1124CF
:102FF00011E11C0FB12E133510F032E5B32E6091A4
:10300000F20466958091F4049091F5040E94B9153C
:10301000A82ED0E0CB1578F081E0123508F080E0E2
:10302000DF91CF911F910F91FF90EF90DF90CF90A4
:10303000BF90AF900895FE01EE5FFD4F8081F601D5
:103040009181892311F1CE01880F991F8C5F9E4FCA
:10305000FC01E55AFF4F20812052330B865A9F4FC7
:10306000FC0140814057550B6091EF047091F004D2
:103070008091F1040A2DF70109950E942D17462F22
:10308000282F672FCE010E9457172196C3CF6DE4DA
:1030900076E10C94E61765E177E10C94E617BF92B0
:1030A000CF92DF92EF92FF920F931F93CF93DF9314
:1030B0007C018B01FC01C08181E1C89FC02D1124DE
:1030C00091E1D92EDC0ECD2CF2E5FD1510F482E550
:1030D000C82E6091F2046695669521E0620F08F4AF
:1030E0006FEF8091F4049091F5040E94B915B82E09
:1030F000D0E0CC1578F081E091E59D1508F480E0F2
:10310000DF91CF911F910F91FF90EF90DF90CF90C3
:10311000BF900895FE01EE5FFD4F8081F701918120
:10312000892391F06091EF047091F0048091F10493
:103130002B2D4C2FF80109950E942D17462F282F73
:10314000672FCE010E9457172196D3CF62E176E117
:103150000C944F1864E176E10C944F186DE176E120
:103160000C944F1866E276E10C944F187F928F9280
:103170009F92AF92BF92CF92DF92EF92FF920F9306
:103180001F93CF93DF935C016B01FC01C08181E150
:10319000C89FC02D112411E11C0F912E133510F082
:1031A00032E5932E6091F204669566958091F40461
:1031B0009091F5040E94B915F82E80E48F0D0E94BD
:1031C000F31590E8892E880E8F2D0E94F31520E8C4
:1031D000722E780ED0E0C91590F081E0123508F01B
:1031E00080E0DF91CF911F910F91FF90EF90DF90E2
:1031F000CF90BF90AF909F908F907F900895FE01E9
:10320000EE5FFD4F8081F50191818923A1F06091EE
:10321000EF047091F0048091F104EF2C0C2F272D16
:10322000482DF60109950E942D17462F282F672F4C
:10323000CE010E9457172196CECF65E776E10C9418
:10324000B61862EA76E10C94B618BF92CF92DF927C
:10325000EF92FF920F931F93CF93DF937C01FC01BA
:10326000C08181E1C89FC02D112411E11C0F012FE5
:10327000133508F002E56091EF047091F00480913D
:10328000F1040E942D17D62EC72EB82ED0E0C017FD
:1032900070F081E0123508F080E0DF91CF911F914E
:1032A0000F91FF90EF90DF90CF90BF900895FE01B7
:1032B000EE5FFD4F8081F7019181892331F02B2D45
:1032C0004D2D6C2DCE010E9457172196E0CFBF9255
:1032D000CF92DF92EF92FF920F931F93CF93DF93E2
:1032E0008C01FC01C08181E1C89FC02D112491E1B6
:1032F000F92EFC0EEF2CF2E5FF1510F482E5E82E16
:10330000D090EF04D091F004C090F1046091F204E9
:103310006695669566958091F4049091F5040E94F7
:10332000B9150E94F315805887FD8195880F282FC5
:103330003C2D239F212D1124822F6D2D7D2F0E9446
:103340002D17D62EC72EB82ED0E0CE1578F081E0FE
:1033500021E52F1508F480E0DF91CF911F910F91A7
:10336000FF90EF90DF90CF90BF900895FE01EE5F49
:10337000FD4F8081F8019181892331F02B2D4D2D56
:103380006C2DCE010E9457172196DFCFDF92EF926E
:10339000FF920F931F93CF93DF938C01FC01EE5F9D
:1033A000FD4F8081682381F1D090F004D091F10429
:1033B000C091EF04EC2EF12C0E946F2F282FC70133
:1033C0008C549F4F68E671E00E94022F8E199F096E
:1033D00097FD0396959587959595879523706C2F06
:1033E000289F600D11247D2D8D2F0E942D17462FB3
:1033F000282F672FC801DF91CF911F910F91FF9068
:10340000EF90DF900C945717DF91CF911F910F91A0
:10341000FF90EF90DF900895DF92EF92FF920F936D
:103420001F93CF93DF938C01FC01C281C11125C092
:103430006091F20420E1620F08F46FEF8091F404D0
:103440009091F5040E94B9156AE070E00E94EE2E9A
:10345000892B51F40E946F2F62E570E00E94022FC9
:10346000F80161810E94C6198C2FDF91CF911F91C5
:103470000F91FF90EF90DF900895C08181E1C89F88
:10348000C02D112481E1D82EDC0E8D2DF2E5FD1525
:1034900008F482E5D0E0E82EF12CCE15DF0534F0FB
:1034A000C1E0F1E5FD1500F7C0E0DECFF801618174
:1034B000CE010E94C6192196F0CFE091F902F09159
:1034C000FA0209940C946F10CF93C82F80915A027E
:1034D0008C1323C09091EE04937020915B0230E036
:1034E00081E09217130609F480E0817080935902FD
:1034F0008091F30490915802981739F08093580204
:1035000040E060E080E00E945D1ACE3088F4EC2F4D
:10351000F0E0EF59FF4C0C94162F81E0E6CF80913C
:103520005902882359F040E060E080E00E945D1A73
:1035300080E004C087E592E00E942519909157022F
:103540009F5F9093570281110CC082E080935602D6
:1035500080915902811105C0C11103C083E080939D
:103560005602CF91089587E592E00E946719E6CF51
:1035700087E592E00E94A618E1CF87E592E00E94DD
:10358000AA18DCCF87E592E00E94AE18D7CF87E576
:1035900092E00E94B218D2CF87E592E00E94DE1737
:1035A000CDCF87E592E00E944718C8CF87E592E02B
:1035B0000E944B18C3CF87E592E00E94E217BECF6E
:1035C00087E592E00E941D19B9CF87E592E00E943D
:1035D0002119B4CF87E592E00E940C1AAFCF08956D
:1035E00008950E94EF1A0C94F01A0895CF93DF9378
:1035F000FC01C08181E1C89FC02D1124DFEEDC0FEA
:10360000C33508F0C2E56C2F8D2F0E94F51A6C2F80
:103610008D2FDF91CF910C948F04CF930E941B27A5
:103620006093BF037093C0038093C1039093C20360
:103630002091C403C0E0211108C02091EE04C22FE4
:10364000C37019F0C22FC695C6952091560221303D
:10365000B1F0222331F02230F1F0233039F1CF9153
:103660000895109257026093F4047093F5048093C8
:10367000F6049093F70481E080935602F0CF8C2FEC
:103680000E94641ACC2359F30E94F11A87E592E054
:10369000CF910C94F61AC0935A028091EE04837075
:1036A00080935B020E94521783E0E6CF8091C303B0
:1036B00081110E9437171092C3036091F404709136
:1036C000F5048091F6049091F7040E94362760314A
:1036D00071058105910518F210925602C0CFE09154
:1036E000F502F091F60209950E94860F811104C03F
:1036F0000E942A100E943F170E942F178091EE040B
:103700008C7F11F40C943F170895CF93C82F882312
:1037100091F08091C40381110EC00E94641A10922E
:103720005A028091EE04837080935B020E945217CC
:1037300083E080935602C093C403CF910895EEEEC8
:10374000F4E0908121E092279083109256029091AC
:10375000C303892B8093C303089581E00C949F1BBE
:103760009091EE04937061F081110BC0946090937E
:10377000EE04109256028091C303862B8093C303FC
:1037800008958E3010F09463F2CF880F880F982B35
:10379000EECF61E00C94B01B682F9091EE049695EB
:1037A000969581E0890F8E3008F081E00C94B01B73
:1037B00081E00C94CC1B682F9091EE049695969521
:1037C0008FEF890F09F48DE00C94B01B81E00C940D
:1037D000DB1B9091EE04937059F08093EF0460939B
:1037E000F0044093F1048091C303822B8093C303C0
:1037F0000895AEEEB4E01196EC911197F0E0282F09
:1038000013964C91139712966C91CF0108960C94D5
:10381000E91B81E00C94F91BEEEEF4E09181282F76
:1038200043816281E92FE850FF0BCF010C94E91B23
:1038300081E00C940C1CEEEEF4E0628120E1620F5A
:1038400008F46FEF9181282F4381892F90E00C9429
:10385000E91B81E00C941B1CEEEEF4E0628120E198
:10386000621B08F460E09181282F4381892F90E04A
:103870000C94E91B81E00C942C1CEEEEF4E04381E7
:1038800020E1420F08F44FEF9181282F6281892FA8
:1038900090E00C94E91B81E00C943D1CEEEEF4E00A
:1038A000438120E1421B08F440E09181282F62818E
:1038B000892F90E00C94E91B81E00C944E1C8093BE
:1038C000F2048091C303862B8093C3030895209153
:1038D000F20430E1230F08F42FEF682F822F0C94AD
:1038E0005F1C81E00C94671C2091F20430E1231BE3
:1038F00008F420E0682F822F0C945F1C81E00C9468
:10390000741C60E080E50E94001E61E08FE50C946D
:10391000001ECF930E94992460E080E50E94E91C7C
:1039200060E08FE50E94E91CC0E021E041E061E039
:103930008C2F0E94821DCF5FC235B9F760E080E511
:103940000E94351E61E08FE5CF910C94351E609387
:1039500078064093790624E630E042E050E068E7DC
:1039600076E0880F0E94482521E0892B09F020E0AD
:10397000822F0895EF92FF921F93CF93DF937B01E5
:10398000182F110FD0E0C0E0C0937806D701AC0F1C
:10399000BD1FE9E7F6E08D91819386E0E938F807ED
:1039A000D1F724E630E041E150E068E776E0812F8E
:1039B0000E944825892B59F46096C03CD10521F717
:1039C00081E0DF91CF911F91FF90EF90089580E00B
:1039D000F8CF1F93CF93DF93C82FD62F45EC6EEF10
:1039E0000E94A71C40E06DEF8C2F0E94A71C10E0E6
:1039F00040E0612F8C2F0E94A71C1F5F1831C1F778
:103A000045EC6EEF8C2F0E94A71C41E06DEF8C2FD0
:103A10000E94A71C10E040E0612F8C2F0E94A71C81
:103A20001F5F103CC1F745EC6EEF8C2F0E94A71C66
:103A300043E06DEF8C2F0E94A71C4FEF61E08C2FAD
:103A40000E94A71C80E4D89FA0011124416060E07F
:103A50008C2F0E94A71C8FE39CE90197F1F700C00F
:103A60000000DF91CF911F910895CF93DF938235AE
:103A7000910558F5FC01EE0FFF1FEE0FFF1FEF0140
:103A8000C455DF4FCE010296FC01A4910196FC01C2
:103A90003491FE0185918370C491E82FF0E050ECE1
:103AA000859FC001112488509B4FC80FD92FD11D6D
:103AB0006883A80FB92FB11D4C93830F911DDC01B2
:103AC0002C93E950FC4F81E08083DF91CF910895E2
:103AD000FF920F931F93CF93DF93182F062FF42E8F
:103AE000D0E0C0E02F2D402F612FCE010E94351D68
:103AF0002196C235D105B1F7DF91CF911F910F917A
:103B0000FF900895FF920F931F93CF93DF9354E09C
:103B1000859FF0011124EF01C455DF4FCE010196BE
:103B2000FC01B4910196FC0174910196FC01349161
:103B3000F72EF694F694F694A32FA695A695A6953F
:103B400077703770FE01849183700B2F0695069570
:103B50000695E82FF0E058E1859FC00111248953B4
:103B60009C4F080F192F111DE8015881B77081E093
:103B700090E001C0880FBA95EAF76623C1F1852B62
:103B8000888358E15E9FC0015F9F900D1124895387
:103B90009C4FEC01CF0DD11D588181E090E001C018
:103BA000880F7A95EAF7442329F1852B888348E129
:103BB0004E9FC0014F9F900D112489539C4FA80F19
:103BC000B92FB11D4C9181E090E001C0880F3A956A
:103BD000EAF7222391F0842B8C93EB53FC4F81E086
:103BE0008083DF91CF911F910F91FF900895809571
:103BF0008523C6CF80958523D9CF80958423ECCFAC
:103C0000EF92FF920F931F93CF93DF93D82FC62F7E
:103C1000062F10E0C80189509C4F7C01FC01808177
:103C20008823D1F045EC6EEF8D2F0E94A71C41E058
:103C30006DEF8D2F0E94A71CF0ECCF9FB0011124D7
:103C400068507B4F8D2F0E94BA1C811105C0F8016E
:103C5000EB53FC4F81E08083F7011082DF91CF911D
:103C60001F910F91FF90EF900895EF92FF920F93A5
:103C70001F93CF93DF93E82EC62F062F10E00B5330
:103C80001C4FF80180818823D1F045EC6EEF8E2D1A
:103C90000E94A71C40E06DEF8E2D0E94A71CF8E14A
:103CA000CF9FE0011124C953DC4FF12C49916F2DB6
:103CB0008E2D0E94A71CF39488E1F812F7CFF8012B
:103CC0001082DF91CF911F910F91FF90EF90089597
:103CD000FA01811101C0FB0109940F931F93CF9347
:103CE0008C01FB01C281CC2309F48FC00E94C30E5A
:103CF00082720A3CFCE51F0709F472C060F5053CBE
:103D0000ECE51E0709F458C080F4033C9CE5190754
:103D100009F448C008F04BC0023C1C4509F43FC000
:103D20008C2FCF911F910F910895073C9CE51907A7
:103D300009F44CC008F445C0083CFCE51F0709F431
:103D40004AC04CE55CE16BE47CE1093C1C4541F771
:103D50000E94681E1EC00F3CECE51E0709F453C00C
:103D600080F40C3C9CE5190709F444C0F0F10D3CCB
:103D7000FCE51F0709F443C00E3C1C4589F682E0B0
:103D80003FC0063D9CE5190730F489E0013D1C4524
:103D9000B8F1C0E0C5CF0D351D45D9F3C1CF0E94A4
:103DA000AD1BF7CF46EE5BE168ED7BE1D1CF48ED8F
:103DB0005BE166EE7BE1CCCF48E15CE169E07CE170
:103DC000C7CF49E05CE168E17CE1C2CF4AE35CE156
:103DD00069E27CE1BDCF49E25CE16AE37CE1B8CF16
:103DE0004BE45CE16CE57CE1B3CF4EE75CE161E77D
:103DF0007CE1AECF41E75CE16EE77CE1A9CF81E0F9
:103E00000E94C91BC6CF84E0FBCFC1E089CF0C94D0
:103E1000EC0427982F9A6E98769A83B190E0880FD9
:103E2000892F881F990B669905C020E0822B80930B
:103E3000FB03089522E0FACFE091FB03EE0FEE0FB3
:103E4000E093FB0383B190E0880F892F881F990BC3
:103E50004CB146FB222720F946FF02C022E030E0A9
:103E6000822BE82BE093FB03EF70F0E0E350FD4F73
:103E700080819091FA03890F8093FA0320E08430C7
:103E800054F08091F9038F5F8093F90361E080E043
:103E90000E94071F21E08091FA038D3F54F4809126
:103EA000F90381508093F90360E080E00E94071FCE
:103EB00021E08091FA03082E000C990B64E070E079
:103EC0000E94022F8093FA03822F089583E290E0EC
:103ED0000E949C2F813289F484E290E00E949C2F02
:103EE000803159F485E290E00E949C2F91E083326A
:103EF00009F090E0892F8170089580E0FCCFCF9386
:103F0000C82F6FEF811161E283E290E00E94BA2F27
:103F10006FEFC11160E184E290E00E94BA2F6FEF71
:103F2000C11163E285E290E0CF910C94BA2F08951D
:103F300086E290E00E949C2F682F70E090E080E085
:103F4000089586E290E00C94BA2F80E00E947F1FD3
:103F500060E070E0CB010E94A11F0E94ED200E9452
:103F6000D92181E00C947F1F0E94971F0E94661F39
:103F7000811102C00C94A51F0895CF93FB01C2814B
:103F8000CC2309F19C0122513F452031310520F518
:103F900082510E94E921C0E08C2FCF91089581E0E9
:103FA0000E94660A43E062E081E00E946105F3CF6F
:103FB00081E00E94710A43E062E081E00E946105B5
:103FC000EBCF82E0F6CF8031FFE59F0789F38131A7
:103FD0009F45B9F3C1E0E0CF8031EFE59E07F9F2EC
:103FE00081319F45C9F682E0DBCF2FEFFC012083B2
:103FF0000895EF92FF920F931F93CF93DF93EC01FD
:10400000062FE881E150E33108F05EC0F0E0E159AD
:10401000FF4C0C94162F198289E08A83602FCE0101
:10402000DF91CF911F910F91FF90EF900C94152885
:104030008981823069F0833071F08130D9F40E9437
:104040001B270E941C2F6A837B838C839D83E6CF72
:104050000E94981FF6CF7E0110E0812F0E948613E8
:10406000F701928383831F5FF2E0EF0EF11C16309D
:10407000A1F7D4CF602FCE010E94F51FCFCF898149
:104080008230C1F76A817B818C819D810E941C2FC7
:104090000E94A11FC3CF4B816A8189810E94BF20EA
:1040A0009827892798279D838C83B8CF2C813D81C1
:1040B0003227232732274B816A8189810E94D820A9
:1040C000ADCF0E94ED20AACF8FEF8883A7CF0E94AB
:1040D00082218983A3CF0E9484219827892798274A
:1040E0009A8389839BCF6B8170E089819A81AE012D
:1040F0004C5F5F4F9827892798270E9487218ECF92
:104100006B8170E089819A81AE014C5F5F4F982787
:10411000892798270E94AE2181CF0E94D9217ECF86
:104120000E94AD20D6CF6B8170E089819A81AE016B
:104130004C5F5F4F9827892798270E9425216ECFD3
:104140006B8170E089819A81AE014C5F5F4F982747
:10415000892798270E944B2161CF84E0089550E081
:10416000440F551F9EE1699F400D511D112494EB92
:10417000899F400D511D1124CA01879608950F9300
:104180001F93CF93DF930E94AF208C010E949C2F3E
:10419000C82FD0E0DC2FCC27C80101960E949C2FAD
:1041A0009E01282BC901DF91CF911F910F91089596
:1041B0000F931F93CF93DF93122F032F0E94AF20F3
:1041C000EC01602F0E94BA2F612FCE010196DF9182
:1041D000CF911F910F910C94BA2FAF92BF92CF92B3
:1041E000DF92EF92FF921F93CF93DF9384EFC82E5D
:1041F00081E0D82ED0E07601C0E014C0F501259111
:104200003491412F6C2F8D2F0E94D82082E0A80E70
:10421000B11C1F5F1F3091F78EE1E80EF11CCF5FDC
:10422000C63019F0570110E0E9CFDF5F84EBC80E0C
:10423000D11CD43001F7DF91CF911F91FF90EF9007
:10424000DF90CF90BF90AF900895EF92FF920F93C1
:104250001F93CF93DF93EC018A017C01E60EF71EDA
:10426000CE018796CE15DF0539F4DF91CF911F91EE
:104270000F91FF90EF900895C03D22E0D20740F4E7
:104280000E949C2FF80180830F5F1F4F2196E8CF7B
:10429000F8011082F9CFCF92DF92EF92FF920F9345
:1042A0001F93CF93DF937C016A018C01060F171FC8
:1042B000EC01CE018796C017D10749F4DF91CF9169
:1042C0001F910F91FF90EF90DF90CF900895C03D28
:1042D00022E0D20740F4FE01EE19FF09EC0DFD1DAE
:1042E00060810E94BA2F2196E4CF462F843038F4A3
:1042F000763028F46F3018F4672F0C94BF2090E0CC
:1043000080E0089580E1089589E091E00895EF92BA
:10431000FF920F931F93CF93DF93EC018A017C01EF
:10432000E60EF71ECE0189509D4FCE15DF0539F4FC
:10433000DF91CF911F910F91FF90EF900895C930B9
:1043400021E0D20740F40E949C2FF80180830F5F88
:104350001F4F2196E7CFF8011082F9CFCF92DF925D
:10436000EF92FF920F931F93CF93DF937C016A012B
:104370008C01060F171FEC01CE0189509D4FC0170D
:10438000D10749F4DF91CF911F910F91FF90EF90EA
:10439000DF90CF900895C93021E0D20740F4FE01AC
:1043A000EE19FF09EC0DFD1D60810E94BA2F2196C8
:1043B000E3CFCF93DF93C7EFD2E060E0CE010E945E
:1043C000BA2F2196C11584E0D807B9F7DF91CF91B4
:1043D0000895DF92EF92FF920F931F93CF93DF9395
:1043E00000D000D0CDB7DEB7F82E8FE08F1540F0AB
:1043F0008FEF93E00E949C2F07EF12E08823C1F01B
:104400000F900F900F900F90DF91CF911F910F9110
:10441000FF90EF90DF900895011584E0180781F375
:10442000C8010E949C2F811101C0FA940F5F1F4F99
:10443000F110F2CF19821A821B821C82DD24D394E0
:1044400078018FEFE81AF80AC8010E949C2F89832F
:104450001A828823A9F29FEF980F933078F48A8309
:10446000D9820E5F1F4FC7010E949C2F8B83882328
:1044700039F2CE0101960E94B406E2CF8701F9CF4E
:1044800081E0089581E008950C9442221092FF0388
:104490001092FE030895CF92DF92EF92FF92CF9396
:1044A000C82F8091FE039091FF03843F21E0920783
:1044B00068F401969093FF038093FE030A9721F11D
:1044C000CF91FF90EF90DF90CF90089540E061E0B2
:1044D00080E00E949F138093FD03C82ED12CF12C05
:1044E000E12C9091FC03891302C0CC2349F3682F7F
:1044F00080E00E94B704C701B6010E944422809167
:10450000FD038093FC03DCCF41E0C1E0E0CF0F93DB
:104510001F93CF93DF93C42FD22FFC018281882376
:10452000C9F0409302040E940F27909301048093E6
:10453000000480E28C0F883008F050C0C77081E022
:1045400001C0880FCA95EAF7DF91CF911F910F91B3
:104550000C94A80710910204141335C08091000434
:10456000909101040E942727883C910560F5C0E2E4
:10457000CD0F1D17B9F080E2810F883040F417701D
:1045800081E001C0880F1A95EAF70E94AF07C83092
:1045900048F481E09D2F977001C0880F9A95EAF743
:1045A0000E94A807802F0E94A007C830B8F4D770D7
:1045B00081E001C0880FDA95EAF7DF91CF911F9172
:1045C0000F910C94AF0780E28C0F883038F4C770DD
:1045D00081E001C0880FCA95EAF7EFCFDF91CF9154
:1045E0001F910F9108950F939C01CB01233F4CE540
:1045F000340759F1A8F4283DFCE53F0701F1293DB6
:104600004CE53407D1F1273D3C4591F406E221EE1B
:1046100041EE67ED7CE50E94872280E00F910895CE
:10462000253FFCE53F07E9F0B0F0263F3C45F9F0B7
:10463000FC018281882339F110920204EFCF07E256
:1046400025EE45EE68ED7CE5E6CF06E221EE40EE94
:1046500063EF7CE5E0CF07E225EE44EE64EF7CE516
:10466000DACF06E221EE42EE65EF7CE5D4CF07E239
:1046700025EE46EE66EF7CE5CECF08E221E045EE82
:1046800069ED7CE5C8CF81E0C9CFCF93DF93EC0122
:10469000FB018281882309F420C1C330FDE5DF07D7
:1046A000C8F5CA3F9CE5D90730F49E0122503C452D
:1046B0002431310598F50E94990F9093D504809389
:1046C000D404C031FCE5DF0709F4E0C008F061C0A4
:1046D000C8309CE5D90709F4CBC088F5C430FCE5A7
:1046E000DF0709F4B3C0E8F4C2309CE5D90709F448
:1046F000A7C08091D4048260C330DC4509F4A3C014
:104700008091D4049091D5040E94A70F0E94ED09D6
:1047100080E004C0C136EDE5DE0769F2DF91CF919C
:1047200008958091D4048061C630FCE5DF0709F468
:104730008AC008F48FC08091D404806284C08091C4
:10474000D4048D7FCC309CE5D90709F47CC070F48B
:104750008091D4048C60CA30FCE5DF0709F473C093
:1047600008F48AC08091D4048E7F6DC08091D404F7
:10477000877FCE309CE5D90709F465C08091D404C9
:104780008B7FCF30DC4508F45EC08091D4048F7EEF
:104790005AC0CC3FFCE5DF0709F474C040F5C431D2
:1047A0009CE5D90709F48AC058F4C231FCE5DF075B
:1047B00009F474C008F46EC08091D404837F43C0B0
:1047C000CA3F9CE5D90709F449C008F04DC0C5317E
:1047D000DC4509F095CF8091D40482FB992790F9AC
:1047E00021E0922790FB82F990FB83F92CC0C11540
:1047F0008DE5D80709F458C088F48091D50483600A
:10480000CE3FECE5DE0769F18091D5048D7FCF3F87
:10481000DC4538F18091D5048C7F23C0C2308DE512
:10482000D80709F458C008F452C0C136DD4509F074
:1048300067CF9091D404892F8F7E94FF806103C04D
:104840008091D40481608093D4045ACF8091D404A1
:104850008460F9CF8091D4048860F5CF8091D5042D
:1048600081608093D5044CCF8091D5048260F9CFCC
:104870008091D4048064E7CF0E94ED098091D40434
:104880008068E1CF8091D5048E7FEBCF8091D404F6
:104890008F7DD9CF8091D4048F7BD5CF0E94ED0935
:1048A0008091D4048F77CFCF8091D504982F9095A5
:1048B00091708E7F892B90FB81F9D3CF0E94ED09F7
:1048C0009091D404892F97FB87F98058BCCF81E061
:1048D0000E942C1015CF80E0FBCF81E01FCFCF933B
:1048E000DF93EB0186319C4511F50E94C30E9A813E
:1048F000992399F08A7A91E009F490E09093030467
:10490000811109C089E20E947D0E0E94130F80E090
:10491000DF91CF91089585E3F6CF80910304811153
:1049200004C089E20E94840EF0CF85E3FBCF81E0D2
:10493000EFCF1092B9008CE08093B80008959F9259
:10494000AF92BF92CF92DF92EF92FF920F931F939D
:10495000CF93DF93B82EEB010E940F276C01EE245A
:10496000E394F12CC431D10560F025E0E22EF12C66
:10497000CF3FDC0731F0CE0164E170E00E94EE2E03
:104980007B0184EAA82E94E8992E1092BC00A09294
:10499000BC000E940F278C018091BC0087FF0DC0D6
:1049A0008091B900887F883039F18091B900887F83
:1049B000803111F10FEF1FEF09C00E940F27801BFC
:1049C000910B8E159F0540F30EEF1FEFCF3FDC07D5
:1049D000E1F2C6010E9427278C179D07B0F2C8019B
:1049E000DF91CF911F910F91FF90EF90DF90CF90CB
:1049F000BF90AF909F900895B092BB009092BC0082
:104A00000E940F278C018091BC0087FF0AC0809113
:104A1000B900887F883111F0803461F610E000E041
:104A2000DECF0E940F27801B910B8E159F0558F338
:104A3000CBCF0F931F93CF93DF93EB018093BB00FA
:104A400084E88093BC000E940F278C018091BC00F9
:104A500087FF11C02091B900287F81E090E02832C3
:104A600011F490E080E0919581959109DF91CF91CB
:104A70001F910F910895CF3FDC0741F30E940F274C
:104A8000801B910B8C179D0708F38EEF9FEFEECFE5
:104A9000CF92DF92EF92FF920F931F93CF93DF930A
:104AA0006B018A017901B9010E949F24E6010C0D76
:104AB0001D1DC017D10761F424E92093BC00DF91CC
:104AC000CF911F910F91FF90EF90DF90CF900895BD
:104AD00097FDF2CFB70189910E941925EACF9093F3
:104AE0000904809308040895E0910804F0910904F2
:104AF000309721F00190F081E02D099480E0089535
:104B00000E9474250895E0910804F09109043097FB
:104B100099F020916602222359F02091D40427FFB6
:104B200007C0DC012C9111962C93119725E02C9352
:104B30000280F381E02D09940895209106043091BC
:104B400007042817390771F090930704809306042F
:104B5000E0910804F0910904309721F00680F78174
:104B6000E02D09940895209104043091050428173C
:104B7000390771F09093050480930404E0910804D0
:104B8000F0910904309721F00084F185E02D09941B
:104B90000895FC01329680916602882321F080916D
:104BA000D4049EE187FF96E080E0915008F40895D8
:104BB00021912223D1F38F5FF8CF662301F1209159
:104BC00066022223F1F02091D40427FF1AC0462F59
:104BD0004695469546954E3190F4677021E030E059
:104BE00002C0220F331F6A95E2F7840F911DFC016A
:104BF000828190E02823392381E0232B69F480E02F
:104C00000895FC01329608962191261721F0E817A5
:104C1000F907D1F7F4CF81E008959C01FC013296A9
:104C20009FEF80E04191461751F09F3F19F44111E9
:104C300001C0982F8F5F8630A9F79F3F09F4089530
:104C4000290F311D97FD3A95F90162830895FC0102
:104C5000329608962191261303C0DF0111971C920A
:104C6000E817F907B9F70895E62FE695E695E69572
:104C7000EE3168F4E80FF92FF11D677021E030E0A4
:104C800001C0220F6A95EAF78281822B8283089500
:104C9000E62FE695E695E695EE3170F4E80FF92FEC
:104CA000F11D677021E030E001C0220F6A95EAF73C
:104CB0002095828128232283089520916602222351
:104CC00029F02091D40427FD0C9434260C940D2651
:104CD00020916602222329F02091D40427FD0C9410
:104CE00048260C942726FC01329680916602882380
:104CF00051F08091D40487FF06C08EE1DF011D9240
:104D00008A95E9F7089586E0F9CF08950895089502
:104D10000C94872680919406843061F10E94882645
:104D200080E00E94D00681E00E94851B10920A0458
:104D300088E190E020E40FB6F894A8958093600095
:104D40000FBE2093600083B7817F846083BF83B7E9
:104D5000816083BF7894889583B78E7F83BF0FB6B9
:104D6000F894A8958091600088618093600010920B
:104D700060000FBE08950895CF930E9486260E947A
:104D800091140E94BB26C0E08C2F0E948613892BB1
:104D900031F4CF5FC630C1F780E0CF91089581E054
:104DA000FCCF08950C94D1260E94ED090E94742531
:104DB0000E94D00680E00E94851B0C94D2261F9290
:104DC0001FB61F9211248F939F93AF93BF9380912F
:104DD0000A04811113C080918C0690918D06A091D8
:104DE0008E06B0918F064196A11DB11D80938C0651
:104DF00090938D06A0938E06B0938F06BF91AF91CE
:104E00009F918F911F901FBE1F90189582E084BDC7
:104E100093E095BD9AEF97BD80936E0008952FB7EC
:104E2000F89480918C0690918D06A0918E06B09199
:104E30008F062FBF08952FB7F89460918C0670915C
:104E40008D0680918E0690918F062FBF08959C014C
:104E50004FB7F89480918C0690918D06A0918E06A4
:104E6000B0918F064FBF821B930B0895CF92DF92B4
:104E7000EF92FF922FB7F894C0908C06D0908D06D9
:104E8000E0908E06F0908F062FBFA7019601261B9B
:104E9000370B480B590BCA01B901FF90EF90DF9017
:104EA000CF90089578941F921FB61F9211248F936C
:104EB0009F93AF93BF9380918C0690918D06A091A4
:104EC0008E06B0918F060196A11DB11D80938C06B0
:104ED00090938D06A0938E06B0938F06BF91AF91ED
:104EE0009F918F911F901FBE1F90189581E0809316
:104EF000E00080E28093D8001092C9008FE19EE428
:104F00000197F1F700C0000087E090EBDC0180938F
:104F10009D0690939E06A0939F06B093A00688E1FD
:104F20009CE00FB6F894A895809360000FBE909314
:104F30006000FFCF90931D0380931C030895809120
:104F40002E04089590919406943029F580930B04D3
:104F500070930D0460930C049093E9008FEF90918F
:104F6000E800815095FD06C095ED9A95F1F7000097
:104F70008111F5CF8091E80085FF0DC050E040E041
:104F800063E070E08BE094E00E940E2A8091E800DC
:104F90008E778093E8000895BC0184E00C94A227EA
:104FA000BC0183E00C94A227CF93DF93EC018091A6
:104FB00066028823B1F18091D40487FF32C060E299
:104FC00084E08093E9008FEF9091E800815095FD97
:104FD00006C095ED9A95F1F700008111F5CF80910B
:104FE000E80085FF1BC08091660270E050E040E061
:104FF000811104C050E040E068E070E0CE010E9402
:105000000E2A8091E8008E778093E80080E2FE010E
:10501000AEE0B4E001900D928A95E1F7DF91CF9177
:10502000089568E081E0CDCF0895CF93FC01603210
:1050300021F580919406843001F5C091E900CF708C
:105040002091EC00922F917020FD90E8C92B82E016
:105050008093E9008091E80080FF0CC050E040E0C0
:1050600060E270E0CF010E940E2A8091E8008E7706
:105070008093E800CF70C093E900CF9108958091AC
:105080009306811109C00E94ED2B0E944A2C809149
:10509000E20084608093E2000895109293060895E0
:1050A00008950895089542E061EC81E00E94692B23
:1050B00042E261EC84E00E94692B42E261EC82E012
:1050C0000E94692B42E260EC83E00C94692B809192
:1050D0009606833009F461C030F48130D1F182301A
:1050E00009F49DC008958A3009F489C08B3009F411
:1050F0006FC0893009F050C080919506813209F067
:105100004BC08091990690919A06009719F00297EA
:1051100009F042C08091E800877F8093E800809189
:10512000E80082FF35C09091F3008091F200029771
:1051300029F48091F1008B7F813021F48091F1007E
:1051400080932E048091E8008B778093E8000C9484
:105150009D2B80919506813AF9F48091E800877F34
:105160008093E8008091990690919A06892B61F4CA
:1051700060E28EE094E070E00E94AC2A8091E8004A
:105180008B778093E800089560E090E080E0F3CFB3
:10519000809194068111C3CF089580919506813A3C
:1051A000D9F78091990690919A06892BA9F7809159
:1051B000E800877F8093E8008091E80080FFFCCFC3
:1051C000809166028093F1008091E8008E77BDCFD8
:1051D00080919506813201F78091990690919A0607
:1051E000892BD1F68091E800877F8093E8000E94A8
:1051F0009D2B80919706809366020C94ED09809117
:105200009506813249F68091E800877F8093E80017
:105210000E949D2B8091980680932F040895809181
:105220009506813A09F0B8CF8091E800877F809396
:10523000E8008091E80080FFFCCF80912F04C2CF6E
:1052400084B7877F84BF0FB6F894A89580916000DB
:10525000886180936000109260000FBE80E890E04B
:105260000FB6F89480936100909361000FBE0C9488
:1052700065100E94ED2B0E944A2CE2EEF0E0808146
:105280008460808378940E94D32E0E9479108CE5EC
:1052900092E00C946F25CF93DF93CDB7DEB7A09744
:1052A0000FB6F894DEBF0FBECDBF80919406853057
:1052B00031F480919406853091F10E94D4260E94A9
:1052C000901080919406843009F583E08093E90082
:1052D0008091E80082FF1AC08091E80090E085FF8D
:1052E00009C050E040E060E270E0CE0101960E940B
:1052F0005D2A91E08091E8008B778093E800992304
:1053000029F060E2CE0101960E94F91FA0960FB627
:10531000F894DEBF0FBECDBFDF91CF9108950E94FC
:105320008A2680919206882321F20E94BC26882337
:1053300009F4BFCF0E94F8290E94ED09BACF0C945E
:10534000A129292F33272330310521F168F4213099
:10535000310509F443C02230310509F444C090E01E
:1053600080E030E020E026C02132310551F12232C8
:105370003105A9F76330710590F7FB01EE0FFF1FB0
:10538000E05FFC4F20813181635F7C4FFB018081B6
:1053900090E010C099278130910581F0009729F0A5
:1053A0000297E9F6E4E7F6E002C0E2EAF6E084916B
:1053B00090E09F01FA01318320830895EEE8F6E042
:1053C000F6CF6330710558F6660F771FFB01EA5E72
:1053D000FC4F2081318189E090E0ECCF82E190E0C8
:1053E00021E037E0E7CF8BE590E026EA36E0E2CF38
:1053F00080E189BD82E189BD09B400FEFDCF8091C5
:10540000D8008F7D8093D8008091E00082608093E7
:10541000E0008091E00081FDFCCF0895AF92BF9243
:10542000CF92DF92FF920F931F93CF93DF936C0184
:10543000EB018A010E94BC2BF82E811123C00115BB
:10544000110539F0F80180819181C81BD90BC80E74
:10545000D91EB12CA12C2097A9F08091E80085FDE0
:1054600022C08091E8008E778093E8000115110535
:10547000A1F0F80180819181A80EB91EB182A082AD
:1054800085E0F82E8F2DDF91CF911F910F91FF9026
:10549000DF90CF90BF90AF9008950E94BC2B8823DF
:1054A000D1F2F82EEFCFF60181916F018093F100D8
:1054B0002197FFEFAF1ABF0ACECFAF92BF92CF9224
:1054C000DF92FF920F931F93CF93DF936C01EB0159
:1054D0008A010E94BC2BF82E811123C001151105F1
:1054E00039F0F80180819181C81BD90BC80ED91EF3
:1054F000B12CA12C2097A9F08091E80085FD22C055
:105500008091E8008B778093E80001151105A1F0E8
:10551000F80180819181A80EB91EB182A08285E038
:10552000F82E8F2DDF91CF911F910F91FF90DF907B
:10553000CF90BF90AF9008950E94BC2B8823D1F2EA
:10554000F82EEFCF8091F100F60181936F01219742
:10555000FFEFAF1ABF0ACECFFC0180919B0690915E
:105560009C0686179707A0F06115710529F49091A4
:10557000E8009E779093E80090E06115710551F482
:10558000911108C08091E80082FF34C080E0089546
:10559000BC01F2CF809194068823C1F18530C1F11E
:1055A0008091E80083FD30C08091E80082FDEACF61
:1055B0008091E80080FFE1CF8091F3002091F2001C
:1055C000382F6115710519F02830310558F091E038
:1055D0002830310509F090E02091E8002E772093E3
:1055E000E800CBCF81918093F100615071092F5F6A
:1055F0003F4FE7CF80919406882341F0853041F0FA
:105600008091E80083FFBECF81E0089582E0089595
:1056100083E00895FC0180919B0690919C0686177B
:105620009707A0F06115710529F48091E8008E7745
:105630008093E80090E06115710551F4911108C064
:105640008091E80082FF35C080E00895BC01F2CF70
:10565000809194068823C9F18530C9F18091E800D2
:1056600083FD31C08091E80082FDEACF8091E8009F
:1056700080FFE1CF8091F3002091F200382F611577
:10568000710519F02830310558F091E028303105C6
:1056900009F090E08091E8008E778093E800CBCF0E
:1056A00084918093F1003196615071092F5F3F4FD3
:1056B000E6CF80919406882341F0853041F08091B7
:1056C000E80083FFBDCF81E0089582E0089583E084
:1056D0000895982F973028F08F708093E90081E02B
:1056E00008959093E900242F762F50E0981731F019
:1056F0007091EC002091ED005091F00021FD02C06E
:105700009F5FE8CF3091EB003E7F3093EB0030910C
:10571000ED003D7F3093ED003091EB003160309330
:10572000EB007093EC002093ED005093F00020917B
:10573000EE0027FDE5CF80E008958091950687FF74
:1057400013C08091E80082FF06C08091E8008B774B
:105750008093E80004C0809194068111F2CF0895EF
:10576000809194068823D9F38091E80080FFF8CFD8
:105770008091E8008E77ECCF2091E4003091E50035
:1057800095E6A9012091EC00822F817020FF06C0D0
:105790008091E80080FF06C080E008952091E80035
:1057A00022FD1AC080919406882389F0853089F003
:1057B0008091EB0085FD0FC02091E4003091E50061
:1057C00042175307F9F29150E1F684E0089582E020
:1057D000089583E0089581E008950E945B2C0E9463
:1057E000632CE0EEF0E0808181608083E8EDF0E002
:1057F00080818F77808319BCA7EDB0E08C918E7F7C
:105800008C9380818F7E80831092930608950F93EE
:105810001F93CF93DF930E945B2C0E94632CC8EDF3
:10582000D0E088818F7788838881806888838881A9
:105830008F7D888319BC1092940610929006109266
:1058400092061092910600EE10E0F80180818B7FA5
:10585000808388818160888342E060E080E00E94EC
:10586000692BE1EEF0E080818E7F8083E2EEF0E054
:10587000808181608083808188608083F80180815D
:105880008E7F8083888180618883DF91CF911F9193
:105890000F910895E8EDF0E080818F7E8083E7ED41
:1058A000F0E080818160808384E082BF81E080932A
:1058B00093060C94072CE8EDF0E080818E7F8083C6
:1058C0001092E20008951092DA001092E10008951B
:1058D0001F920F920FB60F9211242F933F934F9365
:1058E0005F936F937F938F939F93AF93BF93EF9348
:1058F000FF938091E10082FF0BC08091E20082FF64
:1059000007C08091E1008B7F8093E1000E94D22E3E
:105910008091DA0080FF19C08091D80080FF15C007
:105920008091DA008E7F8093DA008091D90080FF29
:1059300096C080E189BD82E189BD09B400FEFDCF3A
:1059400081E0809394060E943F288091E10080FFCF
:1059500019C08091E20080FF15C08091E2008E7F27
:105960008093E2008091E20080618093E200809168
:10597000D80080628093D80019BC85E0809394069B
:105980000E9451288091E10084FF2BC08091E200A9
:1059900084FF27C080E189BD82E189BD89B5982F48
:1059A000917080FFFBCF8091D8008F7D8093D800CD
:1059B0008091E1008F7E8093E1008091E2008F7EF4
:1059C0008093E2008091E20081608093E200809108
:1059D0009006882309F449C084E0809394060E94CD
:1059E00052288091E10083FF29C08091E20083FF6B
:1059F00025C08091E100877F8093E10082E0809361
:105A00009406109290068091E1008E7F8093E100D1
:105A10008091E2008E7F8093E2008091E2008061BD
:105A20008093E20042E060E080E00E94692B809178
:105A3000F00088608093F0000E945028FF91EF9161
:105A4000BF91AF919F918F917F916F915F914F9196
:105A50003F912F910F900FBE0F901F90189519BC7A
:105A6000109294060E944D2870CF8091E30087FD2C
:105A700093E090939406B3CF1F920F920FB60F92BC
:105A800011242F933F934F935F936F937F938F9343
:105A90009F93AF93BF93CF93DF93EF93FF93D091F7
:105AA000E900DF708091EC00C82FC17080FDC0E874
:105AB0001092E9008091F000877F8093F000789445
:105AC0000E94802D1092E9008091F0008860809300
:105AD000F000CD2BCF70C093E900FF91EF91DF91E3
